:020000040800F2
:10000000606D0020953000089D2800089F2800089A
:10001000A1280008A3280008A52800080000000067
:10002000000000000000000000000000A7280008F9
:10003000A928000800000000AB280008AD2800082F
:10004000AF300008AF300008AF300008AF30000814
:10005000AF300008AF300008AF300008AF30000804
:10006000AF300008AF300008AF300008AF300008F4
:10007000AF300008AF300008AF300008AF300008E4
:10008000AF300008AF300008AF300008AF300008D4
:10009000172A0008AF300008AF300008AF30000862
:1000A000AF300008AF300008AF300008AF300008B4
:1000B000F1280008B1280008AF300008AF30000870
:1000C000AF300008AF300008AF300008AF30000894
:1000D000AF30000815290008AF300008EF290008EC
:1000E000AF300008AF300008AF300008AF30000874
:1000F000AF300008AF300008AF300008AF30000864
:10010000AF300008AF300008AF300008AF30000853
:10011000AF300008AF300008AF300008AF30000843
:10012000AF3000083F2A0008AF300008AF300008A9
:10013000AF300008AF300008AF300008AF30000823
:10014000AF300008AF300008AF300008AF30000813
:10015000AF300008AF300008AF300008AF30000803
:10016000AF300008AF300008AF300008AF300008F3
:10017000AF300008AF30000857290008AF30000842
:10018000AF300008AF30000800F002F800F044F88B
:100190000AA090E8000C82448344AAF10107DA45E2
:1001A00001D100F039F8AFF2090EBAE80F0013F0F0
:1001B000010F18BFFB1A43F00103184750620000FB
:1001C00070620000103A24BF78C878C1FAD852078C
:1001D00024BF30C830C144BF04680C6070470000C1
:1001E0000023002400250026103A28BF78C1FBD840
:1001F000520728BF30C148BF0B607047642905F023
:100200001B84632905F01D85002070471FB505F08C
:10021000A7FD1FBD10B510BD05F068FD1146FFF725
:10022000F5FF00F011F805F086FD03B4FFF7F2FFCB
:1002300003BC02F095FA000001B5614800994160E5
:1002400041680029FCD108BD5E484FF47A71012451
:10025000006888B0B0FBF1F0B0F1807F4AD220F0A6
:100260007F414FF0E020491E4161574AF02182F85A
:10027000141D002585610721016103A803F054FFC7
:100280000121084603F0B4FF02268DF809608DF8BD
:1002900008404E4F8DF80A5001968DF80B5001A979
:1002A000384603F039FC0221384603F0B1FC4FF424
:1002B000A06002F00FFF02F08BF900F06AFC4FF42F
:1002C000784001F0B0FF012342F2CF0242F20F71F9
:1002D0009807009402F0FFFB0123532240F2E7311C
:1002E0003B48009402F0F7FB00F0C2F9394C10B122
:1002F00039A101E0FEE73DA1204602F06EFA46F288
:100300006801112005F024FD0021084601F06DFF71
:1003100002F0D2F801213A4803F091F8012002F0EE
:1003200087FF012002F08FFF4FF4FA70FFF784FF80
:1003300034A1204602F051FA6420FFF77DFF2048E7
:100340000680354C458000BF02F0A4FDA4F814548B
:1003500094F80004012801D102F0F9FDB4F8140466
:10036000A4F81604F0E7164841884A1C428041F27E
:100370008832914201D9002141804168002902D090
:100380004168491E416070471CB50121082003F0F7
:100390002FFF8020009001208DF8040000208DF8B0
:1003A000060003218DF805101C4C8DF807006946E6
:1003B000204603F0B1FB8021204603F029FC1CBD40
:1003C00000000020380000200FE000E000000240A4
:1003D000000400400048004043616D65726120499F
:1003E0006E6974206661696C7321210043616D65DB
:1003F000726120496E6974204F6B21210D0A000043
:100400002864024043616D657261204145435F4647
:10041000756E2E2E2E0A00004C600020000C02404B
:100420002DE9F04397B00121172003F0E1FE0121EF
:10043000084603F0E7FEDE4C0D220421204603F0BF
:10044000F4FB0D220621204603F0EFFBDFF8648366
:100450000D220721404603F0E8FBDFF85C930D22F4
:100460000621484603F0E1FB0D220A21204603F055
:10047000DCFB0D220821484603F0D7FB0D220921A1
:10048000484603F0D2FBCD4F0D220421384603F03D
:10049000CCFB0D220621404603F0C7FB0D220521AF
:1004A000384603F0C2FB0D220621384603F0BDFB9F
:1004B0004FF482600F9002208DF8400003268DF8E3
:1004C000416001258DF842508DF843500FA9204618
:1004D00003F022FBC0200F900FA9404603F01CFB45
:1004E0004FF450700F900FA9484603F015FB702091
:1004F0000F900FA9384603F00FFB40200F900FA973
:10050000204603F009FB00242020ADF84C00802099
:10051000ADF84840ADF84E00ADF85040ADF84A4057
:10052000ADF85240ADF8544012A802F036FE012159
:10053000082002F096FE0121102002F092FE012117
:10054000084602F08EFE0121042002F08AFE4E20B1
:100550008DF844008DF845408DF846408DF84750A1
:1005600011A802F0BCFD39208DF844008DF84540FB
:100570008DF846508DF8475011A802F0B0FD0121CA
:10058000880503F035FE8E4D284602F097FE4FF0A9
:10059000007000908B4801908B48CDE902044FF425
:1005A000C850CDE90404281506908000079040004B
:1005B00008904011099030040A900420CDE90C64A1
:1005C0000B90694628460E9402F000FF012210218C
:1005D000284602F0A9FF17B0BDE8F0831CB5012042
:1005E00003F066FD0121084603F002FE704C002274
:1005F0000821204603F019FBA015009003208DF878
:10060000050002208DF8040000208DF8060001206E
:100610008DF807006946204603F07EFA4FF0A0618E
:100620004FF4C00003F047FD1CBD1CB50121084676
:1006300003F0DEFD0420009002208DF8050001206B
:100640008DF8040000218DF806108DF8070069462A
:10065000584803F061FA564C0421204603F0D8FABA
:100660000A2000F09BF80421204603F0CFFA1CBDBD
:1006700070B500F0ADF8FFF7D3FEFFF7AFFF40F61F
:10068000FF76304600F08AF88021122000F0EAF868
:1006900060B9304600F082F84C4D002405EB440070
:1006A000417815F8140000F0DDF808B1FF2070BDA6
:1006B000641CE4B2592CF1D3304600F06FF80020EE
:1006C00070BD38B5044669461C2000F01BF9B8B966
:1006D0009DF80000207069461D2000F013F978B9DC
:1006E0009DF80000607069460B2000F00BF938B9E6
:1006F0009DF80000A07069460A2000F003F908B1D7
:10070000FF2038BD9DF80000E070002038BDF0B536
:1007100085B00E460746851801EB430402A9032065
:1007200000F0F0F89DF80800694600F0C0008DF870
:100730000800322000F0E6F89DF8000005F00701FF
:1007400000F0C0008DF8000040EAC10107F007008A
:100750000143322000F086F8C7F3C701172000F0EC
:1007600081F8C5F3C701182000F07CF89DF8081047
:1007700004F0070041EAC00106F00700014303202E
:1007800000F070F8C6F3C701192000F06BF8C4F34D
:10079000C7011A2000F066F805B0F0BD40F2E6335C
:1007A00002E01946491EFDD2401EFAD270470000F1
:1007B0000000024000040240000802400010024015
:1007C00028640240280005504C0000206A5D0008A3
:1007D00030B587B00121022003F00AFD0121880510
:1007E00003F024FD904D04220A21284603F01DFA4F
:1007F00004220B21284603F018FA4FF440600490BD
:1008000002208DF8140001218DF8161000248DF8B7
:1008100015408DF8171004A9284603F07DF9834D83
:10082000284603F025FAADF804404BF6FF70ADF80A
:100830000600FE20ADF808002815ADF80A000001FA
:10084000ADF80C007A4800900121284603F091FA97
:100850006946284603F028FA0121284603F0AFFA3A
:1008600007B030BD2DE9F047724C804689462068BC
:100870006E4E0121304603F086FA25686E4F01E086
:100880006D1E30D33946304603F046FB0028F7D0C2
:10089000002242213546304603F089FA2668674F28
:1008A00001E0761E1FD33946284603F035FB0028A9
:1008B000F7D041462E46284603F0E6FA256837462B
:1008C0005E4EB61C01E06D1E0DD33146384603F076
:1008D00023FB0028F7D04946384603F0D5FA2468B0
:1008E00004E0641E02D2FF20BDE8F087314638469E
:1008F00003F012FB0028F4D00121384603F04DFA32
:100900000020F1E72DE9F05F4A4D834689462868CB
:10091000464C1434208840F480602080DFF80C813D
:100920000121404603F02FFA2E68434F01E0761E66
:1009300061D33946404603F0EFFA0028F7D0002291
:100940004321404603F033FA2E68DFF8F0A001E0BF
:10095000761E50D35146404603F0DEFA0028F7D009
:100960005946404603F090FA2E68DFF8D0A00AF10D
:10097000020A01E0761E3ED35146404603F0CCFA0F
:100980000028F7D0208840F480602080012146466E
:10099000404603F002FA0121304603F0F4F9A8467C
:1009A0002D6801E06D1E26D33946304603F0B4FAB7
:1009B0000028F7D0012243213546304603F0F7F9ED
:1009C000D8F800704646DFF8708008F1010801E0B1
:1009D0007F1E10D34146284603F09EFA0028F7D028
:1009E00000212F46284603F0EAF93568124E3F36BB
:1009F00004E06D1E02D2FF20BDE8F09F314638466C
:100A000003F08AFA0028F4D00121384603F0C5F932
:100A1000384603F03BFA89F80000208840F48060F3
:100A200020800020E8E70000000402400058004059
:100A3000A0860100080000200100030082000700DA
:100A4000034A02EB01111022A1F5007105F030B844
:100A50001C5E00082DE9FC410121182003F0C8FBB1
:100A60000121084603F0D8FBDFF884840C22002122
:100A7000404603F0DAF80C220121404603F0D5F895
:100A80000C220421404603F0D0F80C2205214046F8
:100A900003F0CBF80C220821404603F0C6F80C22E4
:100AA0000921404603F0C1F80C220A21404603F018
:100AB000BCF80C220B21404603F0B7F80C220E21A3
:100AC000404603F0B2F80C220F21404603F0ADF887
:100AD0004CF63370009002208DF8040003258DF849
:100AE000055000268DF8066001248DF80740694600
:100AF000404603F011F8FF4F0C220221384603F064
:100B000094F80C220721384603F08FF80C220821B4
:100B1000384603F08AF80C220921384603F085F89C
:100B20000C220A21384603F080F80C220B213846AB
:100B300003F07BF80C221146384603F076F80C22BD
:100B40000D21384603F071F80C220E21384603F0CF
:100B50006CF80C220F21384603F067F84FF68470CA
:100B600000906946384602F0D7FF8DF80440802097
:100B70008DF8055000908DF806608DF807406946A5
:100B8000404602F0C9FF8021404603F041F8BDE82D
:100B9000FC812DE9FC5F0121082003F029FB0125E0
:100BA0008DF804504FF0000880208DF806804FF03B
:100BB0000309CF4C00908DF805908DF807506946D9
:100BC000204602F0A9FF8021204603F021F8CA4CFC
:100BD000FFF740FF641EFDD201F0BDFC642001F070
:100BE000E0FC4FF0C04200201080C44B1888C4497C
:100BF000A0F5134C4FF48076488041F2180A40F279
:100C0000077440F23F17BCF1250C7DD0A0F5104CC5
:100C1000BCF54A7CF9D0A0F5134540F2022B203DEB
:100C200073D0B0F5134FFBD0A0F5134C4FF4017502
:100C3000BCF1310C6AD0A0F5194C40F20558BCF15A
:100C4000190C7DD0A0F5A85CBCF1050C01D0404585
:100C500077D1092008700021072005F079F83220AB
:100C600001F09FFC4FF48E71122005F071F8012104
:100C7000A42005F06DF80F21082005F069F808217F
:100C80000A2005F065F808210D2005F061F82146DD
:100C9000302005F05DF80721312005F059F840F2C9
:100CA0000361322005F054F84FF4E0652946332003
:100CB00005F04EF85946342005F04AF80221352057
:100CC00005F046F841F60F71362005F041F821464F
:100CD000372005F03DF80021382005F039F80021D3
:100CE000392005F035F821463A2005F031F8002189
:100CF0003B2005F02DF807213C2005F029F80021C4
:100D00003D2005F025F802E0B1E07CE295E13220DB
:100D100001F047FC0121072005F01AF801211720F6
:100D200005F016F8322001F03CFC4FF4BD511020C4
:100D300005F00EF840F21721112005F009F801E046
:100D400006E38BE34FF48F71122005F001F84FF4A6
:100D50007061132004F0FCFF00212A2004F0F8FF4A
:100D60000A21292004F0F4FF4FF49F71122004F0AF
:100D7000EFFF0021502004F0EBFFEF21512004F0A1
:100D8000E7FF0021522004F0E3FF3946532004F02E
:100D9000DFFF4FF41C51602004F0DAFF01216120D5
:100DA00004F0D6FF00216A2004F0D2FF0021802049
:100DB00004F0CEFF0021812004F0CAFF0021822030
:100DC00004F0C6FF0021832004F0C2FF002184202C
:100DD00004F0BEFF0021852004F0BAFF132190200B
:100DE00004F0B6FF4FF44071922004F0B1FF0521EA
:100DF000932004F0ADFF0021952004F0A9FF00210D
:100E0000972004F0A5FF0021982004F0A1FF3146AF
:100E1000012004F09DFF2946022004F099FF41F2D1
:100E20003001032004F094FF0021042004F090FF1F
:100E300000210C2004F08CFF00210F2004F088FF1B
:100E40000021202004F084FF0021212004F080FFF5
:100E50002121072004F07CFFC82001F0A2FB6121C2
:100E6000072004F075FFC82001F09BFBFEE30D7026
:100E700047F6F001E52004F06BFF3146012004F055
:100E800067FF4FF4E061022004F062FF5146032047
:100E900004F05EFF0021042004F05AFF40F2072115
:100EA000082004F055FF0021092004F051FF002123
:100EB0000A2004F04DFF00210C2004F049FF00211E
:100EC0000D2004F045FF00210F2004F041FF002118
:100ED000102004F03DFF0721112004F039FF00210C
:100EE000122004F035FF0021132004F031FF09E047
:100EF000000C024000100240FFFF1F0000000260D3
:100F00000C0000200121072004F022FFC82001F07E
:100F100048FB41F29001102004F01AFF40F2272113
:100F2000112004F015FF322001F03BFB1F2112209D
:100F300004F00EFF322001F034FB4FF4A8511320CF
:100F400004F006FF2721292004F002FF0D212B20A9
:100F500004F0FEFE322001F024FB0021202004F0EA
:100F6000F7FE0021212004F0F3FE0021302004F0E0
:100F7000EFFE2146312004F0EBFE40F20731322033
:100F800004F0E6FE4FF40071352004F0E1FE082184
:100F9000362004F0DDFE0421372004F0D9FE0021C4
:100FA000382004F0D5FE2146392004F0D1FE02217C
:100FB0003C2004F0CDFE41F604513D2004F0C8FE73
:100FC0000021502004F0C4FEEF21512004F0C0FEA7
:100FD0000021522004F0BCFE3946532004F0B8FE34
:100FE0004FF42741602004F0B3FE0121612004F09A
:100FF000AFFE00216A2004F0ABFE0021802004F047
:10100000A7FE0021812004F0A3FE0021822004F02D
:101010009FFE0021832004F09BFE0021842004F029
:1010200097FE0021852004F093FE1021902004F00B
:101030008FFE4FF4C0619220FEE381F8009041F2F0
:101040001401E72004F084FE3146012004F080FE04
:101050004FF40071022004F07BFE41F230010320C6
:1010600004F076FE5946082004F072FE00210920A3
:1010700004F06EFE00210A2004F06AFE00210C201C
:1010800004F066FE00210D2004F062FE00210F2016
:1010900004F05EFE0021102004F05AFE072111200A
:1010A00004F056FE0021122004F052FE002113200D
:1010B00004F04EFEC82001F074FA41F29061102055
:1010C00004F046FE40F22721112004F041FE3220B8
:1010D00001F067FA0C21122004F03AFE322001F0F0
:1010E00060FA4FF40061132004F032FE1121292030
:1010F00004F02EFE0B212B2004F02AFE322001F0FA
:1011000050FA0021202004F023FE0021212004F0C9
:101110001FFE0021302004F01BFE4FF48376314681
:10112000312004F015FE0021322004F011FE294682
:10113000352004F00DFE41F20A61362004F008FE6D
:101140002146372004F004FE3146382004F000FE2A
:101150002146392004F0FCFD40F202413C2004F01D
:10116000F7FD40F60F413D2004F0F2FD0021502034
:1011700004F0EEFDEF21512004F0EAFD00215220A1
:1011800004F0E6FD3946532004F0E2FD4FF41C5113
:10119000602004F0DDFD0121612004F0D9FD002173
:1011A0006A2004F0D5FD0021802004F0D1FD00214B
:1011B000812004F0CDFD0021822004F0C9FD002132
:1011C000832004F0C5FD0021842004F0C1FD00212E
:1011D000852004F0BDFD1021902004F0B9FD4FF4EE
:1011E000C061922004F0B4FD2121072004F0B0FD7D
:1011F000322001F0D6F96121072004F0A9FD322048
:1012000001F0CFF9FEE381F800800021084604F0E8
:101210009FFD3146012004F09BFD4FF4E061022068
:1012200004F096FD5146032004F092FD00210420B5
:1012300004F08EFD5946082004F08AFD00210920A3
:1012400004F086FD00210A2004F082FD01210C201B
:1012500004F07EFD00210D2004F07AFD00210F2016
:1012600004F076FD642001F09CF940F201110720A2
:1012700004F06EFD642001F094F94FF486511020C3
:1012800004F066FD0721112004F062FD4FF488741C
:101290002146122004F05CFD4FF43061132004F06D
:1012A00057FD0021292004F053FD44F210012B20AA
:1012B00004F04EFD0021502004F04AFDEF215120A2
:1012C00004F046FD0021522004F042FD394653202F
:1012D00004F03EFD4FF41C51602004F039FD012163
:1012E000612004F035FD00216A2004F031FD002169
:1012F000802004F02DFD0021812004F029FD002133
:10130000822004F025FD0021832004F021FD00212E
:10131000842004F01DFD0021852004F019FD10211A
:10132000902004F015FD0021922004F011FD012110
:10133000932004F00DFD2146952004F009FD0021C5
:10134000972004F005FD0021982043E30720EDE3FA
:101350000D2008700621282004F0FAFC012100204D
:1013600004F0F6FC0021102004F0F2FC47F2EF211B
:10137000012004F0EDFC4FF4C061022004F0E8FC11
:1013800046F63821032004F0E3FC46F674011120F0
:1013900004F0DEFC00210F2004F0DAFC45F20831F5
:1013A0000B2004F0D5FC03210C2004F0D1FC0A2111
:1013B0000D2004F0CDFC4FF438510E2004F0C8FC91
:1013C000BE211E2004F0C4FC4FF40041252004F08F
:1013D000BFFC4FF4F041262004F0BAFC782127200E
:1013E00004F0B6FC00214E2004F0B2FC00214F2096
:1013F00004F0AEFC40F6D901122004F0A9FC002153
:10140000302004F0A5FC4FF48271312004F0A0FCE0
:101410003146322004F09CFC40F205352946332049
:1014200004F096FC4146342004F092FC2946352015
:1014300004F08EFC2146362004F08AFC691F372018
:1014400004F086FC4FF490513A2004F081FC4FF4F4
:1014500000613B2004F07CFC332177E7A0F5094CC8
:1014600040F2025940F2023ABCF1890C1DD0A0F5BD
:10147000094CBCF1990C7DD0A0F5A845083D7AD067
:10148000A0F58A45313D77D0A0F58A45353D74D029
:10149000472873D0A0F5EE45833D70D067201080BB
:1014A0001888488047286BD0FEE30520087001218A
:1014B000002004F04DFC322001F073F84AF6A4013C
:1014C000032004F045FC322001F06BF800210C20D1
:1014D00004F03EFC322001F064F840F60C010D20CF
:1014E00004F036FC322001F05CF84FF42C510E2051
:1014F00004F02EFC322001F054F8B0211E2004F03C
:1015000027FC322001F04DF842F63F31012004F073
:101510001FFC322001F045F84FF4C061022004F0B6
:1015200017FC322001F03DF80021102004F010FCDF
:10153000322001F036F846F27001112004F008FC68
:10154000322001F02EF80021052004F001FC3220A9
:1015500001F027F80021062004F0FAFB322001F008
:1015600020F84EF61C71162004F0F2FB322001F038
:1015700018F806E0CFE08EE131E2D8E2FDE37DE34A
:10158000FCE30321172004F0E3FB322001F009F80B
:1015900040F23311072004F0DBFB322001F001F8A8
:1015A00000210B2004F0D4FB322000F0FAFF0021D0
:1015B0000F2004F0CDFB322000F0F3FF002141208A
:1015C00004F0C6FB322000F0ECFF0021422004F0C2
:1015D000BFFB322000F0E5FF0021482004F0B8FBFB
:1015E000322000F0DEFF3946492004F0B1FB322002
:1015F00000F0D7FF00214A2004F0AAFB322000F0BF
:10160000D0FF00214B2004F0A3FB322000F0C9FFE3
:101610004FF46F41442004F09BFB322000F0C1FFE7
:101620000021452004F094FB322000F0BAFF394637
:10163000462004F08DFB322000F0B3FF214630201D
:1016400004F086FB322000F0ACFF2946312004F084
:101650007FFB322000F0A5FF2946322004F078FB02
:10166000322000F09EFF4C46494600E0B4E13320B2
:1016700004F06EFB322000F094FF40F2075134205A
:1016800004F066FB322000F08CFF2946352004F080
:101690005FFB322000F085FF2946362004F058FB1E
:1016A000322000F07EFF2146372004F051FB32202B
:1016B00000F077FF544651463A2004F049FB3220AF
:1016C00000F06FFF21463B2004F042FB322000F087
:1016D00068FF0021232004F03BFB322000F061FF73
:1016E0000021242004F034FB322000F05AFF4FF494
:1016F0000041252004F02CFB322000F052FF002195
:101700004F2004F025FB00214E2004F021FB46F27F
:10171000580111201BE6042008700621282004F03F
:1017200017FB0121002004F013FB4AF6A4610320FB
:1017300004F00EFB04210C2004F00AFB0C210D2008
:1017400004F006FB4FF420510E2004F001FBB521FC
:101750001E2004F0FDFA43F63F31012004F0F8FAB0
:101760004FF4C061022004F0F3FA0021102004F0CD
:10177000EFFA46F63001112004F0EAFA00210520C4
:1017800004F0E6FA0021062004F0E2FA4EF61C719D
:10179000162004F0DDFA3321072004F0D9FA0021E5
:1017A0000B2004F0D5FA00210F2004F0D1FA00211B
:1017B000412004F0CDFA0021422004F0C9FA0021B2
:1017C000482004F0C5FA3946492004F0C1FA002146
:1017D0004A2004F0BDFA00214B2004F0B9FA4FF47E
:1017E0006F41442004F0B4FA0021452004F0B0FA1F
:1017F0003946462004F0ACFA00214E2004F0A8FA45
:1018000000214F2004F0A4FA2146302004F0A0FA71
:101810005946312004F09CFA2946322004F098FA07
:101820004C464946332004F093FA40F207513420E5
:1018300004F08EFA294600E01FE2352004F088FA11
:101840002946362004F084FA2146372004F080FA35
:10185000544651463A2004F07BFA21463B2004F0DE
:1018600077FA0021232004F073FA0021242004F0E9
:101870006FFA4FF40041252004F06AFA4FF4E0417A
:10188000262004F065FA4BF2EB01202004F060FA08
:101890007C2127205BE5082008703146012004F0F8
:1018A00057FA4FF4E061022004F052FA41F230019D
:1018B000032004F04DFA0021042004F049FA40F21C
:1018C0000721082004F044FA0021092004F040FA1E
:1018D00000210A2004F03CFA00210C2004F038FA20
:1018E00000210D2004F034FA00210F2004F030FA1A
:1018F000322000F056FE40F20111072004F028FAD1
:10190000322000F04EFE41F2B061102004F020FAC7
:101910000121112004F01CFA0121172004F018FA0B
:101920004FF49C71122004F013FA4FF4006113205D
:1019300004F00EFA0921292004F00AFA09212A20CC
:1019400004F006FA0021A42004F002FA002150203D
:1019500004F0FEF9EF21512004F0FAF900215220A1
:1019600004F0F6F93946532004F0F2F94FF41C5113
:10197000602004F0EDF90321612004F0E9F9002171
:101980006A2004F0E5F90021802004F0E1F900214B
:10199000812004F0DDF90021822004F0D9F9002132
:1019A000832004F0D5F90021842004F0D1F900212E
:1019B000852004F0CDF91321902004F0C9F900210D
:1019C000922004F0C5F90321932004F0C1F94FF4EB
:1019D0008871952004F0BCF940F27311B6E4072039
:1019E00008700121002004F0B3F94FF4C561102004
:1019F00004F0AEF90621122004F0AAF940F63221D3
:101A0000132000E0EDE104F0A3F94021112004F0DF
:101A10009FF95021152004F09BF91621122004F0A3
:101A200097F9322000F0BDFD45F26061102004F00E
:101A30008FF9322000F0B5FD42F64E21132004F05C
:101A400087F93146012004F083F94FF440710220F8
:101A500004F07EF941F23001032004F079F959468F
:101A6000082004F075F900210A2004F071F9002122
:101A7000302004F06DF940F20241312004F068F9A1
:101A80004FF48371322004F063F94FF4E0613320A6
:101A900004F05EF94FF48271342004F059F940F2F9
:101AA0000131352004F054F92146362004F050F974
:101AB00040F20531372004F04BF94FF40271382021
:101AC00004F046F940F60B71392004F041F9322058
:101AD00000F067FD0221412004F03AF94FF41C5157
:101AE000602004F035F90121612004F031F940F261
:101AF0001911902004F02CF94FF48571922004F014
:101B000027F90421932004F023F93146A02004F0A2
:101B10001FF9322000F045FD40F23311072004F098
:101B200017F9322000F03DFD0021A02056E30C20E3
:101B300008703021152004F00BF910219A2004F0D0
:101B400007F92021112004F003F943F22841102065
:101B500004F0FEF80221122004F0FAF841F23801F4
:101B6000132004F0F5F8282000F01BFD1221084690
:101B700004F0EEF8282000F014FD43F2204110207C
:101B800004F0E6F843F24501132004F0E1F84620A2
:101B900000F007FD0021302004F0DAF840F20241A5
:101BA000312004F0D5F840F20731322004F0D0F8AB
:101BB0004FF44171332004F0CBF80421342004F0B9
:101BC000C7F840F20141352004F0C2F82146362022
:101BD00004F0BEF840F20531372004F0B9F84FF4B4
:101BE000C2642146382004F0B3F82146392004F0BD
:101BF000AFF83146012004F0ABF84FF440710220F9
:101C000004F0A6F841F23001032004F0A1F840F6F8
:101C10000801082004F09CF808210A2004F098F834
:101C20004FF41C51602004F093F80121612004F06E
:101C30008FF84FF49F71902004F08AF8314692207B
:101C400004F086F83146932004F082F84FF44051B6
:101C5000A02004F07DF81021A32004F079F80121E0
:101C6000072004F075F82121072004F071F82321E2
:101C7000072004F06DF833210720B0E0062008703B
:101C80000121FF2004F064F80821F32004F060F83B
:101C90003146012004F05CF84FF4E061022004F0CA
:101CA00057F841F2300100E09AE2032004F050F8C6
:101CB0005146082004F04CF840F20721082004F0B7
:101CC00047F80021092004F043F800210A2004F01D
:101CD0003FF80021102004F03BF80521112004F00A
:101CE00037F80021122004F033F80021132004F00B
:101CF0002FF8322000F055FC41F2B021102004F002
:101D000027F8322000F04DFC0721112004F020F8C4
:101D1000322000F046FC8B21122004F019F832200A
:101D200000F03FFC4FF4B851132004F011F83220BA
:101D300000F037FC2221292004F00AF8002130208D
:101D400004F006F82146312004F002F84146322022
:101D500003F0FEFF40F20711352003F0F9FF0821E0
:101D6000362003F0F5FF0021372003F0F1FF5C4639
:101D70005946382003F0ECFF01E035E014E14FF460
:101D80008371392003F0E4FF21463C2003F0E0FF9B
:101D90004FF481613D2003F0DBFF322000F001FCB5
:101DA0000021502003F0D4FFEF21512003F0D0FF99
:101DB0000021522003F0CCFF3946532003F0C8FF26
:101DC0004FF42741602003F0C3FF0121612003F09D
:101DD000BFFF3321902003F0BBFF0B212B2003F02A
:101DE000B7FF40F23311F9E50A2008700021EA201C
:101DF00003F0AEFF2021EB2003F0AAFF0C21EC2022
:101E000003F0A6FFC421ED2003F0A2FF4021E8204B
:101E100003F09EFF3821E92003F09AFF0121F12011
:101E200003F096FF1021F22003F092FFA321272058
:101E300003F08EFF0121402003F08AFF00214120A2
:101E400003F086FF0021422003F082FF102143208F
:101E500003F07EFF0E21442003F07AFF2421452069
:101E600003F076FF0421462003F072FF5021472043
:101E700003F06EFF0221482003F06AFF132149207E
:101E800003F066FF19214A2003F062FF19214B205D
:101E900003F05EFF16214C2003F05AFF1B21502057
:101EA00003F056FF3121512003F052FF2F21522021
:101EB00003F04EFF3F21532003F04AFF3F215420FF
:101EC00003F046FF3E21552003F042FF2F2156200C
:101ED00003F03EFF7B21572003F03AFF09215820F1
:101EE00003F036FF0621592003F032FF06215A2065
:101EF00003F02EFF0C215B2003F02AFF1D215C2044
:101F000003F026FFCC215D2003F022FF18211B20C7
:101F100003F01EFF01211A2003F01AFF15212420CF
:101F200003F016FF5021252003F012FF8B21232000
:101F300003F00EFF3621182003F00AFF01211920BB
:101F400003F006FF0021012003F002FF88211F207B
:101F500003F0FEFE322000F024FB80211F2003F05E
:101F6000F7FE322000F01DFB90211F2003F0F0FE51
:101F7000322000F016FBD0211F2003F0E9FE3220B2
:101F800000F00FFB0521172003F0E2FE00213620B0
:101F900003F0DEFE3821282003F0DAFE322000F0C4
:101FA00000FB3C21282019E10B2008700821422069
:101FB00003F0CEFEB421462003F0CAFE43214720A1
:101FC00003F0C6FE1321482003F0C2FE472149203A
:101FD00003F0BEFE14214A2003F0BAFE36214B2046
:101FE00003F0B6FE03214C2003F0B2FE46214D2043
:101FF00003F0AEFE05214E2003F0AAFE10214F2073
:1020000003F0A6FE0821502003F0A2FE0A21512071
:1020100003F09EFE0021022003F09AFE002103201F
:1020200003F096FE0021042003F092FEEF2105202C
:1020300003F08EFE0021062003F08AFE0021072017
:1020400003F086FE0121082003F082FE3F210920D3
:1020500003F07EFE0A2000F0A4FA0621012003F01E
:1020600077FEC821162003F073FE9521232003F08C
:102070006FFE9521242003F06BFEFF21252003F045
:1020800067FE0221272003F063FE0221282003F0CF
:102090005FFE0221292003F05BFE02212A2003F0CB
:1020A00057FE02212C2003F053FE02212D2003F0C5
:1020B0004FFE01213A2003F04BFE01213B2003F0AB
:1020C00047FEF0213C2003F043FE00213D2003F0B9
:1020D0003FFE142000F065FA3821352003F038FE69
:1020E0007821362003F034FE38213E2003F030FE04
:1020F0000F21402003F02CFEF021412003F028FEA8
:102100000021382003F024FE4921192003F020FE8D
:102110000A21932003F01CFE0A2000F042FA20213D
:10212000084603F015FE03211D2003F011FE0021D7
:102130001E2003F00DFE09211F2003F009FE53218C
:10214000442003F005FE1021452003F001FE0A2083
:1021500000F027FA04211C2003F0FAFD142000F0FF
:1021600020FA8021432003F0F3FD052000F019FA46
:102170000A211B2003F0ECFD282000F012FA1221A6
:102180001B2003F0E5FD282000F00BFA7F219020B2
:1021900003F0DEFD0421262003F0DAFD282000F004
:1021A00000FA2421262003F0D3FD2C21262003F061
:1021B000CFFD282000F0F5F90821702003F0C8FDBC
:1021C0003C21262003F0C4FD0221572003F0C0FD6E
:1021D0000021552003F0BCFD0021572003F0B8FD7D
:1021E000322000F0DEF9BDE8FC9F10B5A0F23F10F0
:1021F000404284B2F248007805280BD0202003F03A
:10220000A7FD2146212003F0A3FD4FF0C04122206D
:10221000088010BD4E2003F09BFD2146BDE8104014
:102220004F2003F095BD70B50546E54800240078C1
:102230000A2811D00B280FD000210846FFF7D5FF40
:102240004FF0C04122200880DE484FF496310580CF
:10225000641C8C42FBD370BD0021022003F078FD8A
:102260000021032003F074FD0021042003F070FD21
:10227000EF21052003F06CFD0021062003F068FD2E
:102280000021072003F064FD0121082003F060FD18
:102290003F21092003F05CFDD2E710B5FFF7A5FF51
:1022A0004FF0C04122200880C5480178C548091F69
:1022B000092917D2DFE801F00505050516160808FB
:1022C00005000188008810BD01880288C1F3C7019C
:1022D0000088D208C0F38700D20242EA40100843C7
:1022E00080B210BD01880088C0F34511C20AC00247
:1022F00000EB41101044F3E710B51446B0F5A07F91
:1023000009D2F02907D2FFF770FF2146BDE810403F
:10231000222003F01DBD10BD2DE9F0471746DDF862
:1023200020A01E460D460446B84201D9274694B265
:10233000B54201D90E469DB2381B711B00B20FFA8F
:1023400081F868B1B8F1000F15D0404531DDC0EB20
:1023500048010EB24FEA4801404201EB400925E036
:10236000524629462046FFF7C7FF6D1CADB2AE426C
:10237000F6D2BDE8F087524629462046FFF7BCFF5B
:10238000641CA4B2A742F6D2F3E75246294620467F
:10239000FFF7B2FF641CA4B2002E04DD6D1CADB2C9
:1023A00009EB060001E006EB480006B2BC42ECD1A6
:1023B0001BE0C8EB40010FB24FEA4801404201EB7D
:1023C000400910E0524629462046FFF795FF6D1C54
:1023D000ADB2002F04DD641CA4B209EB070001E0DC
:1023E00007EB480007B2B542ECD1524629462046D9
:1023F000BDE8F04780E72DE9FF5F894680469B46B0
:1024000011466846FEF71CFB0025EA4600241AF830
:10241000057009EB050600BFC4F1070027FA00F0BC
:10242000C00708EB0400B1B280B201D05A4600E008
:102430000E9AFFF761FF641CA4B2082CECD36D1C4C
:10244000ADB2102DE2D3BDE8FF9F2DE9F8439946C8
:10245000089F16460D4604464FF49C7816F8012B4B
:102460004B46294620460097FFF7C5FF444502D258
:102470000834A4B207E0E02D4FF0000402D210357A
:10248000ADB200E0002530780028E7D1BDE8F88340
:102490002DE9FF4115460E4607461C464AA101A8F4
:1024A0000A9A03F057FA2B4601AA3146384600949F
:1024B000FFF7CBFFBDE8FF814FF0C041222008802D
:1024C00070472DE9FC4700250A9F9A460E460446B0
:1024D000B2F57A7F05D32A208DF806008DF8050025
:1024E00018E00A2092FBF0F100FB112130318DF849
:1024F000061092FBF0F191FBF0F300FB1311303169
:102500008DF80510642192FBF1F191FBF0F200FBD4
:10251000121030308DF804000DF104084FF49C794E
:10252000009718F80520534631462046FFF763FF11
:102530004C4502D20834A4B207E0E02E4FF000046C
:1025400002D21036B6B200E000266D1CEDB2032DAB
:10255000E6D3BDE8FC8700B597B000201021CDE997
:1025600002010490090200900190CDE90801069053
:1025700007900A900FA9059014220B90CDE90C0149
:10258000CDE90F20CDE911201390149015900E91F4
:10259000684601F037F80121002001F0C8F817B0B3
:1025A00000BD002240F2754306E00021491C89B2BB
:1025B0009942FBD3521C92B28242F6D3704700007C
:1025C0000C000020000002604650533A25640000D1
:1025D00070B588B00121042001F00AFE0121042019
:1025E00001F006FE0121880401F020FEA84E07221A
:1025F0000A21304601F019FB07220B21304601F079
:1026000014FB02218DF8041000248DF806403015CB
:102610008DF80510009001258DF807506946304669
:1026200001F07AFAE80200908DF806508DF8074024
:102630006946304601F070FA4FF46120ADF80C4065
:102640000290ADF80E40ADF81040ADF814400C20EB
:10265000904CADF8120002A9204601F0C8FE2720D8
:102660008DF818008DF81B508DF819508DF81A5000
:102670004FF4A06000F02EFD06A800F030FD01220E
:1026800040F22551204601F0DDFF0121204601F0F6
:102690001FFF08B070BDFEB50A2164227D4E6D4655
:1026A000002823DB90FBF1F301FB13033033ADF87B
:1026B000043090FBF1F390FBF2F093FBF1F490FB0C
:1026C000F1F201FB1433303301FB12003030ADF86E
:1026D0000230ADF800000024304635F8141001F047
:1026E00027FF641CE4B2032CF6D3FEBD404290FBEE
:1026F000F1F301FB13033033ADF8043090FBF1F339
:1027000090FBF2F093FBF1F490FBF1F201FB143338
:1027100001FB12003033ADF802303030ADF800006C
:102720002D21304601F004FF5FF00004304635F8FB
:10273000141001F0FDFE641CE4B2032CF6D3FEBDC0
:1027400008B527208DF8000001208DF80100002138
:102750008DF802108DF80300684600F0C0FC08BD3B
:10276000704770B54B4D0446C1B2284601F0E0FEFB
:102770004021284601F0D5FE0028F9D0204670BD42
:10278000F0B500260B4635460A2A02D00D701846D1
:10279000F0BD00281DD006DA4FF02D021A7001F1AD
:1027A0000103C0F100003C4C4FF00A07B0FBF4F20B
:1027B00052EA060C06D002F1300603F8016B02FB68
:1027C00014000126B4FBF7F4002CEFD11D7008466D
:1027D000F0BD302018704B1CF8E70FB47FB50546EC
:1027E0000AAC0FE05C2914D002F1010225290992FC
:1027F0001DD0284601F09CFE4021284601F091FEA4
:102800000028F9D0099A11780029EBD17FBC5DF836
:1028100014FB521C099210786E2803D072280BD139
:102820000D2100E00A21284601F082FE16E0107812
:10283000642817D0732802D0521C0992DCE740CCE0
:1028400009E0284601F074FE4021284601F069FEA7
:102850000028F9D0761C31780029F2D10998401C63
:102860000990C9E701CC0A226946FFF789FF6E4645
:1028700009E0284601F05CFE4021284601F051FEA7
:102880000028F9D0761C31780029F2D1E6E7000063
:10289000000802400048004000E1F5057047FEE7EF
:1028A000FEE7FEE7FEE7704770477047FDF75BBD48
:1028B00010B5704C0121204602F0BDFE012811D157
:1028C0006D496E4A0878401CC0B20870B2F81434E2
:1028D0005B1CA2F814340A2804D9012082F82C04C5
:1028E000002008702046BDE81040012102F0AFBE74
:1028F00010B501218C07204602F09DFE012803D16E
:102900005E48012180F81C142046BDE810400121DA
:1029100002F09DBE70B55A4E40F22555294630460C
:1029200001F0A8FE574C60B12946204601F0C1FED7
:10293000304601F012FEBDE87040014652A002F0A0
:10294000FDBF304601F009FE2046BDE8704040F270
:10295000253101F0AEBE70B5082000F0A1FC474C57
:10296000002560B184F82254012084F80004B4F8F2
:102970002004401CA4F82004082000F099FC10203A
:1029800000F08EFCE0B194F800143B48012907D117
:1029900094F82214491CC9B284F82214491E4180BB
:1029A000474B818894F8222423F81120491C89B2CE
:1029B0008180B1F5A07F00D38580102000F078FCE5
:1029C000012000F06DFC38B1B4F81E04401CA4F8DE
:1029D0001E04012000F06CFC042000F061FC0028C3
:1029E00004D0BDE87040042000F062BC70BD70B53A
:1029F000234C40F225552946204601F03BFE012894
:102A000008D12946204601F054FE2046BDE870401A
:102A100001F0A3BD70BD10B52A4C86B00021204640
:102A200002F090F8002808D06A460021204602F003
:102A300025F80221204602F08EF906B010BD70B5CF
:102A4000214D224C2946204600F084FD00280FD05D
:102A50000A4A2946B2F81804401CA2F81804204675
:102A600000F051FD29462046BDE8704000F095BDBC
:102A700070BD000000040040140000204C600020E5
:102A800000480040004400400A0D55534152542074
:102A900048797065727465726D696E616C20496EFB
:102AA00074657272757074732052656365697665BA
:102AB000206120776F72643A2025630A0D000000C0
:102AC0007C640020006400400088001028640240FC
:102AD000401EFDD170472DE9FF471D46EA4B1746C2
:102AE0008846C21A19152C240C9E814698426FD034
:102AF0001DDCE64BA0EB030298426AD00EDCB0F17D
:102B0000804F6ED0E24A19EB020072D0884239D170
:102B10000121042001F08AFB1E202AE08A4276D09F
:102B2000B2F5006F79D0B2F5406F2BD17BE0B2F5F2
:102B3000923F19D008DC8A4268D0B2F5644F0AD0BF
:102B4000B2F5684F1ED10CE0B2F5943F14D0B2F547
:102B5000963F17D13FE00121084601F071FB192093
:102B600007E00121022009E00121080401F068FBCF
:102B700018208DF8000005E00121192001F060FB0C
:102B80008DF800400020ADF80470ADF80C00ADF8F1
:102B90000600CDF8088001A9484602F0AFF90121EE
:102BA000484602F054FD01221146484602F02FFD2E
:102BB0008DF801508DF8026001208DF80300684601
:102BC00000F08DFA0121484602F010FABDE8FF87B7
:102BD0002FE014E005E00121880401F031FB1A2008
:102BE000C7E70121084601F021FB1C20C1E700E0F6
:102BF0000DE00121022001F019FB1D20B9E70121A0
:102C0000082001F013FB3220B3E706E016E00121B3
:102C1000102001F00BFB3620ABE70121202001F052
:102C200005FB3720A5E70121402001F0FFFA2B200A
:102C30009FE70121802001F0F9FAA1E701210802B4
:102C400001F0F4FA2D2094E7FEB58F4A0D460746B1
:102C5000801A1115542497426DD019DC8B4AA7EBCA
:102C6000020097425BD00ADCB7F1804F38D0884829
:102C7000381838D088423CD10121042035E0884200
:102C800050D0B0F5006F50D0B0F5406F31D14FE06B
:102C9000A826B0F5923F1AD008DC88424ED0B0F595
:102CA000644F0AD0B0F5684F23D109E0B0F5943FE6
:102CB00010D0B0F5963F1CD10FE00121084601E08D
:102CC0000121022001F0BCFAADF8006011E0012101
:102CD0000804F7E701214804F4E701218804F1E73B
:102CE0000121084601E00121022001F09FFAADF820
:102CF0000040012001900020ADF80800ADF802006E
:102D00006946384602F0FAF80121384602F06EF9B9
:102D10004FF6FF74611B384602F032F915E00121CD
:102D20000820E2E701211020DFE701212020DCE775
:102D300001214020D9E701218020D6E701210802A6
:102D4000D3E7384602F020F985B2A542F9D3002135
:102D5000384602F04BF9FEBDFEB54B4A0D4607461C
:102D6000801A111542F2D00497426FD019DC474AFD
:102D7000A7EB020097425CD00ADCB7F1804F39D054
:102D80004348381839D088423DD10121042036E02B
:102D9000884251D0B0F5006F51D0B0F5406F32D1BC
:102DA00050E044F2A016B0F5923F1AD008DC8842F9
:102DB0004FD0B0F5644F0AD0B0F5684F23D109E089
:102DC000B0F5943F10D0B0F5963F1CD10FE0012133
:102DD000084601E00121022001F032FAADF800605E
:102DE00011E001210804F7E701214804F4E701217B
:102DF0008804F1E70121084601E00121022001F0E9
:102E000015FAADF80040012001900020ADF808004F
:102E1000ADF802006946384602F070F801213846E4
:102E200002F0E4F84FF6FF74611B384602F0A8F890
:102E300016E001210820E2E701211020DFE701214F
:102E40002020DCE701214020D9E7FFE70121802095
:102E5000D5E701210802D2E7384602F095F885B29D
:102E6000A542F9D30021384602F0C0F8FEBD70B586
:102E70000D460646002404E00A213046FFF76CFFA9
:102E8000641CAC42F8D370BD001C0040000C004034
:102E900000FCFFBF794890F81C1401290CD1B0F850
:102EA0001E14A0F81A140021A0F81E1480F81C1497
:102EB000A0F82014A0F8181470472DE9F0476F4CC3
:102EC000282094F82214B1FBF0F200FB12106C4A97
:102ED0000128908024D028B3B0F102002227694D48
:102EE000694E84F823044FF0C0484FF4A0790129BB
:102EF0001AD0891E89B20020FFF777F9A8F8007070
:102F000094F82314002001EB81014A4605EBC1111E
:102F100031F810303380401C9042F9DBBDE8F08777
:102F20002720DBE72620D9E7EF210020FFF75DF916
:102F3000A8F800700020494605EB400202F5C042A7
:102F4000B2F880213280401C8842F5DBE6E72DE9AB
:102F5000F0414A4C4A4D94F822142888814202D309
:102F60006888814202D90320BDE8F0812820B1FBA6
:102F7000F0F200FB1210E880012839D0B8B3801EAF
:102F800084F823044FF0C04222201080891E89B2A9
:102F90007820FFF72AF994F823243A4978203A4E0A
:102FA00002EB8202F8274FF0FC0C01EBC21100BFCC
:102FB00031F81020328031F8102007EA122384F80B
:102FC000263431F810200CEAD20284F8272431F894
:102FD00010E0C82B0EF01F0E84F828E40CD9C82A84
:102FE00012D9D4F80824521CC4F8082411E001E0D6
:102FF0002720C5E72620C3E7642A05D2D4F80C248D
:10300000521CC4F80C2404E0D4F80424521CC4F864
:103010000424401CC828CBDBA8680026401CA860FC
:10302000502823DDAE60D4F80814D4F80C04814293
:1030300005D9D4F80424914201D9012006E0884240
:1030400007D9D4F80414884203D9022084F8100464
:1030500001E084F81064C4F80864C4F80C64C4F88F
:10306000046494F8101409A002F068FC94F82C048D
:10307000012801D184F82C64002075E74C60002001
:103080001C0000204C000020000002604154256418
:103090000D0A00000948804709480047FEE7FEE79F
:1030A000FEE7FEE7FEE7FEE7FEE7FEE7FEE7FEE7F8
:1030B00004480549054A064B704700005F58000860
:1030C0008901000860670020606D002060690020B1
:1030D000606900202849084328490860704730B5D6
:1030E0000F22C47801780123FCB1244C246801F13B
:1030F000E02104F4E064C4F5E064C4F30724C4F1FF
:103100000405E2404478AC408578154025432A0107
:1031100081F80024007800F01F018B4040098000F6
:1031200000F1E020C0F8003130BD01F01F00834005
:103130004809800000F1E020C0F8803130BD104A1D
:10314000114001430D48001F016070470B4A121DDA
:103150000029116801D0014300E0814311607047EC
:103160004FF0E0210428086903D020F00400086132
:10317000704740F00400FAE70000FA050CED00E0AB
:1031800080FFFF1F4C4800210160C1601F22426187
:103190008161C16101624162704730B5464A116880
:1031A00044F2010399431160136840F6F2718B43B6
:1031B00001884488C588214384882C43214304899D
:1031C000214344898089214301431943116030BD63
:1031D0000021018041808180C18001814181818104
:1031E000704701684FEA314233490A6240684FEA4A
:1031F00030404862704730490028086802D040F0EB
:10320000040001E020F0040008607047C178006805
:1032100061F31F60284988617047274900280868C2
:1032200002D040F0080001E020F00800086070477C
:1032300021490028086802D040F4804001E020F4D1
:103240008040086070471C490028086802D040F0A0
:10325000010001E020F00100086070471648806A14
:103260007047154A0029D16801D0014302E0C043EC
:1032700080B20140D160704702460020130B0E4916
:10328000012B06D0022B06D00969114200D0012083
:1032900070478968F9E74968F7E707494861704767
:1032A0000549024600200969114200D001207047FB
:1032B0000149486170470000000005502DE9F043C6
:1032C000016821F00101016000210160416081601D
:1032D000C160016121214161B849B84A3D251039D9
:1032E000904202D18D60BDE8F083B44A4FF4746619
:1032F0001832904201D18E60F5E7B04A4FF474174E
:103300003032904201D18F60EDE7AC4A4FF0746CDF
:103310004832904202D1C1F808C0E4E7A74BA84A5E
:103320006033984201D1CA60DDE7A44CA54B7834E4
:10333000A04201D1CB60D6E7DFF88082A24C08F131
:103340009008404501D1CC60CDE7DFF870824FF0A6
:103350003D5908F1A808404502D1C1F80C90C2E7D8
:103360009A49DFF868820839404501D10D60BAE713
:10337000964D1835A84201D10E60B4E7934D303513
:10338000A84201D10F60AEE7904D4835A84202D166
:10339000C1F800C0A7E78D4D8C496035091FA842D0
:1033A00001D10A609FE7894A7832904201D10B60CF
:1033B00099E7864A9032904201D10C6093E7834AA4
:1033C000A83290428FD1C1F800908CE730B50368E5
:1033D0007F4ACC6813400A682243D1E905452C4353
:1033E0002243CC6922430C6A22434C6A22438C6AF2
:1033F00022434C6B22438C6B22431A430260426986
:1034000022F00703D1E90B2422431A4342610A69DF
:1034100042604A6882608968C16030BD00210160F5
:1034200041608160C160016141618161C16101628E
:1034300041628162C1620163416381637047002917
:10344000016802D041F0010101E021F001010160B9
:1034500070470029016802D041F4004101E021F4E5
:103460000041016070470029016802D041F020014D
:1034700001E021F020010160704741607047406821
:1034800080B27047002A026802D042F4002201E0B4
:1034900022F400220260016170470029016802D015
:1034A00041F4802101E021F48021016070470AB1DC
:1034B00001617047C1607047014600200968090337
:1034C00000D501207047014600200968C90700D0D7
:1034D00001207047406900F03800704702463B4BBE
:1034E00000209A4202D2354A103A01E0374A103A97
:1034F0008B0001D5526800E01268364B1A400A4230
:1035000000D001207047314A904202D22B48103837
:1035100001E02E4810382F4A8B0001EA020101D544
:10352000C1607047816070470B0607D5436912B1CF
:1035300043F0800301E023F080034361802908D039
:10354000002A026801F01E0101D00A4300E08A430C
:103550000260704730B51D4A0024904202D2174BDA
:10356000103B01E0194B103B1B4A114205D01E22B3
:1035700002EAD12502682A4002E0406900F0800298
:10358000880001D5586800E01868124B18400842BE
:1035900001D002B10124204630BD0C4A904202D233
:1035A0000648103801E0094810380A4A8B0001EA41
:1035B000020101D5C1607047816070471060024010
:1035C0003D000020400F002000003D20106402401C
:1035D0003F801CF07D0F7D0F3C0F3C0F8100A1F15F
:1035E000C04148B143F2D200C1F800006FF0704012
:1035F0004860C1F8040170474FF0204243F2DB00FD
:103600001060F3E710B5D0E901121143D0E90323AC
:103610001A4311434269114382691143C26911433C
:10362000026A1143426A1143826A1143C26A11431A
:10363000026B114302689200A2F1C04211608168DE
:10364000082907D101688900A1F1C0410A6842F048
:1036500040020A60416BD1E9002342EA03128B6801
:103660008C891B0243EA04431A430B8A42EA035241
:103670000B7D896942EA03620A4301688900A1F16E
:10368000C0414A60C16AB1F5804F08D000686FF050
:1036900070418000A0F1C040C0F8041110BD816BE2
:1036A000D1E9002342EA03128B680C8A1B0243EA29
:1036B00004531A430B7D896942EA036200680A4396
:1036C0008000A0F1C040C0F8042110BD10B5002159
:1036D0000222C0E900128160C16001614161816123
:1036E000D202C161C0E908125200C0E90A21016397
:1036F000436B0F221A60436B5A60446BFF23A36035
:10370000446BE260446B2261446B6261446BA16173
:10371000846B2260846B6260846BA360836BDA606D
:10372000836B1A61836B5A61806B816110BD80006D
:10373000A0F1C0400029016802D041F0010101E080
:10374000C44A11400160704710B5182440234FF05F
:1037500020414FF0FC32102805D041F8804F4B60DB
:103760008A60CA6010BD0C664B668A66CA6610BD68
:1037700030B5D0E901121143D0E903231A431143B4
:10378000426941EA4221826941EA4231C26941F01B
:103790000804D2E9001341EA03211389127B1B04B8
:1037A00043EA0262036A1143D3E9002542EA052293
:1037B0001D891B7B2D0445EA03631A4303684FF000
:1037C0002040102B04D040F8804F8160C26030BD93
:1037D00004668166C26630BD10210160002141602F
:1037E0008160C160016141618161C269FC21116038
:1037F000C2695160C2699160C269D160026A116098
:10380000026A5160026A9160006AC16070474FF0BD
:10381000204251B1102804D052F8800F40F004002B
:103820000AE0106E40F004000AE08A49C91E102820
:1038300004D052F8800F084010607047106E0840A6
:10384000106670474FF0204251B1102804D052F852
:10385000800F40F040000AE0106E40F040000AE0A7
:103860007C493F39102804D052F8800F084010607E
:103870007047106E0840106670474FF020411028C6
:1038800002D0D1F894007047486F70474FF0204045
:10389000182140F8A01F002141604FF0FC318160E9
:1038A000C1600161704710B5D0E9001241EA4222BF
:1038B0008168102343EA41310A434FF0204141F827
:1038C000A02FC268D2E9003443EA04231489127B92
:1038D000240444EA026213438B600269D2E9003493
:1038E00043EA04231489127B240444EA026213434A
:1038F000CB604069D0E9002342EA03220389007BC0
:103900001B0443EA006002430A6110BD002101600C
:1039100041608160C268FC211160C2685160C26868
:103920009160C268D16002691160026951600269E8
:1039300091600269D16042691160426951604269D7
:1039400091604069C16070474FF02041002851F8F4
:10395000A00F02D040F0040002E03E4AD21E104008
:103960000860704710B54FF480744FF0204372B177
:10397000102804D0A04205D153F8840F04E0586EFB
:1039800008430DE053F8A40F0843186010BD102839
:1039900004D0A04206D153F8840F05E0586E884346
:1039A000586610BD53F8A40F8843EEE70346002085
:1039B0004FF02042102B08D0B3F5807F07D0D2F80B
:1039C000A4200A4200D001207047526EF9E7D2F8D5
:1039D0008420F6E74FF02042102807D0B0F5807F12
:1039E00008D052F8A40F884310607047506E884387
:1039F0005066704752F8840FF5E7034600204FF0F9
:103A00002042102B0CD0B3F5807F0BD0D2F8A4202D
:103A10000A4202EAD10102D0002900D001207047F9
:103A2000526EF5E7D2F88420F2E74FF020421028DA
:103A300008D0B0F5807F0AD052F8A40F20EAD10058
:103A400010607047506E20EAD1005066704752F8FF
:103A5000840FF3E7FEFF0F007C4910B5884206D1C2
:103A60000121084600F0F6FB002101204FE07849D3
:103A7000884206D10121022000F0ECFB0021022047
:103A800045E07449884206D10121042000F0E2FBA0
:103A9000002104203BE07049884206D10121082022
:103AA00000F0D8FB0021082031E06C49884206D1A3
:103AB0000121102000F0CEFB0021102027E06849F2
:103AC000884206D10121202000F0C4FB00212020E3
:103AD0001DE06449884206D10121402000F0BAFB74
:103AE0000021402013E06049884206D10121802056
:103AF00000F0B0FB0021802009E05C4988420AD137
:103B000084150121204600F0A5FB00212046BDE8D8
:103B1000104000F09FBB10BDF0B500230124032727
:103B20000D6804FA03F21540954242D1D0F800C066
:103B30005E0007FA06F52CEA050CC0F800C091F803
:103B400004C0D0F800E00CFA06FC4CEA0E0CC0F8F9
:103B500000C091F804C0BCF1010F02D0BCF1020F0B
:103B60001FD1D0F808C02CEA050CC0F808C091F8A5
:103B700005C0D0F808E00CFA06FC4CEA0E0CC0F8C0
:103B800008C0D0F804C02CEA020CC0F804C0426897
:103B900091F806C00CFA03FC1FFA8CFC42EA0C02F6
:103BA0004260C268AA43C260CA79C568B2402A436B
:103BB000C2605B1C102BB3D3F0BD4FF6FF710160E8
:103BC0000021017141718171C171704708B541F4E3
:103BD00080320092C261C1610099C161C169C0694E
:103BE000009008BD0246002012690A4200D0012060
:103BF0007047006980B270470246002052690A424D
:103C000000D001207047406980B27047018370473F
:103C1000418370470AB10183704741837047416116
:103C2000704742694A40426170474B07DB0E9A4039
:103C3000C90810B500EB8100016A0F249C40A14324
:103C40000162016A1143016210BD000000000240E0
:103C50000004024000080240000C02400010024034
:103C60000014024000180240001C024000200240E4
:103C7000C94910B5884202D101214C050AE0C74963
:103C8000884202D101218C0504E0C54988420AD14D
:103C90000121CC05204600F0FBFA2046BDE810408B
:103CA000002100F0F5BA10BD7FB5044680880D46AE
:103CB00020F03F06684600F037FABA490298B0FB98
:103CC000F1F189B20E43A680228822F001022280FF
:103CD000B54B2A689A421BD85200B0FBF2F080B272
:103CE000042800D20420491C2184A083208840F0AD
:103CF0000100208021884FF6F5300140A8886A89AC
:103D0000104308432080A8892989084320817FBD6A
:103D1000EB88A3F53F46FF3E0BD002EBC20303EB5B
:103D20000212B0FBF2F080B240F48040020506D0EF
:103D300007E002EB4202B0FBF2F080B2F6E740F09F
:103D400001004FF4967251434FF47A72B1FBF2F1D5
:103D500040F40040C7E741F28831016000218180D2
:103D60004BF6FF72C280018141814FF48041818115
:103D700070470029018802D041F0010101E021F0E3
:103D80000101018070470029018802D041F480714F
:103D900001E021F48071018070470029018802D080
:103DA00041F4007101E021F400710180704712B10B
:103DB00041F0010101E001F0FE010182704700299C
:103DC000018802D041F4806101E021F4806101802A
:103DD0007047828901F0FE0122F0FE0211438181C9
:103DE00070470029818902D041F0010101E021F0F2
:103DF0000101818170470029018802D041F0400112
:103E000001E021F04001018070470029018802D0C3
:103E100041F4004101E0C1F30E0101807047002927
:103E2000018803D021F080010180704741F08001BA
:103E3000FAE7B1F5804F818B02D021F4804101E097
:103E400041F4804181837047B1F5006F018803D050
:103E500021F400610180704741F40061FAE7B1F597
:103E6000005F018803D021F400510180704741F4C4
:103E70000051FAE70029018802D041F0100101E069
:103E800021F010010180704701827047008AC0B2A2
:103E900070470029018802D041F4805101E021F4EB
:103EA000805101807047B1F5006F018803D021F483
:103EB00000610180704741F40061FAE70029018840
:103EC00002D041F0200101E021F020010180704783
:103ED000008B000A70470029818802D041F40061FC
:103EE00001E021F40061818070470029818802D0BF
:103EF00041F4805101E021F480518180704708B580
:103F000008440090008808BD002A828801D00A4336
:103F100000E08A438280704702460020938A128B19
:103F200043EA024323F07F42914300D101207047CE
:103F3000818A008B41EA004121F07F4070470CB537
:103F40000246002000920A0F21F07F41019202D028
:103F5000009A143202E0009A090C1832009212689A
:103F60000A4200D001200CBDC9438182704710B5C0
:103F7000034600209A884FF4E06404EA11449B8AC7
:103F8000224021F07F410B4202D0002A00D00120C4
:103F900010BDC94381827047005400400058004062
:103FA000005C004040420F00A0860100EA48016822
:103FB00041F001010160E84A002108321160026805
:103FC000E64B1A400260031DE54A1A60026822F4BB
:103FD00080220260E0480C3001607047DE49002218
:103FE000891C0A7008707047024600205109012997
:103FF0000CD002290CD0D8497431096802F01F0294
:10400000012393400B4200D001207047D249F4E7CE
:10401000D1497031F1E718B500204FF4A064009049
:104020003120FFF7E1FF0099491C0091A14201D026
:104030000028F5D03120FFF7D7FF002800D001205D
:1040400018BDC5490A6822F0F80242EAC0000860BB
:104050007047C44908607047BF49002270310A7038
:104060000A70012802D0042801D105200870704789
:10407000BD490860704741EA82115A0810B5BB4B30
:10408000029C03EB02421143014341EA0460B2493E
:10409000091D086010BDB34908667047800140EAF9
:1040A0000170AD49843108607047AE498866704739
:1040B000AC49C8647047A84A08321368084323F023
:1040C000EC63184310607047A34A08321368084332
:1040D00023F078431843106070479F4A08321168F4
:1040E00021F003010143116070479B4808300068CC
:1040F00000F00C007047984A0832116821F0F00176
:10410000014311607047944A0832116821F4E0516C
:10411000014311607047904908310A6822F46042F7
:1041200042EAC0000860704770B58B4A08321168D7
:104130008F4C11F00C0104D06610042903D008291B
:1041400003D004601BE0066019E08349091D0B6879
:10415000C3F380550B6803F03F0315B1B6FBF3F3CF
:1041600001E0B4FBF3F30C680968C4F388146343FB
:10417000C1F30141491C4900B3FBF1F10160116831
:104180000F2303EA11117B4B5C5C0168E140416045
:104190001468072505EA94241C5D21FA04F4846060
:1041A000126805EA52329A5CD140C16070BDC0F31A
:1041B0000121032908D1684A0832116821F4F81353
:1041C0006D49014019431160634970310A68C0F3B9
:1041D0000B0002430A607047634944390860704726
:1041E00061494039086070475E49C1F85C01704719
:1041F000594A30320029116801D0014300E081435F
:1042000011607047544A34320029116801D00143CB
:1042100000E08143116070474F4A3832002911682D
:1042200001D0014300E08143116070474A4A4032A7
:104230000029116801D0014300E0814311607047FB
:10424000454A44320029116801D0014300E081430E
:1042500011607047404A10320029116801D00143B3
:1042600000E08143116070473B4A14320029116815
:1042700001D0014300E0814311607047364A183293
:104280000029116801D0014300E0814311607047AB
:10429000314A20320029116801D0014300E08143F6
:1042A000116070472C4A24320029116801D0014363
:1042B00000E0814311607047274A5032002911689D
:1042C00001D0014300E0814311607047224A54321B
:1042D0000029116801D0014300E08143116070475B
:1042E0001D4A58320029116801D0014300E0814382
:1042F00011607047184A60320029116801D00143EB
:1043000000E0814311607047134A6432002911684C
:1043100001D0014300E08143116070470E4A0D3225
:104320000029117801D0014300E0814311707047EA
:1043300009487430016841F080710160704701469E
:10434000054A00200C3212680A4200D00120704752
:1043500001490E310870704700380240FFFFF6FE39
:104360001030002400004742800E47420000FFFF4B
:104370000024F40028000020FFFCFF0FD04910B5F6
:10438000884206D101211020FFF78CFF0021102068
:1043900028E0CC49884202D101214C0410E0CA49EE
:1043A000884202D101218C040AE0C849884202D126
:1043B0000121CC0404E0C64988420AD101210C0540
:1043C0002046FFF765FF2046BDE810400021FFF7BB
:1043D0005FBFC049884209D101212020FFF762FF59
:1043E00000212020BDE81040FFF75CBF10BD7FB565
:1043F0000446008A0D4620F44051E8880843208294
:10440000A08941F20C618843A9882A8911436A89ED
:1044100002431143A181A08A20F44071A889084376
:10442000A0826846FFF780FEA548844202D0A948D2
:10443000844201D1039800E00298A189090400EBAD
:10444000C00101EB0010296801D5490000E0890096
:10445000B0FBF1F26420B2FBF0F109010B096FF03F
:1044600018056B4302EB8302A3891D044FF032034E
:1044700006D503EBC202B2FBF0F000F0070005E046
:1044800003EB0212B2FBF0F000F00F0008432081B2
:104490007FBD4FF41651016000218180C1800181F0
:1044A0000C2242818181704710B5028A4C8822F427
:1044B00070630A8822438C88C9880C4322431A43BC
:1044C000028210BD0021018041808180C18070473F
:1044D0000029818902D041F4005101E021F400510A
:1044E00081817047028B02F47F420283028B0A4370
:1044F000028370470029818902D041F4004101E024
:10450000C1F30E01818170470029818A02D041F4F4
:10451000006101E021F4006181827047C94301809C
:1045200070470246002012880A4200D001207047DE
:1045300010B50B46044680212046FFF7F2FF002805
:10454000F9D080212046FFF7E9FF40212046FFF700
:10455000E5FFC3F30800A08010BD8088C0F3080009
:104560007047028A22F00F020282028A0A43028204
:1045700070470029818902D041F0020101E021F059
:10458000020181817047828922F4006282818289DE
:104590000A4382817047028A22F020020282028A44
:1045A0000A43028270470029018A02D041F4804107
:1045B00001E021F4804101827047818941F00101CD
:1045C000818170470029818A02D041F0080101E011
:1045D00021F0080181827047028BD2B20283028BE4
:1045E00042EA0121018370470029818A02D041F00B
:1045F000200101E021F02001818270470029818A99
:1046000002D041F0100101E021F0100181827047D9
:10461000828A22F004028282828A0A43828270475E
:104620000029818A02D041F0020101E021F002015B
:1046300081827047002A828A01D00A4300E08A43BF
:104640008282704710B5C1F3421301F01F040121AB
:10465000A140012B07D0022B07D01430002A02689A
:1046600005D00A4304E00C30F8E71030F6E78A433F
:10467000026010BD30B501F01F0201240025C1F316
:10468000421304FA02F2012B0FD0022B0FD0838ABF
:104690004FEA11210088134204FA01F400EA0400F1
:1046A00001D000B10125284630BD8389F0E7038A97
:1046B000EEE70A0A01219140C943018070470000DA
:1046C000001001400044004000480040004C004001
:1046D0000050004000140140FE4910B588424FF0E0
:1046E000010101D14C0601E04FF080642046FFF744
:1046F000CFFD2046BDE810400021FFF7C9BD10B531
:104700000368002223F002030360036843F00103FF
:1047100003604FF6FF7300E0521C4468E40701D1C8
:104720009A42F9D14268D2073ED08A79012A0268BA
:104730003CD022F080020260CA79012A026838D097
:1047400022F0400202600A7A012A026834D022F084
:10475000200202604A7A012A026830D022F0100258
:1047600002608A7A012A02682CD022F008020260D4
:10477000CA7A012A026828D022F0040202608A78EC
:10478000CC78920742EA04620C7942EA04424C79FE
:10479000098842EA0452491E0A43C261016821F0B5
:1047A00001010160002114E0002010BD42F08002F0
:1047B000C1E742F04002C5E742F02002C9E742F0FB
:1047C0001002CDE742F00802D1E742F00402D5E73B
:1047D000491C4268D20701D09942F9D14068C0070C
:1047E000E2D1012010BDF0B5827A01219140BA4A90
:1047F000136843F001031360B74B1C331C688C43F0
:104800001C60B54D067BB54C0C35A6B92E688E43A1
:104810002E604688C78846EA0746877A04EBC707B2
:10482000C7F840660688878846EA0746877A04EB19
:10483000C707C7F84466067B012E12D12E680E43C7
:104840002E60867A056804EBC6064FEA3545C6F841
:104850004056867A456804EBC6044FEA3545C4F8ED
:1048600044569D4CC57A241D002D256806D00D4365
:104870002560994C0589143415B104E08D43F7E7A0
:1048800025688D4325600589012D02D125680D43DA
:104890002560407B012802D1186808431860106821
:1048A00020F001001060F0BD00218171C171017222
:1048B00041728172C1728170C17003210171022144
:1048C000417101210180704783490A6842F0010269
:1048D0000A600A6843F60E739A430A600A6842EA5D
:1048E00000200860086820F0010008607047002977
:1048F000016802D041F4803101E021F4803101608F
:1049000070470029016813D041F080010160D0F8A0
:10491000841141F48071C0F88411D0F8941141F4ED
:104920008071C0F89411D0F8A41141F4807112E0A4
:1049300021F080010160D0F8841121F48071C0F869
:104940008411D0F8941121F48071C0F89411D0F83A
:10495000A41121F48071C0F8A411704730B502464B
:10496000002093685B0108D49068000101D5012004
:1049700003E09068C00037D5022002EB0012D2F8A5
:10498000803103F00103C2F880310B7A73B3D2F89F
:1049900080414D681C434B7A43EAC5031C43C2F86F
:1049A00080418B7A03F00F038B72D2F8843123F0AD
:1049B0000F03C2F88431D2F884318C7A2343C2F8D1
:1049C0008431CB7ACC6843EA0423C2F88831CB7BAC
:1049D000096943EA0121C2F88C11D2F8801141F033
:1049E0000101C2F8801130BD042030BDD2F8803101
:1049F0004C7A23430C8843EA4453C2F88031D0E711
:104A0000002221B1012905D0022906D112E08268D5
:104A1000334801E08268334802403349501A8A42E1
:104A200014D00ADCA2B16FF0806010180FD00228F9
:104A30000CD10FE082682D48EEE7B0F5007F09D079
:104A40002B49401803D0B0F5003F03D00020704739
:104A5000022070470120704741B101290AD0022984
:104A600003D1816841F4000181607047816841F0A1
:104A70008001F9E7816841F40041F5E710B500EBEA
:104A80000113D3F8B04114F004041472D3F8B04108
:104A900045D0E408C2F80440D3F8B04104F0020461
:104AA0005472D3F8B44104F00F049472D3F8B441B3
:104AB000240AD474D3F8B841D472D3F8B841240A84
:104AC0001473D3F8B841240C5473D3F8B841240EAE
:104AD00094730FE0006400400066004000600040F6
:104AE0000300000400030008000100080000031098
:104AF0000001FFF7D3F8BC41D473D3F8BC41240ABA
:104B00001474D3F8BC41240C5474D3F8BC311B0E7C
:104B1000937439B1016941F02001016110BD640D48
:104B20001460B9E7C16841F02001C16010BD21B136
:104B3000016941F0200101617047C16841F0200125
:104B4000C16070470246002029B1012902D11069D5
:104B500000F003007047D068FAE700234FF6FF72B9
:104B600021B1012917D0022924D03AE0016821F0AF
:104B7000020141F00101016000E0521E416801F0B4
:104B80000301012901D0002AF7D1406800F0030099
:104B9000012823D124E0016821F00301016000E035
:104BA000521E4168890701D0002AF9D14068800768
:104BB00014D115E0016821F0010141F0020101600A
:104BC00000E0521E416801F00301022901D0002AD1
:104BD000F7D1406800F00300022801D0002300E074
:104BE0000123184670470268002122F0010242F0BA
:104BF00002020260406800F00300022800D1012197
:104C00000846704703684FF6FF71002223F0020345
:104C1000036000E0491E43689B0701D50029F9D1D4
:104C20004068800700D40122104670478069C0F3B5
:104C30000210000170478069000E70478069C0F360
:104C400007407047002A426901D00A4300E08A43C6
:104C5000426170470246002011F4700F03D0926940
:104C600004E001207047CB0104D552680A401103CB
:104C7000F7D170470B0101D59268F7E78B0101D599
:104C8000D268F3E71269F1E7534A914202D1002159
:104C900081617047C1F313028B0101D5C260704777
:104CA0004B0101D502617047090101D5826070474F
:104CB000426070470246002053690B424AD0B1F56A
:104CC000807F3BD013DC08292ED007DC012926D0B9
:104CD000022927D004293DD1D0682BE0102925D006
:104CE000202926D0402935D11069102130E0B1F5B6
:104CF000004F2BD00BDCB1F5007F22D0B1F5806FD7
:104D000022D0B1F5006F25D19069702120E0B1F576
:104D1000803F11D0B1F5003F1CD15068E5E79068A5
:104D20002E4915E0D06802E0D068DEE71069032163
:104D30000EE0106908210BE05068FBE79069012143
:104D400006E09069022103E0906900E050680421C8
:104D500000F03BB8704730B5082310240422B1F5A9
:104D6000007F1DD010DC202929D007DC012921D0AB
:104D7000042922D0082900D1C46030BD402920D0A8
:104D8000B1F5807FF9D10BE00025B1F5004F06D0D9
:104D900008DCB1F5806F03D0B1F5006FEDD185610E
:104DA000426030BDB1F5803F0DD0B1F5003FF8D184
:104DB000446030BD0949816030BDC36030BD0361CE
:104DC00030BD046130BD436030BD024600200A4260
:104DD00000D00120704700007000F0300101010098
:104DE000FE4910B5884206D101210846FFF75AFA5C
:104DF000002101205BE0B0F1804F09D0F8498842E2
:104E00000DD101210220FFF743FA0021022070E0BA
:104E100001210846FFF73CFA0021012069E0F14931
:104E2000884206D101210420FFF732FA0021042034
:104E30005FE0ED49884206D101210820FFF728FAFA
:104E40000021082055E0E949884206D101211020BF
:104E5000FFF71EFA002110204BE0E549884206D1F9
:104E600001212020FFF714FA0021202041E0E14930
:104E7000884206D101210220FFF714FA0021022006
:104E800015E0DD49884202D101210C040AE0DB492A
:104E9000884202D101214C0404E0D94988420AD158
:104EA00001218C042046FFF7FDF900212046BDE8D2
:104EB0001040FFF7F7B9D349884206D101214020BD
:104EC000FFF7E6F90021402013E0CF49884206D1E0
:104ED00001218020FFF7DCF90021802009E0CB4987
:104EE00088420AD1841501212046FFF7D1F900211B
:104EF0002046BDE81040FFF7CBB910BD30B50288A1
:104F0000B64BBC4C98420DD0A0420BD0B0F1804FB4
:104F100008D0B34DA84205D0B24DA84202D0B24D40
:104F2000A84203D122F070054A882A43AF4DA84217
:104F300006D0AF4DA84203D022F440750A892A4317
:104F400002804A68C2620A880285984201D0A04263
:104F500001D1897A01860121818230BD4FF0FF3174
:104F6000416000210180018141808172704701858B
:104F700082827047028822F070020A4302807047E2
:104F800041627047C1627047406A7047008D704748
:104F90000029018802D041F0020101E021F0020164
:104FA000018070470029018802D041F0040101E02E
:104FB00021F00401018070470029018802D041F0EE
:104FC000800101E021F0800101807047028822F019
:104FD0000802028002880A4302807047028822F495
:104FE0004072028002880A430280704700290188CB
:104FF00002D041F0010101E021F001010180704780
:1050000030B5028C22F001020284028C8388048B6A
:1050100022F0020224F073050C882C438D8915437D
:105020004A882A436D4DA84202D0724DA8420DD144
:1050300022F00805CA8923F440732A4322F00405AC
:105040008A882A430D8A1D434B8A2B43838004831D
:1050500089684163028430BD70B5028C22F0100271
:105060000284028C8488038B0D8823F4E6464FF675
:10507000FF7303EA052535438E8922F0200203EAF7
:10508000061616434A8803EA02123243534EB042D0
:1050900002D0584EB04215D122F08006CA8924F4BD
:1050A000406403EA0212324322F040068A8803EA8F
:1050B000021232430E8A03EA860626434C8A03EA2A
:1050C000840434438480058389688163028470BDCD
:1050D00070B5028C22F480720284028C8488838BE7
:1050E0000D8823F073031D4322F400738E894FF65D
:1050F000FF7202EA06261E434B8802EA032333436B
:10510000364EB04202D03B4EB04215D123F4006679
:10511000CB8924F4405402EA0323334323F480660A
:105120008B8802EA032333430E8A02EA06162643DB
:105130004C8A02EA04143443848085838968C163FD
:10514000038470BD70B5028C22F480520284048CFA
:105150008288838B0D8823F4E6464FF6FF7303EABB
:105160000525354324F400568C8903EA043434437E
:105170004E8803EA06362643184CA04202D01D4C46
:10518000A04205D122F480440A8A03EA8212224313
:105190008280858389680164068470BD0021018056
:1051A0004180818081608181C1810182418270471B
:1051B00030B50124058C00F118038C40A54305840B
:1051C00031B308292CD0091FC1F34E0018440168DF
:1051D00048F6FF731940016001681AE000000140C1
:1051E0000004004000080040000C00400010004097
:1051F0000014004000040140004001400044014010
:105200000048014000180040001C00400020004001
:1052100006E04FF6FF7303EA02221143016030BD3E
:1052200003EB510001684FF68F731940016001686C
:10523000F3E74163704781637047C163704701645E
:105240007047028B22F070020A4302837047028B80
:105250004FF6FF7322F4E04203EA01211143018378
:105260007047828B22F070020A4382837047828BE0
:105270004FF6FF7322F4E04203EA012111438183D8
:105280007047028B22F008020A4302837047028BA8
:105290004FF6FF7322F4006203EA012111430183F8
:1052A0007047828B22F008020A4382837047828B08
:1052B0004FF6FF7322F4006203EA01211143818358
:1052C0007047028B22F004020A4302837047028B6C
:1052D0004FF6FF7322F4806203EA01211143018338
:1052E0007047828B22F004020A4382837047828BCC
:1052F0004FF6FF7322F4806203EA01211143818398
:105300007047028B22F080020A4302837047028BAF
:105310004FF6FF73C2F30E0203EA0121114301832A
:105320007047828B22F080020A4382837047828B0F
:105330004FF6FF73C2F30E0203EA0121114381838A
:105340007047028C22F002020A4302847047028CEA
:1053500022F008020A4302847047028C4FF6FF7362
:1053600022F0200203EA0111114301847047028CEC
:105370004FF6FF7322F0800203EA0111114301840A
:105380007047028C4FF6FF7322F4007203EA01218A
:10539000114301847047028C4FF6FF7322F40062C0
:1053A00003EA0121114301847047028C4FF6FF7319
:1053B00022F4005203EA013111430184704710B511
:1053C0000123048C8B409C430484038C8A40134348
:1053D000038410BD10B50423048C8B409C430484CB
:1053E000038C8A401343038410BD828B22F44062F5
:1053F0008283828B4FF6FF7303EA01210A43828383
:105400007047828B22F00C028283828B0A43828354
:105410007047028B22F440620283028B4FF6FF73C7
:1054200003EA01210A4302837047F0B5048C24F09B
:1054300010040484078B068C4FF6FF7404EA0115F0
:1054400027F4734704EA0331394304EA02220A438A
:1054500026F0A001294341F0100102830184F0BD30
:10546000028B22F00C020283028B0A4302837047F4
:105470002DE9F0410D460E884988AA882B890446FB
:105480000EB3042E26D0082E268C4FF6FF7028D09F
:1054900026F480562684A78B268C00EA022200EA96
:1054A000013127F473473A4300EA0330104326F4EE
:1054B00020420A4342F48051A0832184E988204697
:1054C000BDE8F04191E700F062F9E9882046BDE8C7
:1054D000F041C5E7FFF7A9FFE9882046BDE8F041A4
:1054E00097E726F480762684A78B268C00EA012194
:1054F00000EA0310104327F0F307384326F4206234
:105500000A4342F48071A0832184E9882046BDE8E3
:10551000F04176E700210180418001228280C18034
:10552000018170472DE9F0410C4600264988074665
:10553000012501B90226A288012A00D1022520886E
:1055400023890028384610D0FFF76FFFE1883846DE
:10555000FFF75FFF23892A463146384600F017F9E6
:10556000E1883846BDE8F0417AE700F010F9E188BB
:105570003846FFF775FF23892A4631463846FFF73C
:1055800054FFE1883846BDE8F04142E7406B704780
:10559000806B7047C06B7047006C704710B50A880D
:1055A0004B88CC881A438B8823431A430B891A43B0
:1055B0004B8989891A430A43A0F8442010BD002171
:1055C000018041808180C18001814181818170475A
:1055D000002930F8441F02D041F4004101E0C1F33A
:1055E0000E01018070470029818802D041F004013A
:1055F00001E021F00401818070470029818802D0F8
:1056000041F0010101E021F0010181807047002A91
:10561000828901D00A4300E08A43828170478182F7
:10562000704702460020128A0A4200D001207047CB
:10563000C9430182704702460020138A92890B42B7
:1056400002EA010202D0002A00D001207047C943BB
:10565000018270471143A0F848107047002A8289E0
:1056600001D00A4300E08A43828170470029818883
:1056700002D041F0080101E021F00801818070476B
:10568000018921F0070101817047028922F070022F
:105690000A430281704700B50346FFF7F6FF1889F9
:1056A00040F00700188100BD70B516460D46602910
:1056B00004464FF0010231460AD000F068F829464E
:1056C0002046FFF7E2FF208940F00700208170BDEF
:1056D000FFF7ABFEF3E730B504894FF6FF7505EA37
:1056E00003231343E4B20B432343038130BD10B5BE
:1056F0000446FFF7F0FF208940F07700208110BDBD
:1057000010B50446FFF7E7FF208940F48040208170
:1057100010BD828822F07002828082880A438280D3
:105720007047028922F00702028102890A4302813E
:105730007047028922F08002028102890A430281B5
:10574000704770B50589048B068C25F007050D435D
:105750004FF6FC410C4040F201110C434FF6FF7133
:1057600001EA031126F02206114331430581048327
:10577000018470BD0029818802D041F0800101E0E0
:1057800021F0800181807047A0F85010704770B5FB
:10579000048C24F001040484058B048C4FF6FF76FE
:1057A00006EA0313134325F0F3052B4324F00A0202
:1057B0000A4342F001010383018470BD0CB500204F
:1057C0005449019000900A6842F480320A604FF414
:1057D000A0630A6802F400320092019A521C0192FE
:1057E000009A12B9019A9A42F3D10A68920334D509
:1057F0000120009047484030026842F08052026029
:105800004548026842F4804202604248083002681B
:105810000260026842F400420260026842F4A05250
:105820000260031F3D4A1A600A6842F080720A60F3
:105830000A689201FCD53A4A40F20561116001689C
:1058400021F003010160016841F00201016001687B
:10585000C1F381010229FAD10CBD00900CBD314881
:1058600010B5016841F4700101602A48016841F0F7
:1058700001010160274A00210832116002682A4BA9
:105880001A400260031D294A1A60026822F480222D
:10589000026020480C300160FFF790FF21494FF073
:1058A00000608039086010BD70B51A4C083420685B
:1058B0001F4A10F00C011F4804D05510042903D0D2
:1058C000082903D002601BE0056019E01149091D99
:1058D0000B68C3F380560B6803F03F0316B1B5FBAA
:1058E000F3F201E0B2FBF3F20B680968C3F388132B
:1058F0005A43C1F30141491C4900B2FBF1F1016077
:1059000021680C4AC1F30311121D515C0268CA40A0
:10591000026070BD0038024000700040085440072B
:10592000003C024088ED00E0FFFFF6FE103000244E
:105930000024F40038000020704700000FB4044930
:1059400010B503AA029800F089F910BC5DF814FBA9
:10595000100000200FB41CB5074B06AA7B44694613
:105960000090059800F04BF90020694600F05AF9C4
:105970001CBC5DF814FB0000C50200002DE9F041DD
:105980000E460446002020622046E168884730B376
:10599000252805D0D4E901219047206A401CF2E770
:1059A000E168204600278847050018D0A5F141008E
:1059B000192802D820354FF4006732462946204680
:1059C0002760FAF71BFC40B1012804D0F61D26F031
:1059D00007060836D8E7361DD6E72846DAE7206AF4
:1059E000BDE8F08170B50C460546012A05D028783F
:1059F000800600D5EA69002302E0012305E05B1C74
:105A0000934202D2E05C0028F9D1A869E618C01AD6
:105A1000A861286A184428622846AFF3008004E091
:105A2000D5E9012114F8010B9047B442F8D3284678
:105A3000AFF3008070BD00002DE9F0410646002460
:105A400010687529314616A510D0AFF300800028E4
:105A500002DA404213A507E031688A0701D512A592
:105A600002E0490704D511A5012401E0AFF300804D
:105A700000210A2206F1240709E0B0FBF2FCB0FB8A
:105A8000F2F302FB1C00303078541846491C002801
:105A9000F3D123462A463046BDE8F04100F051B824
:105AA000000000002D0000002B000000200000007E
:105AB000032A40F2308010F0030C00F0158011F83A
:105AC000013BBCF1020F624498BF11F801CB00F812
:105AD000013B38BF11F8013BA2F1040298BF00F866
