:020000040800F2
:1000000028D10020952A0008192900081B2900087A
:100010001D2900081F2900082129000800000000F0
:10002000000000000000000000000000232900087C
:1000300025290008000000002729000829290008B8
:10004000AF2A0008AF2A0008AF2A0008AF2A00082C
:10005000AF2A0008AF2A0008AF2A0008AF2A00081C
:10006000AF2A0008AF2A0008AF2A0008AF2A00080C
:10007000AF2A0008AF2A0008AF2A0008AF2A0008FC
:10008000AF2A0008AF2A0008AF2A0008AF2A0008EC
:10009000EF290008AF2A0008AF2A0008AF2A00089D
:1000A000AF2A0008AF2A0008AF2A0008AF2A0008CC
:1000B000AF2A0008AF2A0008AF2A0008AF2A0008BC
:1000C000AF2A0008AF2A0008AF2A0008AF2A0008AC
:1000D000AF2A00082D290008AF2A0008C729000808
:1000E000AF2A0008AF2A0008AF2A0008AF2A00088C
:1000F000AF2A0008AF2A0008AF2A0008AF2A00087C
:10010000AF2A0008AF2A0008AF2A0008AF2A00086B
:10011000AF2A0008AF2A0008AF2A0008AF2A00085B
:10012000AF2A0008172A0008AF2A0008AF2A0008E3
:10013000AF2A0008AF2A0008AF2A0008AF2A00083B
:10014000AF2A0008AF2A0008AF2A0008AF2A00082B
:10015000AF2A0008AF2A0008AF2A0008AF2A00081B
:10016000AF2A0008AF2A0008AF2A0008AF2A00080B
:10017000AF2A0008AF2A000853290008AF2A000858
:10018000AF2A0008AF2A000800F002F800F044F897
:100190000AA090E8000C82448344AAF10107DA45E2
:1001A00001D100F039F8AFF2090EBAE80F0013F0F0
:1001B000010F18BFFB1A43F00103184774520000E7
:1001C00094520000103A24BF78C878C1FAD8520778
:1001D00024BF30C830C144BF04680C6070470000C1
:1001E0000023002400250026103A28BF78C1FBD840
:1001F000520728BF30C148BF0B607047642904F024
:100200002D84632904F02F85002070471FB504F06A
:10021000B9FD1FBD10B510BD04F07AFD1146FFF702
:10022000F5FF00F011F804F098FD03B4FFF7F2FFBA
:1002300003BC02F0D3FA000001B57E480099C1600A
:10024000C1680029FCD108BD7B484FF47A710124B4
:10025000006886B0B0FBF1F0B0F1807F39D220F0B9
:100260007F414FF0E020491E4161744AF02182F83D
:10027000141D002585610721016102A803F054FCCB
:100280000121084603F0B4FC02268DF805608DF8C4
:1002900004406B4C8DF8065000968DF80750694667
:1002A000204603F039F90221204603F0B1F94FF45A
:1002B000A06002F00FFC02F0C9F900F0A8FC4FF4B6
:1002C000784001F0EEFF00F049FB5E4C10B15EA1FA
:1002D00001E0FEE761A1204602F0BDFA46F26801A6
:1002E000112004F047FD0021084601F0BCFF02F098
:1002F00021F901215E4802F0A2FD012002F098FCE4
:10030000012002F0A0FC4FF4FA70FFF795FF59A10D
:10031000204602F0A0FA6420FFF78EFF454C2680AD
:10032000594FDFF8688165804FF022094FF0C04ACD
:100330004FF4A07B20880028FCD1268054480088F8
:100340000128F7D1534908882822B0FBF2F302FBB9
:100350001300A080012826D038B3801EE0800888D2
:10036000012824D00888801E81B2002001F07BFF84
:10037000AAF80090E288002002EB820241465B4628
:1003800007EBC21232F810C0A1F800C0401C80B2C6
:100390009842F7D3A06842F21071401CA0608842D6
:1003A000C8DDA560C6E72720D8E72620D6E7EF21DD
:1003B000002001F058FFAAF80090002041465A465C
:1003C00007EB400303F5C043B3F880310B80401CBA
:1003D00080B29042F4D3DDE7164841884A1C42803F
:1003E00041F28832914201D900214180C16800293F
:1003F00002D0C168491EC16070471CB501210820A8
:1004000003F0F6FB8020009001208DF8040000200E
:100410008DF8060003218DF805101F4C8DF807009C
:100420006946204603F078F88021204603F0F0F872
:100430001CBD000000000020340000200FE000E0A0
:10044000000002400048004043616D657261204930
:100450006E6974206661696C7321210043616D656A
:10046000726120496E6974204F6B212100000000E9
:100470002864024043616D657261204145435F46D7
:10048000756E2E2E2E000000C802002000000260B3
:100490001E0000201C000020000C024030B587B078
:1004A0000121022003F0A4FB0121880503F0BEFB1B
:1004B000904D04220A21284603F0B7F804220B21AC
:1004C000284603F0B2F84FF44060049002208DF803
:1004D000140001218DF8161000248DF815408DF8B8
:1004E000171004A9284603F017F8834D284603F097
:1004F000BFF8ADF804404BF6FF70ADF80600FE20E3
:10050000ADF808002815ADF80A000001ADF80C00A0
:100510007A4800900121284603F02BF969462846C5
:1005200003F0C2F80121284603F049F907B030BDB5
:100530002DE9F047724C8046894620686E4E0121B5
:10054000304603F020F925686E4F01E06D1E30D370
:100550003946304603F0E0F90028F7D00022422166
:100560003546304603F023F92668674F01E0761ED2
:100570001FD33946284603F0CFF90028F7D041466B
:100580002E46284603F080F9256837465E4EB61C95
:1005900001E06D1E0DD33146384603F0BDF9002849
:1005A000F7D04946384603F06FF9246804E0641E2A
:1005B00002D2FF20BDE8F0873146384603F0ACF99F
:1005C0000028F4D00121384603F0E7F80020F1E7D5
:1005D0002DE9F05F4A4D834689462868464C14341D
:1005E000208840F480602080DFF80C8101214046A3
:1005F00003F0C9F82E68434F01E0761E61D33946F7
:10060000404603F089F90028F7D0002243214046F4
:1006100003F0CDF82E68DFF8F0A001E0761E50D38D
:100620005146404603F078F90028F7D05946404635
:1006300003F02AF92E68DFF8D0A00AF1020A01E0DF
:10064000761E3ED35146404603F066F90028F7D0A7
:10065000208840F48060208001214646404603F017
:100660009CF80121304603F08EF8A8462D6801E081
:100670006D1E26D33946304603F04EF90028F7D0D8
:10068000012243213546304603F091F8D8F8007036
:100690004646DFF8708008F1010801E07F1E10D3A4
:1006A0004146284603F038F90028F7D000212F46AC
:1006B000284603F084F83568124E3F3604E06D1E7C
:1006C00002D2FF20BDE8F09F3146384603F024F9FE
:1006D0000028F4D00121384603F05FF8384603F0D3
:1006E000D5F889F80000208840F480602080002040
:1006F000E8E700000004024000580040A086010026
:100700001000002001000300820007002DE9F043E3
:1007100097B00121172003F06BFA0121084603F07E
:1007200071FADE4C0D220421204602F07EFF0D22DC
:100730000621204602F079FFDFF864830D220721AD
:10074000404602F072FFDFF85C930D220621484616
:1007500002F06BFF0D220A21204602F066FF0D22F7
:100760000821484602F061FF0D220921484602F0A7
:100770005CFFCD4F0D220421384602F056FF0D22BA
:100780000621404602F051FF0D220521384602F0B5
:100790004CFF0D220621384602F047FF4FF48260DD
:1007A0000F9002208DF8400003268DF8416001254E
:1007B0008DF842508DF843500FA9204602F0ACFE50
:1007C000C0200F900FA9404602F0A6FE4FF45070D3
:1007D0000F900FA9484602F09FFE70200F900FA9BE
:1007E000384602F099FE40200F900FA9204602F0F3
:1007F00093FE00242020ADF84C008020ADF8484046
:10080000ADF84E00ADF85040ADF84A40ADF852405A
:10081000ADF8544012A802F0C0F90121082002F0FE
:1008200020FA0121102002F01CFA0121084602F0F2
:1008300018FA0121042002F014FA4E208DF8440029
:100840008DF845408DF846408DF8475011A802F0CC
:1008500046F939208DF844008DF845408DF8465012
:100860008DF8475011A802F03AF90121880503F0EC
:10087000BFF98E4D284602F021FA4FF0007000902B
:100880008B4801908B48CDE902044FF4C850CDE964
:10089000040428150690800007904000089040113D
:1008A000099030040A900420CDE90C640B9069464D
:1008B00028460E9402F08AFA01221021284602F0FE
:1008C00033FB17B0BDE8F0831CB5012003F0F0F84E
:1008D0000121084603F08CF9704C002208212046C3
:1008E00002F0A3FEA015009003208DF80500022061
:1008F0008DF8040000208DF8060001208DF8070017
:100900006946204602F008FE4FF0A0614FF4C00097
:1009100003F0D1F81CBD1CB50121084603F068F9AD
:100920000420009002208DF8050001208DF80400BD
:1009300000218DF806108DF807006946584802F02E
:10094000EBFD564C0421204602F062FE0A2000F026
:100950009BF80421204602F059FE1CBD70B5FFF73C
:100960009DFDFFF7D3FEFFF7AFFF40F6FF76304661
:1009700000F08AF880211220FFF7DAFD60B93046D6
:1009800000F082F84C4D002405EB4400417815F846
:100990001400FFF7CDFD08B1FF2070BD641CE4B268
:1009A000592CF1D3304600F06FF8002070BD38B5F7
:1009B000044669461C20FFF70BFEB8B99DF80000FD
:1009C000207069461D20FFF703FE78B99DF80000EE
:1009D000607069460B20FFF7FBFD38B99DF80000F9
:1009E000A07069460A20FFF7F3FD08B1FF2038BD6B
:1009F0009DF80000E070002038BDF0B585B00E46CF
:100A00000746851801EB430402A90320FFF7E0FD28
:100A10009DF80800694600F0C0008DF808003220FB
:100A2000FFF7D6FD9DF8000005F0070100F0C000BB
:100A30008DF8000040EAC10107F0070001433220B1
:100A4000FFF776FDC7F3C7011720FFF771FDC5F368
:100A5000C7011820FFF76CFD9DF8081004F007008F
:100A600041EAC00106F0070001430320FFF760FDE3
:100A7000C6F3C7011920FFF75BFDC4F3C7011A20B5
:100A8000FFF756FD05B0F0BD40F2E63302E019462F
:100A9000491EFDD2401EFAD27047000000000240FD
:100AA0000004024000080240001002402864024096
:100AB00028000550C80200208E4D0008034A02EBB2
:100AC00001111022A1F5007104F004B8404E000895
:100AD0002DE9FC410121182003F08AF80121084684
:100AE00003F09AF8DFF884840C220021404602F0DB
:100AF0009CFD0C220121404602F097FD0C220421AE
:100B0000404602F092FD0C220521404602F08DFD88
:100B10000C220821404602F088FD0C2209214046A3
:100B200002F083FD0C220A21404602F07EFD0C22D9
:100B30000B21404602F079FD0C220E21404602F0C6
:100B400074FD0C220F21404602F06FFD4CF633700D
:100B5000009002208DF8040003258DF80550002632
:100B60008DF8066001248DF807406946404602F082
:100B7000D3FCFF4F0C220221384602F056FD0C2216
:100B80000721384602F051FD0C220821384602F0B8
:100B90004CFD0C220921384602F047FD0C220A21A7
:100BA000384602F042FD0C220B21384602F03DFD92
:100BB0000C221146384602F038FD0C220D21384631
:100BC00002F033FD0C220E21384602F02EFD0C22DD
:100BD0000F21384602F029FD4FF6847000906946D7
:100BE000384602F099FC8DF8044080208DF80550BD
:100BF00000908DF806608DF807406946404602F087
:100C00008BFC8021404602F003FDBDE8FC812DE90C
:100C1000FC5F0121082002F0EBFF01258DF8045054
:100C20004FF0000880208DF806804FF00309CF4C6C
:100C300000908DF805908DF807506946204602F027
:100C40006BFC8021204602F0E3FCCA4CFFF740FF1A
:100C5000641EFDD201F0BDFC642001F0E0FC4FF009
:100C6000C04200201080C44B1888C449A0F5134C22
:100C70004FF48076488041F2180A40F2077440F23F
:100C80003F17BCF1250C7DD0A0F5104CBCF54A7C7B
:100C9000F9D0A0F5134540F2022B203D73D0B0F5FA
:100CA000134FFBD0A0F5134C4FF40175BCF1310C80
:100CB0006AD0A0F5194C40F20558BCF1190C7DD052
:100CC000A0F5A85CBCF1050C01D0404577D1092006
:100CD00008700021072004F04DF8322001F09FFC3D
:100CE0004FF48E71122004F045F80121A42004F085
:100CF00041F80F21082004F03DF808210A2004F0F3
:100D000039F808210D2004F035F82146302004F090
:100D100031F80721312004F02DF840F20361322030
:100D200004F028F84FF4E0652946332004F022F857
:100D30005946342004F01EF80221352004F01AF838
:100D400041F60F71362004F015F82146372004F0E3
:100D500011F80021382004F00DF80021392004F0AA
:100D600009F821463A2004F005F800213B2004F060
:100D700001F807213C2003F0FDFF00213D2003F096
:100D8000F9FF02E0B1E07CE295E1322001F047FC9E
:100D90000121072003F0EEFF0121172003F0EAFFF5
:100DA000322001F03CFC4FF4BD51102003F0E2FF73
:100DB00040F21721112003F0DDFF01E006E38BE391
:100DC0004FF48F71122003F0D5FF4FF470611320A0
:100DD00003F0D0FF00212A2003F0CCFF0A212920B4
:100DE00003F0C8FF4FF49F71122003F0C3FF0021EE
:100DF000502003F0BFFFEF21512003F0BBFF002183
:100E0000522003F0B7FF3946532003F0B3FF4FF4ED
:100E10001C51602003F0AEFF0121612003F0AAFF06
:100E200000216A2003F0A6FF0021802003F0A2FF2A
:100E30000021812003F09EFF0021822003F09AFF11
:100E40000021832003F096FF0021842003F092FF0D
:100E50000021852003F08EFF1321902003F08AFFEC
:100E60004FF44071922003F085FF0521932003F099
:100E700081FF0021952003F07DFF0021972003F0E2
:100E800079FF0021982003F075FF3146012003F01F
:100E900071FF2946022003F06DFF41F2300103206B
:100EA00003F068FF0021042003F064FF00210C2000
:100EB00003F060FF00210F2003F05CFF00212020E1
:100EC00003F058FF0021212003F054FF21210720C7
:100ED00003F050FFC82001F0A2FB6121072003F0BE
:100EE00049FFC82001F09BFBFEE30D7047F6F001BF
:100EF000E52003F03FFF3146012003F03BFF4FF4B4
:100F0000E061022003F036FF5146032003F032FF78
:100F10000021042003F02EFF40F20721082003F0F7
:100F200029FF0021092003F025FF00210A2003F0FA
:100F300021FF00210C2003F01DFF00210D2003F0F4
:100F400019FF00210F2003F015FF0021102003F0EE
:100F500011FF0721112003F00DFF0021122003F0E3
:100F600009FF0021132003F005FF09E0000C0240F7
:100F700000100240FFFF1F0000000260140000206C
:100F80000121072003F0F6FEC82001F048FB41F2E2
:100F90009001102003F0EEFE40F22721112003F013
:100FA000E9FE322001F03BFB1F21122003F0E2FE9C
:100FB000322001F034FB4FF4A851132003F0DAFE85
:100FC0002721292003F0D6FE0D212B2003F0D2FE8D
:100FD000322001F024FB0021202003F0CBFE002171
:100FE000212003F0C7FE0021302003F0C3FE21467C
:100FF000312003F0BFFE40F20731322003F0BAFE89
:101000004FF40071352003F0B5FE0821362003F0BF
:10101000B1FE0421372003F0ADFE0021382003F09B
:10102000A9FE2146392003F0A5FE02213C2003F051
:10103000A1FE41F604513D2003F09CFE002150200A
:1010400003F098FEEF21512003F094FE002152207E
:1010500003F090FE3946532003F08CFE4FF42741F5
:10106000602003F087FE0121612003F083FE002150
:101070006A2003F07FFE0021802003F07BFE002128
:10108000812003F077FE0021822003F073FE00210F
:10109000832003F06FFE0021842003F06BFE00210B
:1010A000852003F067FE1021902003F063FE4FF4CB
:1010B000C0619220FEE381F8009041F21401E72024
:1010C00003F058FE3146012003F054FE4FF4007146
:1010D000022003F04FFE41F23001032003F04AFEEC
:1010E0005946082003F046FE0021092003F042FE85
:1010F00000210A2003F03EFE00210C2003F03AFEFE
:1011000000210D2003F036FE00210F2003F032FEF7
:101110000021102003F02EFE0721112003F02AFEEB
:101120000021122003F026FE0021132003F022FEEE
:10113000C82001F074FA41F29061102003F01AFE09
:1011400040F22721112003F015FE322001F067FA4A
:101150000C21122003F00EFE322001F060FA4FF451
:101160000061132003F006FE1121292003F002FE86
:101170000B212B2003F0FEFD322001F050FA00215C
:10118000202003F0F7FD0021212003F0F3FD0021D2
:10119000302003F0EFFD4FF483763146312003F029
:1011A000E9FD0021322003F0E5FD2946352003F05A
:1011B000E1FD41F20A61362003F0DCFD21463720D3
:1011C00003F0D8FD3146382003F0D4FD2146392004
:1011D00003F0D0FD40F202413C2003F0CBFD40F68D
:1011E0000F413D2003F0C6FD0021502003F0C2FD59
:1011F000EF21512003F0BEFD0021522003F0BAFD83
:101200003946532003F0B6FD4FF41C51602003F023
:10121000B1FD0121612003F0ADFD00216A2003F042
:10122000A9FD0021802003F0A5FD0021812003F00D
:10123000A1FD0021822003F09DFD0021832003F009
:1012400099FD0021842003F095FD0021852003F005
:1012500091FD1021902003F08DFD4FF4C06192208C
:1012600003F088FD2121072003F084FD322001F0E6
:10127000D6F96121072003F07DFD322001F0CFF97E
:10128000FEE381F800800021084603F073FD31463B
:10129000012003F06FFD4FF4E061022003F06AFDCE
:1012A0005146032003F066FD0021042003F062FD97
:1012B0005946082003F05EFD0021092003F05AFD85
:1012C00000210A2003F056FD01210C2003F052FDFD
:1012D00000210D2003F04EFD00210F2003F04AFDF8
:1012E000642001F09CF940F20111072003F042FD57
:1012F000642001F094F94FF48651102003F03AFD78
:101300000721112003F036FD4FF488742146122086
:1013100003F030FD4FF43061132003F02BFD00216A
:10132000292003F027FD44F210012B2003F022FDB9
:101330000021502003F01EFDEF21512003F01AFD83
:101340000021522003F016FD3946532003F012FD10
:101350004FF41C51602003F00DFD0121612003F0CA
:1013600009FD00216A2003F005FD0021802003F023
:1013700001FD0021812003F0FDFC0021822003F00B
:10138000F9FC0021832003F0F5FC0021842003F008
:10139000F1FC0021852003F0EDFC1021902003F0EA
:1013A000E9FC0021922003F0E5FC0121932003F0E9
:1013B000E1FC2146952003F0DDFC0021972003F09D
:1013C000D9FC0021982043E30720EDE30D200870AD
:1013D0000621282003F0CEFC0121002003F0CAFCE6
:1013E0000021102003F0C6FC47F2EF21012003F09A
:1013F000C1FC4FF4C061022003F0BCFC46F638216A
:10140000032003F0B7FC46F67401112003F0B2FC90
:1014100000210F2003F0AEFC45F208310B2003F051
:10142000A9FC03210C2003F0A5FC0A210D2003F0E8
:10143000A1FC4FF438510E2003F09CFCBE211E206D
:1014400003F098FC4FF40041252003F093FC4FF487
:10145000F041262003F08EFC7821272003F08AFC3F
:1014600000214E2003F086FC00214F2003F082FC77
:1014700040F6D901122003F07DFC0021302003F05A
:1014800079FC4FF48271312003F074FC3146322034
:1014900003F070FC40F205352946332003F06AFC66
:1014A0004146342003F066FC2946352003F062FCF7
:1014B0002146362003F05EFC691F372003F05AFCFA
:1014C0004FF490513A2003F055FC4FF400613B205B
:1014D00003F050FC332177E7A0F5094C40F20259A4
:1014E00040F2023ABCF1890C1DD0A0F5094CBCF1C8
:1014F000990C7DD0A0F5A845083D7AD0A0F58A4585
:10150000313D77D0A0F58A45353D74D0472873D05A
:10151000A0F5EE45833D70D0672010801888488084
:1015200047286BD0FEE3052008700121002003F05E
:1015300021FC322001F073F84AF6A401032003F0E5
:1015400019FC322001F06BF800210C2003F012FC92
:10155000322001F064F840F60C010D2003F00AFC83
:10156000322001F05CF84FF42C510E2003F002FC05
:10157000322001F054F8B0211E2003F0FBFB322092
:1015800001F04DF842F63F31012003F0F3FB322029
:1015900001F045F84FF4C061022003F0EBFB32206C
:1015A00001F03DF80021102003F0E4FB322001F0AF
:1015B00036F846F27001112003F0DCFB322001F016
:1015C0002EF80021052003F0D5FB322001F027F88A
:1015D0000021062003F0CEFB322001F020F84EF669
:1015E0001C71162003F0C6FB322001F018F806E04B
:1015F000CFE08EE131E2D8E2FDE37DE3FCE30321BD
:10160000172003F0B7FB322001F009F840F2331144
:10161000072003F0AFFB322001F001F800210B207E
:1016200003F0A8FB322000F0FAFF00210F2003F0A6
:10163000A1FB322000F0F3FF0021412003F09AFBD0
:10164000322000F0ECFF0021422003F093FB322017
:1016500000F0E5FF0021482003F08CFB322000F071
:10166000DEFF3946492003F085FB322000F0D7FF2A
:1016700000214A2003F07EFB322000F0D0FF002141
:101680004B2003F077FB322000F0C9FF4FF46F418D
:10169000442003F06FFB322000F0C1FF0021452001
:1016A00003F068FB322000F0BAFF3946462003F011
:1016B00061FB322000F0B3FF2146302003F05AFBDB
:1016C000322000F0ACFF2946312003F053FB3220DA
:1016D00000F0A5FF2946322003F04CFB322000F039
:1016E0009EFF4C46494600E0B4E1332003F042FB44
:1016F000322000F094FF40F20751342003F03AFB0F
:10170000322000F08CFF2946352003F033FB3220D5
:1017100000F085FF2946362003F02CFB322000F034
:101720007EFF2146372003F025FB322000F077FFB3
:10173000544651463A2003F01DFB322000F06FFF63
:1017400021463B2003F016FB322000F068FF002109
:10175000232003F00FFB322000F061FF0021242042
:1017600003F008FB322000F05AFF4FF4004125201F
:1017700003F000FB322000F052FF00214F2003F065
:10178000F9FA00214E2003F0F5FA46F25801112033
:101790001BE6042008700621282003F0EBFA012143
:1017A000002003F0E7FA4AF6A461032003F0E2FA0E
:1017B00004210C2003F0DEFA0C210D2003F0DAFAEC
:1017C0004FF420510E2003F0D5FAB5211E2003F06E
:1017D000D1FA43F63F31012003F0CCFA4FF4C06157
:1017E000022003F0C7FA0021102003F0C3FA46F6E6
:1017F0003001112003F0BEFA0021052003F0BAFAEF
:101800000021062003F0B6FA4EF61C71162003F0F4
:10181000B1FA3321072003F0ADFA00210B2003F0C9
:10182000A9FA00210F2003F0A5FA0021412003F0BE
:10183000A1FA0021422003F09DFA0021482003F084
:1018400099FA3946492003F095FA00214A2003F01D
:1018500091FA00214B2003F08DFA4FF46F414420A0
:1018600003F088FA0021452003F084FA3946462027
:1018700003F080FA00214E2003F07CFA00214F2073
:1018800003F078FA2146302003F074FA59463120EB
:1018900003F070FA2946322003F06CFA4C464946B0
:1018A000332003F067FA40F20751342003F062FA64
:1018B000294600E01FE2352003F05CFA2946362075
:1018C00003F058FA2146372003F054FA54465146A3
:1018D0003A2003F04FFA21463B2003F04BFA002157
:1018E000232003F047FA0021242003F043FA4FF4A9
:1018F0000041252003F03EFA4FF4E041262003F09A
:1019000039FA4BF2EB01202003F034FA7C21272036
:101910005BE5082008703146012003F02BFA4FF4F4
:10192000E061022003F026FA41F23001032003F0C7
:1019300021FA0021042003F01DFA40F207210820BB
:1019400003F018FA0021092003F014FA00210A20FC
:1019500003F010FA00210C2003F00CFA00210D20F6
:1019600003F008FA00210F2003F004FA322000F0FF
:1019700056FE40F20111072003F0FCF9322000F07E
:101980004EFE41F2B061102003F0F4F90121112064
:1019900003F0F0F90121172003F0ECF94FF49C71EA
:1019A000122003F0E7F94FF40061132003F0E2F98D
:1019B0000921292003F0DEF909212A2003F0DAF9B0
:1019C0000021A42003F0D6F90021502003F0D2F921
:1019D000EF21512003F0CEF90021522003F0CAF983
:1019E0003946532003F0C6F94FF41C51602003F030
:1019F000C1F90321612003F0BDF900216A2003F041
:101A0000B9F90021802003F0B5F90021812003F00D
:101A1000B1F90021822003F0ADF90021832003F009
:101A2000A9F90021842003F0A5F90021852003F005
:101A3000A1F91321902003F09DF90021922003F0D9
:101A400099F90321932003F095F94FF488719520BB
:101A500003F090F940F27311B6E4072008700121F9
:101A6000002003F087F94FF4C561102003F082F9DC
:101A70000621122003F07EF940F63221132000E007
:101A8000EDE103F077F94021112003F073F95021C3
:101A9000152003F06FF91621122003F06BF93220A4
:101AA00000F0BDFD45F26061102003F063F93220C3
:101AB00000F0B5FD42F64E21132003F05BF93146EC
:101AC000012003F057F94FF44071022003F052F95E
:101AD00041F23001032003F04DF95946082003F08C
:101AE00049F900210A2003F045F90021302003F0D4
:101AF00041F940F20241312003F03CF94FF4837187
:101B0000322003F037F94FF4E061332003F032F96B
:101B10004FF48271342003F02DF940F20131352069
:101B200003F028F92146362003F024F940F205316C
:101B3000372003F01FF94FF40271382003F01AF92F
:101B400040F60B71392003F015F9322000F067FDE3
:101B50000221412003F00EF94FF41C51602003F0E4
:101B600009F90121612003F005F940F219119020D3
:101B700003F000F94FF48571922003F0FBF8042183
:101B8000932003F0F7F83146A02003F0F3F8322059
:101B900000F045FD40F23311072003F0EBF832204E
:101BA00000F03DFD0021A02056E30C2008703021FC
:101BB000152003F0DFF810219A2003F0DBF8202134
:101BC000112003F0D7F843F22841102003F0D2F897
:101BD0000221122003F0CEF841F23801132003F065
:101BE000C9F8282000F01BFD1221084603F0C2F8B6
:101BF000282000F014FD43F22041102003F0BAF831
:101C000043F24501132003F0B5F8462000F007FD2C
:101C10000021302003F0AEF840F20241312003F001
:101C2000A9F840F20731322003F0A4F84FF44171D3
:101C3000332003F09FF80421342003F09BF840F296
:101C40000141352003F096F82146362003F092F842
:101C500040F20531372003F08DF84FF4C26421467D
:101C6000382003F087F82146392003F083F8314605
:101C7000012003F07FF84FF44071022003F07AF85E
:101C800041F23001032003F075F840F60801082006
:101C900003F070F808210A2003F06CF84FF41C518F
:101CA000602003F067F80121612003F063F84FF42E
:101CB0009F71902003F05EF83146922003F05AF8AD
:101CC0003146932003F056F84FF44051A02003F022
:101CD00051F81021A32003F04DF80121072003F053
:101CE00049F82121072003F045F82321072003F0BC
:101CF00041F833210720B0E0062008700121FF20C1
:101D000003F038F80821F32003F034F831460120BD
:101D100003F030F84FF4E061022003F02BF841F2B9
:101D2000300100E09AE2032003F024F85146082035
:101D300003F020F840F20721082003F01BF80021EF
:101D4000092003F017F800210A2003F013F80021FE
:101D5000102003F00FF80521112003F00BF80021EB
:101D6000122003F007F80021132003F003F83220BB
:101D700000F055FC41F2B021102002F0FBFF3220B0
:101D800000F04DFC0721112002F0F4FF322000F09A
:101D900046FC8B21122002F0EDFF322000F03FFCC8
:101DA0004FF4B851132002F0E5FF322000F037FC69
:101DB0002221292002F0DEFF0021302002F0DAFF8C
:101DC0002146312002F0D6FF4146322002F0D2FFF8
:101DD00040F20711352002F0CDFF0821362002F035
:101DE000C9FF0021372002F0C5FF5C465946382064
:101DF00002F0C0FF01E035E014E14FF483713920B7
:101E000002F0B8FF21463C2002F0B4FF4FF481619C
:101E10003D2002F0AFFF322000F001FC00215020F5
:101E200002F0A8FFEF21512002F0A4FF0021522070
:101E300002F0A0FF3946532002F09CFF4FF42741E7
:101E4000602002F097FF0121612002F093FF33210F
:101E5000902002F08FFF0B212B2002F08BFF40F22D
:101E60003311F9E50A2008700021EA2002F082FF10
:101E70002021EB2002F07EFF0C21EC2002F07AFF03
:101E8000C421ED2002F076FF4021E82002F072FF2D
:101E90003821E92002F06EFF0121F12002F06AFFF3
:101EA0001021F22002F066FFA321272002F062FF3A
:101EB0000121402002F05EFF0021412002F05AFF84
:101EC0000021422002F056FF1021432002F052FF71
:101ED0000E21442002F04EFF2421452002F04AFF4B
:101EE0000421462002F046FF5021472002F042FF25
:101EF0000221482002F03EFF1321492002F03AFF60
:101F000019214A2002F036FF19214B2002F032FF3E
:101F100016214C2002F02EFF1B21502002F02AFF38
:101F20003121512002F026FF2F21522002F022FF02
:101F30003F21532002F01EFF3F21542002F01AFFE0
:101F40003E21552002F016FF2F21562002F012FFED
:101F50007B21572002F00EFF0921582002F00AFFD2
:101F60000621592002F006FF06215A2002F002FF46
:101F70000C215B2002F0FEFE1D215C2002F0FAFE27
:101F8000CC215D2002F0F6FE18211B2002F0F2FEAB
:101F900001211A2002F0EEFE1521242002F0EAFEB3
:101FA0005021252002F0E6FE8B21232002F0E2FEE4
:101FB0003621182002F0DEFE0121192002F0DAFE9F
:101FC0000021012002F0D6FE88211F2002F0D2FE5F
:101FD000322000F024FB80211F2002F0CBFE3220B3
:101FE00000F01DFB90211F2002F0C4FE322000F003
:101FF00016FBD0211F2002F0BDFE322000F00FFBA7
:102000000521172002F0B6FE0021362002F0B2FEB4
:102010003821282002F0AEFE322000F000FB3C21E7
:10202000282019E10B2008700821422002F0A2FEAE
:10203000B421462002F09EFE4321472002F09AFE82
:102040001321482002F096FE4721492002F092FE1B
:1020500014214A2002F08EFE36214B2002F08AFE27
:1020600003214C2002F086FE46214D2002F082FE24
:1020700005214E2002F07EFE10214F2002F07AFE54
:102080000821502002F076FE0A21512002F072FE53
:102090000021022002F06EFE0021032002F06AFE01
:1020A0000021042002F066FEEF21052002F062FE0E
:1020B0000021062002F05EFE0021072002F05AFEF9
:1020C0000121082002F056FE3F21092002F052FEB5
:1020D0000A2000F0A4FA0621012002F04BFEC821DC
:1020E000162002F047FE9521232002F043FE9521A1
:1020F000242002F03FFEFF21252002F03BFE0221BA
:10210000272002F037FE0221282002F033FE0221B0
:10211000292002F02FFE02212A2002F02BFE0221AC
:102120002C2002F027FE02212D2002F023FE0121A7
:102130003A2002F01FFE01213B2002F01BFEF0219D
:102140003C2002F017FE00213D2002F013FE142077
:1021500000F065FA3821352002F00CFE7821362097
:1021600002F008FE38213E2002F004FE0F2140203C
:1021700002F000FEF021412002F0FCFD0021382099
:1021800002F0F8FD4921192002F0F4FD0A21932004
:1021900002F0F0FD0A2000F042FA2021084602F089
:1021A000E9FD03211D2002F0E5FD00211E2002F0C3
:1021B000E1FD09211F2002F0DDFD5321442002F042
:1021C000D9FD1021452002F0D5FD0A2000F027FAA4
:1021D00004211C2002F0CEFD142000F020FA802102
:1021E000432002F0C7FD052000F019FA0A211B2048
:1021F00002F0C0FD282000F012FA12211B2002F08C
:10220000B9FD282000F00BFA7F21902002F0B2FDEA
:102210000421262002F0AEFD282000F000FA24213F
:10222000262002F0A7FD2C21262002F0A3FD282065
:1022300000F0F5F90821702002F09CFD3C212620D9
:1022400002F098FD0221572002F094FD0021552054
:1022500002F090FD0021572002F08CFD322000F0AA
:10226000DEF9BDE8FC9F10B5A0F23F10404284B2F9
:10227000F248007805280BD0202002F07BFD214693
:10228000212002F077FD4FF0C0412220088010BDD0
:102290004E2002F06FFD2146BDE810404F2002F0B5
:1022A00069BD70B50546E548002400780A2811D0BC
:1022B0000B280FD000210846FFF7D5FF4FF0C04193
:1022C00022200880DE484FF496310580641C8C4241
:1022D000FBD370BD0021022002F04CFD0021032041
:1022E00002F048FD0021042002F044FDEF2105200A
:1022F00002F040FD0021062002F03CFD00210720F5
:1023000002F038FD0121082002F034FD3F210920B0
:1023100002F030FDD2E710B5FFF7A5FF4FF0C04146
:1023200022200880C5480178C548091F092917D20D
:10233000DFE801F005050505161608080500018807
:10234000008810BD01880288C1F3C7010088D20847
:10235000C0F38700D20242EA4010084380B210BDA9
:1023600001880088C0F34511C20AC00200EB411089
:102370001044F3E710B51446B0F5A07F09D2F02958
:1023800007D2FFF770FF2146BDE81040222002F07F
:10239000F1BC10BD2DE9F0471746DDF820A01E4620
:1023A0000D460446B84201D9274694B2B54201D938
:1023B0000E469DB2381B711B00B20FFA81F868B14E
:1023C000B8F1000F15D0404531DDC0EB48010EB229
:1023D0004FEA4801404201EB400925E052462946B8
:1023E0002046FFF7C7FF6D1CADB2AE42F6D2BDE886
:1023F000F087524629462046FFF7BCFF641CA4B272
:10240000A742F6D2F3E7524629462046FFF7B2FF2D
:10241000641CA4B2002E04DD6D1CADB209EB0600F5
:1024200001E006EB480006B2BC42ECD11BE0C8EB71
:1024300040010FB24FEA4801404201EB400910E071
:10244000524629462046FFF795FF6D1CADB2002F7E
:1024500004DD641CA4B209EB070001E007EB4800AF
:1024600007B2B542ECD1524629462046BDE8F047B6
:1024700080E72DE9FF5F894680469B461146684606
:10248000FEF71CFB0025EA4600241AF8057009EB4C
:10249000050600BFC4F1070027FA00F0C00708EBEB
:1024A0000400B1B280B201D05A4600E00E9AFFF7A4
:1024B00061FF641CA4B2082CECD36D1CADB2102DCE
:1024C000E2D3BDE8FF9F2DE9F8439946089F1646E1
:1024D0000D4604464FF49C7816F8012B4B462946CE
:1024E00020460097FFF7C5FF444502D20834A4B246
:1024F00007E0E02D4FF0000402D21035ADB200E04D
:10250000002530780028E7D1BDE8F8832DE9FF41A8
:1025100015460E4607461C464AA101A80A9A02F033
:102520002BFA2B4601AA314638460094FFF7CBFF21
:10253000BDE8FF814FF0C0412220088070472DE99F
:10254000FC4700250A9F9A460E460446B2F57A7F5C
:1025500005D32A208DF806008DF8050018E00A2022
:1025600092FBF0F100FB112130318DF8061092FB47
:10257000F0F191FBF0F300FB131130318DF80510F1
:10258000642192FBF1F191FBF0F200FB121030306C
:102590008DF804000DF104084FF49C79009718F8A9
:1025A0000520534631462046FFF763FF4C4502D2D3
:1025B0000834A4B207E0E02E4FF0000402D2103637
:1025C000B6B200E000266D1CEDB2032DE6D3BDE8E7
:1025D000FC8700B597B000201021CDE902010490DE
:1025E000090200900190CDE90801069007900A9039
:1025F0000FA9059014220B90CDE90C01CDE90F2015
:10260000CDE911201390149015900E91684600F0BA
:10261000F9FC0121002000F08AFD17B000BD002266
:1026200040F2754306E00021491C89B29942FBD370
:10263000521C92B28242F6D3704700001400002070
:10264000000002604650533A2564000070B588B01F
:102650000121042001F0CCFA0121042001F0C8FA84
:102660000121880401F0E2FAA84E07220A2130462F
:1026700000F0DBFF07220B21304600F0D6FF0221DD
:102680008DF8041000248DF8064030158DF80510E3
:10269000009001258DF807506946304600F03CFF58
:1026A000E80200908DF806508DF8074069463046E4
:1026B00000F032FF4FF46120ADF80C400290ADF80D
:1026C0000E40ADF81040ADF814400C20904CADF821
:1026D000120002A9204601F08AFB27208DF818007D
:1026E0008DF81B508DF819508DF81A504FF4A060DA
:1026F00000F0F0F906A800F0F2F9012240F22551AD
:10270000204601F09FFC0121204601F0E1FB08B0CA
:1027100070BDFEB50A2164227D4E6D46002823DB84
:1027200090FBF1F301FB13033033ADF8043090FB61
:10273000F1F390FBF2F093FBF1F490FBF1F201FB6B
:102740001433303301FB12003030ADF80230ADF8F5
:1027500000000024304635F8141001F0E9FB641C39
:10276000E4B2032CF6D3FEBD404290FBF1F301FB33
:1027700013033033ADF8043090FBF1F390FBF2F02B
:1027800093FBF1F490FBF1F201FB143301FB120017
:102790003033ADF802303030ADF800002D21304636
:1027A00001F0C6FB5FF00004304635F8141001F06C
:1027B000BFFB641CE4B2032CF6D3FEBD08B5272092
:1027C0008DF8000001208DF8010000218DF8021025
:1027D0008DF80300684600F082F908BD704770B5B7
:1027E0004B4D0446C1B2284601F0A2FB40212846C9
:1027F00001F097FB0028F9D0204670BDF0B5002607
:102800000B4635460A2A02D00D701846F0BD002846
:102810001DD006DA4FF02D021A7001F10103C0F14C
:1028200000003C4C4FF00A07B0FBF4F252EA060CF1
:1028300006D002F1300603F8016B02FB14000126FA
:10284000B4FBF7F4002CEFD11D700846F0BD30202A
:1028500018704B1CF8E70FB47FB505460AAC0FE0C3
:102860005C2914D002F10102252909921DD02846C5
:1028700001F05EFB4021284601F053FB0028F9D00F
:10288000099A11780029EBD17FBC5DF814FB521C2A
:10289000099210786E2803D072280BD10D2100E028
:1028A0000A21284601F044FB16E01078642817D06E
:1028B000732802D0521C0992DCE740CC09E028467C
:1028C00001F036FB4021284601F02BFB0028F9D00F
:1028D000761C31780029F2D10998401C0990C9E78B
:1028E00001CC0A226946FFF789FF6E4609E02846B7
:1028F00001F01EFB4021284601F013FB0028F9D00F
:10290000761C31780029F2D1E6E700000008024089
:102910000048004000E1F5057047FEE7FEE7FEE7EE
:10292000FEE7704770477047FDF756BD10B5444C41
:1029300040F22551204601F09DFB002808D020469A
:1029400001F00BFB0146BDE810403EA002F008B8C4
:1029500010BD70B5082000F0A3F9484C002528B13F
:10296000258001206080082000F0A2F9102000F0EE
:1029700097F9B0B12088401C20802088401EA0809C
:1029800021883F4AE08822F81010401C80B2E08085
:10299000B0F5A07F00D3E5803A480580102000F014
:1029A00087F9012000F07CF910B1012000F080F9D6
:1029B000042000F075F9002804D0BDE87040042020
:1029C00000F076B970BD70B51D4C40F22555294612
:1029D000204601F04FFB012808D12946204601F08E
:1029E00068FB2046BDE8704001F0B7BA70BD10B575
:1029F000254C86B00021204601F0A4FD002808D017
:102A00006A460021204601F039FD0221204601F0EE
:102A1000A2FE06B010BD70B51C4D1D4C29462046C7
:102A200000F098FA002809D02946204600F06BFAF9
:102A300029462046BDE8704000F0AFBA70BD0000E6
:102A4000004800400A0D55534152542048797065A2
:102A5000727465726D696E616C20496E7465727214
:102A6000757074732052656365697665206120779F
:102A70006F72643A2025630A0D0000001C000020DC
:102A80004800002000000020006400400088001082
:102A9000286402400948804709480047FEE7FEE7EE
:102AA000FEE7FEE7FEE7FEE7FEE7FEE7FEE7FEE7FE
:102AB00004480549054A064B704700008348000852
:102AC0008901000828CB002028D1002028CD002033
:102AD00028CD00202849084328490860704730B5B0
:102AE0000F22C47801780123FCB1244C246801F141
:102AF000E02104F4E064C4F5E064C4F30724C4F105
:102B00000405E2404478AC408578154025432A010D
:102B100081F80024007800F01F018B4040098000FC
:102B200000F1E020C0F8003130BD01F01F0083400B
:102B30004809800000F1E020C0F8803130BD104A23
:102B4000114001430D48001F016070470B4A121DE0
:102B50000029116801D0014300E0814311607047F2
:102B60004FF0E0210428086903D020F00400086138
:102B7000704740F00400FAE70000FA050CED00E0B1
:102B800080FFFF1F4C4800210160C1601F2242618D
:102B90008161C16101624162704730B5464A116886
:102BA00044F2010399431160136840F6F2718B43BC
:102BB00001884488C588214384882C4321430489A3
:102BC000214344898089214301431943116030BD69
:102BD0000021018041808180C1800181418181810A
:102BE000704701684FEA314233490A6240684FEA50
:102BF00030404862704730490028086802D040F0F1
:102C0000040001E020F0040008607047C17800680B
:102C100061F31F60284988617047274900280868C8
:102C200002D040F0080001E020F008000860704782
:102C300021490028086802D040F4804001E020F4D7
:102C40008040086070471C490028086802D040F0A6
:102C5000010001E020F00100086070471648806A1A
:102C60007047154A0029D16801D0014302E0C043F2
:102C700080B20140D160704702460020130B0E491C
:102C8000012B06D0022B06D00969114200D0012089
:102C900070478968F9E74968F7E70749486170476D
:102CA0000549024600200969114200D00120704701
:102CB0000149486170470000000005502DE9F043CC
:102CC000016821F001010160002101604160816023
:102CD000C160016121214161B849B84A3D251039DF
:102CE000904202D18D60BDE8F083B44A4FF474661F
:102CF0001832904201D18E60F5E7B04A4FF4741754
:102D00003032904201D18F60EDE7AC4A4FF0746CE5
:102D10004832904202D1C1F808C0E4E7A74BA84A64
:102D20006033984201D1CA60DDE7A44CA54B7834EA
:102D3000A04201D1CB60D6E7DFF88082A24C08F137
:102D40009008404501D1CC60CDE7DFF870824FF0AC
:102D50003D5908F1A808404502D1C1F80C90C2E7DE
:102D60009A49DFF868820839404501D10D60BAE719
:102D7000964D1835A84201D10E60B4E7934D303519
:102D8000A84201D10F60AEE7904D4835A84202D16C
:102D9000C1F800C0A7E78D4D8C496035091FA842D6
:102DA00001D10A609FE7894A7832904201D10B60D5
:102DB00099E7864A9032904201D10C6093E7834AAA
:102DC000A83290428FD1C1F800908CE730B50368EB
:102DD0007F4ACC6813400A682243D1E905452C4359
:102DE0002243CC6922430C6A22434C6A22438C6AF8
:102DF00022434C6B22438C6B22431A43026042698C
:102E000022F00703D1E90B2422431A4342610A69E5
:102E100042604A6882608968C16030BD00210160FB
:102E200041608160C160016141618161C161016294
:102E300041628162C162016341638163704700291D
:102E4000016802D041F0010101E021F001010160BF
:102E500070470029016802D041F4004101E021F4EB
:102E60000041016070470029016802D041F0200153
:102E700001E021F020010160704741607047406827
:102E800080B27047002A026802D042F4002201E0BA
:102E900022F400220260016170470029016802D01B
:102EA00041F4802101E021F48021016070470AB1E2
:102EB00001617047C160704701460020096809033D
:102EC00000D501207047014600200968C90700D0DD
:102ED00001207047406900F03800704702463B4BC4
:102EE00000209A4202D2354A103A01E0374A103A9D
:102EF0008B0001D5526800E01268364B1A400A4236
:102F000000D001207047314A904202D22B4810383D
:102F100001E02E4810382F4A8B0001EA020101D54A
:102F2000C1607047816070470B0607D5436912B1D5
:102F300043F0800301E023F080034361802908D03F
:102F4000002A026801F01E0101D00A4300E08A4312
:102F50000260704730B51D4A0024904202D2174BE0
:102F6000103B01E0194B103B1B4A114205D01E22B9
:102F700002EAD12502682A4002E0406900F080029E
:102F8000880001D5586800E01868124B18400842C4
:102F900001D002B10124204630BD0C4A904202D239
:102FA0000648103801E0094810380A4A8B0001EA47
:102FB000020101D5C1607047816070471060024016
:102FC0003D000020400F002000003D201064024022
:102FD0003F801CF07D0F7D0F3C0F3C0F8100A1F165
:102FE000C04148B143F2D200C1F800006FF0704018
:102FF0004860C1F8040170474FF0204243F2DB0003
:103000001060F3E710B5D0E901121143D0E90323B2
:103010001A4311434269114382691143C269114342
:10302000026A1143426A1143826A1143C26A114320
:10303000026B114302689200A2F1C04211608168E4
:10304000082907D101688900A1F1C0410A6842F04E
:1030500040020A60416BD1E9002342EA03128B6807
:103060008C891B0243EA04431A430B8A42EA035247
:103070000B7D896942EA03620A4301688900A1F174
:10308000C0414A60C16AB1F5804F08D000686FF056
:1030900070418000A0F1C040C0F8041110BD816BE8
:1030A000D1E9002342EA03128B680C8A1B0243EA2F
:1030B00004531A430B7D896942EA036200680A439C
:1030C0008000A0F1C040C0F8042110BD10B500215F
:1030D0000222C0E900128160C16001614161816129
:1030E000D202C161C0E908125200C0E90A2101639D
:1030F000436B0F221A60436B5A60446BFF23A3603B
:10310000446BE260446B2261446B6261446BA16179
:10311000846B2260846B6260846BA360836BDA6073
:10312000836B1A61836B5A61806B816110BD800073
:10313000A0F1C0400029016802D041F0010101E086
:10314000C44A11400160704710B5182440234FF065
:1031500020414FF0FC32102805D041F8804F4B60E1
:103160008A60CA6010BD0C664B668A66CA6610BD6E
:1031700030B5D0E901121143D0E903231A431143BA
:10318000426941EA4221826941EA4231C26941F021
:103190000804D2E9001341EA03211389127B1B04BE
:1031A00043EA0262036A1143D3E9002542EA052299
:1031B0001D891B7B2D0445EA03631A4303684FF006
:1031C0002040102B04D040F8804F8160C26030BD99
:1031D00004668166C26630BD102101600021416035
:1031E0008160C160016141618161C269FC2111603E
:1031F000C2695160C2699160C269D160026A11609E
:10320000026A5160026A9160006AC16070474FF0C3
:10321000204251B1102804D052F8800F40F0040031
:103220000AE0106E40F004000AE08A49C91E102826
:1032300004D052F8800F084010607047106E0840AC
:10324000106670474FF0204251B1102804D052F858
:10325000800F40F040000AE0106E40F040000AE0AD
:103260007C493F39102804D052F8800F0840106084
:103270007047106E0840106670474FF020411028CC
:1032800002D0D1F894007047486F70474FF020404B
:10329000182140F8A01F002141604FF0FC318160EF
:1032A000C1600161704710B5D0E9001241EA4222C5
:1032B0008168102343EA41310A434FF0204141F82D
:1032C000A02FC268D2E9003443EA04231489127B98
:1032D000240444EA026213438B600269D2E9003499
:1032E00043EA04231489127B240444EA0262134350
:1032F000CB604069D0E9002342EA03220389007BC6
:103300001B0443EA006002430A6110BD0021016012
:1033100041608160C268FC211160C2685160C2686E
:103320009160C268D16002691160026951600269EE
:1033300091600269D16042691160426951604269DD
:1033400091604069C16070474FF02041002851F8FA
:10335000A00F02D040F0040002E03E4AD21E10400E
:103360000860704710B54FF480744FF0204372B17D
:10337000102804D0A04205D153F8840F04E0586E01
:1033800008430DE053F8A40F0843186010BD10283F
:1033900004D0A04206D153F8840F05E0586E88434C
:1033A000586610BD53F8A40F8843EEE7034600208B
:1033B0004FF02042102B08D0B3F5807F07D0D2F811
:1033C000A4200A4200D001207047526EF9E7D2F8DB
:1033D0008420F6E74FF02042102807D0B0F5807F18
:1033E00008D052F8A40F884310607047506E88438D
:1033F0005066704752F8840FF5E7034600204FF0FF
:103400002042102B0CD0B3F5807F0BD0D2F8A42033
:103410000A4202EAD10102D0002900D001207047FF
:10342000526EF5E7D2F88420F2E74FF020421028E0
:1034300008D0B0F5807F0AD052F8A40F20EAD1005E
:1034400010607047506E20EAD1005066704752F805
:10345000840FF3E7FEFF0F007C4910B5884206D1C8
:103460000121084600F0F6FB002101204FE07849D9
:10347000884206D10121022000F0ECFB002102204D
:1034800045E07449884206D10121042000F0E2FBA6
:10349000002104203BE07049884206D10121082028
:1034A00000F0D8FB0021082031E06C49884206D1A9
:1034B0000121102000F0CEFB0021102027E06849F8
:1034C000884206D10121202000F0C4FB00212020E9
:1034D0001DE06449884206D10121402000F0BAFB7A
:1034E0000021402013E06049884206D1012180205C
:1034F00000F0B0FB0021802009E05C4988420AD13D
:1035000084150121204600F0A5FB00212046BDE8DE
:10351000104000F09FBB10BDF0B50023012403272D
:103520000D6804FA03F21540954242D1D0F800C06C
:103530005E0007FA06F52CEA050CC0F800C091F809
:1035400004C0D0F800E00CFA06FC4CEA0E0CC0F8FF
:1035500000C091F804C0BCF1010F02D0BCF1020F11
:103560001FD1D0F808C02CEA050CC0F808C091F8AB
:1035700005C0D0F808E00CFA06FC4CEA0E0CC0F8C6
:1035800008C0D0F804C02CEA020CC0F804C042689D
:1035900091F806C00CFA03FC1FFA8CFC42EA0C02FC
:1035A0004260C268AA43C260CA79C568B2402A4371
:1035B000C2605B1C102BB3D3F0BD4FF6FF710160EE
:1035C0000021017141718171C171704708B541F4E9
:1035D00080320092C261C1610099C161C169C06954
:1035E000009008BD0246002012690A4200D0012066
:1035F0007047006980B270470246002052690A4253
:1036000000D001207047406980B270470183704745
:10361000418370470AB1018370474183704741611C
:10362000704742694A40426170474B07DB0E9A403F
:10363000C90810B500EB8100016A0F249C40A1432A
:103640000162016A1143016210BD000000000240E6
:103650000004024000080240000C0240001002403A
:103660000014024000180240001C024000200240EA
:10367000C94910B5884202D101214C050AE0C74969
:10368000884202D101218C0504E0C54988420AD153
:103690000121CC05204600F0FBFA2046BDE8104091
:1036A000002100F0F5BA10BD7FB5044680880D46B4
:1036B00020F03F06684600F037FABA490298B0FB9E
:1036C000F1F189B20E43A680228822F00102228005
:1036D000B54B2A689A421BD85200B0FBF2F080B278
:1036E000042800D20420491C2184A083208840F0B3
:1036F0000100208021884FF6F5300140A8886A89B2
:10370000104308432080A8892989084320817FBD70
:10371000EB88A3F53F46FF3E0BD002EBC20303EB61
:103720000212B0FBF2F080B240F48040020506D0F5
:1037300007E002EB4202B0FBF2F080B2F6E740F0A5
:1037400001004FF4967251434FF47A72B1FBF2F1DB
:1037500040F40040C7E741F28831016000218180D8
:103760004BF6FF72C280018141814FF4804181811B
:1037700070470029018802D041F0010101E021F0E9
:103780000101018070470029018802D041F4807155
:1037900001E021F48071018070470029018802D086
:1037A00041F4007101E021F400710180704712B111
:1037B00041F0010101E001F0FE01018270470029A2
:1037C000018802D041F4806101E021F48061018030
:1037D0007047828901F0FE0122F0FE0211438181CF
:1037E00070470029818902D041F0010101E021F0F8
:1037F0000101818170470029018802D041F0400118
:1038000001E021F04001018070470029018802D0C9
:1038100041F4004101E0C1F30E010180704700292D
:10382000018803D021F080010180704741F08001C0
:10383000FAE7B1F5804F818B02D021F4804101E09D
:1038400041F4804181837047B1F5006F018803D056
:1038500021F400610180704741F40061FAE7B1F59D
:10386000005F018803D021F400510180704741F4CA
:103870000051FAE70029018802D041F0100101E06F
:1038800021F010010180704701827047008AC0B2A8
:1038900070470029018802D041F4805101E021F4F1
:1038A000805101807047B1F5006F018803D021F489
:1038B00000610180704741F40061FAE70029018846
:1038C00002D041F0200101E021F020010180704789
:1038D000008B000A70470029818802D041F4006102
:1038E00001E021F40061818070470029818802D0C5
:1038F00041F4805101E021F480518180704708B586
:1039000008440090008808BD002A828801D00A433C
:1039100000E08A438280704702460020938A128B1F
:1039200043EA024323F07F42914300D101207047D4
:10393000818A008B41EA004121F07F4070470CB53D
:103940000246002000920A0F21F07F41019202D02E
:10395000009A143202E0009A090C183200921268A0
:103960000A4200D001200CBDC9438182704710B5C6
:10397000034600209A884FF4E06404EA11449B8ACD
:10398000224021F07F410B4202D0002A00D00120CA
:1039900010BDC94381827047005400400058004068
:1039A000005C004040420F00A0860100EA48016828
:1039B00041F001010160E84A00210832116002680B
:1039C000E64B1A400260031DE54A1A60026822F4C1
:1039D00080220260E0480C3001607047DE4900221E
:1039E000891C0A700870704702460020510901299D
:1039F0000CD002290CD0D8497431096802F01F029A
:103A0000012393400B4200D001207047D249F4E7D4
:103A1000D1497031F1E718B500204FF4A06400904F
:103A20003120FFF7E1FF0099491C0091A14201D02C
:103A30000028F5D03120FFF7D7FF002800D0012063
:103A400018BDC5490A6822F0F80242EAC0000860C1
:103A50007047C44908607047BF49002270310A703E
:103A60000A70012802D0042801D10520087070478F
:103A7000BD490860704741EA82115A0810B5BB4B36
:103A8000029C03EB02421143014341EA0460B24944
:103A9000091D086010BDB34908667047800140EAFF
:103AA0000170AD49843108607047AE49886670473F
:103AB000AC49C8647047A84A08321368084323F029
:103AC000EC63184310607047A34A08321368084338
:103AD00023F078431843106070479F4A08321168FA
:103AE00021F003010143116070479B4808300068D2
:103AF00000F00C007047984A0832116821F0F0017C
:103B0000014311607047944A0832116821F4E05172
:103B1000014311607047904908310A6822F46042FD
:103B200042EAC0000860704770B58B4A08321168DD
:103B30008F4C11F00C0104D06610042903D0082921
:103B400003D004601BE0066019E08349091D0B687F
:103B5000C3F380550B6803F03F0315B1B6FBF3F3D5
:103B600001E0B4FBF3F30C680968C4F38814634301
:103B7000C1F30141491C4900B3FBF1F10160116837
:103B80000F2303EA11117B4B5C5C0168E14041604B
:103B90001468072505EA94241C5D21FA04F4846066
:103BA000126805EA52329A5CD140C16070BDC0F320
:103BB0000121032908D1684A0832116821F4F81359
:103BC0006D49014019431160634970310A68C0F3BF
:103BD0000B0002430A60704763494439086070472C
:103BE00061494039086070475E49C1F85C0170471F
:103BF000594A30320029116801D0014300E0814365
:103C000011607047544A34320029116801D00143D1
:103C100000E08143116070474F4A38320029116833
:103C200001D0014300E08143116070474A4A4032AD
:103C30000029116801D0014300E081431160704701
:103C4000454A44320029116801D0014300E0814314
:103C500011607047404A10320029116801D00143B9
:103C600000E08143116070473B4A1432002911681B
:103C700001D0014300E0814311607047364A183299
:103C80000029116801D0014300E0814311607047B1
:103C9000314A20320029116801D0014300E08143FC
:103CA000116070472C4A24320029116801D0014369
:103CB00000E0814311607047274A503200291168A3
:103CC00001D0014300E0814311607047224A543221
:103CD0000029116801D0014300E081431160704761
:103CE0001D4A58320029116801D0014300E0814388
:103CF00011607047184A60320029116801D00143F1
:103D000000E0814311607047134A64320029116852
:103D100001D0014300E08143116070470E4A0D322B
:103D20000029117801D0014300E0814311707047F0
:103D300009487430016841F08071016070470146A4
:103D4000054A00200C3212680A4200D00120704758
:103D500001490E310870704700380240FFFFF6FE3F
:103D60001030002400004742800E47420000FFFF51
:103D70000024F40024000020FFFCFF0FD04910B500
:103D8000884206D101211020FFF78CFF002110206E
:103D900028E0CC49884202D101214C0410E0CA49F4
:103DA000884202D101218C040AE0C849884202D12C
:103DB0000121CC0404E0C64988420AD101210C0546
:103DC0002046FFF765FF2046BDE810400021FFF7C1
:103DD0005FBFC049884209D101212020FFF762FF5F
:103DE00000212020BDE81040FFF75CBF10BD7FB56B
:103DF0000446008A0D4620F44051E888084320829A
:103E0000A08941F20C618843A9882A8911436A89F3
:103E100002431143A181A08A20F44071A88908437C
:103E2000A0826846FFF780FEA548844202D0A948D8
:103E3000844201D1039800E00298A189090400EBB3
:103E4000C00101EB0010296801D5490000E089009C
:103E5000B0FBF1F26420B2FBF0F109010B096FF045
:103E600018056B4302EB8302A3891D044FF0320354
:103E700006D503EBC202B2FBF0F000F0070005E04C
:103E800003EB0212B2FBF0F000F00F0008432081B8
:103E90007FBD4FF41651016000218180C1800181F6
:103EA0000C2242818181704710B5028A4C8822F42D
:103EB00070630A8822438C88C9880C4322431A43C2
:103EC000028210BD0021018041808180C180704745
:103ED0000029818902D041F4005101E021F4005110
:103EE00081817047028B02F47F420283028B0A4376
:103EF000028370470029818902D041F4004101E02A
:103F0000C1F30E01818170470029818A02D041F4FA
:103F1000006101E021F4006181827047C9430180A2
:103F200070470246002012880A4200D001207047E4
:103F300010B50B46044680212046FFF7F2FF00280B
:103F4000F9D080212046FFF7E9FF40212046FFF706
:103F5000E5FFC3F30800A08010BD8088C0F308000F
:103F60007047028A22F00F020282028A0A4302820A
:103F700070470029818902D041F0020101E021F05F
:103F8000020181817047828922F4006282818289E4
:103F90000A4382817047028A22F020020282028A4A
:103FA0000A43028270470029018A02D041F480410D
:103FB00001E021F4804101827047818941F00101D3
:103FC000818170470029818A02D041F0080101E017
:103FD00021F0080181827047028BD2B20283028BEA
:103FE00042EA0121018370470029818A02D041F011
:103FF000200101E021F02001818270470029818A9F
:1040000002D041F0100101E021F0100181827047DF
:10401000828A22F004028282828A0A438282704764
:104020000029818A02D041F0020101E021F0020161
:1040300081827047002A828A01D00A4300E08A43C5
:104040008282704710B5C1F3421301F01F040121B1
:10405000A140012B07D0022B07D01430002A0268A0
:1040600005D00A4304E00C30F8E71030F6E78A4345
:10407000026010BD30B501F01F0201240025C1F31C
:10408000421304FA02F2012B0FD0022B0FD0838AC5
:104090004FEA11210088134204FA01F400EA0400F7
:1040A00001D000B10125284630BD8389F0E7038A9D
:1040B000EEE70A0A01219140C943018070470000E0
:1040C000001001400044004000480040004C004007
:1040D0000050004000140140FE4910B588424FF0E6
:1040E000010101D14C0601E04FF080642046FFF74A
:1040F000CFFD2046BDE810400021FFF7C9BD10B537
:104100000368002223F002030360036843F0010305
:1041100003604FF6FF7300E0521C4468E40701D1CE
:104120009A42F9D14268D2073ED08A79012A0268C0
:104130003CD022F080020260CA79012A026838D09D
:1041400022F0400202600A7A012A026834D022F08A
:10415000200202604A7A012A026830D022F010025E
:1041600002608A7A012A02682CD022F008020260DA
:10417000CA7A012A026828D022F0040202608A78F2
:10418000CC78920742EA04620C7942EA04424C7904
:10419000098842EA0452491E0A43C261016821F0BB
:1041A00001010160002114E0002010BD42F08002F6
:1041B000C1E742F04002C5E742F02002C9E742F001
:1041C0001002CDE742F00802D1E742F00402D5E741
:1041D000491C4268D20701D09942F9D14068C00712
:1041E000E2D1012010BDF0B5827A01219140BA4A96
:1041F000136843F001031360B74B1C331C688C43F6
:104200001C60B54D067BB54C0C35A6B92E688E43A7
:104210002E604688C78846EA0746877A04EBC707B8
:10422000C7F840660688878846EA0746877A04EB1F
:10423000C707C7F84466067B012E12D12E680E43CD
:104240002E60867A056804EBC6064FEA3545C6F847
:104250004056867A456804EBC6044FEA3545C4F8F3
:1042600044569D4CC57A241D002D256806D00D436B
:104270002560994C0589143415B104E08D43F7E7A6
:1042800025688D4325600589012D02D125680D43E0
:104290002560407B012802D1186808431860106827
:1042A00020F001001060F0BD00218171C171017228
:1042B00041728172C1728170C1700321017102214A
:1042C000417101210180704783490A6842F001026F
:1042D0000A600A6843F60E739A430A600A6842EA63
:1042E00000200860086820F001000860704700297D
:1042F000016802D041F4803101E021F48031016095
:1043000070470029016813D041F080010160D0F8A6
:10431000841141F48071C0F88411D0F8941141F4F3
:104320008071C0F89411D0F8A41141F4807112E0AA
:1043300021F080010160D0F8841121F48071C0F86F
:104340008411D0F8941121F48071C0F89411D0F840
:10435000A41121F48071C0F8A411704730B5024651
:10436000002093685B0108D49068000101D501200A
:1043700003E09068C00037D5022002EB0012D2F8AB
:10438000803103F00103C2F880310B7A73B3D2F8A5
:1043900080414D681C434B7A43EAC5031C43C2F875
:1043A00080418B7A03F00F038B72D2F8843123F0B3
:1043B0000F03C2F88431D2F884318C7A2343C2F8D7
:1043C0008431CB7ACC6843EA0423C2F88831CB7BB2
:1043D000096943EA0121C2F88C11D2F8801141F039
:1043E0000101C2F8801130BD042030BDD2F8803107
:1043F0004C7A23430C8843EA4453C2F88031D0E717
:10440000002221B1012905D0022906D112E08268DB
:10441000334801E08268334802403349501A8A42E7
:1044200014D00ADCA2B16FF0806010180FD00228FF
:104430000CD10FE082682D48EEE7B0F5007F09D07F
:104440002B49401803D0B0F5003F03D0002070473F
:10445000022070470120704741B101290AD002298A
:1044600003D1816841F4000181607047816841F0A7
:104470008001F9E7816841F40041F5E710B500EBF0
:104480000113D3F8B04114F004041472D3F8B0410E
:1044900045D0E408C2F80440D3F8B04104F0020467
:1044A0005472D3F8B44104F00F049472D3F8B441B9
:1044B000240AD474D3F8B841D472D3F8B841240A8A
:1044C0001473D3F8B841240C5473D3F8B841240EB4
:1044D00094730FE0006400400066004000600040FC
:1044E000030000040003000800010008000003109E
:1044F0000001FFF7D3F8BC41D473D3F8BC41240AC0
:104500001474D3F8BC41240C5474D3F8BC311B0E82
:10451000937439B1016941F02001016110BD640D4E
:104520001460B9E7C16841F02001C16010BD21B13C
:10453000016941F0200101617047C16841F020012B
:10454000C16070470246002029B1012902D11069DB
:1045500000F003007047D068FAE700234FF6FF72BF
:1045600021B1012917D0022924D03AE0016821F0B5
:10457000020141F00101016000E0521E416801F0BA
:104580000301012901D0002AF7D1406800F003009F
:10459000012823D124E0016821F00301016000E03B
:1045A000521E4168890701D0002AF9D1406880076E
:1045B00014D115E0016821F0010141F00201016010
:1045C00000E0521E416801F00301022901D0002AD7
:1045D000F7D1406800F00300022801D0002300E07A
:1045E0000123184670470268002122F0010242F0C0
:1045F00002020260406800F00300022800D101219D
:104600000846704703684FF6FF71002223F002034B
:10461000036000E0491E43689B0701D50029F9D1DA
:104620004068800700D40122104670478069C0F3BB
:104630000210000170478069000E70478069C0F366
:1046400007407047002A426901D00A4300E08A43CC
:10465000426170470246002011F4700F03D0926946
:1046600004E001207047CB0104D552680A401103D1
:10467000F7D170470B0101D59268F7E78B0101D59F
:10468000D268F3E71269F1E7534A914202D100215F
:1046900081617047C1F313028B0101D5C26070477D
:1046A0004B0101D502617047090101D58260704755
:1046B000426070470246002053690B424AD0B1F570
:1046C000807F3BD013DC08292ED007DC012926D0BF
:1046D000022927D004293DD1D0682BE0102925D00C
:1046E000202926D0402935D11069102130E0B1F5BC
:1046F000004F2BD00BDCB1F5007F22D0B1F5806FDD
:1047000022D0B1F5006F25D19069702120E0B1F57C
:10471000803F11D0B1F5003F1CD15068E5E79068AB
:104720002E4915E0D06802E0D068DEE71069032169
:104730000EE0106908210BE05068FBE79069012149
:1047400006E09069022103E0906900E050680421CE
:1047500000F03BB8704730B5082310240422B1F5AF
:10476000007F1DD010DC202929D007DC012921D0B1
:10477000042922D0082900D1C46030BD402920D0AE
:10478000B1F5807FF9D10BE00025B1F5004F06D0DF
:1047900008DCB1F5806F03D0B1F5006FEDD1856114
:1047A000426030BDB1F5803F0DD0B1F5003FF8D18A
:1047B000446030BD0949816030BDC36030BD0361D4
:1047C00030BD046130BD436030BD024600200A4266
:1047D00000D00120704700007000F030010101009E
:1047E0000CB500205449019000900A6842F48032D0
:1047F0000A604FF4A0630A6802F400320092019A42
:10480000521C0192009A12B9019A9A42F3D10A6895
:10481000920334D50120009047484030026842F0AE
:10482000805202604548026842F480420260424879
:10483000083002680260026842F4004202600268C6
:1048400042F4A0520260031F3D4A1A600A6842F017
:1048500080720A600A689201FCD53A4A40F205610A
:104860001160016821F003010160016841F002015B
:1048700001600168C1F381010229FAD10CBD0090E9
:104880000CBD314810B5016841F4700101602A483F
:10489000016841F001010160274A002108321160DE
:1048A00002682A4B1A400260031D294A1A600268F6
:1048B00022F48022026020480C300160FFF790FF54
:1048C00021494FF000608039086010BD70B51A4C66
:1048D000083420681F4A10F00C011F4804D05510FE
:1048E000042903D0082903D002601BE0056019E009
:1048F0001149091D0B68C3F380560B6803F03F0391
:1049000016B1B5FBF3F201E0B2FBF3F20B680968F4
:10491000C3F388135A43C1F30141491C4900B2FB58
:10492000F1F1016021680C4AC1F30311121D515CC1
:104930000268CA40026070BD00380240007000404A
:1049400008544007003C024088ED00E0FFFFF6FEFF
:10495000103000240024F4003400002070470000D0
:104960000FB4044910B503AA029800F089F910BCED
:104970005DF814FB180000200FB41CB5074B06AA05
:104980007B4469460090059800F04BF90020694689
:1049900000F05AF91CBC5DF814FB0000C5020000D1
:1049A0002DE9F0410E460446002020622046E168D1
:1049B000884730B3252805D0D4E901219047206AE3
:1049C000401CF2E7E168204600278847050018D020
:1049D000A5F14100192802D820354FF4006732466E
:1049E000294620462760FBF709FC40B1012804D086
:1049F000F61D26F007060836D8E7361DD6E7284606
:104A0000DAE7206ABDE8F08170B50C460546012A58
:104A100005D02878800600D5EA69002302E001234A
:104A200005E05B1C934202D2E05C0028F9D1A86942
:104A3000E618C01AA861286A184428622846AFF30D
:104A4000008004E0D5E9012114F8010B9047B4423D
:104A5000F8D32846AFF3008070BD00002DE9F04187
:104A60000646002410687529314616A510D0AFF30C
:104A70000080002802DA404213A507E031688A0767
:104A800001D512A502E0490704D511A5012401E0D2
:104A9000AFF3008000210A2206F1240709E0B0FBF1
:104AA000F2FCB0FBF2F302FB1C00303078541846E5
:104AB000491C0028F3D123462A463046BDE8F04180
:104AC00000F051B8000000002D0000002B00000095
:104AD00020000000032A40F2308010F0030C00F0A8
:104AE000158011F8013BBCF1020F624498BF11F828
:104AF00001CB00F8013B38BF11F8013BA2F10402E1
:104B000098BF00F801CB38BF00F8013B11F0030358
:104B100000F0C880083AC0F0088051F8043B083A19
:104B200051F804CBA0E80810F5E7121D5CBF51F85E
:104B3000043B40F8043BAFF30080D20724BF11F8D8
:104B4000013B11F801CB48BF11F8012B24BF00F83D
:104B5000013B00F801CB48BF00F8012B70477047BC
:104B60007047704770472DE9F0470D4699469246C9
:104B7000044600F124080168880604D5E06921F0A4
:104B80001001216000E00120A84201DD471B00E088
:104B90000027A1697A1902EB0900081AA0612078A0
:104BA000C00602D42046AFF30080002608E0D4E916
:104BB00001211AF806009047206A401C761C2062EA
:104BC0004E45F4DB2078C0060AD52046AFF30080BE
:104BD00006E0D4E9012130209047206A401C206281
:104BE000381EA7F10107F4DC07E0D4E9012118F829
:104BF00005009047206A401C2062281EA5F101058F
:104C0000F3DC2046AFF300802078000602D50220B6
:104C1000BDE8F0870120FBE701694A1C02610878C2
:104C2000704700B58FB0CDE90131002105910549EC
:104C30007944CDE9031011466846FFF7B1FE0FB085
:104C400000BD0000E5FFFFFF0A6802F8010B0A60E3
:104C5000704710B5436913B1AFF3008001E0FFF76F
:104C6000D3FE012010BD127800F124010A70002249
:104C70004A700122EDE711684FF0FF32E9E70000CA
:104C8000074B70B50D467B44FFF7CBFF0446284623
:104C900000F03AF810B14FF0FF3070BD204670BD03
:104CA00055DBFFFF10B5203AC0F00B80B1E818507B
:104CB000203AA0E81850B1E81850A0E81850BFF406
:104CC000F5AF5FEA027C24BFB1E81850A0E81850A5
:104CD00044BF18C918C0BDE810405FEA827C24BFF9
:104CE00051F8043B40F8043B08BF7047D20728BF87
:104CF00031F8023B48BF11F8012B28BF20F8023BD6
:104D000048BF00F8012B7047007B00F0800070471F
:104D1000754600F02BF8AE4605006946534620F074
:104D20000700854618B020B5FDF7C2FEBDE820405B
:104D30004FF000064FF000074FF000084FF0000B57
:104D400021F00701AC46ACE8C009ACE8C009ACE80A
:104D5000C009ACE8C0098D46704710B50446AFF3F2
:104D600000802046BDE81040FBF75FBA004870475E
:104D7000C8CA00204FF0C04210800148018070472F
:104D8000000002604FF04070E1EE100A70471246DA
:104D90003EE6427F4D0063C0695C6B20029D038349
:104DA00001E608F010281F00645F650066006700D8
:104DB00013F00F0114062475256326D122982303CE
:104DC000AC608E009100942C95249608971498243A
:104DD00099389A9E15008F009000920093009C30A5
:104DE0009B00A900AA00A780A8809E81A6277E0C10
:104DF0007F16802A814E8261836F847B8586868EB2
:104E0000879788A489AF8AC58BD78CE88D200E013F
:104E100011060DC12A002B0033003400173F185033
:104E2000295019031A782C78320049114AA04B6096
:104E30004C60460547080C200903000000000000F4
:104E40000000000000000000000000000000000062
:104E5000000000183C3C3C18180018180000000026
:104E60000000006666660000000000000000000010
:104E700000000036367F3636367F363600000000BA
:104E80000018183C666030180C06663C18180000C4
:104E9000000070D8DA760C18306E5B1B0E00000034
:104EA000000000386C6C38606F66663B00000000E4
:104EB00000000018181800000000000000000000AA
:104EC0000000000C1818303030303018180C00007A
:104ED0000000003018180C0C0C0C0C1818300000D6
:104EE0000000000000361C7F1C360000000000009F
:104EF000000000000018187E1818000000000000D4
:104F0000000000000000000000001C1C0C18000045
:104F1000000000000000007E000000000000000013
:104F2000000000000000000000001C1C0000000049
:104F300000000006060C0C181830306060000000FD
:104F40000000001E333737333B3B331E00000000A8
:104F50000000000C1C7C0C0C0C0C0C0C0000000065
:104F60000000003C6666060C1830607E0000000001
:104F70000000003C6666061C0666663C00000000F9
:104F80000000003030363636667F0606000000002E
:104F90000000007E6060607C06060C780000000067
:104FA0000000001C18307C666666663C000000004D
:104FB0000000007E060C0C18183030300000000095
:104FC0000000003C6666763C6E66663C00000000B1
:104FD0000000003C666666663E0C18380000000063
:104FE00000000000001C1C0000001C1C0000000051
:104FF00000000000001C1C0000001C1C0C1800001D
:10500000000000060C18306030180C06000000008C
:105010000000000000007E007E0000000000000094
:105020000000006030180C060C1830600000000012
:105030000000003C66660C181800181800000000FC
:105040000000007EC3C3CFDBDBCFC07F00000000C9
:10505000000000183C6666667E666666000000001A
:105060000000007C6666667C6666667C0000000068
:105070000000003C666660606066663C0000000000
:10508000000000786C66666666666C78000000005A
:105090000000007E6060607C6060607E0000000058
:1050A0000000007E6060607C606060600000000066
:1050B0000000003C666660606E66663E00000000B0
:1050C000000000666666667E666666660000000032
:1050D0000000003C181818181818183C00000000B0
:1050E00000000006060606060666663C0000000094
:1050F00000000066666C6C786C6C666600000000F0
:1051000000000060606060606060607E0000000021
:105110000000006363776B6B6B63636300000000E8
:105120000000006363737B6F6763636300000000CC
:105130000000003C666666666666663C000000002D
:105140000000007C6666667C6060606000000000B5
:105150000000003C666666666666663C0C060000FB
:105160000000007C6666667C6C6666660000000077
:105170000000003C666030180C06663C0000000031
:105180000000007E181818181818181800000000E1
:1051900000000066666666666666663C00000000A3
:1051A000000000666666666666663C1800000000E1
:1051B0000000006363636B6B6B36363600000000E3
:1051C00000000066663418182C6666660000000051
:1051D000000000666666663C18181818000000009B
:1051E0000000007E06060C183060607E00000000A3
:1051F0000000003C303030303030303030303C0057
:105200000000006060303018180C0C06060000002A
:105210000000003C0C0C0C0C0C0C0C0C0C0C3C009E
:1052200000183C66000000000000000000000000C4
:105230000000000000000000000000000000FF006F
:105240000000001818180000000000000000000016
:1052500000000000003C06063E66663E00000000BE
:1052600000000060607C66666666667C0000000088
:1052700000000000003C66606060663C00000000CA
:1052800000000006063E66666666663E0000000098
:1052900000000000003C66667E60603C000000008C
:1052A0000000001E3030307E303030300000000012
:1052B00000000000003E66666666663E06067C00EC
:1052C00000000060607C666666666666000000003E
:1052D00000001818007818181818187E0000000030
:1052E00000000C0C003C0C0C0C0C0C0C0C0C780092
:1052F000000000606066666C786C66660000000006
:1053000000000078181818181818187E00000000FF
:1053100000000000007E6B6B6B6B6B630000000095
:1053200000000000007C666666666666000000009D
:1053300000000000003C66666666663C00000000F7
:1053400000000000007C66666666667C6060600047
:1053500000000000003E66666666663E06060600C1
:105360000000000000666E70606060600000000079
:1053700000000000003E60603C06067C000000006B
:1053800000000030307E30303030301E0000000031
:1053900000000000006666666666663E000000006B
:1053A000000000000066666666663C1800000000AB
:1053B0000000000000636B6B6B6B36360000000072
:1053C000000000000066663C183C666600000000B5
:1053D00000000000006666666666663C0C18F00019
:1053E00000000000007E060C1830607E0000000007
:1053F0000000000C1818183060301818180C000045
:10540000000000181818181818181818181818007C
:10541000000000301818180C060C1818183000007E
:1054200000000071DB8E00000000000000000000A2
:10543000505400080000002048000000C40100088B
:105440009854000848000020E0D00000E001000867
:10545000000000000000000000000000000000004C
:105460001027000000000000000000000000000005
:105470000000000000000000010203040102030418
:1054800006070809007A030A000000000000000077
:085490000102030406070809EC
:040000050800018965
:00000001FF
