:020000040800F2
:10000000306D00202D2F00084529000847290008E1
:100010005F2900086129000863290008000000002A
:10002000000000000000000000000000652900083A
:100030006729000800000000692900086B290008F2
:10004000472F0008472F0008472F0008472F0008B8
:10005000472F0008472F0008472F0008472F0008A8
:10006000472F0008472F0008472F0008472F000898
:10007000472F0008472F0008472F0008472F000888
:10008000472F0008472F0008472F0008472F000878
:100090007F2A0008472F0008472F0008472F000835
:1000A000472F0008472F0008472F0008472F000858
:1000B000932900086F290008472F0008472F0008E0
:1000C000472F0008472F0008472F0008472F000838
:1000D000472F0008B3290008472F0008572A0008B7
:1000E000472F0008472F0008472F0008472F000818
:1000F000472F0008472F0008472F0008472F000808
:10010000472F0008472F0008472F0008472F0008F7
:10011000472F0008472F0008472F0008472F0008E7
:10012000472F0008A72A0008472F0008472F00087C
:10013000472F0008472F0008472F0008472F0008C7
:10014000472F0008472F0008472F0008472F0008B7
:10015000472F0008472F0008472F0008472F0008A7
:10016000472F0008472F0008472F0008472F000897
:10017000472F0008472F0008D9290008472F0008FB
:10018000472F0008472F000800F002F800F044F85D
:100190000AA090E8000C82448344AAF10107DA45E2
:1001A00001D100F039F8AFF2090EBAE80F0013F0F0
:1001B000010F18BFFB1A43F001031847E860000065
:1001C00008610000103A24BF78C878C1FAD85207F5
:1001D00024BF30C830C144BF04680C6070470000C1
:1001E0000023002400250026103A28BF78C1FBD840
:1001F000520728BF30C148BF0B607047642905F023
:100200006783632905F06984002070471FB505F0F6
:10021000F3FC1FBD10B510BD05F0B4FC1146FFF78F
:10022000F5FF00F011F805F0D2FC03B4FFF7F2FF80
:1002300003BC02F0E9FA000001B58748009981602B
:1002400081680029FCD108BD84484FF47A710124EB
:10025000006888B0B0FBF1F0B0F1807F4AD220F0A6
:100260007F414FF0E020491E41617D4AF02182F834
:10027000141D002585610721016103A803F0A0FE7C
:100280000121084603F000FF02268DF809608DF871
:100290000840744F8DF80A5001968DF80B5001A953
:1002A000384603F085FB0221384603F0FDFB4FF48E
:1002B000A06002F05BFE02F0DFF900F0BEFC4FF43C
:1002C000784002F004F8012342F2CF0242F20F71AB
:1002D0009807009402F037FC0123532240F2E731E3
:1002E0006148009402F02FFC00F016FA5F4C10B148
:1002F0005FA101E0FEE763A1204602F0C2FA46F2E8
:100300006801112005F070FC0021084601F0C1FFD2
:1003100002F026F90121604802F0DDFF012002F021
:10032000D3FE012002F0DBFE4FF4FA70FFF784FFEA
:100330005AA1204602F0A5FA6420FFF77DFF464C43
:10034000268065805A4FDFF86C814FF0220BDFF872
:100350006891DFF868A15A4E02F0D4FD35803888E4
:1003600001282AD1B8F8000041462822B0FBF2F358
:1003700002FB1300A080012822D018B3801EE08069
:100380000888012820D00888801E81B2002001F052
:1003900080FF4FF0C041A1F800B0E288002002EBDE
:1003A000820251464FF4A07C09EBC21232F81030A1
:1003B0000B80401C80B26045F8D330887080CBE75A
:1003C0002720DCE72620DAE7EF21002001F061FF9B
:1003D0004FF0C041A1F800B00020494652464FF40A
:1003E000A07300BF01EB400C0CF5C04CBCF880C101
:1003F000A2F800C0401C80B29842F3D3DDE7164853
:1004000041884A1C428041F28832914201D9002140
:1004100041808168002902D08168491E816070474F
:100420001CB50121082003F02FFE80200090012040
:100430008DF8040000208DF8060003218DF80510CA
:10044000204C8DF807006946204603F0B1FA802160
:10045000204603F029FB1CBD0000002030000020D6
:100460000FE000E0000002400004004000480040AF
:1004700043616D65726120496E6974206661696CC3
:100480007321210043616D65726120496E6974209A
:100490004F6B21210D0A00002864024043616D6505
:1004A0007261204145435F46756E2E2E2E0000007E
:1004B0001A00002018000020D00200200000026076
:1004C00044000020000C02402DE9F04397B00121C8
:1004D000172003F0D9FD0121084603F0DFFDDE4CB3
:1004E0000D220421204603F0ECFA0D2206212046BD
:1004F00003F0E7FADFF864830D220721404603F09A
:10050000E0FADFF85C930D220621484603F0D9FAA1
:100510000D220A21204603F0D4FA0D220821484674
:1005200003F0CFFA0D220921484603F0CAFACD4F55
:100530000D220421384603F0C4FA0D22062140465C
:1005400003F0BFFA0D220521384603F0BAFA0D2256
:100550000621384603F0B5FA4FF482600F9002206E
:100560008DF8400003268DF8416001258DF842503A
:100570008DF843500FA9204603F01AFAC0200F90BF
:100580000FA9404603F014FA4FF450700F900FA9D2
:10059000484603F00DFA70200F900FA9384603F07B
:1005A00007FA40200F900FA9204603F001FA00241B
:1005B0002020ADF84C008020ADF84840ADF84E004A
:1005C000ADF85040ADF84A40ADF85240ADF8544057
:1005D00012A802F02EFD0121082002F08EFD01215B
:1005E000102002F08AFD0121084602F086FD01215B
:1005F000042002F082FD4E208DF844008DF8454025
:100600008DF846408DF8475011A802F0B4FC39200F
:100610008DF844008DF845408DF846508DF84750D0
:1006200011A802F0A8FC0121880503F02DFD8E4DD4
:10063000284602F08FFD4FF0007000908B4801902B
:100640008B48CDE902044FF4C850CDE904042815C5
:1006500006908000079040000890401109903004F7
:100660000A900420CDE90C640B90694628460E944C
:1006700002F0F8FD01221021284602F0A1FE17B079
:10068000BDE8F0831CB5012003F05EFC01210846A3
:1006900003F0FAFC704C00220821204603F011FA06
:1006A000A015009003208DF8050002208DF80400AD
:1006B00000208DF8060001208DF8070069462046CD
:1006C00003F076F94FF0A0614FF4C00003F03FFC57
:1006D0001CBD1CB50121084603F0D6FC0420009087
:1006E00002208DF8050001208DF8040000218DF80E
:1006F00006108DF807006946584803F059F9564C22
:100700000421204603F0D0F90A2000F09BF80421D0
:10071000204603F0C7F91CBD70B500F0ADF8FFF737
:10072000D3FEFFF7AFFF40F6FF76304600F08AF8C1
:100730008021122000F0EAF860B9304600F082F81B
:100740004C4D002405EB4400417815F8140000F0EE
:10075000DDF808B1FF2070BD641CE4B2592CF1D360
:10076000304600F06FF8002070BD38B50446694689
:100770001C2000F01BF9B8B99DF8000020706946F4
:100780001D2000F013F978B99DF8000060706946EB
:100790000B2000F00BF938B99DF80000A0706946F5
:1007A0000A2000F003F908B1FF2038BD9DF80000D1
:1007B000E070002038BDF0B585B00E4607468518BC
:1007C00001EB430402A9032000F0F0F89DF80800B3
:1007D000694600F0C0008DF80800322000F0E6F80D
:1007E0009DF8000005F0070100F0C0008DF8000042
:1007F00040EAC10107F007000143322000F086F80B
:10080000C7F3C701172000F081F8C5F3C70118200E
:1008100000F07CF89DF8081004F0070041EAC001E0
:1008200006F007000143032000F070F8C6F3C7018B
:10083000192000F06BF8C4F3C7011A2000F066F825
:1008400005B0F0BD40F2E63302E01946491EFDD284
:10085000401EFAD27047000000000240000402402F
:1008600000080240001002402864024028000550A1
:10087000D0020020025C000830B587B001210220C0
:1008800003F002FC0121880503F01CFC904D0422BA
:100890000A21284603F015F904220B21284603F00B
:1008A00010F94FF44060049002208DF814000121EB
:1008B0008DF8161000248DF815408DF8171004A936
:1008C000284603F075F8834D284603F01DF9ADF86E
:1008D00004404BF6FF70ADF80600FE20ADF80800AE
:1008E0002815ADF80A000001ADF80C007A48009018
:1008F0000121284603F089F96946284603F020F9CA
:100900000121284603F0A7F907B030BD2DE9F047D3
:10091000724C8046894620686E4E0121304603F0B5
:100920007EF925686E4F01E06D1E30D339463046A2
:1009300003F03EFA0028F7D0002242213546304627
:1009400003F081F92668674F01E0761E1FD3394610
:10095000284603F02DFA0028F7D041462E462846B7
:1009600003F0DEF9256837465E4EB61C01E06D1EC9
:100970000DD33146384603F01BFA0028F7D049461C
:10098000384603F0CDF9246804E0641E02D2FF204B
:10099000BDE8F0873146384603F00AFA0028F4D063
:1009A0000121384603F045F90020F1E72DE9F05F19
:1009B0004A4D834689462868464C1434208840F4C2
:1009C00080602080DFF80C810121404603F027F988
:1009D0002E68434F01E0761E61D33946404603F04E
:1009E000E7F90028F7D000224321404603F02BF915
:1009F0002E68DFF8F0A001E0761E50D35146404645
:100A000003F0D6F90028F7D05946404603F088F99C
:100A10002E68DFF8D0A00AF1020A01E0761E3ED36C
:100A20005146404603F0C4F90028F7D0208840F42E
:100A30008060208001214646404603F0FAF80121FB
:100A4000304603F0ECF8A8462D6801E06D1E26D371
:100A50003946304603F0ACF90028F7D00122432193
:100A60003546304603F0EFF8D8F800704646DFF818
:100A7000708008F1010801E07F1E10D3414628462E
:100A800003F096F90028F7D000212F46284603F0FE
:100A9000E2F83568124E3F3604E06D1E02D2FF20A8
:100AA000BDE8F09F3146384603F082F90028F4D0C3
:100AB0000121384603F0BDF8384603F033F989F8D0
:100AC0000000208840F4806020800020E8E70000DB
:100AD0000004024000580040A08601000C000020E5
:100AE0000100030082000700034A02EB01111022FB
:100AF000A1F5007104F028BFB45C00082DE9FC41A9
:100B00000121182003F0C0FA0121084603F0D0FAB1
:100B1000DFF884840C220021404602F0D2FF0C2230
:100B20000121404602F0CDFF0C220421404602F094
:100B3000C8FF0C220521404602F0C3FF0C22082109
:100B4000404602F0BEFF0C220921404602F0B9FFE8
:100B50000C220A21404602F0B4FF0C220B21404631
:100B600002F0AFFF0C220E21404602F0AAFF0C2239
:100B70000F21404602F0A5FF4CF633700090022092
:100B80008DF8040003258DF8055000268DF80660C9
:100B900001248DF807406946404602F009FFFF4FE7
:100BA0000C220221384602F08CFF0C220721384625
:100BB00002F087FF0C220821384602F082FF0C2247
:100BC0000921384602F07DFF0C220A21384602F046
:100BD00078FF0C220B21384602F073FF0C221146DD
:100BE000384602F06EFF0C220D21384602F069FFF4
:100BF0000C220E21384602F064FF0C220F213846E9
:100C000002F05FFF4FF6847000906946384602F0AC
:100C1000CFFE8DF8044080208DF8055000908DF8AF
:100C200006608DF807406946404602F0C1FE80210B
:100C3000404602F039FFBDE8FC812DE9FC5F01214F
:100C4000082003F021FA01258DF804504FF0000828
:100C500080208DF806804FF00309CF4C00908DF86E
:100C600005908DF807506946204602F0A1FE8021CC
:100C7000204602F019FFCA4CFFF740FF641EFDD268
:100C800001F0BDFC642001F0E0FC4FF0C042002008
:100C90001080C44B1888C449A0F5134C4FF48076DB
:100CA000488041F2180A40F2077440F23F17BCF145
:100CB000250C7DD0A0F5104CBCF54A7CF9D0A0F5F0
:100CC000134540F2022B203D73D0B0F5134FFBD0FB
:100CD000A0F5134C4FF40175BCF1310C6AD0A0F5AE
:100CE000194C40F20558BCF1190C7DD0A0F5A85C58
:100CF000BCF1050C01D0404577D1092008700021D6
:100D0000072004F071FF322001F09FFC4FF48E7138
:100D1000122004F069FF0121A42004F065FF0F21D7
:100D2000082004F061FF08210A2004F05DFF08217B
:100D30000D2004F059FF2146302004F055FF072113
:100D4000312004F051FF40F20361322004F04CFFE7
:100D50004FF4E0652946332004F046FF594634201D
:100D600004F042FF0221352004F03EFF41F60F71EE
:100D7000362004F039FF2146372004F035FF0021EA
:100D8000382004F031FF0021392004F02DFF2146E6
:100D90003A2004F029FF00213B2004F025FF072121
:100DA0003C2004F021FF00213D2004F01DFF02E063
:100DB000B1E07CE295E1322001F047FC01210720FF
:100DC00004F012FF0121172004F00EFF322001F081
:100DD0003CFC4FF4BD51102004F006FF40F21721F7
:100DE000112004F001FF01E006E38BE34FF48F7163
:100DF000122004F0F9FE4FF47061132004F0F4FEA9
:100E000000212A2004F0F0FE0A21292004F0ECFE43
:100E10004FF49F71122004F0E7FE0021502004F0EF
:100E2000E3FEEF21512004F0DFFE0021522004F008
:100E3000DBFE3946532004F0D7FE4FF41C516020EE
:100E400004F0D2FE0121612004F0CEFE00216A20D0
:100E500004F0CAFE0021802004F0C6FE002181209B
:100E600004F0C2FE0021822004F0BEFE0021832097
:100E700004F0BAFE0021842004F0B6FE0021852093
:100E800004F0B2FE1321902004F0AEFE4FF4407146
:100E9000922004F0A9FE0521932004F0A5FE002174
:100EA000952004F0A1FE0021972004F09DFE002172
:100EB000982004F099FE3146012004F095FE294661
:100EC000022004F091FE41F23001032004F08CFE78
:100ED0000021042004F088FE00210C2004F084FE90
:100EE00000210F2004F080FE0021202004F07CFE71
:100EF0000021212004F078FE2121072004F074FE57
:100F0000C82001F0A2FB6121072004F06DFEC8207B
:100F100001F09BFBFEE30D7047F6F001E52004F0C5
:100F200063FE3146012004F05FFE4FF4E0610220D1
:100F300004F05AFE5146032004F056FE002104201E
:100F400004F052FE40F20721082004F04DFE00217B
:100F5000092004F049FE00210A2004F045FE00218A
:100F60000C2004F041FE00210D2004F03DFE002184
:100F70000F2004F039FE0021102004F035FE072177
:100F8000112004F031FE0021122004F02DFE00217A
:100F9000132004F029FE09E0000C0240001002407A
:100FA000FFFF1F0000000260100000200121072049
:100FB00004F01AFEC82001F048FB41F29001102015
:100FC00004F012FE40F22721112004F00DFE322021
:100FD00001F03BFB1F21122004F006FE322001F03D
:100FE00034FB4FF4A851132004F0FEFD27212920E3
:100FF00004F0FAFD0D212B2004F0F6FD322001F063
:1010000024FB0021202004F0EFFD0021212004F02A
:10101000EBFD0021302004F0E7FD2146312004F0F3
:10102000E3FD40F20731322004F0DEFD4FF40071A1
:10103000352004F0D9FD0821362004F0D5FD042127
:10104000372004F0D1FD0021382004F0CDFD2146E9
:10105000392004F0C9FD02213C2004F0C5FD41F611
:1010600004513D2004F0C0FD0021502004F0BCFDDF
:10107000EF21512004F0B8FD0021522004F0B4FD0E
:101080003946532004F0B0FD4FF42741602004F0AE
:10109000ABFD0121612004F0A7FD00216A2004F0CE
:1010A000A3FD0021802004F09FFD0021812004F099
:1010B0009BFD0021822004F097FD0021832004F095
:1010C00093FD0021842004F08FFD0021852004F091
:1010D0008BFD1021902004F087FD4FF4C061922019
:1010E000FEE381F8009041F21401E72004F07CFD5A
:1010F0003146012004F078FD4FF40071022004F025
:1011000073FD41F23001032004F06EFD59460820C2
:1011100004F06AFD0021092004F066FD00210A2088
:1011200004F062FD00210C2004F05EFD00210D2082
:1011300004F05AFD00210F2004F056FD002110207C
:1011400004F052FD0721112004F04EFD0021122071
:1011500004F04AFD0021132004F046FDC82001F0F0
:1011600074FA41F29061102004F03EFD40F2272114
:10117000112004F039FD322001F067FA0C21122011
:1011800004F032FD322001F060FA4FF400611320C8
:1011900004F02AFD1121292004F026FD0B212B202B
:1011A00004F022FD322001F050FA0021202004F04A
:1011B0001BFD0021212004F017FD0021302004F048
:1011C00013FD4FF483763146312004F00DFD0021EC
:1011D000322004F009FD2946352004F005FD41F2D6
:1011E0000A61362004F000FD2146372004F0FCFCA3
:1011F0003146382004F0F8FC2146392004F0F4FC94
:1012000040F202413C2004F0EFFC40F60F413D204B
:1012100004F0EAFC0021502004F0E6FCEF2151200C
:1012200004F0E2FC0021522004F0DEFC3946532099
:1012300004F0DAFC4FF41C51602004F0D5FC0121CD
:10124000612004F0D1FC00216A2004F0CDFC0021D3
:10125000802004F0C9FC0021812004F0C5FC00219D
:10126000822004F0C1FC0021832004F0BDFC002199
:10127000842004F0B9FC0021852004F0B5FC102185
:10128000902004F0B1FC4FF4C061922004F0ACFC5B
:101290002121072004F0A8FC322001F0D6F96121B9
:1012A000072004F0A1FC322001F0CFF9FEE381F821
:1012B00000800021084604F097FC3146012004F02C
:1012C00093FC4FF4E061022004F08EFC51460320B1
:1012D00004F08AFC0021042004F086FC5946082012
:1012E00004F082FC0021092004F07EFC00210A2089
:1012F00004F07AFC01210C2004F076FC00210D2082
:1013000004F072FC00210F2004F06EFC642001F058
:101310009CF940F20111072004F066FC642001F002
:1013200094F94FF48651102004F05EFC072111203F
:1013300004F05AFC4FF488742146122004F054FC47
:101340004FF43061132004F04FFC0021292004F0F9
:101350004BFC44F210012B2004F046FC00215020ED
:1013600004F042FCEF21512004F03EFC0021522009
:1013700004F03AFC3946532004F036FC4FF41C517B
:10138000602004F031FC0121612004F02DFC0021DB
:101390006A2004F029FC0021802004F025FC0021B3
:1013A000812004F021FC0021822004F01DFC00219A
:1013B000832004F019FC0021842004F015FC002196
:1013C000852004F011FC1021902004F00DFC002178
:1013D000922004F009FC0121932004F005FC214631
:1013E000952004F001FC0021972004F0FDFB002172
:1013F000982043E30720EDE30D2008700621282004
:1014000004F0F2FB0121002004F0EEFB002110208B
:1014100004F0EAFB47F2EF21012004F0E5FB4FF472
:10142000C061022004F0E0FB46F63821032004F0FE
:10143000DBFB46F67401112004F0D6FB00210F20DF
:1014400004F0D2FB45F208310B2004F0CDFB032160
:101450000C2004F0C9FB0A210D2004F0C5FB4FF459
:1014600038510E2004F0C0FBBE211E2004F0BCFB4E
:101470004FF40041252004F0B7FB4FF4F041262043
:1014800004F0B2FB7821272004F0AEFB00214E20AF
:1014900004F0AAFB00214F2004F0A6FB40F6D9017E
:1014A000122004F0A1FB0021302004F09DFB4FF43A
:1014B0008271312004F098FB3146322004F094FB15
:1014C00040F205352946332004F08EFB4146342096
:1014D00004F08AFB2946352004F086FB214636209D
:1014E00004F082FB691F372004F07EFB4FF490511B
:1014F0003A2004F079FB4FF400613B2004F074FBC8
:10150000332177E7A0F5094C40F2025940F2023A44
:10151000BCF1890C1DD0A0F5094CBCF1990C7DD013
:10152000A0F5A845083D7AD0A0F58A45313D77D091
:10153000A0F58A45353D74D0472873D0A0F5EE4517
:10154000833D70D0672010801888488047286BD072
:10155000FEE3052008700121002004F045FB322045
:1015600001F073F84AF6A401032004F03DFB322099
:1015700001F06BF800210C2004F036FB322001F062
:1015800064F840F60C010D2004F02EFB322001F02F
:101590005CF84FF42C510E2004F026FB322001F0B1
:1015A00054F8B0211E2004F01FFB322001F04DF84A
:1015B00042F63F31012004F017FB322001F045F8DC
:1015C0004FF4C061022004F00FFB322001F03DF81F
:1015D0000021102004F008FB322001F036F846F21A
:1015E0007001112004F000FB322001F02EF80021E0
:1015F000052004F0F9FA322001F027F80021062036
:1016000004F0F2FA322001F020F84EF61C71162098
:1016100004F0EAFA322001F018F806E0CFE08EE19B
:1016200031E2D8E2FDE37DE3FCE30321172004F07F
:10163000DBFA322001F009F840F23311072004F000
:10164000D3FA322001F001F800210B2004F0CCFA8B
:10165000322000F0FAFF00210F2004F0C5FA3220FA
:1016600000F0F3FF0021412004F0BEFA322000F028
:10167000ECFF0021422004F0B7FA322000F0E5FF31
:101680000021482004F0B0FA322000F0DEFF394695
:10169000492004F0A9FA322000F0D7FF00214A20A7
:1016A00004F0A2FA322000F0D0FF00214B2004F019
:1016B0009BFA322000F0C9FF4FF46F41442004F040
:1016C00093FA322000F0C1FF0021452004F08CFA8B
:1016D000322000F0BAFF3946462004F085FA322065
:1016E00000F0B3FF2146302004F07EFA322000F0F3
:1016F000ACFF2946312004F077FA322000F0A5FF34
:101700002946322004F070FA322000F09EFF4C4649
:10171000494600E0B4E1332004F066FA322000F0DC
:1017200094FF40F20751342004F05EFA322000F0BA
:101730008CFF2946352004F057FA322000F085FF4F
:101740002946362004F050FA322000F07EFF214670
:10175000372004F049FA322000F077FF5446514612
:101760003A2004F041FA322000F06FFF21463B207E
:1017700004F03AFA322000F068FF0021232004F040
:1017800033FA322000F061FF0021242004F02CFA0B
:10179000322000F05AFF4FF40041252004F024FAD3
:1017A000322000F052FF00214F2004F01DFA0021EA
:1017B0004E2004F019FA46F2580111201BE60420CD
:1017C00008700621282004F00FFA0121002004F0FF
:1017D0000BFA4AF6A461032004F006FA04210C2057
:1017E00004F002FA0C210D2004F0FEF94FF4205110
:1017F0000E2004F0F9F9B5211E2004F0F5F943F6A6
:101800003F31012004F0F0F94FF4C061022004F0F0
:10181000EBF90021102004F0E7F946F63001112021
:1018200004F0E2F90021052004F0DEF90021062091
:1018300004F0DAF94EF61C71162004F0D5F93321C4
:10184000072004F0D1F900210B2004F0CDF900218C
:101850000F2004F0C9F90021412004F0C5F900214E
:10186000422004F0C1F90021482004F0BDF93946B6
:10187000492004F0B9F900214A2004F0B5F900210B
:101880004B2004F0B1F94FF46F41442004F0ACF95F
:101890000021452004F0A8F93946462004F0A4F9B7
:1018A00000214E2004F0A0F900214F2004F09CF903
:1018B0002146302004F098F95946312004F094F97B
:1018C0002946322004F090F94C464946332004F072
:1018D0008BF940F20751342004F086F9294600E0E4
:1018E0001FE2352004F080F92946362004F07CF907
:1018F0002146372004F078F9544651463A2004F046
:1019000073F921463B2004F06FF90021232004F0F5
:101910006BF90021242004F067F94FF400412520E1
:1019200004F062F94FF4E041262004F05DF94BF237
:10193000EB01202004F058F97C2127205BE50820EA
:1019400008703146012004F04FF94FF4E0610220A5
:1019500004F04AF941F23001032004F045F9002176
:10196000042004F041F940F20721082004F03CF97A
:101970000021092004F038F900210A2004F034F98C
:1019800000210C2004F030F900210D2004F02CF986
:1019900000210F2004F028F9322000F056FE40F21A
:1019A0000111072004F020F9322000F04EFE41F230
:1019B000B061102004F018F90121112004F014F98D
:1019C0000121172004F010F94FF49C71122004F04B
:1019D0000BF94FF40061132004F006F909212920C6
:1019E00004F002F909212A2004F0FEF80021A420C5
:1019F00004F0FAF80021502004F0F6F8EF2151200D
:101A000004F0F2F80021522004F0EEF83946532099
:101A100004F0EAF84FF41C51602004F0E5F80321CB
:101A2000612004F0E1F800216A2004F0DDF80021D3
:101A3000802004F0D9F80021812004F0D5F800219D
:101A4000822004F0D1F80021832004F0CDF8002199
:101A5000842004F0C9F80021852004F0C5F8132182
:101A6000902004F0C1F80021922004F0BDF8032179
:101A7000932004F0B9F84FF48871952004F0B4F87D
:101A800040F27311B6E4072008700121002004F031
:101A9000ABF84FF4C561102004F0A6F8062112201F
:101AA00004F0A2F840F63221132000E0EDE104F04A
:101AB0009BF84021112004F097F85021152004F0E4
:101AC00093F81621122004F08FF8322000F0BDFDAB
:101AD00045F26061102004F087F8322000F0B5FD77
:101AE00042F64E21132004F07FF83146012004F025
:101AF0007BF84FF44071022004F076F841F2300197
:101B0000032004F071F85946082004F06DF8002114
:101B10000A2004F069F80021302004F065F840F252
:101B20000241312004F060F84FF48371322004F058
:101B30005BF84FF4E061332004F056F84FF4827103
:101B4000342004F051F840F20131352004F04CF813
:101B50002146362004F048F840F20531372004F0E1
:101B600043F84FF40271382004F03EF840F60B7150
:101B7000392004F039F8322000F067FD02214120BD
:101B800004F032F84FF41C51602004F02DF80121CC
:101B9000612004F029F840F21911902004F024F893
:101BA0004FF48571922004F01FF80421932004F073
:101BB0001BF83146A02004F017F8322000F045FD54
:101BC00040F23311072004F00FF8322000F03DFD01
:101BD0000021A02056E30C2008703021152004F0CD
:101BE00003F810219A2003F0FFFF2021112003F0B9
:101BF000FBFF43F22841102003F0F6FF02211220E0
:101C000003F0F2FF41F23801132003F0EDFF28202A
:101C100000F01BFD1221084603F0E6FF282000F02B
:101C200014FD43F22041102003F0DEFF43F2450192
:101C3000132003F0D9FF462000F007FD00213020DB
:101C400003F0D2FF40F20241312003F0CDFF40F219
:101C50000731322003F0C8FF4FF44171332003F005
:101C6000C3FF0421342003F0BFFF40F201413520BF
:101C700003F0BAFF2146362003F0B6FF40F20531EB
:101C8000372003F0B1FF4FF4C2642146382003F03F
:101C9000ABFF2146392003F0A7FF3146012003F0B6
:101CA000A3FF4FF44071022003F09EFF41F2300188
:101CB000032003F099FF40F60801082003F094FF89
:101CC00008210A2003F090FF4FF41C51602003F01C
:101CD0008BFF0121612003F087FF4FF49F7190205B
:101CE00003F082FF3146922003F07EFF31469320BD
:101CF00003F07AFF4FF44051A02003F075FF10214C
:101D0000A32003F071FF0121072003F06DFF2121C3
:101D1000072003F069FF2321072003F065FF33212B
:101D20000720B0E0062008700121FF2003F05CFFCF
:101D30000821F32003F058FF3146012003F054FF3F
:101D40004FF4E061022003F04FFF41F2300100E068
:101D50009AE2032003F048FF5146082003F044FFB5
:101D600040F20721082003F03FFF0021092003F083
:101D70003BFF00210A2003F037FF0021102003F071
:101D800033FF0521112003F02FFF0021122003F063
:101D90002BFF0021132003F027FF322000F055FC19
:101DA00041F2B021102003F01FFF322000F04DFC63
:101DB0000721112003F018FF322000F046FC8B2190
:101DC000122003F011FF322000F03FFC4FF4B85115
:101DD000132003F009FF322000F037FC22212920D4
:101DE00003F002FF0021302003F0FEFE21463120E7
:101DF00003F0FAFE4146322003F0F6FE40F20711EE
:101E0000352003F0F1FE0821362003F0EDFE00211D
:101E1000372003F0E9FE5C465946382003F0E4FE23
:101E200001E035E014E14FF48371392003F0DCFE6A
:101E300021463C2003F0D8FE4FF481613D2003F0A1
:101E4000D3FE322000F001FC0021502003F0CCFE34
:101E5000EF21512003F0C8FE0021522003F0C4FE00
:101E60003946532003F0C0FE4FF42741602003F0B1
:101E7000BBFE0121612003F0B7FE3321902003F067
:101E8000B3FE0B212B2003F0AFFE40F23311F9E536
:101E90000A2008700021EA2003F0A6FE2021EB2092
:101EA00003F0A2FE0C21EC2003F09EFEC421ED20E5
:101EB00003F09AFE4021E82003F096FE3821E92045
:101EC00003F092FE0121F12003F08EFE1021F2209A
:101ED00003F08AFEA321272003F086FE0121402083
:101EE00003F082FE0021412003F07EFE002142200B
:101EF00003F07AFE1021432003F076FE0E214420E9
:101F000003F072FE2421452003F06EFE04214620DA
:101F100003F06AFE5021472003F066FE02214820AC
:101F200003F062FE1321492003F05EFE19214A20CE
:101F300003F05AFE19214B2003F056FE16214C20C7
:101F400003F052FE1B21502003F04EFE31215120A0
:101F500003F04AFE2F21522003F046FE3F2153207A
:101F600003F042FE3F21542003F03EFE3E21552067
:101F700003F03AFE2F21562003F036FE7B21572036
:101F800003F032FE0921582003F02EFE06215920CD
:101F900003F02AFE06215A2003F026FE0C215B20C6
:101FA00003F022FE1D215C2003F01EFECC215D20EB
:101FB00003F01AFE18211B2003F016FE01211A203F
:101FC00003F012FE1521242003F00EFE50212520DF
:101FD00003F00AFE8B21232003F006FE3621182091
:101FE00003F002FE0121192003F0FEFD0021012073
:101FF00003F0FAFD88211F2003F0F6FD322000F0E7
:1020000024FB80211F2003F0EFFD322000F01DFB98
:1020100090211F2003F0E8FD322000F016FBD021B4
:102020001F2003F0E1FD322000F00FFB05211720F7
:1020300003F0DAFD0021362003F0D6FD38212820F8
:1020400003F0D2FD322000F000FB3C21282019E1F2
:102050000B2008700821422003F0C6FDB421462061
:1020600003F0C2FD4321472003F0BEFD13214820A9
:1020700003F0BAFD4721492003F0B6FD14214A20A0
:1020800003F0B2FD36214B2003F0AEFD03214C20BE
:1020900003F0AAFD46214D2003F0A6FD05214E20A8
:1020A00003F0A2FD10214F2003F09EFD08215020D7
:1020B00003F09AFD0A21512003F096FD0021022031
:1020C00003F092FD0021032003F08EFD0021042087
:1020D00003F08AFDEF21052003F086FD0021062094
:1020E00003F082FD0021072003F07EFD012108207E
:1020F00003F07AFD3F21092003F076FD0A2000F06D
:10210000A4FA0621012003F06FFDC821162003F078
:102110006BFD9521232003F067FD9521242003F01A
:1021200063FDFF21252003F05FFD0221272003F03E
:102130005BFD0221282003F057FD0221292003F036
:1021400053FD02212A2003F04FFD02212C2003F031
:102150004BFD02212D2003F047FD01213A2003F021
:1021600043FD01213B2003F03FFDF0213C2003F023
:102170003BFD00213D2003F037FD142000F065FAFF
:102180003821352003F030FD7821362003F02CFD76
:1021900038213E2003F028FD0F21402003F024FDCC
:1021A000F021412003F020FD0021382003F01CFD28
:1021B0004921192003F018FD0A21932003F014FD92
:1021C0000A2000F042FA2021084603F00DFD032109
:1021D0001D2003F009FD00211E2003F005FD09214B
:1021E0001F2003F001FD5321442003F0FDFC1021CA
:1021F000452003F0F9FC0A2000F027FA04211C20F6
:1022000003F0F2FC142000F020FA8021432003F0B8
:10221000EBFC052000F019FA0A211B2003F0E4FC76
:10222000282000F012FA12211B2003F0DDFC2820E8
:1022300000F00BFA7F21902003F0D6FC0421262029
:1022400003F0D2FC282000F000FA2421262003F01D
:10225000CBFC2C21262003F0C7FC282000F0F5F948
:102260000821702003F0C0FC3C21262003F0BCFCB8
:102270000221572003F0B8FC0021552003F0B4FCE4
:102280000021572003F0B0FC322000F0DEF9BDE859
:10229000FC9F10B5A0F23F10404284B2F248007893
:1022A00005280BD0202003F09FFC2146212003F0BD
:1022B0009BFC4FF0C0412220088010BD4E2003F04F
:1022C00093FC2146BDE810404F2003F08DBC70B553
:1022D0000546E548002400780A2811D00B280FD0C5
:1022E00000210846FFF7D5FF4FF0C04122200880AB
:1022F000DE484FF496310580641C8C42FBD370BDE0
:102300000021022003F070FC0021032003F06CFC8C
:102310000021042003F068FCEF21052003F064FC99
:102320000021062003F060FC0021072003F05CFC84
:102330000121082003F058FC3F21092003F054FC40
:10234000D2E710B5FFF7A5FF4FF0C041222008806B
:10235000C5480178C548091F092917D2DFE801F0EF
:10236000050505051616080805000188008810BD3A
:1023700001880288C1F3C7010088D208C0F3870032
:10238000D20242EA4010084380B210BD01880088A2
:10239000C0F34511C20AC00200EB41101044F3E73C
:1023A00010B51446B0F5A07F09D2F02907D2FFF787
:1023B00070FF2146BDE81040222003F015BC10BD7F
:1023C0002DE9F0471746DDF820A01E460D460446CD
:1023D000B84201D9274694B2B54201D90E469DB202
:1023E000381B711B00B20FFA81F868B1B8F1000F09
:1023F00015D0404531DDC0EB48010EB24FEA48012F
:10240000404201EB400925E0524629462046FFF7AD
:10241000C7FF6D1CADB2AE42F6D2BDE8F0875246A2
:1024200029462046FFF7BCFF641CA4B2A742F6D29F
:10243000F3E7524629462046FFF7B2FF641CA4B2D8
:10244000002E04DD6D1CADB209EB060001E006EBC9
:10245000480006B2BC42ECD11BE0C8EB40010FB211
:102460004FEA4801404201EB400910E0524629463C
:102470002046FFF795FF6D1CADB2002F04DD641CF4
:10248000A4B209EB070001E007EB480007B2B54230
:10249000ECD1524629462046BDE8F04780E72DE9B9
:1024A000FF5F894680469B4611466846FEF71CFB47
:1024B0000025EA4600241AF8057009EB050600BF5E
:1024C000C4F1070027FA00F0C00708EB0400B1B21E
:1024D00080B201D05A4600E00E9AFFF761FF641CFB
:1024E000A4B2082CECD36D1CADB2102DE2D3BDE824
:1024F000FF9F2DE9F8439946089F16460D4604466E
:102500004FF49C7816F8012B4B462946204600973D
:10251000FFF7C5FF444502D20834A4B207E0E02D1E
:102520004FF0000402D21035ADB200E00025307843
:102530000028E7D1BDE8F8832DE9FF4115460E4696
:1025400007461C464AA101A80A9A03F04FF92B46F8
:1025500001AA314638460094FFF7CBFFBDE8FF8162
:102560004FF0C0412220088070472DE9FC4700252C
:102570000A9F9A460E460446B2F57A7F05D32A2072
:102580008DF806008DF8050018E00A2092FBF0F1A6
:1025900000FB112130318DF8061092FBF0F191FB18
:1025A000F0F300FB131130318DF80510642192FB1C
:1025B000F1F191FBF0F200FB121030308DF80400C5
:1025C0000DF104084FF49C79009718F80520534644
:1025D00031462046FFF763FF4C4502D20834A4B2CF
:1025E00007E0E02E4FF0000402D21036B6B200E051
:1025F00000266D1CEDB2032DE6D3BDE8FC8700B5C7
:1026000097B000201021CDE902010490090200904A
:102610000190CDE90801069007900A900FA9059056
:1026200014220B90CDE90C01CDE90F20CDE911204A
:102630001390149015900E91684600F02FFF012121
:10264000002000F0C0FF17B000BD002240F275432B
:1026500006E00021491C89B29942FBD3521C92B278
:102660008242F6D370470000100000200000026094
:102670004650533A2564000070B588B0012104200B
:1026800001F002FD0121042001F0FEFC012188047B
:1026900001F018FDA84E07220A21304601F011FA78
:1026A00007220B21304601F00CFA02218DF80410AC
:1026B00000248DF8064030158DF805100090012596
:1026C0008DF807506946304601F072F9E802009033
:1026D0008DF806508DF807406946304601F068F9DC
:1026E0004FF46120ADF80C400290ADF80E40ADF80B
:1026F0001040ADF814400C20904CADF8120002A927
:10270000204601F0C0FD27208DF818008DF81B50E1
:102710008DF819508DF81A504FF4A06000F026FC87
:1027200006A800F028FC012240F22551204601F0C5
:10273000D5FE0121204601F017FE08B070BDFEB5A0
:102740000A2164227D4E6D46002823DB90FBF1F3C5
:1027500001FB13033033ADF8043090FBF1F390FB31
:10276000F2F093FBF1F490FBF1F201FB1433303300
:1027700001FB12003030ADF80230ADF8000000244B
:10278000304635F8141001F01FFE641CE4B2032C2F
:10279000F6D3FEBD404290FBF1F301FB130330334F
:1027A000ADF8043090FBF1F390FBF2F093FBF1F401
:1027B00090FBF1F201FB143301FB12003033ADF852
:1027C00002303030ADF800002D21304601F0FCFD24
:1027D0005FF00004304635F8141001F0F5FD641C7C
:1027E000E4B2032CF6D3FEBD08B527208DF8000017
:1027F00001208DF8010000218DF802108DF80300F2
:10280000684600F0B8FB08BD704770B54B4D0446F4
:10281000C1B2284601F0D8FD4021284601F0CDFD87
:102820000028F9D0204670BDF0B500260B4635468D
:102830000A2A02D00D701846F0BD00281DD006DA15
:102840004FF02D021A7001F10103C0F100003C4C61
:102850004FF00A07B0FBF4F252EA060C06D002F180
:10286000300603F8016B02FB14000126B4FBF7F4F9
:10287000002CEFD11D700846F0BD302018704B1CA5
:10288000F8E70FB47FB505460AAC0FE05C2914D019
:1028900002F10102252909921DD0284601F094FD7C
:1028A0004021284601F089FD0028F9D0099A1178C5
:1028B0000029EBD17FBC5DF814FB521C0992107803
:1028C0006E2803D072280BD10D2100E00A21284682
:1028D00001F07AFD16E01078642817D0732802D032
:1028E000521C0992DCE740CC09E0284601F06CFD5F
:1028F0004021284601F061FD0028F9D0761C31788E
:102900000029F2D10998401C0990C9E701CC0A229C
:102910006946FFF789FF6E4609E0284601F054FD3D
:102920004021284601F049FD0028F9D0761C317875
:102930000029F2D1E6E7000000080240004800400C
:1029400000E1F505704708B51F254FF6FF742346D3
:1029500061A2C82164200095FFF7CBFDF7E7FEE7F1
:10296000FEE7FEE7704770477047FDF748BD10B5BA
:102970005D4C0121204602F0AAFD012803D15B4AEB
:102980001188491C11802046BDE81040012102F049
:10299000AABD10B501218C07204602F098FD012840
:1029A00001D1524908722046BDE81040012102F0D1
:1029B0009ABD10B54E4C40F22551204601F0A6FDBF
:1029C000002808D0204601F014FD0146BDE8104063
:1029D00048A002F0FFBE10BD70B5082000F0ACFBAF
:1029E000524C002528B1258001206080082000F08D
:1029F000ABFB102000F0A0FBB8B16088012805D126
:102A00002088401C20802088401EA0802188484AC1
:102A1000E08822F81010401C80B2E080B0F5A07F62
:102A200000D3E580102000F08FFB012000F084FB34
:102A300030B12E484189491C4181012000F084FBBE
:102A4000042000F079FB002804D0BDE87040042089
:102A500000F07ABB70BD70B5254C40F22555294673
:102A6000204601F053FD012808D12946204601F0F7
:102A70006CFD2046BDE8704001F0BBBC70BD10B5D8
:102A80002C4C86B00021204601F0A8FF002808D079
:102A90006A460021204601F03DFF0221204602F057
:102AA000A6F806B010BD70B5234D244C294620462B
:102AB00000F09CFC00280DD00C488188491C8180C6
:102AC0002946204600F06BFC29462046BDE87040B0
:102AD00000F0AFBC70BD000043616D6572612049BC
:102AE0006E69742E2E000000000400404400002097
:102AF000004800400A0D55534152542048797065F2
:102B0000727465726D696E616C20496E7465727263
:102B100075707473205265636569766520612077EE
:102B20006F72643A2025630A0D000000180000202F
:102B3000500000200064004000880010286402401B
:102B4000401EFDD170472DE9FF471D46EA4B174651
:102B50008846C21A19152C240C9E814698426FD0C3
:102B60001DDCE64BA0EB030298426AD00EDCB0F10C
:102B7000804F6ED0E24A19EB020072D0884239D100
:102B80000121042001F09EFA1E202AE08A4276D01C
:102B9000B2F5006F79D0B2F5406F2BD17BE0B2F582
:102BA000923F19D008DC8A4268D0B2F5644F0AD04F
:102BB000B2F5684F1ED10CE0B2F5943F14D0B2F5D7
:102BC000963F17D13FE00121084601F085FA192010
:102BD00007E00121022009E00121080401F07CFA4C
:102BE00018208DF8000005E00121192001F074FA89
:102BF0008DF800400020ADF80470ADF80C00ADF881
:102C00000600CDF8088001A9484602F0C3F801216A
:102C1000484602F068FC01221146484602F043FC97
:102C20008DF801508DF8026001208DF80300684690
:102C300000F0A1F90121484602F024F9BDE8FF8720
:102C40002FE014E005E00121880401F045FA1A2084
:102C5000C7E70121084601F035FA1C20C1E700E072
:102C60000DE00121022001F02DFA1D20B9E701211C
:102C7000082001F027FA3220B3E706E016E0012130
:102C8000102001F01FFA3620ABE70121202001F0CF
:102C900019FA3720A5E70121402001F013FA2B2073
:102CA0009FE70121802001F00DFAA1E70121080230
:102CB00001F008FA2D2094E7FEB58F4A0D4607462D
:102CC000801A1115542497426DD019DC8B4AA7EB5A
:102CD000020097425BD00ADCB7F1804F38D08848B9
:102CE000381838D088423CD10121042035E0884290
:102CF00050D0B0F5006F50D0B0F5406F31D14FE0FB
:102D0000A826B0F5923F1AD008DC88424ED0B0F524
:102D1000644F0AD0B0F5684F23D109E0B0F5943F75
:102D200010D0B0F5963F1CD10FE00121084601E01C
:102D30000121022001F0D0F9ADF8006011E001217D
:102D40000804F7E701214804F4E701218804F1E7CA
:102D50000121084601E00121022001F0B3F9ADF89C
:102D60000040012001900020ADF80800ADF80200FD
:102D70006946384602F00EF80121384602F082F822
:102D80004FF6FF74611B384602F046F815E001214A
:102D90000820E2E701211020DFE701212020DCE705
:102DA00001214020D9E701218020D6E70121080236
:102DB000D3E7384602F034F885B2A542F9D30021B2
:102DC000384602F05FF8FEBDFEB54B4A0D46074699
:102DD000801A111542F2D00497426FD019DC474A8D
:102DE000A7EB020097425CD00ADCB7F1804F39D0E4
:102DF0004348381839D088423DD10121042036E0BB
:102E0000884251D0B0F5006F51D0B0F5406F32D14B
:102E100050E044F2A016B0F5923F1AD008DC884288
:102E20004FD0B0F5644F0AD0B0F5684F23D109E018
:102E3000B0F5943F10D0B0F5963F1CD10FE00121C2
:102E4000084601E00121022001F046F9ADF80060DA
:102E500011E001210804F7E701214804F4E701210A
:102E60008804F1E70121084601E00121022001F078
:102E700029F9ADF80040012001900020ADF80800CC
:102E8000ADF802006946384601F084FF012138465A
:102E900001F0F8FF4FF6FF74611B384601F0BCFFEC
:102EA00016E001210820E2E701211020DFE70121DF
:102EB0002020DCE701214020D9E7FFE70121802025
:102EC000D5E701210802D2E7384601F0A9FF85B213
:102ED000A542F9D30021384601F0D4FFFEBD70B5FC
:102EE0000D460646002404E00A213046FFF76CFF39
:102EF000641CAC42F8D370BD001C0040000C0040C4
:102F000000FCFFBF0748017A012909D14189C1802E
:102F10000021418101728180018803A002F05ABC26
:102F200070470000440000202564000009488047E5
:102F300009480047FEE7FEE7FEE7FEE7FEE7FEE79B
:102F4000FEE7FEE7FEE7FEE704480549054A064BB3
:102F500070470000F756000889010008306700201C
:102F6000306D002030690020306900202849084376
:102F700028490860704730B50F22C47801780123D2
:102F8000FCB1244C246801F1E02104F4E064C4F5B0
:102F9000E064C4F30724C4F10405E2404478AC4083
:102FA0008578154025432A0181F80024007800F037
:102FB0001F018B404009800000F1E020C0F8003183
:102FC00030BD01F01F0083404809800000F1E0207F
:102FD000C0F8803130BD104A114001430D48001F38
:102FE000016070470B4A121D0029116801D001438E
:102FF00000E08143116070474FF0E0210428086928
:1030000003D020F004000861704740F00400FAE7A4
:103010000000FA050CED00E080FFFF1F4C48002186
:103020000160C1601F2242618161C1610162416230
:10303000704730B5464A116844F201039943116064
:10304000136840F6F2718B4301884488C588214398
:1030500084882C4321430489214344898089214366
:1030600001431943116030BD0021018041808180FE
:10307000C180018141818181704701684FEA3142FD
:1030800033490A6240684FEA30404862704730492D
:103090000028086802D040F0040001E020F004009D
:1030A00008607047C178006861F31F602849886133
:1030B000704727490028086802D040F0080001E066
:1030C00020F008000860704721490028086802D0F5
:1030D00040F4804001E020F48040086070471C49C3
:1030E0000028086802D040F0010001E020F0010053
:1030F000086070471648806A7047154A0029D168F1
:1031000001D0014302E0C04380B20140D16070476A
:1031100002460020130B0E49012B06D0022B06D0CD
:103120000969114200D0012070478968F9E74968B0
:10313000F7E70749486170470549024600200969D9
:10314000114200D0012070470149486170470000DA
:10315000000005502DE9F043016821F001010160F4
:103160000021016041608160C160016121214161F4
:10317000B849B84A3D251039904202D18D60BDE86A
:10318000F083B44A4FF474661832904201D18E60D5
:10319000F5E7B04A4FF474173032904201D18F6096
:1031A000EDE7AC4A4FF0746C4832904202D1C1F85E
:1031B00008C0E4E7A74BA84A6033984201D1CA602F
:1031C000DDE7A44CA54B7834A04201D1CB60D6E713
:1031D000DFF88082A24C08F19008404501D1CC6014
:1031E000CDE7DFF870824FF03D5908F1A80840455F
:1031F00002D1C1F80C90C2E79A49DFF86882083919
:10320000404501D10D60BAE7964D1835A84201D16D
:103210000E60B4E7934D3035A84201D10F60AEE7A0
:10322000904D4835A84202D1C1F800C0A7E78D4DA6
:103230008C496035091FA84201D10A609FE7894A7D
:103240007832904201D10B6099E7864A90329042E1
:1032500001D10C6093E7834AA83290428FD1C1F824
:1032600000908CE730B503687F4ACC6813400A6849
:103270002243D1E905452C432243CC6922430C6A01
:1032800022434C6A22438C6A22434C6B22438C6B50
:1032900022431A430260426922F00703D1E90B245A
:1032A00022431A4342610A6942604A68826089681F
:1032B000C16030BD0021016041608160C160016179
:1032C00041618161C161016241628162C1620163E8
:1032D0004163816370470029016802D041F0010118
:1032E00001E021F00101016070470029016802D06E
:1032F00041F4004101E021F40041016070470029E0
:10330000016802D041F0200101E021F020010160BC
:10331000704741607047406880B27047002A026879
:1033200002D042F4002201E022F400220260016196
:1033300070470029016802D041F4802101E021F4A6
:103340008021016070470AB101617047C160704718
:10335000014600200968090300D501207047014695
:1033600000200968C90700D001207047406900F0BB
:103370003800704702463B4B00209A4202D2354A41
:10338000103A01E0374A103A8B0001D5526800E04C
:103390001268364B1A400A4200D001207047314A69
:1033A000904202D22B48103801E02E4810382F4AA4
:1033B0008B0001EA020101D5C1607047816070474E
:1033C0000B0607D5436912B143F0800301E023F0F7
:1033D00080034361802908D0002A026801F01E01A1
:1033E00001D00A4300E08A430260704730B51D4AAD
:1033F0000024904202D2174B103B01E0194B103BC6
:103400001B4A114205D01E2202EAD12502682A4039
:1034100002E0406900F08002880001D5586800E0B1
:103420001868124B1840084201D002B1012420460E
:1034300030BD0C4A904202D20648103801E00948DB
:1034400010380A4A8B0001EA020101D5C1607047B9
:1034500081607047106002403D000020400F002056
:1034600000003D20106402403F801CF07D0F7D0F66
:103470003C0F3C0F8100A1F1C04148B143F2D200A2
:10348000C1F800006FF070404860C1F80401704757
:103490004FF0204243F2DB001060F3E710B5D0E9B3
:1034A00001121143D0E903231A4311434269114326
:1034B00082691143C2691143026A1143426A11438E
:1034C000826A1143C26A1143026B1143026892007F
:1034D000A2F1C04211608168082907D10168890002
:1034E000A1F1C0410A6842F040020A60416BD1E993
:1034F000002342EA03128B688C891B0243EA0443CF
:103500001A430B8A42EA03520B7D896942EA03623D
:103510000A4301688900A1F1C0414A60C16AB1F55E
:10352000804F08D000686FF070418000A0F1C0406B
:10353000C0F8041110BD816BD1E9002342EA0312E7
:103540008B680C8A1B0243EA04531A430B7D89697A
:1035500042EA036200680A438000A0F1C040C0F85C
:10356000042110BD10B500210222C0E900128160C3
:10357000C160016141618161D202C161C0E908128B
:103580005200C0E90A210163436B0F221A60436BAA
:103590005A60446BFF23A360446BE260446B22617A
:1035A000446B6261446BA161846B2260846B6260D6
:1035B000846BA360836BDA60836B1A61836B5A61DF
:1035C000806B816110BD8000A0F1C04000290168BE
:1035D00002D041F0010101E0C44A1140016070478E
:1035E00010B5182440234FF020414FF0FC32102832
:1035F00005D041F8804F4B608A60CA6010BD0C66F0
:103600004B668A66CA6610BD30B5D0E90112114317
:10361000D0E903231A431143426941EA42218269F6
:1036200041EA4231C26941F00804D2E9001341EA9B
:1036300003211389127B1B0443EA0262036A1143CC
:10364000D3E9002542EA05221D891B7B2D0445EAAA
:1036500003631A4303684FF02040102B04D040F856
:10366000804F8160C26030BD04668166C26630BD35
:1036700010210160002141608160C16001614161F0
:103680008161C269FC211160C2695160C2699160A7
:10369000C269D160026A1160026A5160026A916077
:1036A000006AC16070474FF0204251B1102804D029
:1036B00052F8800F40F004000AE0106E40F0040061
:1036C0000AE08A49C91E102804D052F8800F084029
:1036D00010607047106E0840106670474FF020422F
:1036E00051B1102804D052F8800F40F040000AE099
:1036F000106E40F040000AE07C493F39102804D0A9
:1037000052F8800F084010607047106E0840106635
:1037100070474FF02041102802D0D1F89400704734
:10372000486F70474FF02040182140F8A01F00213B
:1037300041604FF0FC318160C1600161704710B59C
:10374000D0E9001241EA42228168102343EA413164
:103750000A434FF0204141F8A02FC268D2E900345B
:1037600043EA04231489127B240444EA02621343CB
:103770008B600269D2E9003443EA04231489127B86
:10378000240444EA02621343CB604069D0E9002379
:1037900042EA03220389007B1B0443EA00600243E0
:1037A0000A6110BD0021016041608160C268FC2196
:1037B0001160C2685160C2689160C268D1600269DC
:1037C000116002695160026991600269D1604269C9
:1037D000116042695160426991604069C1607047FF
:1037E0004FF02041002851F8A00F02D040F0040013
:1037F00002E03E4AD21E10400860704710B54FF4F8
:1038000080744FF0204372B1102804D0A04205D13B
:1038100053F8840F04E0586E08430DE053F8A40FEA
:103820000843186010BD102804D0A04206D153F8F8
:10383000840F05E0586E8843586610BD53F8A40FF6
:103840008843EEE7034600204FF02042102B08D0BB
:10385000B3F5807F07D0D2F8A4200A4200D001201F
:103860007047526EF9E7D2F88420F6E74FF0204215
:10387000102807D0B0F5807F08D052F8A40F8843F5
:1038800010607047506E88435066704752F8840F3E
:10389000F5E7034600204FF02042102B0CD0B3F583
:1038A000807F0BD0D2F8A4200A4202EAD10102D0D4
:1038B000002900D001207047526EF5E7D2F884202D
:1038C000F2E74FF02042102808D0B0F5807F0AD0F0
:1038D00052F8A40F20EAD10010607047506E20EA21
:1038E000D1005066704752F8840FF3E7FEFF0F00D7
:1038F0007C4910B5884206D10121084600F0F6FB4C
:10390000002101204FE07849884206D101210220A0
:1039100000F0ECFB0021022045E07449884206D10A
:103920000121042000F0E2FB002104203BE070496B
:10393000884206D10121082000F0D8FB0021082090
:1039400031E06C49884206D10121102000F0CEFB05
:103950000021102027E06849884206D1012120205B
:1039600000F0C4FB002120201DE06449884206D1FC
:103970000121402000F0BAFB0021402013E0604903
:10398000884206D10121802000F0B0FB0021802078
:1039900009E05C4988420AD184150121204600F0E3
:1039A000A5FB00212046BDE8104000F09FBB10BDE4
:1039B000F0B50023012403270D6804FA03F2154033
:1039C000954242D1D0F800C05E0007FA06F52CEA15
:1039D000050CC0F800C091F804C0D0F800E00CFA63
:1039E00006FC4CEA0E0CC0F800C091F804C0BCF113
:1039F000010F02D0BCF1020F1FD1D0F808C02CEA91
:103A0000050CC0F808C091F805C0D0F808E00CFA21
:103A100006FC4CEA0E0CC0F808C0D0F804C02CEA32
:103A2000020CC0F804C0426891F806C00CFA03FC0E
:103A30001FFA8CFC42EA0C024260C268AA43C260D0
:103A4000CA79C568B2402A43C2605B1C102BB3D34D
:103A5000F0BD4FF6FF71016000210171417181716C
:103A6000C171704708B541F480320092C261C161F2
:103A70000099C161C169C069009008BD024600207B
:103A800012690A4200D001207047006980B2704775
:103A90000246002052690A4200D001207047406966
:103AA00080B2704701837047418370470AB1018338
:103AB0007047418370474161704742694A404261A3
:103AC00070474B07DB0E9A40C90810B500EB810028
:103AD000016A0F249C40A1430162016A1143016203
:103AE00010BD000000000240000402400008024037
:103AF000000C024000100240001402400018024076
:103B0000001C024000200240C94910B5884202D181
:103B100001214C050AE0C749884202D101218C05E8
:103B200004E0C54988420AD10121CC05204600F0B5
:103B3000FBFA2046BDE81040002100F0F5BA10BDA8
:103B40007FB5044680880D4620F03F06684600F0A9
:103B500037FABA490298B0FBF1F189B20E43A68058
:103B6000228822F001022280B54B2A689A421BD893
:103B70005200B0FBF2F080B2042800D20420491CAD
:103B80002184A083208840F00100208021884FF606
:103B9000F5300140A8886A89104308432080A8892D
:103BA0002989084320817FBDEB88A3F53F46FF3E6E
:103BB0000BD002EBC20303EB0212B0FBF2F080B2B7
:103BC00040F48040020506D007E002EB4202B0FB61
:103BD000F2F080B2F6E740F001004FF496725143E4
:103BE0004FF47A72B1FBF2F140F40040C7E741F2C2
:103BF00088310160002181804BF6FF72C280018113
:103C000041814FF48041818170470029018802D0B1
:103C100041F0010101E021F001010180704700291C
:103C2000018802D041F4807101E021F480710180AB
:103C300070470029018802D041F4007101E021F4AD
:103C400000710180704712B141F0010101E001F003
:103C5000FE01018270470029018802D041F4806191
:103C600001E021F4806101807047828901F0FE014A
:103C700022F0FE021143818170470029818902D020
:103C800041F0010101E021F001018181704700292B
:103C9000018802D041F0400101E021F040010180A3
:103CA00070470029018802D041F4004101E0C1F3CE
:103CB0000E01018070470029018803D021F08001A6
:103CC0000180704741F08001FAE7B1F5804F818BA8
:103CD00002D021F4804101E041F4804181837047AA
:103CE000B1F5006F018803D021F4006101807047B5
:103CF00041F40061FAE7B1F5005F018803D021F4D7
:103D000000510180704741F40051FAE70029018811
:103D100002D041F0100101E021F010010180704754
:103D200001827047008AC0B270470029018802D022
:103D300041F4805101E021F4805101807047B1F5D8
:103D4000006F018803D021F400610180704741F4C5
:103D50000061FAE70029018802D041F0200101E06A
:103D600021F0200101807047008B000A7047002974
:103D7000818802D041F4006101E021F4006181807A
:103D800070470029818802D041F4805101E021F47C
:103D900080518180704708B508440090008808BDB4
:103DA000002A828801D00A4300E08A43828070475B
:103DB00002460020938A128B43EA024323F07F429B
:103DC000914300D101207047818A008B41EA004174
:103DD00021F07F4070470CB50246002000920A0F88
:103DE00021F07F41019202D0009A143202E0009A41
:103DF000090C1832009212680A4200D001200CBD52
:103E0000C9438182704710B5034600209A884FF459
:103E1000E06404EA11449B8A224021F07F410B4276
:103E200002D0002A00D0012010BDC9438182704712
:103E30000054004000580040005C004040420F0029
:103E4000A0860100EA48016841F001010160E84AEA
:103E50000021083211600268E64B1A400260031D1F
:103E6000E54A1A60026822F480220260E0480C30C1
:103E700001607047DE490022891C0A700870704793
:103E800002460020510901290CD002290CD0D84942
:103E90007431096802F01F02012393400B4200D0E5
:103EA00001207047D249F4E7D1497031F1E718B5E4
:103EB00000204FF4A06400903120FFF7E1FF00994B
:103EC000491C0091A14201D00028F5D03120FFF714
:103ED000D7FF002800D0012018BDC5490A6822F08C
:103EE000F80242EAC00008607047C44908607047A1
:103EF000BF49002270310A700A70012802D00428DC
:103F000001D1052008707047BD490860704741EA3B
:103F100082115A0810B5BB4B029C03EB02421143BD
:103F2000014341EA0460B249091D086010BDB3496C
:103F300008667047800140EA0170AD49843108602D
:103F40007047AE4988667047AC49C8647047A84A54
:103F500008321368084323F0EC631843106070477D
:103F6000A34A08321368084323F0784318431060CB
:103F700070479F4A0832116821F003010143116024
:103F800070479B480830006800F00C007047984A62
:103F90000832116821F0F001014311607047944A22
:103FA0000832116821F4E0510143116070479049D3
:103FB00008310A6822F4604242EAC0000860704793
:103FC00070B58B4A083211688F4C11F00C0104D087
:103FD0006610042903D0082903D004601BE00660A2
:103FE00019E08349091D0B68C3F380550B6803F082
:103FF0003F0315B1B6FBF3F301E0B4FBF3F30C6838
:104000000968C4F388146343C1F30141491C4900A2
:10401000B3FBF1F1016011680F2303EA11117B4B2F
:104020005C5C0168E14041601468072505EA94245E
:104030001C5D21FA04F48460126805EA52329A5C2D
:10404000D140C16070BDC0F30121032908D1684A85
:104050000832116821F4F8136D49014019431160C9
:10406000634970310A68C0F30B0002430A6070476D
:1040700063494439086070476149403908607047B6
:104080005E49C1F85C017047594A30320029116815
:1040900001D0014300E0814311607047544A34323B
:1040A0000029116801D0014300E08143116070478D
:1040B0004F4A38320029116801D0014300E08143A2
:1040C000116070474A4A40320029116801D001430B
:1040D00000E0814311607047454A4432002911686D
:1040E00001D0014300E0814311607047404A103223
:1040F0000029116801D0014300E08143116070473D
:104100003B4A14320029116801D0014300E0814389
:1041100011607047364A18320029116801D00143F6
:1041200000E0814311607047314A20320029116854
:1041300001D0014300E08143116070472C4A2432D2
:104140000029116801D0014300E0814311607047EC
:10415000274A50320029116801D0014300E0814311
:1041600011607047224A54320029116801D001437E
:1041700000E08143116070471D4A583200291168E0
:1041800001D0014300E0814311607047184A60325A
:104190000029116801D0014300E08143116070479C
:1041A000134A64320029116801D0014300E08143C1
:1041B000116070470E4A0D320029117801D0014379
:1041C00000E081431170704709487430016841F084
:1041D0008071016070470146054A00200C32126868
:1041E0000A4200D00120704701490E310870704723
:1041F00000380240FFFFF6FE103000240000474266
:10420000800E47420000FFFF0024F4002000002041
:10421000FFFCFF0FD04910B5884206D101211020C4
:10422000FFF78CFF0021102028E0CC49884202D102
:1042300001214C0410E0CA49884202D101218C04BA
:104240000AE0C849884202D10121CC0404E0C649F1
:1042500088420AD101210C052046FFF765FF204660
:10426000BDE810400021FFF75FBFC049884209D177
:1042700001212020FFF762FF00212020BDE810402F
:10428000FFF75CBF10BD7FB50446008A0D4620F4E1
:104290004051E88808432082A08941F20C6188439C
:1042A000A9882A8911436A8902431143A181A08AFE
:1042B00020F44071A8890843A0826846FFF780FE79
:1042C000A548844202D0A948844201D1039800E065
:1042D0000298A189090400EBC00101EB00102968D4
:1042E00001D5490000E08900B0FBF1F26420B2FB87
:1042F000F0F109010B096FF018056B4302EB830223
:10430000A3891D044FF0320306D503EBC202B2FBB2
:10431000F0F000F0070005E003EB0212B2FBF0F052
:1043200000F00F00084320817FBD4FF4165101605B
:1043300000218180C18001810C22428181817047EE
:1043400010B5028A4C8822F470630A8822438C8854
:10435000C9880C4322431A43028210BD0021018008
:1043600041808180C18070470029818902D041F459
:10437000005101E021F4005181817047028B02F469
:104380007F420283028B0A4302837047002981899E
:1043900002D041F4004101E0C1F30E018181704778
:1043A0000029818A02D041F4006101E021F400611A
:1043B00081827047C94301807047024600201288FD
:1043C0000A4200D00120704710B50B4604468021F8
:1043D0002046FFF7F2FF0028F9D080212046FFF7A2
:1043E000E9FF40212046FFF7E5FFC3F30800A08066
:1043F00010BD8088C0F308007047028A22F00F02C7
:104400000282028A0A43028270470029818902D00F
:1044100041F0020101E021F00201818170478289AF
:1044200022F40062828182890A4382817047028A73
:1044300022F020020282028A0A4302827047002987
:10444000018A02D041F4804101E021F480410182DF
:104450007047818941F00101818170470029818A7B
:1044600002D041F0080101E021F00801818270478B
:10447000028BD2B20283028B42EA01210183704790
:104480000029818A02D041F0200101E021F02001C1
:10449000818270470029818A02D041F0100101E039
:1044A00021F0100181827047828A22F00402828208
:1044B000828A0A43828270470029818A02D041F0B1
:1044C000020101E021F0020181827047002A828A04
:1044D00001D00A4300E08A438282704710B5C1F3DD
:1044E000421301F01F040121A140012B07D0022B30
:1044F00007D01430002A026805D00A4304E00C30CB
:10450000F8E71030F6E78A43026010BD30B501F0DD
:104510001F0201240025C1F3421304FA02F2012B09
:104520000FD0022B0FD0838A4FEA1121008813424B
:1045300004FA01F400EA040001D000B10125284684
:1045400030BD8389F0E7038AEEE70A0A0121914032
:10455000C943018070470000001001400044004042
:1045600000480040004C0040005000400014014052
:10457000FE4910B588424FF0010101D14C0601E01F
:104580004FF080642046FFF7CFFD2046BDE8104085
:104590000021FFF7C9BD10B50368002223F0020314
:1045A0000360036843F0010303604FF6FF7300E00C
:1045B000521C4468E40701D19A42F9D14268D207FB
:1045C0003ED08A79012A02683CD022F08002026043
:1045D000CA79012A026838D022F0400202600A7AC1
:1045E000012A026834D022F0200202604A7A012AAD
:1045F000026830D022F0100202608A7A012A026832
:104600002CD022F008020260CA7A012A026828D05F
:1046100022F0040202608A78CC78920742EA0462AF
:104620000C7942EA04424C79098842EA0452491E54
:104630000A43C261016821F001010160002114E018
:10464000002010BD42F08002C1E742F04002C5E701
:1046500042F02002C9E742F01002CDE742F0080222
:10466000D1E742F00402D5E7491C4268D20701D0E5
:104670009942F9D14068C007E2D1012010BDF0B5E0
:10468000827A01219140BA4A136843F00103136012
:10469000B74B1C331C688C431C60B54D067BB54C76
:1046A0000C35A6B92E688E432E604688C78846EA28
:1046B0000746877A04EBC707C7F8406606888788ED
:1046C00046EA0746877A04EBC707C7F84466067BC5
:1046D000012E12D12E680E432E60867A056804EBF7
:1046E000C6064FEA3545C6F84056867A456804EB5B
:1046F000C6044FEA3545C4F844569D4CC57A241D7E
:10470000002D256806D00D432560994C0589143489
:1047100015B104E08D43F7E725688D4325600589D1
:10472000012D02D125680D432560407B012802D16F
:10473000186808431860106820F001001060F0BD90
:1047400000218171C171017241728172C1728170E7
:10475000C170032101710221417101210180704763
:1047600083490A6842F001020A600A6843F60E7340
:104770009A430A600A6842EA00200860086820F04C
:104780000100086070470029016802D041F48031BF
:1047900001E021F48031016070470029016813D0E5
:1047A00041F080010160D0F8841141F48071C0F8BB
:1047B0008411D0F8941141F48071C0F89411D0F8AC
:1047C000A41141F4807112E021F080010160D0F861
:1047D000841121F48071C0F88411D0F8941121F46F
:1047E0008071C0F89411D0F8A41121F48071C0F840
:1047F000A411704730B50246002093685B0108D4CD
:104800009068000101D5012003E09068C00037D511
:10481000022002EB0012D2F8803103F00103C2F84B
:1048200080310B7A73B3D2F880414D681C434B7AC8
:1048300043EAC5031C43C2F880418B7A03F00F039F
:104840008B72D2F8843123F00F03C2F88431D2F88E
:1048500084318C7A2343C2F88431CB7ACC6843EA22
:104860000423C2F88831CB7B096943EA0121C2F8ED
:104870008C11D2F8801141F00101C2F8801130BDD5
:10488000042030BDD2F880314C7A23430C8843EAAF
:104890004453C2F88031D0E7002221B1012905D06C
:1048A000022906D112E08268334801E08268334869
:1048B00002403349501A8A4214D00ADCA2B16FF088
:1048C000806010180FD002280CD10FE082682D48AC
:1048D000EEE7B0F5007F09D02B49401803D0B0F5C2
:1048E000003F03D00020704702207047012070472E
:1048F00041B101290AD0022903D1816841F40001A4
:1049000081607047816841F08001F9E7816841F476
:104910000041F5E710B500EB0113D3F8B04114F0F6
:1049200004041472D3F8B04145D0E408C2F804403E
:10493000D3F8B04104F002045472D3F8B44104F047
:104940000F049472D3F8B441240AD474D3F8B84154
:10495000D472D3F8B841240A1473D3F8B841240CA4
:104960005473D3F8B841240E94730FE000640040F0
:1049700000660040006000400300000400030008DF
:1049800000010008000003100001FFF7D3F8BC414C
:10499000D473D3F8BC41240A1474D3F8BC41240C5A
:1049A0005474D3F8BC311B0E937439B1016941F0D2
:1049B0002001016110BD640D1460B9E7C16841F0C8
:1049C0002001C16010BD21B1016941F020010161E8
:1049D0007047C16841F02001C16070470246002065
:1049E00029B1012902D1106900F003007047D06895
:1049F000FAE700234FF6FF7221B1012917D00229EF
:104A000024D03AE0016821F0020141F00101016087
:104A100000E0521E416801F00301012901D0002A83
:104A2000F7D1406800F00300012823D124E0016899
:104A300021F00301016000E0521E4168890701D0A6
:104A4000002AF9D14068800714D115E0016821F0EF
:104A5000010141F00201016000E0521E416801F0D5
:104A60000301022901D0002AF7D1406800F00300B9
:104A7000022801D0002300E0012318467047026895
:104A8000002122F0010242F002020260406800F0C0
:104A90000300022800D101210846704703684FF641
:104AA000FF71002223F00203036000E0491E436807
:104AB0009B0701D50029F9D14068800700D4012265
:104AC000104670478069C0F302100001704780698A
:104AD000000E70478069C0F307407047002A4269A2
:104AE00001D00A4300E08A43426170470246002039
:104AF00011F4700F03D0926904E001207047CB01DC
:104B000004D552680A401103F7D170470B0101D553
:104B10009268F7E78B0101D5D268F3E71269F1E7F4
:104B2000534A914202D1002181617047C1F31302BF
:104B30008B0101D5C26070474B0101D502617047FE
:104B4000090101D58260704742607047024600202B
:104B500053690B424AD0B1F5807F3BD013DC082962
:104B60002ED007DC012926D0022927D004293DD1E7
:104B7000D0682BE0102925D0202926D0402935D116
:104B80001069102130E0B1F5004F2BD00BDCB1F5EE
:104B9000007F22D0B1F5806F22D0B1F5006F25D112
:104BA0009069702120E0B1F5803F11D0B1F5003F50
:104BB0001CD15068E5E790682E4915E0D06802E006
:104BC000D068DEE7106903210EE0106908210BE0D0
:104BD0005068FBE79069012106E09069022103E03B
:104BE000906900E05068042100F03BB8704730B590
:104BF000082310240422B1F5007F1DD010DC2029E9
:104C000029D007DC012921D0042922D0082900D18C
:104C1000C46030BD402920D0B1F5807FF9D10BE0D0
:104C20000025B1F5004F06D008DCB1F5806F03D048
:104C3000B1F5006FEDD18561426030BDB1F5803FC7
:104C40000DD0B1F5003FF8D1446030BD0949816015
:104C500030BDC36030BD036130BD046130BD436011
:104C600030BD024600200A4200D0012070470000FB
:104C70007000F03001010100FE4910B5884206D1F4
:104C800001210846FFF75AFA002101205BE0B0F14C
:104C9000804F09D0F84988420DD101210220FFF749
:104CA00043FA0021022070E001210846FFF73CFA98
:104CB0000021012069E0F149884206D10121042048
:104CC000FFF732FA002104205FE0ED49884206D167
:104CD00001210820FFF728FA0021082055E0E949C2
:104CE000884206D101211020FFF71EFA0021102072
:104CF0004BE0E549884206D101212020FFF714FA54
:104D00000021202041E0E149884206D10121022012
:104D1000FFF714FA0021022015E0DD49884202D194
:104D200001210C040AE0DB49884202D101214C0434
:104D300004E0D94988420AD101218C042046FFF7BA
:104D4000FDF900212046BDE81040FFF7F7B9D3492F
:104D5000884206D101214020FFF7E6F900214020DA
:104D600013E0CF49884206D101218020FFF7DCF90A
:104D70000021802009E0CB4988420AD18415012115
:104D80002046FFF7D1F900212046BDE81040FFF78B
:104D9000CBB910BD30B50288B64BBC4C98420DD093
:104DA000A0420BD0B0F1804F08D0B34DA84205D03F
:104DB000B24DA84202D0B24DA84203D122F07005F4
:104DC0004A882A43AF4DA84206D0AF4DA84203D02F
:104DD00022F440750A892A4302804A68C2620A881E
:104DE0000285984201D0A04201D1897A0186012131
:104DF000818230BD4FF0FF3141600021018001818F
:104E0000418081727047018582827047028822F05A
:104E100070020A430280704741627047C162704766
:104E2000406A7047008D70470029018802D041F028
:104E3000020101E021F00201018070470029018890
:104E400002D041F0040101E021F00401018070472B
:104E50000029018802D041F0800101E021F08001A9
:104E600001807047028822F00802028002880A430B
:104E700002807047028822F44072028002880A434E
:104E8000028070470029018802D041F0010101E051
:104E900021F001010180704730B5028C22F001023F
:104EA0000284028C8388048B22F0020224F07305B2
:104EB0000C882C438D8915434A882A436D4DA8429E
:104EC00002D0724DA8420DD122F00805CA8923F400
:104ED00040732A4322F004058A882A430D8A1D4321
:104EE0004B8A2B438380048389684163028430BDED
:104EF00070B5028C22F010020284028C8488038B2D
:104F00000D8823F4E6464FF6FF7303EA0525354383
:104F10008E8922F0200203EA061616434A8803EA25
:104F200002123243534EB04202D0584EB04215D115
:104F300022F08006CA8924F4406403EA0212324354
:104F400022F040068A8803EA021232430E8A03EAFC
:104F5000860626434C8A03EA84043443848005830E
:104F600089688163028470BD70B5028C22F48072FE
:104F70000284028C8488838B0D8823F073031D4385
:104F800022F400738E894FF6FF7202EA06261E4352
:104F90004B8802EA03233343364EB04202D03B4EE5
:104FA000B04215D123F40066CB8924F4405402EAC0
:104FB0000323334323F480668B8802EA03233343BD
:104FC0000E8A02EA061626434C8A02EA0414344387
:104FD000848085838968C163038470BD70B5028C49
:104FE00022F480520284048C8288838B0D8823F4FF
:104FF000E6464FF6FF7303EA0525354324F40056D1
:105000008C8903EA043434434E8803EA0636264387
:10501000184CA04202D01D4CA04205D122F480447D
:105020000A8A03EA821222438280858389680164A6
:10503000068470BD00210180418081808160818172
:10504000C18101824182704730B50124058C00F195
:1050500018038C40A543058431B308292CD0091FBF
:10506000C1F34E001844016848F6FF73194001600F
:1050700001681AE000000140000400400008004000
:10508000000C0040001000400014004000040140EB
:105090000040014000440140004801400018004029
:1050A000001C00400020004006E04FF6FF7303EABA
:1050B00002221143016030BD03EB510001684FF63D
:1050C0008F73194001600168F3E7416370478163A2
:1050D0007047C163704701647047028B22F0700211
:1050E0000A4302837047028B4FF6FF7322F4E042BB
:1050F00003EA0121114301837047828B22F0700281
:105100000A4382837047828B4FF6FF7322F4E0429A
:1051100003EA0121114381837047028B22F00802C8
:105120000A4302837047028B4FF6FF7322F400623A
:1051300003EA0121114301837047828B22F00802A8
:105140000A4382837047828B4FF6FF7322F400621A
:1051500003EA0121114381837047028B22F004028C
:105160000A4302837047028B4FF6FF7322F480627A
:1051700003EA0121114301837047828B22F004026C
:105180000A4382837047828B4FF6FF7322F480625A
:1051900003EA0121114381837047028B22F08002D0
:1051A0000A4302837047028B4FF6FF73C2F30E026D
:1051B00003EA0121114301837047828B22F08002B0
:1051C0000A4382837047828B4FF6FF73C2F30E024D
:1051D00003EA0121114381837047028C22F002020D
:1051E0000A4302847047028C22F008020A430284B8
:1051F0007047028C4FF6FF7322F0200203EA011180
:10520000114301847047028C4FF6FF7322F0800235
:1052100003EA0111114301847047028C4FF6FF73BA
:1052200022F4007203EA0121114301847047028CC9
:105230004FF6FF7322F4006203EA01211143018457
:105240007047028C4FF6FF7322F4005203EA0131DB
:1052500011430184704710B50123048C8B409C439B
:105260000484038C8A401343038410BD10B50423C7
:10527000048C8B409C430484038C8A401343038436
:1052800010BD828B22F440628283828B4FF6FF73C3
:1052900003EA01210A4382837047828B22F00C02C9
:1052A0008283828B0A4382837047028B22F440629E
:1052B0000283028B4FF6FF7303EA01210A43028344
:1052C0007047F0B5048C24F010040484078B068C1E
:1052D0004FF6FF7404EA011527F4734704EA03311B
:1052E000394304EA02220A4326F0A001294341F08F
:1052F000100102830184F0BD028B22F00C020283B4
:10530000028B0A43028370472DE9F0410D460E8857
:105310004988AA882B8904460EB3042E26D0082E6D
:10532000268C4FF6FF7028D026F480562684A78B53
:10533000268C00EA022200EA013127F473473A433F
:1053400000EA0330104326F420420A4342F480511D
:10535000A0832184E9882046BDE8F04191E700F070
:1053600062F9E9882046BDE8F041C5E7FFF7A9FFEB
:10537000E9882046BDE8F04197E726F48076268448
:10538000A78B268C00EA012100EA0310104327F0C6
:10539000F307384326F420620A4342F48071A08365
:1053A0002184E9882046BDE8F04176E700210180AC
:1053B000418001228280C180018170472DE9F04146
:1053C0000C46002649880746012501B90226A28815
:1053D000012A00D10225208823890028384610D0D0
:1053E000FFF76FFFE1883846FFF75FFF23892A4602
:1053F0003146384600F017F9E1883846BDE8F041FB
:105400007AE700F010F9E1883846FFF775FF238945
:105410002A4631463846FFF754FFE1883846BDE852
:10542000F04142E7406B7047806B7047C06B70473C
:10543000006C704710B50A884B88CC881A438B885B
:1054400023431A430B891A434B8989891A430A4318
:10545000A0F8442010BD0021018041808180C180DE
:105460000181418181817047002930F8441F02D0B9
:1054700041F4004101E0C1F30E01018070470029B1
:10548000818802D041F0040101E021F00401818013
:1054900070470029818802D041F0010101E021F02C
:1054A000010181807047002A828901D00A4300E00F
:1054B0008A43828170478182704702460020128AA7
:1054C0000A4200D001207047C9430182704702465A
:1054D0000020138A92890B4202EA010202D0002ABC
:1054E00000D001207047C943018270471143A0F8E2
:1054F00048107047002A828901D00A4300E08A439D
:10550000828170470029818802D041F0080101E0C2
:1055100021F0080181807047018921F00701018194
:105520007047028922F070020A430281704700B579
:105530000346FFF7F6FF188940F00700188100BD09
:1055400070B516460D46602904464FF001023146FB
:105550000AD000F068F829462046FFF7E2FF2089CC
:1055600040F00700208170BDFFF7ABFEF3E730B5D8
:1055700004894FF6FF7505EA03231343E4B20B4396
:105580002343038130BD10B50446FFF7F0FF2089A7
:1055900040F07700208110BD10B50446FFF7E7FF0B
:1055A000208940F48040208110BD828822F0700262
:1055B000828082880A4382807047028922F0070233
:1055C000028102890A4302817047028922F0800227
:1055D000028102890A430281704770B50589048BF4
:1055E000068C25F007050D434FF6FC410C4040F2B8
:1055F00001110C434FF6FF7101EA031126F0220658
:105600001143314305810483018470BD00298188E1
:1056100002D041F0800101E021F0800181807047DB
:10562000A0F85010704770B5048C24F00104048475
:10563000058B048C4FF6FF7606EA0313134325F01F
:10564000F3052B4324F00A020A4342F001010383CD
:10565000018470BD0CB500205449019000900A6887
:1056600042F480320A604FF4A0630A6802F4003208
:105670000092019A521C0192009A12B9019A9A4220
:10568000F3D10A68920334D5012000904748403096
:10569000026842F0805202604548026842F480424B
:1056A00002604248083002680260026842F4004228
:1056B0000260026842F4A0520260031F3D4A1A6071
:1056C0000A6842F080720A600A689201FCD53A4A80
:1056D00040F205611160016821F003010160016879
:1056E00041F0020101600168C1F381010229FAD190
:1056F0000CBD00900CBD314810B5016841F470013B
:1057000001602A48016841F001010160274A002137
:105710000832116002682A4B1A400260031D294AB0
:105720001A60026822F48022026020480C30016076
:10573000FFF790FF21494FF000608039086010BDED
:1057400070B51A4C083420681F4A10F00C011F482D
:1057500004D05510042903D0082903D002601BE0AF
:10576000056019E01149091D0B68C3F380560B68E9
:1057700003F03F0316B1B5FBF3F201E0B2FBF3F225
:105780000B680968C3F388135A43C1F30141491CEC
:105790004900B2FBF1F1016021680C4AC1F3031129
:1057A000121D515C0268CA40026070BD00380240A0
:1057B0000070004008544007003C024088ED00E0C3
:1057C000FFFFF6FE103000240024F400300000201B
:1057D000704700000FB4044910B503AA029800F006
:1057E00089F910BC5DF814FB140000200FB41CB53F
:1057F000074B06AA7B4469460090059800F04BF9D8
:105800000020694600F05AF91CBC5DF814FB00004A
:10581000C50200002DE9F0410E460446002020623A
:105820002046E168884730B3252805D0D4E9012116
:105830009047206A401CF2E7E1682046002788472D
:10584000050018D0A5F14100192802D820354FF4E1
:1058500000673246294620462760FAF7CFFC40B160
:10586000012804D0F61D26F007060836D8E7361DB5
:10587000D6E72846DAE7206ABDE8F08170B50C4625
:105880000546012A05D02878800600D5EA6900235C
:1058900002E0012305E05B1C934202D2E05C002899
:1058A000F9D1A869E618C01AA861286A18442862C4
:1058B0002846AFF3008004E0D5E9012114F8010B7C
:1058C0009047B442F8D32846AFF3008070BD000083
:1058D0002DE9F0410646002410687529314616A5C9
:1058E00010D0AFF30080002802DA404213A507E091
:1058F00031688A0701D512A502E0490704D511A530
:10590000012401E0AFF3008000210A2206F1240700
:1059100009E0B0FBF2FCB0FBF2F302FB1C003030FC
:1059200078541846491C0028F3D123462A463046AD
:10593000BDE8F04100F051B8000000002D0000006B
:105940002B00000020000000032A40F2308010F0FD
:10595000030C00F0158011F8013BBCF1020F62440A
:1059600098BF11F801CB00F8013B38BF11F8013B9B
:10597000A2F1040298BF00F801CB38BF00F8013B48
:1059800011F0030300F0C880083AC0F0088051F815
:10599000043B083A51F804CBA0E80810F5E7121DC3
:1059A0005CBF51F8043B40F8043BAFF30080D207E2
:1059B00024BF11F8013B11F801CB48BF11F8012BAE
:1059C00024BF00F8013B00F801CB48BF00F8012BD1
:1059D000704770477047704770472DE9F0470D4694
:1059E00099469246044600F124080168880604D5C9
:1059F000E06921F01001216000E00120A84201DDF2
:105A0000471B00E00027A1697A1902EB0900081A78
:105A1000A0612078C00602D42046AFF300800026A3
:105A200008E0D4E901211AF806009047206A401CDA
:105A3000761C20624E45F4DB2078C0060AD520464D
:105A4000AFF3008006E0D4E9012130209047206ABE
:105A5000401C2062381EA7F10107F4DC07E0D4E9FE
:105A6000012118F805009047206A401C2062281E7A
:105A7000A5F10105F3DC2046AFF300802078000695
:105A800002D50220BDE8F0870120FBE701694A1C2E
:105A900002610878704700B58FB0CDE9013100216F
:105AA000059105497944CDE9031011466846FFF791
:105AB000B1FE0FB000BD0000E5FFFFFF0A6802F86D
:105AC000010B0A60704710B5436913B1AFF3008052
:105AD00001E0FFF7D3FE012010BD127800F1240190
