:020000040800F2
:10000000406D0020C52F00089D2800089F2800088B
:10001000A1280008A3280008A52800080000000067
:10002000000000000000000000000000A7280008F9
:10003000A928000800000000AB280008AD2800082F
:10004000DF2F0008DF2F0008DF2F0008DF2F000858
:10005000DF2F0008DF2F0008DF2F0008DF2F000848
:10006000DF2F0008DF2F0008DF2F0008DF2F000838
:10007000DF2F0008DF2F0008DF2F0008DF2F000828
:10008000DF2F0008DF2F0008DF2F0008DF2F000818
:10009000FF290008DF2F0008DF2F0008DF2F0008EE
:1000A000DF2F0008DF2F0008DF2F0008DF2F0008F8
:1000B000D9280008B1280008DF2F0008DF2F00082A
:1000C000DF2F0008DF2F0008DF2F0008DF2F0008D8
:1000D000DF2F0008FD280008DF2F0008D7290008BF
:1000E000DF2F0008DF2F0008DF2F0008DF2F0008B8
:1000F000DF2F0008DF2F0008DF2F0008DF2F0008A8
:10010000DF2F0008DF2F0008DF2F0008DF2F000897
:10011000DF2F0008DF2F0008DF2F0008DF2F000887
:10012000DF2F0008272A0008DF2F0008DF2F000834
:10013000DF2F0008DF2F0008DF2F0008DF2F000867
:10014000DF2F0008DF2F0008DF2F0008DF2F000857
:10015000DF2F0008DF2F0008DF2F0008DF2F000847
:10016000DF2F0008DF2F0008DF2F0008DF2F000837
:10017000DF2F0008DF2F00083F290008DF2F0008CD
:10018000DF2F0008DF2F000800F002F800F044F82D
:100190000AA090E8000C82448344AAF10107DA45E2
:1001A00001D100F039F8AFF2090EBAE80F0013F0F0
:1001B000010F18BFFB1A43F00103184780610000CC
:1001C000A0610000103A24BF78C878C1FAD852075D
:1001D00024BF30C830C144BF04680C6070470000C1
:1001E0000023002400250026103A28BF78C1FBD840
:1001F000520728BF30C148BF0B607047642905F023
:10020000B383632905F0B584002070471FB505F05E
:100210003FFD1FBD10B510BD05F000FD1146FFF7F5
:10022000F5FF00F011F805F01EFD03B4FFF7F2FF33
:1002300003BC02F095FA000001B5614800994160E5
:1002400041680029FCD108BD5E484FF47A71012451
:10025000006888B0B0FBF1F0B0F1807F4AD220F0A6
:100260007F414FF0E020491E4161574AF02182F85A
:10027000141D002585610721016103A803F0ECFE30
:100280000121084603F04CFF02268DF809608DF825
:1002900008404E4F8DF80A5001968DF80B5001A979
:1002A000384603F0D1FB0221384603F049FC4FF4F5
:1002B000A06002F0A7FE02F08BF900F06AFC4FF498
:1002C000784001F0B0FF012342F2CF0242F20F71F9
:1002D0009807009402F0F3FB0123532240F2E73128
:1002E0003B48009402F0EBFB00F0C2F9394C10B12E
:1002F00039A101E0FEE73DA1204602F06EFA46F288
:100300006801112005F0BCFC0021084601F06DFFDA
:1003100002F0D2F801213A4803F029F8012002F056
:100320001FFF012002F027FF4FF4FA70FFF784FF50
:1003300034A1204602F051FA6420FFF77DFF2048E7
:100340000680354C458000BF02F098FDA4F80254A9
:1003500094F80004012801D102F0F3FDB4F802047E
:10036000A4F80404F0E7164841884A1C428041F290
:100370008832914201D9002141804168002902D090
:100380004168491E416070471CB50121082003F0F7
:10039000C7FE8020009001208DF8040000208DF819
:1003A000060003218DF805101C4C8DF807006946E6
:1003B000204603F049FB8021204603F0C1FB1CBD11
:1003C00000000020300000200FE000E000000240AC
:1003D000000400400048004043616D65726120499F
:1003E0006E6974206661696C7321210043616D65DB
:1003F000726120496E6974204F6B21210D0A000043
:100400002864024043616D657261204145435F4647
:10041000756E2E2E2E0A000044600020000C024053
:100420002DE9F04397B00121172003F079FE012157
:10043000084603F07FFEDE4C0D220421204603F027
:100440008CFB0D220621204603F087FBDFF8648336
:100450000D220721404603F080FBDFF85C930D225C
:100460000621484603F079FB0D220A21204603F0BD
:1004700074FB0D220821484603F06FFB0D22092171
:10048000484603F06AFBCD4F0D220421384603F0A5
:1004900064FB0D220621404603F05FFB0D2205217F
:1004A000384603F05AFB0D220621384603F055FB6F
:1004B0004FF482600F9002208DF8400003268DF8E3
:1004C000416001258DF842508DF843500FA9204618
:1004D00003F0BAFAC0200F900FA9404603F0B4FA17
:1004E0004FF450700F900FA9484603F0ADFA7020FA
:1004F0000F900FA9384603F0A7FA40200F900FA9DC
:10050000204603F0A1FA00242020ADF84C00802002
:10051000ADF84840ADF84E00ADF85040ADF84A4057
:10052000ADF85240ADF8544012A802F0CEFD0121C2
:10053000082002F02EFE0121102002F02AFE0121E7
:10054000084602F026FE0121042002F022FE4E2081
:100550008DF844008DF845408DF846408DF84750A1
:1005600011A802F054FD39208DF844008DF8454063
:100570008DF846508DF8475011A802F048FD012132
:10058000880503F0CDFD8E4D284602F02FFE4FF07A
:10059000007000908B4801908B48CDE902044FF425
:1005A000C850CDE90404281506908000079040004B
:1005B00008904011099030040A900420CDE90C64A1
:1005C0000B90694628460E9402F098FE01221021F5
:1005D000284602F041FF17B0BDE8F0831CB50120AA
:1005E00003F0FEFC0121084603F09AFD704C002246
:1005F0000821204603F0B1FAA015009003208DF8E1
:10060000050002208DF8040000208DF8060001206E
:100610008DF807006946204603F016FA4FF0A061F6
:100620004FF4C00003F0DFFC1CBD1CB501210846DF
:1006300003F076FD0420009002208DF805000120D3
:100640008DF8040000218DF806108DF8070069462A
:10065000584803F0F9F9564C0421204603F070FA8B
:100660000A2000F09BF80421204603F067FA1CBD25
:1006700070B500F0ADF8FFF7D3FEFFF7AFFF40F61F
:10068000FF76304600F08AF88021122000F0EAF868
:1006900060B9304600F082F84C4D002405EB440070
:1006A000417815F8140000F0DDF808B1FF2070BDA6
:1006B000641CE4B2592CF1D3304600F06FF80020EE
:1006C00070BD38B5044669461C2000F01BF9B8B966
:1006D0009DF80000207069461D2000F013F978B9DC
:1006E0009DF80000607069460B2000F00BF938B9E6
:1006F0009DF80000A07069460A2000F003F908B1D7
:10070000FF2038BD9DF80000E070002038BDF0B536
:1007100085B00E460746851801EB430402A9032065
:1007200000F0F0F89DF80800694600F0C0008DF870
:100730000800322000F0E6F89DF8000005F00701FF
:1007400000F0C0008DF8000040EAC10107F007008A
:100750000143322000F086F8C7F3C701172000F0EC
:1007600081F8C5F3C701182000F07CF89DF8081047
:1007700004F0070041EAC00106F00700014303202E
:1007800000F070F8C6F3C701192000F06BF8C4F34D
:10079000C7011A2000F066F805B0F0BD40F2E6335C
:1007A00002E01946491EFDD2401EFAD270470000F1
:1007B0000000024000040240000802400010024015
:1007C0002864024028000550440000209A5C00087C
:1007D00030B587B00121022003F0A2FC0121880579
:1007E00003F0BCFC904D04220A21284603F0B5F921
:1007F00004220B21284603F0B0F94FF44060049026
:1008000002208DF8140001218DF8161000248DF8B7
:1008100015408DF8171004A9284603F015F9834DEB
:10082000284603F0BDF9ADF804404BF6FF70ADF873
:100830000600FE20ADF808002815ADF80A000001FA
:10084000ADF80C007A4800900121284603F029FAFF
:100850006946284603F0C0F90121284603F047FA0B
:1008600007B030BD2DE9F047724C804689462068BC
:100870006E4E0121304603F01EFA25686E4F01E0EE
:100880006D1E30D33946304603F0DEFA0028F7D02B
:10089000002242213546304603F021FA2668674F90
:1008A00001E0761E1FD33946284603F0CDFA002812
:1008B000F7D041462E46284603F07EFA2568374693
:1008C0005E4EB61C01E06D1E0DD33146384603F076
:1008D000BBFA0028F7D04946384603F06DFA246881
:1008E00004E0641E02D2FF20BDE8F087314638469E
:1008F00003F0AAFA0028F4D00121384603F0E5F904
:100900000020F1E72DE9F05F4A4D834689462868CB
:10091000464C1434208840F480602080DFF80C813D
:100920000121404603F0C7F92E68434F01E0761ECF
:1009300061D33946404603F087FA0028F7D00022F9
:100940004321404603F0CBF92E68DFF8F0A001E028
:10095000761E50D35146404603F076FA0028F7D071
:100960005946404603F028FA2E68DFF8D0A00AF175
:10097000020A01E0761E3ED35146404603F064FA77
:100980000028F7D0208840F480602080012146466E
:10099000404603F09AF90121304603F08CF9A8464D
:1009A0002D6801E06D1E26D33946304603F04CFA1F
:1009B0000028F7D0012243213546304603F08FF955
:1009C000D8F800704646DFF8708008F1010801E0B1
:1009D0007F1E10D34146284603F036FA0028F7D090
:1009E00000212F46284603F082F93568124E3F3623
:1009F00004E06D1E02D2FF20BDE8F09F314638466C
:100A000003F022FA0028F4D00121384603F05DF902
:100A1000384603F0D3F989F80000208840F480605C
:100A200020800020E8E70000000402400058004059
:100A3000A0860100080000200100030082000700DA
:100A4000034A02EB01111022A1F5007104F0C8BFA6
:100A50004C5D00082DE9FC410121182003F060FBEA
:100A60000121084603F070FBDFF884840C2200218A
:100A7000404603F072F80C220121404603F06DF865
:100A80000C220421404603F068F80C220521404660
:100A900003F063F80C220821404603F05EF80C22B4
:100AA0000921404603F059F80C220A21404603F080
:100AB00054F80C220B21404603F04FF80C220E2173
:100AC000404603F04AF80C220F21404603F045F857
:100AD0004CF63370009002208DF8040003258DF849
:100AE000055000268DF8066001248DF80740694600
:100AF000404602F0A9FFFF4F0C220221384603F0C6
:100B00002CF80C220721384603F027F80C22082184
:100B1000384603F022F80C220921384603F01DF86C
:100B20000C220A21384603F018F80C220B21384613
:100B300003F013F80C221146384603F00EF80C228D
:100B40000D21384603F009F80C220E21384603F037
:100B500004F80C220F21384602F0FFFF4FF6847094
:100B600000906946384602F06FFF8DF804408020FF
:100B70008DF8055000908DF806608DF807406946A5
:100B8000404602F061FF8021404602F0D9FFBDE8F7
:100B9000FC812DE9FC5F0121082003F0C1FA012549
:100BA0008DF804504FF0000880208DF806804FF03B
:100BB0000309CF4C00908DF805908DF807506946D9
:100BC000204602F041FF8021204602F0B9FFCA4CC6
:100BD000FFF740FF641EFDD201F0BDFC642001F070
:100BE000E0FC4FF0C04200201080C44B1888C4497C
:100BF000A0F5134C4FF48076488041F2180A40F279
:100C0000077440F23F17BCF1250C7DD0A0F5104CC5
:100C1000BCF54A7CF9D0A0F5134540F2022B203DEB
:100C200073D0B0F5134FFBD0A0F5134C4FF4017502
:100C3000BCF1310C6AD0A0F5194C40F20558BCF15A
:100C4000190C7DD0A0F5A85CBCF1050C01D0404585
:100C500077D1092008700021072005F011F8322013
:100C600001F09FFC4FF48E71122005F009F801216C
:100C7000A42005F005F80F21082005F001F808214F
:100C80000A2004F0FDFF08210D2004F0F9FF2146A1
:100C9000302004F0F5FF0721312004F0F1FF40F28D
:100CA0000361322004F0ECFF4FF4E0652946332065
:100CB00004F0E6FF5946342004F0E2FF022135201B
:100CC00004F0DEFF41F60F71362004F0D9FF214613
:100CD000372004F0D5FF0021382004F0D1FF002197
:100CE000392004F0CDFF21463A2004F0C9FF00214D
:100CF0003B2004F0C5FF07213C2004F0C1FF002188
:100D00003D2004F0BDFF02E0B1E07CE295E132203D
:100D100001F047FC0121072004F0B2FF0121172058
:100D200004F0AEFF322001F03CFC4FF4BD51102026
:100D300004F0A6FF40F21721112004F0A1FF01E00A
:100D400006E38BE34FF48F71122004F099FF4FF408
:100D50007061132004F094FF00212A2004F090FF1A
:100D60000A21292004F08CFF4FF49F71122004F017
:100D700087FF0021502004F083FFEF21512004F071
:100D80007FFF0021522004F07BFF3946532004F0FE
:100D900077FF4FF41C51602004F072FF01216120A5
:100DA00004F06EFF00216A2004F06AFF0021802019
:100DB00004F066FF0021812004F062FF0021822000
:100DC00004F05EFF0021832004F05AFF00218420FC
:100DD00004F056FF0021852004F052FF13219020DB
:100DE00004F04EFF4FF44071922004F049FF0521BA
:100DF000932004F045FF0021952004F041FF0021DD
:100E0000972004F03DFF0021982004F039FF31467F
:100E1000012004F035FF2946022004F031FF41F2A1
:100E20003001032004F02CFF0021042004F028FFEF
:100E300000210C2004F024FF00210F2004F020FFEB
:100E40000021202004F01CFF0021212004F018FFC5
:100E50002121072004F014FFC82001F0A2FB61212A
:100E6000072004F00DFFC82001F09BFBFEE30D708E
:100E700047F6F001E52004F003FF3146012004F0BD
:100E8000FFFE4FF4E061022004F0FAFE5146032019
:100E900004F0F6FE0021042004F0F2FE40F20721E7
:100EA000082004F0EDFE0021092004F0E9FE0021F5
:100EB0000A2004F0E5FE00210C2004F0E1FE0021F0
:100EC0000D2004F0DDFE00210F2004F0D9FE0021EA
:100ED000102004F0D5FE0721112004F0D1FE0021DE
:100EE000122004F0CDFE0021132004F0C9FE09E019
:100EF000000C024000100240FFFF1F0000000260D3
:100F00000C0000200121072004F0BAFEC82001F0E7
:100F100048FB41F29001102004F0B2FE40F227217C
:100F2000112004F0ADFE322001F03BFB1F21122006
:100F300004F0A6FE322001F034FB4FF4A851132038
:100F400004F09EFE2721292004F09AFE0D212B207B
:100F500004F096FE322001F024FB0021202004F052
:100F60008FFE0021212004F08BFE0021302004F0B0
:100F700087FE2146312004F083FE40F20731322003
:100F800004F07EFE4FF40071352004F079FE082154
:100F9000362004F075FE0421372004F071FE002194
:100FA000382004F06DFE2146392004F069FE02214C
:100FB0003C2004F065FE41F604513D2004F060FE43
:100FC0000021502004F05CFEEF21512004F058FE77
:100FD0000021522004F054FE3946532004F050FE04
:100FE0004FF42741602004F04BFE0121612004F002
:100FF00047FE00216A2004F043FE0021802004F017
:101000003FFE0021812004F03BFE0021822004F0FD
:1010100037FE0021832004F033FE0021842004F0F9
:101020002FFE0021852004F02BFE1021902004F0DB
:1010300027FE4FF4C0619220FEE381F8009041F258
:101040001401E72004F01CFE3146012004F018FED4
:101050004FF40071022004F013FE41F2300103202E
:1010600004F00EFE5946082004F00AFE0021092073
:1010700004F006FE00210A2004F002FE00210C20EC
:1010800004F0FEFD00210D2004F0FAFD00210F20E8
:1010900004F0F6FD0021102004F0F2FD07211120DC
:1010A00004F0EEFD0021122004F0EAFD00211320DF
:1010B00004F0E6FDC82001F074FA41F290611020BE
:1010C00004F0DEFD40F22721112004F0D9FD32208A
:1010D00001F067FA0C21122004F0D2FD322001F059
:1010E00060FA4FF40061132004F0CAFD1121292099
:1010F00004F0C6FD0B212B2004F0C2FD322001F0CC
:1011000050FA0021202004F0BBFD0021212004F032
:10111000B7FD0021302004F0B3FD4FF48376314653
:10112000312004F0ADFD0021322004F0A9FD294654
:10113000352004F0A5FD41F20A61362004F0A0FD3F
:101140002146372004F09CFD3146382004F098FDFC
:101150002146392004F094FD40F202413C2004F085
:101160008FFD40F60F413D2004F08AFD0021502004
:1011700004F086FDEF21512004F082FD0021522071
:1011800004F07EFD3946532004F07AFD4FF41C51E3
:10119000602004F075FD0121612004F071FD002143
:1011A0006A2004F06DFD0021802004F069FD00211B
:1011B000812004F065FD0021822004F061FD002102
:1011C000832004F05DFD0021842004F059FD0021FE
:1011D000852004F055FD1021902004F051FD4FF4BE
:1011E000C061922004F04CFD2121072004F048FD4D
:1011F000322001F0D6F96121072004F041FD3220B0
:1012000001F0CFF9FEE381F800800021084604F0E8
:1012100037FD3146012004F033FD4FF4E061022038
:1012200004F02EFD5146032004F02AFD0021042085
:1012300004F026FD5946082004F022FD0021092073
:1012400004F01EFD00210A2004F01AFD01210C20EB
:1012500004F016FD00210D2004F012FD00210F20E6
:1012600004F00EFD642001F09CF940F2011107200A
:1012700004F006FD642001F094F94FF4865110202B
:1012800004F0FEFC0721112004F0FAFC4FF48874EE
:101290002146122004F0F4FC4FF43061132004F0D6
:1012A000EFFC0021292004F0EBFC44F210012B207C
:1012B00004F0E6FC0021502004F0E2FCEF21512074
:1012C00004F0DEFC0021522004F0DAFC3946532001
:1012D00004F0D6FC4FF41C51602004F0D1FC012135
:1012E000612004F0CDFC00216A2004F0C9FC00213B
:1012F000802004F0C5FC0021812004F0C1FC002105
:10130000822004F0BDFC0021832004F0B9FC002100
:10131000842004F0B5FC0021852004F0B1FC1021EC
:10132000902004F0ADFC0021922004F0A9FC0121E2
:10133000932004F0A5FC2146952004F0A1FC002197
:10134000972004F09DFC0021982043E30720EDE363
:101350000D2008700621282004F092FC01210020B5
:1013600004F08EFC0021102004F08AFC47F2EF21EB
:10137000012004F085FC4FF4C061022004F080FCE1
:1013800046F63821032004F07BFC46F67401112058
:1013900004F076FC00210F2004F072FC45F20831C5
:1013A0000B2004F06DFC03210C2004F069FC0A21E1
:1013B0000D2004F065FC4FF438510E2004F060FC61
:1013C000BE211E2004F05CFC4FF40041252004F0F7
:1013D00057FC4FF4F041262004F052FC78212720DE
:1013E00004F04EFC00214E2004F04AFC00214F2066
:1013F00004F046FC40F6D901122004F041FC002123
:10140000302004F03DFC4FF48271312004F038FCB0
:101410003146322004F034FC40F2053529463320B1
:1014200004F02EFC4146342004F02AFC29463520E5
:1014300004F026FC2146362004F022FC691F3720E8
:1014400004F01EFC4FF490513A2004F019FC4FF4C4
:1014500000613B2004F014FC332177E7A0F5094C30
:1014600040F2025940F2023ABCF1890C1DD0A0F5BD
:10147000094CBCF1990C7DD0A0F5A845083D7AD067
:10148000A0F58A45313D77D0A0F58A45353D74D029
:10149000472873D0A0F5EE45833D70D067201080BB
:1014A0001888488047286BD0FEE30520087001218A
:1014B000002004F0E5FB322001F073F84AF6A401A5
:1014C000032004F0DDFB322001F06BF800210C203A
:1014D00004F0D6FB322001F064F840F60C010D2038
:1014E00004F0CEFB322001F05CF84FF42C510E20BA
:1014F00004F0C6FB322001F054F8B0211E2004F0A5
:10150000BFFB322001F04DF842F63F31012004F0DC
:10151000B7FB322001F045F84FF4C061022004F01F
:10152000AFFB322001F03DF80021102004F0A8FBB1
:10153000322001F036F846F27001112004F0A0FBD1
:10154000322001F02EF80021052004F099FB322012
:1015500001F027F80021062004F092FB322001F070
:1015600020F84EF61C71162004F08AFB322001F0A0
:1015700018F806E0CFE08EE131E2D8E2FDE37DE34A
:10158000FCE30321172004F07BFB322001F009F873
:1015900040F23311072004F073FB322001F001F810
:1015A00000210B2004F06CFB322000F0FAFF002138
:1015B0000F2004F065FB322000F0F3FF00214120F2
:1015C00004F05EFB322000F0ECFF0021422004F02A
:1015D00057FB322000F0E5FF0021482004F050FBCB
:1015E000322000F0DEFF3946492004F049FB32206A
:1015F00000F0D7FF00214A2004F042FB322000F027
:10160000D0FF00214B2004F03BFB322000F0C9FF4B
:101610004FF46F41442004F033FB322000F0C1FF4F
:101620000021452004F02CFB322000F0BAFF39469F
:10163000462004F025FB322000F0B3FF2146302085
:1016400004F01EFB322000F0ACFF2946312004F0EC
:1016500017FB322000F0A5FF2946322004F010FBD2
:10166000322000F09EFF4C46494600E0B4E13320B2
:1016700004F006FB322000F094FF40F207513420C2
:1016800004F0FEFA322000F08CFF2946352004F0E9
:10169000F7FA322000F085FF2946362004F0F0FAF0
:1016A000322000F07EFF2146372004F0E9FA322094
:1016B00000F077FF544651463A2004F0E1FA322018
:1016C00000F06FFF21463B2004F0DAFA322000F0F0
:1016D00068FF0021232004F0D3FA322000F061FFDC
:1016E0000021242004F0CCFA322000F05AFF4FF4FD
:1016F0000041252004F0C4FA322000F052FF0021FE
:101700004F2004F0BDFA00214E2004F0B9FA46F251
:10171000580111201BE6042008700621282004F03F
:10172000AFFA0121002004F0ABFA4AF6A4610320CD
:1017300004F0A6FA04210C2004F0A2FA0C210D20DA
:1017400004F09EFA4FF420510E2004F099FAB521CE
:101750001E2004F095FA43F63F31012004F090FA80
:101760004FF4C061022004F08BFA0021102004F035
:1017700087FA46F63001112004F082FA0021052094
:1017800004F07EFA0021062004F07AFA4EF61C716D
:10179000162004F075FA3321072004F071FA0021B5
:1017A0000B2004F06DFA00210F2004F069FA0021EB
:1017B000412004F065FA0021422004F061FA002182
:1017C000482004F05DFA3946492004F059FA002116
:1017D0004A2004F055FA00214B2004F051FA4FF44E
:1017E0006F41442004F04CFA0021452004F048FAEF
:1017F0003946462004F044FA00214E2004F040FA15
:1018000000214F2004F03CFA2146302004F038FA41
:101810005946312004F034FA2946322004F030FAD7
:101820004C464946332004F02BFA40F2075134204D
:1018300004F026FA294600E01FE2352004F020FAE1
:101840002946362004F01CFA2146372004F018FA05
:10185000544651463A2004F013FA21463B2004F046
:101860000FFA0021232004F00BFA0021242004F0B9
:1018700007FA4FF40041252004F002FA4FF4E0414A
:10188000262004F0FDF94BF2EB01202004F0F8F9DA
:101890007C2127205BE5082008703146012004F0F8
:1018A000EFF94FF4E061022004F0EAF941F230016F
:1018B000032004F0E5F90021042004F0E1F940F2EE
:1018C0000721082004F0DCF90021092004F0D8F9F0
:1018D00000210A2004F0D4F900210C2004F0D0F9F2
:1018E00000210D2004F0CCF900210F2004F0C8F9EC
:1018F000322000F056FE40F20111072004F0C0F93A
:10190000322000F04EFE41F2B061102004F0B8F930
:101910000121112004F0B4F90121172004F0B0F9DD
:101920004FF49C71122004F0ABF94FF400611320C6
:1019300004F0A6F90921292004F0A2F909212A209E
:1019400004F09EF90021A42004F09AF9002150200F
:1019500004F096F9EF21512004F092F90021522071
:1019600004F08EF93946532004F08AF94FF41C51E3
:10197000602004F085F90321612004F081F9002141
:101980006A2004F07DF90021802004F079F900211B
:10199000812004F075F90021822004F071F9002102
:1019A000832004F06DF90021842004F069F90021FE
:1019B000852004F065F91321902004F061F90021DD
:1019C000922004F05DF90321932004F059F94FF4BB
:1019D0008871952004F054F940F27311B6E40720A1
:1019E00008700121002004F04BF94FF4C56110206C
:1019F00004F046F90621122004F042F940F63221A3
:101A0000132000E0EDE104F03BF94021112004F047
:101A100037F95021152004F033F91621122004F073
:101A20002FF9322000F0BDFD45F26061102004F076
:101A300027F9322000F0B5FD42F64E21132004F0C4
:101A40001FF93146012004F01BF94FF440710220C8
:101A500004F016F941F23001032004F011F959465F
:101A6000082004F00DF900210A2004F009F90021F2
:101A7000302004F005F940F20241312004F000F971
:101A80004FF48371322004F0FBF84FF4E06133200F
:101A900004F0F6F84FF48271342004F0F1F840F2CB
:101AA0000131352004F0ECF82146362004F0E8F846
:101AB00040F20531372004F0E3F84FF4027138208A
:101AC00004F0DEF840F60B71392004F0D9F832202A
:101AD00000F067FD0221412004F0D2F84FF41C51C0
:101AE000602004F0CDF80121612004F0C9F840F233
:101AF0001911902004F0C4F84FF48571922004F07D
:101B0000BFF80421932004F0BBF83146A02004F074
:101B1000B7F8322000F045FD40F23311072004F001
:101B2000AFF8322000F03DFD0021A02056E30C204C
:101B300008703021152004F0A3F810219A2004F039
:101B40009FF82021112004F09BF843F22841102037
:101B500004F096F80221122004F092F841F23801C4
:101B6000132004F08DF8282000F01BFD12210846F8
:101B700004F086F8282000F014FD43F220411020E4
:101B800004F07EF843F24501132004F079F8462072
:101B900000F007FD0021302004F072F840F202410D
:101BA000312004F06DF840F20731322004F068F87B
:101BB0004FF44171332004F063F80421342004F021
:101BC0005FF840F20141352004F05AF821463620F2
:101BD00004F056F840F20531372004F051F84FF484
:101BE000C2642146382004F04BF82146392004F025
:101BF00047F83146012004F043F84FF440710220C9
:101C000004F03EF841F23001032004F039F840F6C8
:101C10000801082004F034F808210A2004F030F804
:101C20004FF41C51602004F02BF80121612004F0D6
:101C300027F84FF49F71902004F022F8314692204B
:101C400004F01EF83146932004F01AF84FF4405186
:101C5000A02004F015F81021A32004F011F80121B0
:101C6000072004F00DF82121072004F009F82321B2
:101C7000072004F005F833210720B0E006200870A3
:101C80000121FF2003F0FCFF0821F32003F0F8FFFF
:101C90003146012003F0F4FF4FF4E061022003F02D
:101CA000EFFF41F2300100E09AE2032003F0E8FF89
:101CB0005146082003F0E4FF40F20721082003F01A
:101CC000DFFF0021092003F0DBFF00210A2003F0E1
:101CD000D7FF0021102003F0D3FF0521112003F0CE
:101CE000CFFF0021122003F0CBFF0021132003F0CF
:101CF000C7FF322000F055FC41F2B021102003F064
:101D0000BFFF322000F04DFC0721112003F0B8FF87
:101D1000322000F046FC8B21122003F0B1FF32206C
:101D200000F03FFC4FF4B851132003F0A9FF32201C
:101D300000F037FC2221292003F0A2FF00213020EF
:101D400003F09EFF2146312003F09AFF41463220E6
:101D500003F096FF40F20711352003F091FF0821B0
:101D6000362003F08DFF0021372003F089FF5C4609
:101D70005946382003F084FF01E035E014E14FF4C8
:101D80008371392003F07CFF21463C2003F078FF6B
:101D90004FF481613D2003F073FF322000F001FC1D
:101DA0000021502003F06CFFEF21512003F068FF69
:101DB0000021522003F064FF3946532003F060FFF6
:101DC0004FF42741602003F05BFF0121612003F005
:101DD00057FF3321902003F053FF0B212B2003F0FA
:101DE0004FFF40F23311F9E50A2008700021EA2084
:101DF00003F046FF2021EB2003F042FF0C21EC20F2
:101E000003F03EFFC421ED2003F03AFF4021E8201B
:101E100003F036FF3821E92003F032FF0121F120E1
:101E200003F02EFF1021F22003F02AFFA321272028
:101E300003F026FF0121402003F022FF0021412072
:101E400003F01EFF0021422003F01AFF102143205F
:101E500003F016FF0E21442003F012FF2421452039
:101E600003F00EFF0421462003F00AFF5021472013
:101E700003F006FF0221482003F002FF132149204E
:101E800003F0FEFE19214A2003F0FAFE19214B202F
:101E900003F0F6FE16214C2003F0F2FE1B21502029
:101EA00003F0EEFE3121512003F0EAFE2F215220F3
:101EB00003F0E6FE3F21532003F0E2FE3F215420D1
:101EC00003F0DEFE3E21552003F0DAFE2F215620DE
:101ED00003F0D6FE7B21572003F0D2FE09215820C3
:101EE00003F0CEFE0621592003F0CAFE06215A2037
:101EF00003F0C6FE0C215B2003F0C2FE1D215C2016
:101F000003F0BEFECC215D2003F0BAFE18211B2099
:101F100003F0B6FE01211A2003F0B2FE15212420A1
:101F200003F0AEFE5021252003F0AAFE8B212320D2
:101F300003F0A6FE3621182003F0A2FE012119208D
:101F400003F09EFE0021012003F09AFE88211F204D
:101F500003F096FE322000F024FB80211F2003F0C6
:101F60008FFE322000F01DFB90211F2003F088FE21
:101F7000322000F016FBD0211F2003F081FE32201A
:101F800000F00FFB0521172003F07AFE0021362018
:101F900003F076FE3821282003F072FE322000F094
:101FA00000FB3C21282019E10B2008700821422069
:101FB00003F066FEB421462003F062FE4321472071
:101FC00003F05EFE1321482003F05AFE472149200A
:101FD00003F056FE14214A2003F052FE36214B2016
:101FE00003F04EFE03214C2003F04AFE46214D2013
:101FF00003F046FE05214E2003F042FE10214F2043
:1020000003F03EFE0821502003F03AFE0A21512041
:1020100003F036FE0021022003F032FE00210320EF
:1020200003F02EFE0021042003F02AFEEF210520FC
:1020300003F026FE0021062003F022FE00210720E7
:1020400003F01EFE0121082003F01AFE3F210920A3
:1020500003F016FE0A2000F0A4FA0621012003F086
:102060000FFEC821162003F00BFE9521232003F05C
:1020700007FE9521242003F003FEFF21252003F015
:10208000FFFD0221272003F0FBFD0221282003F0A1
:10209000F7FD0221292003F0F3FD02212A2003F09D
:1020A000EFFD02212C2003F0EBFD02212D2003F097
:1020B000E7FD01213A2003F0E3FD01213B2003F07D
:1020C000DFFDF0213C2003F0DBFD00213D2003F08B
:1020D000D7FD142000F065FA3821352003F0D0FD3B
:1020E0007821362003F0CCFD38213E2003F0C8FDD6
:1020F0000F21402003F0C4FDF021412003F0C0FD7A
:102100000021382003F0BCFD4921192003F0B8FD5F
:102110000A21932003F0B4FD0A2000F042FA2021A6
:10212000084603F0ADFD03211D2003F0A9FD0021A9
:102130001E2003F0A5FD09211F2003F0A1FD53215E
:10214000442003F09DFD1021452003F099FD0A2055
:1021500000F027FA04211C2003F092FD142000F067
:1021600020FA8021432003F08BFD052000F019FAAE
:102170000A211B2003F084FD282000F012FA12210E
:102180001B2003F07DFD282000F00BFA7F2190201A
:1021900003F076FD0421262003F072FD282000F0D4
:1021A00000FA2421262003F06BFD2C21262003F0C9
:1021B00067FD282000F0F5F90821702003F060FD8C
:1021C0003C21262003F05CFD0221572003F058FD3E
:1021D0000021552003F054FD0021572003F050FD4D
:1021E000322000F0DEF9BDE8FC9F10B5A0F23F10F0
:1021F000404284B2F248007805280BD0202003F03A
:102200003FFD2146212003F03BFD4FF0C04122203D
:10221000088010BD4E2003F033FD2146BDE810407C
:102220004F2003F02DBD70B50546E5480024007829
:102230000A2811D00B280FD000210846FFF7D5FF40
:102240004FF0C04122200880DE484FF496310580CF
:10225000641C8C42FBD370BD0021022003F010FDF2
:102260000021032003F00CFD0021042003F008FDF1
:10227000EF21052003F004FD0021062003F000FDFE
:102280000021072003F0FCFC0121082003F0F8FCEA
:102290003F21092003F0F4FCD2E710B5FFF7A5FFBA
:1022A0004FF0C04122200880C5480178C548091F69
:1022B000092917D2DFE801F00505050516160808FB
:1022C00005000188008810BD01880288C1F3C7019C
:1022D0000088D208C0F38700D20242EA40100843C7
:1022E00080B210BD01880088C0F34511C20AC00247
:1022F00000EB41101044F3E710B51446B0F5A07F91
:1023000009D2F02907D2FFF770FF2146BDE810403F
:10231000222003F0B5BC10BD2DE9F0471746DDF8CB
:1023200020A01E460D460446B84201D9274694B265
:10233000B54201D90E469DB2381B711B00B20FFA8F
:1023400081F868B1B8F1000F15D0404531DDC0EB20
:1023500048010EB24FEA4801404201EB400925E036
:10236000524629462046FFF7C7FF6D1CADB2AE426C
:10237000F6D2BDE8F087524629462046FFF7BCFF5B
:10238000641CA4B2A742F6D2F3E75246294620467F
:10239000FFF7B2FF641CA4B2002E04DD6D1CADB2C9
:1023A00009EB060001E006EB480006B2BC42ECD1A6
:1023B0001BE0C8EB40010FB24FEA4801404201EB7D
:1023C000400910E0524629462046FFF795FF6D1C54
:1023D000ADB2002F04DD641CA4B209EB070001E0DC
:1023E00007EB480007B2B542ECD1524629462046D9
:1023F000BDE8F04780E72DE9FF5F894680469B46B0
:1024000011466846FEF71CFB0025EA4600241AF830
:10241000057009EB050600BFC4F1070027FA00F0BC
:10242000C00708EB0400B1B280B201D05A4600E008
:102430000E9AFFF761FF641CA4B2082CECD36D1C4C
:10244000ADB2102DE2D3BDE8FF9F2DE9F8439946C8
:10245000089F16460D4604464FF49C7816F8012B4B
:102460004B46294620460097FFF7C5FF444502D258
:102470000834A4B207E0E02D4FF0000402D210357A
:10248000ADB200E0002530780028E7D1BDE8F88340
:102490002DE9FF4115460E4607461C464AA101A8F4
:1024A0000A9A03F0EFF92B4601AA31463846009408
:1024B000FFF7CBFFBDE8FF814FF0C041222008802D
:1024C00070472DE9FC4700250A9F9A460E460446B0
:1024D000B2F57A7F05D32A208DF806008DF8050025
:1024E00018E00A2092FBF0F100FB112130318DF849
:1024F000061092FBF0F191FBF0F300FB1311303169
:102500008DF80510642192FBF1F191FBF0F200FBD4
:10251000121030308DF804000DF104084FF49C794E
:10252000009718F80520534631462046FFF763FF11
:102530004C4502D20834A4B207E0E02E4FF000046C
:1025400002D21036B6B200E000266D1CEDB2032DAB
:10255000E6D3BDE8FC8700B597B000201021CDE997
:1025600002010490090200900190CDE90801069053
:1025700007900A900FA9059014220B90CDE90C0149
:10258000CDE90F20CDE911201390149015900E91F4
:10259000684600F0CFFF0121002001F060F817B07D
:1025A00000BD002240F2754306E00021491C89B2BB
:1025B0009942FBD3521C92B28242F6D3704700007C
:1025C0000C000020000002604650533A25640000D1
:1025D00070B588B00121042001F0A2FD0121042082
:1025E00001F09EFD0121880401F0B8FDA84E0722EC
:1025F0000A21304601F0B1FA07220B21304601F0E2
:10260000ACFA02218DF8041000248DF80640301534
:102610008DF80510009001258DF807506946304669
:1026200001F012FAE80200908DF806508DF807408C
:102630006946304601F008FA4FF46120ADF80C40CD
:102640000290ADF80E40ADF81040ADF814400C20EB
:10265000904CADF8120002A9204601F060FE272040
:102660008DF818008DF81B508DF819508DF81A5000
:102670004FF4A06000F0C6FC06A800F0C8FC0122E0
:1026800040F22551204601F075FF0121204601F05E
:10269000B7FE08B070BDFEB50A2164227D4E6D46BE
:1026A000002823DB90FBF1F301FB13033033ADF87B
:1026B000043090FBF1F390FBF2F093FBF1F490FB0C
:1026C000F1F201FB1433303301FB12003030ADF86E
:1026D0000230ADF800000024304635F8141001F047
:1026E000BFFE641CE4B2032CF6D3FEBD404290FB57
:1026F000F1F301FB13033033ADF8043090FBF1F339
:1027000090FBF2F093FBF1F490FBF1F201FB143338
:1027100001FB12003033ADF802303030ADF800006C
:102720002D21304601F09CFE5FF00004304635F864
:10273000141001F095FE641CE4B2032CF6D3FEBD28
:1027400008B527208DF8000001208DF80100002138
:102750008DF802108DF80300684600F058FC08BDA3
:10276000704770B54B4D0446C1B2284601F078FE63
:102770004021284601F06DFE0028F9D0204670BDAA
:10278000F0B500260B4635460A2A02D00D701846D1
:10279000F0BD00281DD006DA4FF02D021A7001F1AD
:1027A0000103C0F100003C4C4FF00A07B0FBF4F20B
:1027B00052EA060C06D002F1300603F8016B02FB68
:1027C00014000126B4FBF7F4002CEFD11D7008466D
:1027D000F0BD302018704B1CF8E70FB47FB50546EC
:1027E0000AAC0FE05C2914D002F1010225290992FC
:1027F0001DD0284601F034FE4021284601F029FE74
:102800000028F9D0099A11780029EBD17FBC5DF836
:1028100014FB521C099210786E2803D072280BD139
:102820000D2100E00A21284601F01AFE16E010787A
:10283000642817D0732802D0521C0992DCE740CCE0
:1028400009E0284601F00CFE4021284601F001FE77
:102850000028F9D0761C31780029F2D10998401C63
:102860000990C9E701CC0A226946FFF789FF6E4645
:1028700009E0284601F0F4FD4021284601F0E9FD79
:102880000028F9D0761C31780029F2D1E6E7000063
:10289000000802400048004000E1F5057047FEE7EF
:1028A000FEE7FEE7FEE7704770477047FDF75BBD48
:1028B00010B56A4C0121204602F055FE012805D1D1
:1028C0006749B1F80224521CA1F802242046BDE851
:1028D0001040012102F053BE10B501218C072046A3
:1028E00002F041FE012803D15D48012180F80A145D
:1028F0002046BDE81040012102F041BE70B5594E9E
:1029000040F225552946304601F04CFE564C60B148
:102910002946204601F065FE304601F0B6FDBDE8CF
:102920007040014651A002F0A1BF304601F0ADFD5C
:102930002046BDE8704040F2253101F052BE70B52E
:10294000082000F045FC464C002560B184F8105486
:10295000012084F80004B4F80E04401CA4F80E040E
:10296000082000F03DFC102000F032FCE0B194F8AB
:1029700000144C48012907D194F81014491CC9B21D
:1029800084F81014491E0180474B418894F81024A4
:1029900023F81120491C89B24180B1F5A07F00D3F2
:1029A0004580102000F01CFC012000F011FC38B123
:1029B000B4F80C04401CA4F80C04012000F010FC36
:1029C000042000F005FC002804D0BDE8704004207D
:1029D00000F006BC70BD70B5224C40F2255529466A
:1029E000204601F0DFFD012808D12946204601F0EC
:1029F000F8FD2046BDE8704001F047BD70BD10B540
:102A00002A4C86B00021204602F034F8002808D075
:102A10006A460021204601F0C9FF0221204602F04B
:102A200032F906B010BD70B5214D224C2946204622
:102A300000F028FD00280FD0094A2946B2F8060404
:102A4000401CA2F80604204600F0F5FC294620466A
:102A5000BDE8704000F039BD70BD000000040040CA
:102A60004460002000480040004400400A0D5553D7
:102A70004152542048797065727465726D696E6157
:102A80006C20496E74657272757074732052656340
:102A900065697665206120776F72643A2025630A44
:102AA0000D000000140000205E640020006400405F
:102AB0000088001028640240401EFDD170472DE9B7
:102AC000FF471D46EA4B17468846C21A19152C24A3
:102AD0000C9E814698426FD01DDCE64BA0EB0302B2
:102AE00098426AD00EDCB0F1804F6ED0E24A19EB0A
:102AF000020072D0884239D10121042001F02EFB5E
:102B00001E202AE08A4276D0B2F5006F79D0B2F565
:102B1000406F2BD17BE0B2F5923F19D008DC8A429E
:102B200068D0B2F5644F0AD0B2F5684F1ED10CE000
:102B3000B2F5943F14D0B2F5963F17D13FE0012192
:102B4000084601F015FB192007E00121022009E0E9
:102B50000121080401F00CFB18208DF8000005E0AD
:102B60000121192001F004FB8DF800400020ADF890
:102B70000470ADF80C00ADF80600CDF8088001A98E
:102B8000484602F053F90121484602F0F8FC0122C0
:102B90001146484602F0D3FC8DF801508DF80260D2
:102BA00001208DF80300684600F031FA0121484603
:102BB00002F0B4F9BDE8FF872FE014E005E0012141
:102BC000880401F0D5FA1A20C7E70121084601F070
:102BD000C5FA1C20C1E700E00DE00121022001F050
:102BE000BDFA1D20B9E70121082001F0B7FA322013
:102BF000B3E706E016E00121102001F0AFFA36201D
:102C0000ABE70121202001F0A9FA3720A5E7012137
:102C1000402001F0A3FA2B209FE70121802001F042
:102C20009DFAA1E70121080201F098FA2D2094E70E
:102C3000FEB58F4A0D460746801A11155424974257
:102C40006DD019DC8B4AA7EB020097425BD00ADCFF
:102C5000B7F1804F38D08848381838D088423CD1F6
:102C60000121042035E0884250D0B0F5006F50D0EB
:102C7000B0F5406F31D14FE0A826B0F5923F1AD0A1
:102C800008DC88424ED0B0F5644F0AD0B0F5684FEA
:102C900023D109E0B0F5943F10D0B0F5963F1CD198
:102CA0000FE00121084601E00121022001F060FA55
:102CB000ADF8006011E001210804F7E701214804A4
:102CC000F4E701218804F1E70121084601E0012130
:102CD000022001F043FAADF80040012001900020ED
:102CE000ADF80800ADF802006946384602F09EF8DB
:102CF0000121384602F012F94FF6FF74611B384685
:102D000002F0D6F815E001210820E2E701211020A9
:102D1000DFE701212020DCE701214020D9E7012164
:102D20008020D6E701210802D3E7384602F0C4F834
:102D300085B2A542F9D30021384602F0EFF8FEBD76
:102D4000FEB54B4A0D460746801A111542F2D004D3
:102D500097426FD019DC474AA7EB020097425CD03C
:102D60000ADCB7F1804F39D04348381839D088424F
:102D70003DD10121042036E0884251D0B0F5006FEA
:102D800051D0B0F5406F32D150E044F2A016B0F50A
:102D9000923F1AD008DC88424FD0B0F5644F0AD079
:102DA000B0F5684F23D109E0B0F5943F10D0B0F5ED
:102DB000963F1CD10FE00121084601E001210220CD
:102DC00001F0D6F9ADF8006011E001210804F7E741
:102DD00001214804F4E701218804F1E701210846B4
:102DE00001E00121022001F0B9F9ADF80040012015
:102DF00001900020ADF80800ADF8020069463846A1
:102E000002F014F80121384602F088F84FF6FF74FA
:102E1000611B384602F04CF816E001210820E2E779
:102E200001211020DFE701212020DCE701214020E3
:102E3000D9E7FFE701218020D5E701210802D2E789
:102E4000384602F039F885B2A542F9D30021384658
:102E500002F064F8FEBD70B50D460646002404E09D
:102E60000A213046FFF76CFF641CAC42F8D370BDFA
:102E7000001C0040000C004000FCFFBF70B54C4C33
:102E800094F80A04012811D1B4F80C04A4F8080439
:102E90000025A4F80C5484F80A54B4F8061445A08C
:102EA00004F2064402F0E2FC2581258070BD2DE984
:102EB000F0473F4C282094F81014B1FBF0F200FBCF
:102EC00012103D4A0128908024D028B3B0F10200AE
:102ED00022273A4D3A4E84F811044FF0C0484FF47F
:102EE000A07901291AD0891E89B20020FFF77DF947
:102EF000A8F8007094F81114002001EB81014A46F3
:102F000005EBC11131F810303380401C9042F9DBE1
:102F1000BDE8F0872720DBE72620D9E7EF21002056
:102F2000FFF763F9A8F800700020494605EB40025E
:102F300002F5C042B2F880213280401C8842F5DBA5
:102F4000E6E710B51A4C1C4994F810240888824210
:102F500002D34888824201D9032010BD2820B2FB49
:102F6000F0F300FB1320C88001281DD0F0B1801EB3
:102F700084F811044FF0C04122200880921E91B2C3
:102F80007820FFF732F994F811140C4B0C4A01EB3E
:102F90008101782003EBC11131F810301380401CFF
:102FA000C828F9DB002010BD2720E1E72620DFE755
:102FB0004460002025640000180000204400002028
:102FC000000002600948804709480047FEE7FEE725
:102FD000FEE7FEE7FEE7FEE7FEE7FEE7FEE7FEE7C9
:102FE00004480549054A064B704700008F57000802
:102FF0008901000840670020406D002040690020E2
:10300000406900202849084328490860704730B5C6
:103010000F22C47801780123FCB1244C246801F10B
:10302000E02104F4E064C4F5E064C4F30724C4F1CF
:103030000405E2404478AC408578154025432A01D8
:1030400081F80024007800F01F018B4040098000C7
:1030500000F1E020C0F8003130BD01F01F008340D6
:103060004809800000F1E020C0F8803130BD104AEE
:10307000114001430D48001F016070470B4A121DAB
:103080000029116801D0014300E0814311607047BD
:103090004FF0E0210428086903D020F00400086103
:1030A000704740F00400FAE70000FA050CED00E07C
:1030B00080FFFF1F4C4800210160C1601F22426158
:1030C0008161C16101624162704730B5464A116851
:1030D00044F2010399431160136840F6F2718B4387
:1030E00001884488C588214384882C43214304896E
:1030F000214344898089214301431943116030BD34
:103100000021018041808180C180018141818181D4
:10311000704701684FEA314233490A6240684FEA1A
:1031200030404862704730490028086802D040F0BB
:10313000040001E020F0040008607047C1780068D6
:1031400061F31F6028498861704727490028086893
:1031500002D040F0080001E020F00800086070474D
:1031600021490028086802D040F4804001E020F4A2
:103170008040086070471C490028086802D040F071
:10318000010001E020F00100086070471648806AE5
:103190007047154A0029D16801D0014302E0C043BD
:1031A00080B20140D160704702460020130B0E49E7
:1031B000012B06D0022B06D00969114200D0012054
:1031C00070478968F9E74968F7E707494861704738
:1031D0000549024600200969114200D001207047CC
:1031E0000149486170470000000005502DE9F04397
:1031F000016821F0010101600021016041608160EE
:10320000C160016121214161B849B84A3D251039A9
:10321000904202D18D60BDE8F083B44A4FF47466E9
:103220001832904201D18E60F5E7B04A4FF474171E
:103230003032904201D18F60EDE7AC4A4FF0746CB0
:103240004832904202D1C1F808C0E4E7A74BA84A2F
:103250006033984201D1CA60DDE7A44CA54B7834B5
:10326000A04201D1CB60D6E7DFF88082A24C08F102
:103270009008404501D1CC60CDE7DFF870824FF077
:103280003D5908F1A808404502D1C1F80C90C2E7A9
:103290009A49DFF868820839404501D10D60BAE7E4
:1032A000964D1835A84201D10E60B4E7934D3035E4
:1032B000A84201D10F60AEE7904D4835A84202D137
:1032C000C1F800C0A7E78D4D8C496035091FA842A1
:1032D00001D10A609FE7894A7832904201D10B60A0
:1032E00099E7864A9032904201D10C6093E7834A75
:1032F000A83290428FD1C1F800908CE730B50368B6
:103300007F4ACC6813400A682243D1E905452C4323
:103310002243CC6922430C6A22434C6A22438C6AC2
:1033200022434C6B22438C6B22431A430260426956
:1033300022F00703D1E90B2422431A4342610A69B0
:1033400042604A6882608968C16030BD00210160C6
:1033500041608160C160016141618161C16101625F
:1033600041628162C16201634163816370470029E8
:10337000016802D041F0010101E021F0010101608A
:1033800070470029016802D041F4004101E021F4B6
:103390000041016070470029016802D041F020011E
:1033A00001E021F0200101607047416070474068F2
:1033B00080B27047002A026802D042F4002201E085
:1033C00022F400220260016170470029016802D0E6
:1033D00041F4802101E021F48021016070470AB1AD
:1033E00001617047C1607047014600200968090308
:1033F00000D501207047014600200968C90700D0A8
:1034000001207047406900F03800704702463B4B8E
:1034100000209A4202D2354A103A01E0374A103A67
:103420008B0001D5526800E01268364B1A400A4200
:1034300000D001207047314A904202D22B48103808
:1034400001E02E4810382F4A8B0001EA020101D515
:10345000C1607047816070470B0607D5436912B1A0
:1034600043F0800301E023F080034361802908D00A
:10347000002A026801F01E0101D00A4300E08A43DD
:103480000260704730B51D4A0024904202D2174BAB
:10349000103B01E0194B103B1B4A114205D01E2284
:1034A00002EAD12502682A4002E0406900F0800269
:1034B000880001D5586800E01868124B184008428F
:1034C00001D002B10124204630BD0C4A904202D204
:1034D0000648103801E0094810380A4A8B0001EA12
:1034E000020101D5C16070478160704710600240E1
:1034F0003D000020400F002000003D2010640240ED
:103500003F801CF07D0F7D0F3C0F3C0F8100A1F12F
:10351000C04148B143F2D200C1F800006FF07040E2
:103520004860C1F8040170474FF0204243F2DB00CD
:103530001060F3E710B5D0E901121143D0E903237D
:103540001A4311434269114382691143C26911430D
:10355000026A1143426A1143826A1143C26A1143EB
:10356000026B114302689200A2F1C04211608168AF
:10357000082907D101688900A1F1C0410A6842F019
:1035800040020A60416BD1E9002342EA03128B68D2
:103590008C891B0243EA04431A430B8A42EA035212
:1035A0000B7D896942EA03620A4301688900A1F13F
:1035B000C0414A60C16AB1F5804F08D000686FF021
:1035C00070418000A0F1C040C0F8041110BD816BB3
:1035D000D1E9002342EA03128B680C8A1B0243EAFA
:1035E00004531A430B7D896942EA036200680A4367
:1035F0008000A0F1C040C0F8042110BD10B500212A
:103600000222C0E900128160C160016141618161F3
:10361000D202C161C0E908125200C0E90A21016367
:10362000436B0F221A60436B5A60446BFF23A36005
:10363000446BE260446B2261446B6261446BA16144
:10364000846B2260846B6260846BA360836BDA603E
:10365000836B1A61836B5A61806B816110BD80003E
:10366000A0F1C0400029016802D041F0010101E051
:10367000C44A11400160704710B5182440234FF030
:1036800020414FF0FC32102805D041F8804F4B60AC
:103690008A60CA6010BD0C664B668A66CA6610BD39
:1036A00030B5D0E901121143D0E903231A43114385
:1036B000426941EA4221826941EA4231C26941F0EC
:1036C0000804D2E9001341EA03211389127B1B0489
:1036D00043EA0262036A1143D3E9002542EA052264
:1036E0001D891B7B2D0445EA03631A4303684FF0D1
:1036F0002040102B04D040F8804F8160C26030BD64
:1037000004668166C26630BD1021016000214160FF
:103710008160C160016141618161C269FC21116008
:10372000C2695160C2699160C269D160026A116068
:10373000026A5160026A9160006AC16070474FF08E
:10374000204251B1102804D052F8800F40F00400FC
:103750000AE0106E40F004000AE08A49C91E1028F1
:1037600004D052F8800F084010607047106E084077
:10377000106670474FF0204251B1102804D052F823
:10378000800F40F040000AE0106E40F040000AE078
:103790007C493F39102804D052F8800F084010604F
:1037A0007047106E0840106670474FF02041102897
:1037B00002D0D1F894007047486F70474FF0204016
:1037C000182140F8A01F002141604FF0FC318160BA
:1037D000C1600161704710B5D0E9001241EA422290
:1037E0008168102343EA41310A434FF0204141F8F8
:1037F000A02FC268D2E9003443EA04231489127B63
:10380000240444EA026213438B600269D2E9003463
:1038100043EA04231489127B240444EA026213431A
:10382000CB604069D0E9002342EA03220389007B90
:103830001B0443EA006002430A6110BD00210160DD
:1038400041608160C268FC211160C2685160C26839
:103850009160C268D16002691160026951600269B9
:1038600091600269D16042691160426951604269A8
:1038700091604069C16070474FF02041002851F8C5
:10388000A00F02D040F0040002E03E4AD21E1040D9
:103890000860704710B54FF480744FF0204372B148
:1038A000102804D0A04205D153F8840F04E0586ECC
:1038B00008430DE053F8A40F0843186010BD10280A
:1038C00004D0A04206D153F8840F05E0586E884317
:1038D000586610BD53F8A40F8843EEE70346002056
:1038E0004FF02042102B08D0B3F5807F07D0D2F8DC
:1038F000A4200A4200D001207047526EF9E7D2F8A6
:103900008420F6E74FF02042102807D0B0F5807FE2
:1039100008D052F8A40F884310607047506E884357
:103920005066704752F8840FF5E7034600204FF0C9
:103930002042102B0CD0B3F5807F0BD0D2F8A420FE
:103940000A4202EAD10102D0002900D001207047CA
:10395000526EF5E7D2F88420F2E74FF020421028AB
:1039600008D0B0F5807F0AD052F8A40F20EAD10029
:1039700010607047506E20EAD1005066704752F8D0
:10398000840FF3E7FEFF0F007C4910B5884206D193
:103990000121084600F0F6FB002101204FE07849A4
:1039A000884206D10121022000F0ECFB0021022018
:1039B00045E07449884206D10121042000F0E2FB71
:1039C000002104203BE07049884206D101210820F3
:1039D00000F0D8FB0021082031E06C49884206D174
:1039E0000121102000F0CEFB0021102027E06849C3
:1039F000884206D10121202000F0C4FB00212020B4
:103A00001DE06449884206D10121402000F0BAFB44
:103A10000021402013E06049884206D10121802026
:103A200000F0B0FB0021802009E05C4988420AD107
:103A300084150121204600F0A5FB00212046BDE8A9
:103A4000104000F09FBB10BDF0B5002301240327F8
:103A50000D6804FA03F21540954242D1D0F800C037
:103A60005E0007FA06F52CEA050CC0F800C091F8D4
:103A700004C0D0F800E00CFA06FC4CEA0E0CC0F8CA
:103A800000C091F804C0BCF1010F02D0BCF1020FDC
:103A90001FD1D0F808C02CEA050CC0F808C091F876
:103AA00005C0D0F808E00CFA06FC4CEA0E0CC0F891
:103AB00008C0D0F804C02CEA020CC0F804C0426868
:103AC00091F806C00CFA03FC1FFA8CFC42EA0C02C7
:103AD0004260C268AA43C260CA79C568B2402A433C
:103AE000C2605B1C102BB3D3F0BD4FF6FF710160B9
:103AF0000021017141718171C171704708B541F4B4
:103B000080320092C261C1610099C161C169C0691E
:103B1000009008BD0246002012690A4200D0012030
:103B20007047006980B270470246002052690A421D
:103B300000D001207047406980B270470183704710
:103B4000418370470AB101837047418370474161E7
:103B5000704742694A40426170474B07DB0E9A400A
:103B6000C90810B500EB8100016A0F249C40A143F5
:103B70000162016A1143016210BD000000000240B1
:103B80000004024000080240000C02400010024005
:103B90000014024000180240001C024000200240B5
:103BA000C94910B5884202D101214C050AE0C74934
:103BB000884202D101218C0504E0C54988420AD11E
:103BC0000121CC05204600F0FBFA2046BDE810405C
:103BD000002100F0F5BA10BD7FB5044680880D467F
:103BE00020F03F06684600F037FABA490298B0FB69
:103BF000F1F189B20E43A680228822F001022280D0
:103C0000B54B2A689A421BD85200B0FBF2F080B242
:103C1000042800D20420491C2184A083208840F07D
:103C20000100208021884FF6F5300140A8886A897C
:103C3000104308432080A8892989084320817FBD3B
:103C4000EB88A3F53F46FF3E0BD002EBC20303EB2C
:103C50000212B0FBF2F080B240F48040020506D0C0
:103C600007E002EB4202B0FBF2F080B2F6E740F070
:103C700001004FF4967251434FF47A72B1FBF2F1A6
:103C800040F40040C7E741F28831016000218180A3
:103C90004BF6FF72C280018141814FF480418181E6
:103CA00070470029018802D041F0010101E021F0B4
:103CB0000101018070470029018802D041F4807120
:103CC00001E021F48071018070470029018802D051
:103CD00041F4007101E021F400710180704712B1DC
:103CE00041F0010101E001F0FE010182704700296D
:103CF000018802D041F4806101E021F480610180FB
:103D00007047828901F0FE0122F0FE021143818199
:103D100070470029818902D041F0010101E021F0C2
:103D20000101818170470029018802D041F04001E2
:103D300001E021F04001018070470029018802D094
:103D400041F4004101E0C1F30E01018070470029F8
:103D5000018803D021F080010180704741F080018B
:103D6000FAE7B1F5804F818B02D021F4804101E068
:103D700041F4804181837047B1F5006F018803D021
:103D800021F400610180704741F40061FAE7B1F568
:103D9000005F018803D021F400510180704741F495
:103DA0000051FAE70029018802D041F0100101E03A
:103DB00021F010010180704701827047008AC0B273
:103DC00070470029018802D041F4805101E021F4BC
:103DD000805101807047B1F5006F018803D021F454
:103DE00000610180704741F40061FAE70029018811
:103DF00002D041F0200101E021F020010180704754
:103E0000008B000A70470029818802D041F40061CC
:103E100001E021F40061818070470029818802D08F
:103E200041F4805101E021F480518180704708B550
:103E300008440090008808BD002A828801D00A4307
:103E400000E08A438280704702460020938A128BEA
:103E500043EA024323F07F42914300D1012070479F
:103E6000818A008B41EA004121F07F4070470CB508
:103E70000246002000920A0F21F07F41019202D0F9
:103E8000009A143202E0009A090C1832009212686B
:103E90000A4200D001200CBDC9438182704710B591
:103EA000034600209A884FF4E06404EA11449B8A98
:103EB000224021F07F410B4202D0002A00D0012095
:103EC00010BDC94381827047005400400058004033
:103ED000005C004040420F00A0860100EA480168F3
:103EE00041F001010160E84A0021083211600268D6
:103EF000E64B1A400260031DE54A1A60026822F48C
:103F000080220260E0480C3001607047DE490022E8
:103F1000891C0A7008707047024600205109012967
:103F20000CD002290CD0D8497431096802F01F0264
:103F3000012393400B4200D001207047D249F4E79F
:103F4000D1497031F1E718B500204FF4A06400901A
:103F50003120FFF7E1FF0099491C0091A14201D0F7
:103F60000028F5D03120FFF7D7FF002800D001202E
:103F700018BDC5490A6822F0F80242EAC00008608C
:103F80007047C44908607047BF49002270310A7009
:103F90000A70012802D0042801D10520087070475A
:103FA000BD490860704741EA82115A0810B5BB4B01
:103FB000029C03EB02421143014341EA0460B2490F
:103FC000091D086010BDB34908667047800140EACA
:103FD0000170AD49843108607047AE49886670470A
:103FE000AC49C8647047A84A08321368084323F0F4
:103FF000EC63184310607047A34A08321368084303
:1040000023F078431843106070479F4A08321168C4
:1040100021F003010143116070479B48083000689C
:1040200000F00C007047984A0832116821F0F00146
:10403000014311607047944A0832116821F4E0513D
:10404000014311607047904908310A6822F46042C8
:1040500042EAC0000860704770B58B4A08321168A8
:104060008F4C11F00C0104D06610042903D00829EC
:1040700003D004601BE0066019E08349091D0B684A
:10408000C3F380550B6803F03F0315B1B6FBF3F3A0
:1040900001E0B4FBF3F30C680968C4F388146343CC
:1040A000C1F30141491C4900B3FBF1F10160116802
:1040B0000F2303EA11117B4B5C5C0168E140416016
:1040C0001468072505EA94241C5D21FA04F4846031
:1040D000126805EA52329A5CD140C16070BDC0F3EB
:1040E0000121032908D1684A0832116821F4F81324
:1040F0006D49014019431160634970310A68C0F38A
:104100000B0002430A6070476349443908607047F6
:1041100061494039086070475E49C1F85C017047E9
:10412000594A30320029116801D0014300E081432F
:1041300011607047544A34320029116801D001439C
:1041400000E08143116070474F4A383200291168FE
:1041500001D0014300E08143116070474A4A403278
:104160000029116801D0014300E0814311607047CC
:10417000454A44320029116801D0014300E08143DF
:1041800011607047404A10320029116801D0014384
:1041900000E08143116070473B4A143200291168E6
:1041A00001D0014300E0814311607047364A183264
:1041B0000029116801D0014300E08143116070477C
:1041C000314A20320029116801D0014300E08143C7
:1041D000116070472C4A24320029116801D0014334
:1041E00000E0814311607047274A5032002911686E
:1041F00001D0014300E0814311607047224A5432EC
:104200000029116801D0014300E08143116070472B
:104210001D4A58320029116801D0014300E0814352
:1042200011607047184A60320029116801D00143BB
:1042300000E0814311607047134A6432002911681D
:1042400001D0014300E08143116070470E4A0D32F6
:104250000029117801D0014300E0814311707047BB
:1042600009487430016841F080710160704701466F
:10427000054A00200C3212680A4200D00120704723
:1042800001490E310870704700380240FFFFF6FE0A
:104290001030002400004742800E47420000FFFF1C
:1042A0000024F40020000020FFFCFF0FD04910B5CF
:1042B000884206D101211020FFF78CFF0021102039
:1042C00028E0CC49884202D101214C0410E0CA49BF
:1042D000884202D101218C040AE0C849884202D1F7
:1042E0000121CC0404E0C64988420AD101210C0511
:1042F0002046FFF765FF2046BDE810400021FFF78C
:104300005FBFC049884209D101212020FFF762FF29
:1043100000212020BDE81040FFF75CBF10BD7FB535
:104320000446008A0D4620F44051E8880843208264
:10433000A08941F20C618843A9882A8911436A89BE
:1043400002431143A181A08A20F44071A889084347
:10435000A0826846FFF780FEA548844202D0A948A3
:10436000844201D1039800E00298A189090400EB7E
:10437000C00101EB0010296801D5490000E0890067
:10438000B0FBF1F26420B2FBF0F109010B096FF010
:1043900018056B4302EB8302A3891D044FF032031F
:1043A00006D503EBC202B2FBF0F000F0070005E017
:1043B00003EB0212B2FBF0F000F00F000843208183
:1043C0007FBD4FF41651016000218180C1800181C1
:1043D0000C2242818181704710B5028A4C8822F4F8
:1043E00070630A8822438C88C9880C4322431A438D
:1043F000028210BD0021018041808180C180704710
:104400000029818902D041F4005101E021F40051DA
:1044100081817047028B02F47F420283028B0A4340
:10442000028370470029818902D041F4004101E0F4
:10443000C1F30E01818170470029818A02D041F4C5
:10444000006101E021F4006181827047C94301806D
:1044500070470246002012880A4200D001207047AF
:1044600010B50B46044680212046FFF7F2FF0028D6
:10447000F9D080212046FFF7E9FF40212046FFF7D1
:10448000E5FFC3F30800A08010BD8088C0F30800DA
:104490007047028A22F00F020282028A0A430282D5
:1044A00070470029818902D041F0020101E021F02A
:1044B000020181817047828922F4006282818289AF
:1044C0000A4382817047028A22F020020282028A15
:1044D0000A43028270470029018A02D041F48041D8
:1044E00001E021F4804101827047818941F001019E
:1044F000818170470029818A02D041F0080101E0E2
:1045000021F0080181827047028BD2B20283028BB4
:1045100042EA0121018370470029818A02D041F0DB
:10452000200101E021F02001818270470029818A69
:1045300002D041F0100101E021F0100181827047AA
:10454000828A22F004028282828A0A43828270472F
:104550000029818A02D041F0020101E021F002012C
:1045600081827047002A828A01D00A4300E08A4390
:104570008282704710B5C1F3421301F01F0401217C
:10458000A140012B07D0022B07D01430002A02686B
:1045900005D00A4304E00C30F8E71030F6E78A4310
:1045A000026010BD30B501F01F0201240025C1F3E7
:1045B000421304FA02F2012B0FD0022B0FD0838A90
:1045C0004FEA11210088134204FA01F400EA0400C2
:1045D00001D000B10125284630BD8389F0E7038A68
:1045E000EEE70A0A01219140C943018070470000AB
:1045F000001001400044004000480040004C0040D2
:104600000050004000140140FE4910B588424FF0B0
:10461000010101D14C0601E04FF080642046FFF714
:10462000CFFD2046BDE810400021FFF7C9BD10B501
:104630000368002223F002030360036843F00103D0
:1046400003604FF6FF7300E0521C4468E40701D199
:104650009A42F9D14268D2073ED08A79012A02688B
:104660003CD022F080020260CA79012A026838D068
:1046700022F0400202600A7A012A026834D022F055
:10468000200202604A7A012A026830D022F0100229
:1046900002608A7A012A02682CD022F008020260A5
:1046A000CA7A012A026828D022F0040202608A78BD
:1046B000CC78920742EA04620C7942EA04424C79CF
:1046C000098842EA0452491E0A43C261016821F086
:1046D00001010160002114E0002010BD42F08002C1
:1046E000C1E742F04002C5E742F02002C9E742F0CC
:1046F0001002CDE742F00802D1E742F00402D5E70C
:10470000491C4268D20701D09942F9D14068C007DC
:10471000E2D1012010BDF0B5827A01219140BA4A60
:10472000136843F001031360B74B1C331C688C43C0
:104730001C60B54D067BB54C0C35A6B92E688E4372
:104740002E604688C78846EA0746877A04EBC70783
:10475000C7F840660688878846EA0746877A04EBEA
:10476000C707C7F84466067B012E12D12E680E4398
:104770002E60867A056804EBC6064FEA3545C6F812
:104780004056867A456804EBC6044FEA3545C4F8BE
:1047900044569D4CC57A241D002D256806D00D4336
:1047A0002560994C0589143415B104E08D43F7E771
:1047B00025688D4325600589012D02D125680D43AB
:1047C0002560407B012802D11868084318601068F2
:1047D00020F001001060F0BD00218171C1710172F3
:1047E00041728172C1728170C17003210171022115
:1047F000417101210180704783490A6842F001023A
:104800000A600A6843F60E739A430A600A6842EA2D
:1048100000200860086820F0010008607047002947
:10482000016802D041F4803101E021F4803101605F
:1048300070470029016813D041F080010160D0F871
:10484000841141F48071C0F88411D0F8941141F4BE
:104850008071C0F89411D0F8A41141F4807112E075
:1048600021F080010160D0F8841121F48071C0F83A
:104870008411D0F8941121F48071C0F89411D0F80B
:10488000A41121F48071C0F8A411704730B502461C
:10489000002093685B0108D49068000101D50120D5
:1048A00003E09068C00037D5022002EB0012D2F876
:1048B000803103F00103C2F880310B7A73B3D2F870
:1048C00080414D681C434B7A43EAC5031C43C2F840
:1048D00080418B7A03F00F038B72D2F8843123F07E
:1048E0000F03C2F88431D2F884318C7A2343C2F8A2
:1048F0008431CB7ACC6843EA0423C2F88831CB7B7D
:10490000096943EA0121C2F88C11D2F8801141F003
:104910000101C2F8801130BD042030BDD2F88031D1
:104920004C7A23430C8843EA4453C2F88031D0E7E1
:10493000002221B1012905D0022906D112E08268A6
:10494000334801E08268334802403349501A8A42B2
:1049500014D00ADCA2B16FF0806010180FD00228CA
:104960000CD10FE082682D48EEE7B0F5007F09D04A
:104970002B49401803D0B0F5003F03D0002070470A
:10498000022070470120704741B101290AD0022955
:1049900003D1816841F4000181607047816841F072
:1049A0008001F9E7816841F40041F5E710B500EBBB
:1049B0000113D3F8B04114F004041472D3F8B041D9
:1049C00045D0E408C2F80440D3F8B04104F0020432
:1049D0005472D3F8B44104F00F049472D3F8B44184
:1049E000240AD474D3F8B841D472D3F8B841240A55
:1049F0001473D3F8B841240C5473D3F8B841240E7F
:104A000094730FE0006400400066004000600040C6
:104A10000300000400030008000100080000031068
:104A20000001FFF7D3F8BC41D473D3F8BC41240A8A
:104A30001474D3F8BC41240C5474D3F8BC311B0E4D
:104A4000937439B1016941F02001016110BD640D19
:104A50001460B9E7C16841F02001C16010BD21B107
:104A6000016941F0200101617047C16841F02001F6
:104A7000C16070470246002029B1012902D11069A6
:104A800000F003007047D068FAE700234FF6FF728A
:104A900021B1012917D0022924D03AE0016821F080
:104AA000020141F00101016000E0521E416801F085
:104AB0000301012901D0002AF7D1406800F003006A
:104AC000012823D124E0016821F00301016000E006
:104AD000521E4168890701D0002AF9D14068800739
:104AE00014D115E0016821F0010141F002010160DB
:104AF00000E0521E416801F00301022901D0002AA2
:104B0000F7D1406800F00300022801D0002300E044
:104B10000123184670470268002122F0010242F08A
:104B200002020260406800F00300022800D1012167
:104B30000846704703684FF6FF71002223F0020316
:104B4000036000E0491E43689B0701D50029F9D1A5
:104B50004068800700D40122104670478069C0F386
:104B60000210000170478069000E70478069C0F331
:104B700007407047002A426901D00A4300E08A4397
:104B8000426170470246002011F4700F03D0926911
:104B900004E001207047CB0104D552680A4011039C
:104BA000F7D170470B0101D59268F7E78B0101D56A
:104BB000D268F3E71269F1E7534A914202D100212A
:104BC00081617047C1F313028B0101D5C260704748
:104BD0004B0101D502617047090101D58260704720
:104BE000426070470246002053690B424AD0B1F53B
:104BF000807F3BD013DC08292ED007DC012926D08A
:104C0000022927D004293DD1D0682BE0102925D0D6
:104C1000202926D0402935D11069102130E0B1F586
:104C2000004F2BD00BDCB1F5007F22D0B1F5806FA7
:104C300022D0B1F5006F25D19069702120E0B1F547
:104C4000803F11D0B1F5003F1CD15068E5E7906876
:104C50002E4915E0D06802E0D068DEE71069032134
:104C60000EE0106908210BE05068FBE79069012114
:104C700006E09069022103E0906900E05068042199
:104C800000F03BB8704730B5082310240422B1F57A
:104C9000007F1DD010DC202929D007DC012921D07C
:104CA000042922D0082900D1C46030BD402920D079
:104CB000B1F5807FF9D10BE00025B1F5004F06D0AA
:104CC00008DCB1F5806F03D0B1F5006FEDD18561DF
:104CD000426030BDB1F5803F0DD0B1F5003FF8D155
:104CE000446030BD0949816030BDC36030BD03619F
:104CF00030BD046130BD436030BD024600200A4231
:104D000000D00120704700007000F0300101010068
:104D1000FE4910B5884206D101210846FFF75AFA2C
:104D2000002101205BE0B0F1804F09D0F8498842B2
:104D30000DD101210220FFF743FA0021022070E08B
:104D400001210846FFF73CFA0021012069E0F14902
:104D5000884206D101210420FFF732FA0021042005
:104D60005FE0ED49884206D101210820FFF728FACB
:104D70000021082055E0E949884206D10121102090
:104D8000FFF71EFA002110204BE0E549884206D1CA
:104D900001212020FFF714FA0021202041E0E14901
:104DA000884206D101210220FFF714FA00210220D7
:104DB00015E0DD49884202D101210C040AE0DB49FB
:104DC000884202D101214C0404E0D94988420AD129
:104DD00001218C042046FFF7FDF900212046BDE8A3
:104DE0001040FFF7F7B9D349884206D1012140208E
:104DF000FFF7E6F90021402013E0CF49884206D1B1
:104E000001218020FFF7DCF90021802009E0CB4957
:104E100088420AD1841501212046FFF7D1F90021EB
:104E20002046BDE81040FFF7CBB910BD30B5028871
:104E3000B64BBC4C98420DD0A0420BD0B0F1804F85
:104E400008D0B34DA84205D0B24DA84202D0B24D11
:104E5000A84203D122F070054A882A43AF4DA842E8
:104E600006D0AF4DA84203D022F440750A892A43E8
:104E700002804A68C2620A880285984201D0A04234
:104E800001D1897A01860121818230BD4FF0FF3145
:104E9000416000210180018141808172704701855C
:104EA00082827047028822F070020A4302807047B3
:104EB00041627047C1627047406A7047008D704719
:104EC0000029018802D041F0020101E021F0020135
:104ED000018070470029018802D041F0040101E0FF
:104EE00021F00401018070470029018802D041F0BF
:104EF000800101E021F0800101807047028822F0EA
:104F00000802028002880A4302807047028822F465
:104F10004072028002880A4302807047002901889B
:104F200002D041F0010101E021F001010180704750
:104F300030B5028C22F001020284028C8388048B3B
:104F400022F0020224F073050C882C438D8915434E
:104F50004A882A436D4DA84202D0724DA8420DD115
:104F600022F00805CA8923F440732A4322F004057D
:104F70008A882A430D8A1D434B8A2B4383800483EE
:104F800089684163028430BD70B5028C22F0100242
:104F90000284028C8488038B0D8823F4E6464FF646
:104FA000FF7303EA052535438E8922F0200203EAC8
:104FB000061616434A8803EA02123243534EB042A1
:104FC00002D0584EB04215D122F08006CA8924F48E
:104FD000406403EA0212324322F040068A8803EA60
:104FE000021232430E8A03EA860626434C8A03EAFB
:104FF000840434438480058389688163028470BD9E
:1050000070B5028C22F480720284028C8488838BB7
:105010000D8823F073031D4322F400738E894FF62D
:10502000FF7202EA06261E434B8802EA032333433B
:10503000364EB04202D03B4EB04215D123F400664A
:10504000CB8924F4405402EA0323334323F48066DB
:105050008B8802EA032333430E8A02EA06162643AC
:105060004C8A02EA04143443848085838968C163CE
:10507000038470BD70B5028C22F480520284048CCB
:105080008288838B0D8823F4E6464FF6FF7303EA8C
:105090000525354324F400568C8903EA043434434F
:1050A0004E8803EA06362643184CA04202D01D4C17
:1050B000A04205D122F480440A8A03EA82122243E4
:1050C0008280858389680164068470BD0021018027
:1050D0004180818081608181C181018241827047EC
:1050E00030B50124058C00F118038C40A5430584DC
:1050F00031B308292CD0091FC1F34E0018440168B0
:1051000048F6FF731940016001681AE00000014091
:105110000004004000080040000C00400010004067
:1051200000140040000401400040014000440140E0
:105130000048014000180040001C004000200040D2
:1051400006E04FF6FF7303EA02221143016030BD0F
:1051500003EB510001684FF68F731940016001683D
:10516000F3E74163704781637047C163704701642F
:105170007047028B22F070020A4302837047028B51
:105180004FF6FF7322F4E04203EA01211143018349
:105190007047828B22F070020A4382837047828BB1
:1051A0004FF6FF7322F4E04203EA012111438183A9
:1051B0007047028B22F008020A4302837047028B79
:1051C0004FF6FF7322F4006203EA012111430183C9
:1051D0007047828B22F008020A4382837047828BD9
:1051E0004FF6FF7322F4006203EA01211143818329
:1051F0007047028B22F004020A4302837047028B3D
:105200004FF6FF7322F4806203EA01211143018308
:105210007047828B22F004020A4382837047828B9C
:105220004FF6FF7322F4806203EA01211143818368
:105230007047028B22F080020A4302837047028B80
:105240004FF6FF73C2F30E0203EA012111430183FB
:105250007047828B22F080020A4382837047828BE0
:105260004FF6FF73C2F30E0203EA0121114381835B
:105270007047028C22F002020A4302847047028CBB
:1052800022F008020A4302847047028C4FF6FF7333
:1052900022F0200203EA0111114301847047028CBD
:1052A0004FF6FF7322F0800203EA011111430184DB
:1052B0007047028C4FF6FF7322F4007203EA01215B
:1052C000114301847047028C4FF6FF7322F4006291
:1052D00003EA0121114301847047028C4FF6FF73EA
:1052E00022F4005203EA013111430184704710B5E2
:1052F0000123048C8B409C430484038C8A40134319
:10530000038410BD10B50423048C8B409C4304849B
:10531000038C8A401343038410BD828B22F44062C5
:105320008283828B4FF6FF7303EA01210A43828353
:105330007047828B22F00C028283828B0A43828325
:105340007047028B22F440620283028B4FF6FF7398
:1053500003EA01210A4302837047F0B5048C24F06C
:1053600010040484078B068C4FF6FF7404EA0115C1
:1053700027F4734704EA0331394304EA02220A435B
:1053800026F0A001294341F0100102830184F0BD01
:10539000028B22F00C020283028B0A4302837047C5
:1053A0002DE9F0410D460E884988AA882B890446CC
:1053B0000EB3042E26D0082E268C4FF6FF7028D070
:1053C00026F480562684A78B268C00EA022200EA67
:1053D000013127F473473A4300EA0330104326F4BF
:1053E00020420A4342F48051A0832184E988204668
:1053F000BDE8F04191E700F062F9E9882046BDE898
:10540000F041C5E7FFF7A9FFE9882046BDE8F04174
:1054100097E726F480762684A78B268C00EA012164
:1054200000EA0310104327F0F307384326F4206204
:105430000A4342F48071A0832184E9882046BDE8B4
:10544000F04176E700210180418001228280C18005
:10545000018170472DE9F0410C4600264988074636
:10546000012501B90226A288012A00D1022520883F
:1054700023890028384610D0FFF76FFFE1883846AF
:10548000FFF75FFF23892A463146384600F017F9B7
:10549000E1883846BDE8F0417AE700F010F9E1888C
:1054A0003846FFF775FF23892A4631463846FFF70D
:1054B00054FFE1883846BDE8F04142E7406B704751
:1054C000806B7047C06B7047006C704710B50A88DE
:1054D0004B88CC881A438B8823431A430B891A4381
:1054E0004B8989891A430A43A0F8442010BD002142
:1054F000018041808180C18001814181818170472B
:10550000002930F8441F02D041F4004101E0C1F30A
:105510000E01018070470029818802D041F004010A
:1055200001E021F00401818070470029818802D0C8
:1055300041F0010101E021F0010181807047002A62
:10554000828901D00A4300E08A43828170478182C8
:10555000704702460020128A0A4200D0012070479C
:10556000C9430182704702460020138A92890B4288
:1055700002EA010202D0002A00D001207047C9438C
:10558000018270471143A0F848107047002A8289B1
:1055900001D00A4300E08A43828170470029818854
:1055A00002D041F0080101E021F00801818070473C
:1055B000018921F0070101817047028922F0700200
:1055C0000A430281704700B50346FFF7F6FF1889CA
:1055D00040F00700188100BD70B516460D466029E1
:1055E00004464FF0010231460AD000F068F829461F
:1055F0002046FFF7E2FF208940F00700208170BDC0
:10560000FFF7ABFEF3E730B504894FF6FF7505EA07
:1056100003231343E4B20B432343038130BD10B58E
:105620000446FFF7F0FF208940F07700208110BD8D
:1056300010B50446FFF7E7FF208940F48040208141
:1056400010BD828822F07002828082880A438280A4
:105650007047028922F00702028102890A4302810F
:105660007047028922F08002028102890A43028186
:10567000704770B50589048B068C25F007050D432E
:105680004FF6FC410C4040F201110C434FF6FF7104
:1056900001EA031126F022061143314305810483F8
:1056A000018470BD0029818802D041F0800101E0B1
:1056B00021F0800181807047A0F85010704770B5CC
:1056C000048C24F001040484058B048C4FF6FF76CF
:1056D00006EA0313134325F0F3052B4324F00A02D3
:1056E0000A4342F001010383018470BD0CB5002020
:1056F0005449019000900A6842F480320A604FF4E5
:10570000A0630A6802F400320092019A521C0192CE
:10571000009A12B9019A9A42F3D10A68920334D5D9
:105720000120009047484030026842F080520260F9
:105730004548026842F480420260424808300268EC
:105740000260026842F400420260026842F4A05221
:105750000260031F3D4A1A600A6842F080720A60C4
:105760000A689201FCD53A4A40F20561116001686D
:1057700021F003010160016841F00201016001684C
:10578000C1F381010229FAD10CBD00900CBD314852
:1057900010B5016841F4700101602A48016841F0C8
:1057A00001010160274A00210832116002682A4B7A
:1057B0001A400260031D294A1A60026822F48022FE
:1057C000026020480C300160FFF790FF21494FF044
:1057D00000608039086010BD70B51A4C083420682C
:1057E0001F4A10F00C011F4804D05510042903D0A3
:1057F000082903D002601BE0056019E01149091D6A
:105800000B68C3F380560B6803F03F0316B1B5FB7A
:10581000F3F201E0B2FBF3F20B680968C3F38813FB
:105820005A43C1F30141491C4900B2FBF1F1016047
:1058300021680C4AC1F30311121D515C0268CA4071
:10584000026070BD003802400070004008544007FC
:10585000003C024088ED00E0FFFFF6FE103000241F
:105860000024F40030000020704700000FB4044909
:1058700010B503AA029800F089F910BC5DF814FB7A
:10588000100000200FB41CB5074B06AA7B446946E4
:105890000090059800F04BF90020694600F05AF995
:1058A0001CBC5DF814FB0000C50200002DE9F041AE
:1058B0000E460446002020622046E168884730B347
:1058C000252805D0D4E901219047206A401CF2E741
:1058D000E168204600278847050018D0A5F141005F
:1058E000192802D820354FF4006732462946204651
:1058F0002760FAF783FC40B1012804D0F61D26F09A
:1059000007060836D8E7361DD6E72846DAE7206AC4
:10591000BDE8F08170B50C460546012A05D028780F
:10592000800600D5EA69002302E0012305E05B1C44
:10593000934202D2E05C0028F9D1A869E618C01AA7
:10594000A861286A184428622846AFF3008004E062
:10595000D5E9012114F8010B9047B442F8D3284649
:10596000AFF3008070BD00002DE9F0410646002431
:1059700010687529314616A510D0AFF300800028B5
:1059800002DA404213A507E031688A0701D512A563
:1059900002E0490704D511A5012401E0AFF300801E
:1059A00000210A2206F1240709E0B0FBF2FCB0FB5B
:1059B000F2F302FB1C00303078541846491C0028D2
:1059C000F3D123462A463046BDE8F04100F051B8F5
:1059D000000000002D0000002B000000200000004F
:1059E000032A40F2308010F0030C00F0158011F80B
:1059F000013BBCF1020F624498BF11F801CB00F8E3
:105A0000013B38BF11F8013BA2F1040298BF00F836
:105A100001CB38BF00F8013B11F0030300F0C88050
:105A2000083AC0F0088051F8043B083A51F804CB1A
:105A3000A0E80810F5E7121D5CBF51F8043B40F8E0
:105A4000043BAFF30080D20724BF11F8013B11F8EB
:105A500001CB48BF11F8012B24BF00F8013B00F82F
:105A600001CB48BF00F8012B704770477047704763
:105A700070472DE9F0470D4699469246044600F1DD
:105A800024080168880604D5E06921F0100121602E
:105A900000E00120A84201DD471B00E00027A169CA
:105AA0007A1902EB0900081AA0612078C00602D416
:105AB0002046AFF30080002608E0D4E901211AF85F
:105AC00006009047206A401C761C20624E45F4DB9D
:105AD0002078C0060AD52046AFF3008006E0D4E95E
