:020000040800F2
:1000000028A20020612C00083529000837290008A3
:10001000392900083B2900083D290008000000009C
:100020000000000000000000000000003F29000860
:100030004129000800000000432900084529000864
:100040007B2C00087B2C00087B2C00087B2C0008F4
:100050007B2C00087B2C00087B2C00087B2C0008E4
:100060007B2C00087B2C00087B2C00087B2C0008D4
:100070007B2C00087B2C00087B2C00087B2C0008C4
:100080007B2C00087B2C00087B2C00087B2C0008B4
:10009000112A00087B2C00087B2C00087B2C000810
:1000A0007B2C00087B2C00087B2C00087B2C000894
:1000B0007B2C00087B2C00087B2C00087B2C000884
:1000C0007B2C00087B2C00087B2C00087B2C000874
:1000D0007B2C0008492900087B2C0008E92900082E
:1000E0007B2C00087B2C00087B2C00087B2C000854
:1000F0007B2C00087B2C00087B2C00087B2C000844
:100100007B2C00087B2C00087B2C00087B2C000833
:100110007B2C00087B2C00087B2C00087B2C000823
:100120007B2C0008392A00087B2C00087B2C000857
:100130007B2C00087B2C00087B2C00087B2C000803
:100140007B2C00087B2C00087B2C00087B2C0008F3
:100150007B2C00087B2C00087B2C00087B2C0008E3
:100160007B2C00087B2C00087B2C00087B2C0008D3
:100170007B2C00087B2C00086F2900087B2C0008D2
:100180007B2C00087B2C000800F002F800F044F8FB
:100190000AA090E8000C82448344AAF10107DA45E2
:1001A00001D100F039F8AFF2090EBAE80F0013F0F0
:1001B000010F18BFFB1A43F0010318479C550000BC
:1001C000BC550000103A24BF78C878C1FAD852074D
:1001D00024BF30C830C144BF04680C6070470000C1
:1001E0000023002400250026103A28BF78C1FBD840
:1001F000520728BF30C148BF0B607047642904F024
:100200001385632904F01586002070471FB504F09C
:100210004DFF1FBD10B510BD04F060FE1146FFF785
:10022000F5FF00F011F804F07EFE03B4FFF7F2FFD3
:1002300003BC02F0E1FA000001B585480099C160F5
:10024000C1680029FCD108BD82484FF47A710124AD
:10025000006886B0B0FBF1F0B0F1807F39D220F0B9
:100260007F414FF0E020491E41617B4AF02182F836
:10027000141D002585610721016102A803F03AFDE4
:100280000121084603F09AFD02268DF805608DF8DD
:100290000440724C8DF8065000968DF80750694660
:1002A000204603F01FFA0221204603F097FA4FF48C
:1002B000A06002F0F5FC02F0D7F900F0B6FC4FF4B4
:1002C000784001F0FCFF00F057FB654C10B165A1D0
:1002D00001E0FEE768A1204602F0CBFA46F2680191
:1002E000112004F02DFE0021084601F0CAFF02F0A3
:1002F0002FF90121654802F088FE012002F07EFD01
:10030000012002F086FD4FF4FA70FFF795FF60A11F
:10031000204602F0AEFA6420FFF78EFF4C4C268098
:10032000DFF88081DFF8809165804FF0220A4FF07E
:10033000C04B4FF6FF7720880028FCD126805B4811
:1003400000880128F7D102F0EEFB594908882822DD
:10035000B0FBF2F302FB1300A080012829D050B3B8
:10036000801EE0800888012827D00888801E81B27E
:10037000002001F086FFABF800A0E188002001EB2F
:10038000810108EB811249464FF4A07312F800C0B6
:10039000BCF1FF0F2DD00D80401C80B29842F5D3E8
:1003A000A06842F21071401CA0608842C3DDA560C5
:1003B000C1E72720D5E72620D3E7EF21002001F071
:1003C00060FFABF800A00020424649464FF4A073FE
:1003D00002EB000C0CF5405C9CF8C0C0BCF1FF0FB8
:1003E00005D00D80401C80B29842F1D3D8E70F8031
:1003F000F8E70F80D0E7164841884A1C428041F256
:100400008832914201D900214180C168002902D07F
:10041000C168491EC16070471CB50121082003F066
:10042000CDFC8020009001208DF8040000208DF884
:10043000060003218DF805101E4C8DF80700694653
:10044000204603F04FF98021204603F0C7F91CBD78
:1004500000000020340000200FE000E00000024017
:100460000048004043616D65726120496E697420E7
:100470006661696C7321210043616D657261204979
:100480006E6974204F6B2121000000002864024037
:1004900043616D657261204145435F46756E2E2E46
:1004A0002E000000C8660020000002601E00002030
:1004B0001C000020000C024030B587B00121022052
:1004C00003F07CFC0121880503F096FC904D04228A
:1004D0000A21284603F08FF904220B21284603F055
:1004E0008AF94FF44060049002208DF81400012135
:1004F0008DF8161000248DF815408DF8171004A9FA
:10050000284603F0EFF8834D284603F097F9ADF83D
:1005100004404BF6FF70ADF80600FE20ADF8080071
:100520002815ADF80A000001ADF80C007A480090DB
:100530000121284603F003FA6946284603F09AF998
:100540000121284603F021FA07B030BD2DE9F0471C
:10055000724C8046894620686E4E0121304603F079
:10056000F8F925686E4F01E06D1E30D339463046EC
:1005700003F0B8FA0028F7D0002242213546304671
:1005800003F0FBF92668674F01E0761E1FD339465A
:10059000284603F0A7FA0028F7D041462E46284601
:1005A00003F058FA256837465E4EB61C01E06D1E12
:1005B0000DD33146384603F095FA0028F7D0494666
:1005C000384603F047FA246804E0641E02D2FF2094
:1005D000BDE8F0873146384603F084FA0028F4D0AD
:1005E0000121384603F0BFF90020F1E72DE9F05F63
:1005F0004A4D834689462868464C1434208840F486
:1006000080602080DFF80C810121404603F0A1F9D1
:100610002E68434F01E0761E61D33946404603F011
:1006200061FA0028F7D000224321404603F0A5F9E3
:100630002E68DFF8F0A001E0761E50D35146404608
:1006400003F050FA0028F7D05946404603F002FA6A
:100650002E68DFF8D0A00AF1020A01E0761E3ED330
:100660005146404603F03EFA0028F7D0208840F477
:100670008060208001214646404603F074F9012144
:10068000304603F066F9A8462D6801E06D1E26D3BA
:100690003946304603F026FA0028F7D001224321DC
:1006A0003546304603F069F9D8F800704646DFF861
:1006B000708008F1010801E07F1E10D341462846F2
:1006C00003F010FA0028F7D000212F46284603F047
:1006D0005CF93568124E3F3604E06D1E02D2FF20F1
:1006E000BDE8F09F3146384603F0FCF90028F4D00D
:1006F0000121384603F037F9384603F0ADF989F89F
:100700000000208840F4806020800020E8E700009E
:100710000004024000580040A086010010000020A4
:1007200001000300820007002DE9F04397B001218A
:10073000172003F043FB0121084603F049FBDE4C80
:100740000D220421204603F056F80D2206212046F2
:1007500003F051F8DFF864830D220721404603F0CF
:100760004AF8DFF85C930D220621484603F043F86F
:100770000D220A21204603F03EF80D2208214846AA
:1007800003F039F80D220921484603F034F8CD4F23
:100790000D220421384603F02EF80D220621404692
:1007A00003F029F80D220521384603F024F80D2224
:1007B0000621384603F01FF84FF482600F900220A4
:1007C0008DF8400003268DF8416001258DF84250D8
:1007D0008DF843500FA9204602F084FFC0200F90EF
:1007E0000FA9404602F07EFF4FF450700F900FA902
:1007F000484602F077FF70200F900FA9384602F0AC
:1008000071FF40200F900FA9204602F06BFF0024DB
:100810002020ADF84C008020ADF84840ADF84E00E7
:10082000ADF85040ADF84A40ADF85240ADF85440F4
:1008300012A802F098FA0121082002F0F8FA01212A
:10084000102002F0F4FA0121084602F0F0FA01212A
:10085000042002F0ECFA4E208DF844008DF845405B
:100860008DF846408DF8475011A802F01EFA392045
:100870008DF844008DF845408DF846508DF847506E
:1008800011A802F012FA0121880503F097FA8E4DA3
:10089000284602F0F9FA4FF0007000908B48019062
:1008A0008B48CDE902044FF4C850CDE90404281563
:1008B0000690800007904000089040110990300495
:1008C0000A900420CDE90C640B90694628460E94EA
:1008D00002F062FB01221021284602F00BFC17B047
:1008E000BDE8F0831CB5012003F0C8F901210846DA
:1008F00003F064FA704C00220821204602F07BFFCE
:10090000A015009003208DF8050002208DF804004A
:1009100000208DF8060001208DF80700694620466A
:1009200002F0E0FE4FF0A0614FF4C00003F0A9F91F
:100930001CBD1CB50121084603F040FA04200090BC
:1009400002208DF8050001208DF8040000218DF8AB
:1009500006108DF807006946584802F0C3FE564C51
:100960000421204602F03AFF0A2000F09BF80421FF
:10097000204602F031FF1CBD70B5FFF79DFDFFF76B
:10098000D3FEFFF7AFFF40F6FF76304600F08AF85F
:1009900080211220FFF7DAFD60B9304600F082F8BE
:1009A0004C4D002405EB4400417815F81400FFF786
:1009B000CDFD08B1FF2070BD641CE4B2592CF1D309
:1009C000304600F06FF8002070BD38B50446694627
:1009D0001C20FFF70BFEB8B99DF800002070694697
:1009E0001D20FFF703FE78B99DF80000607069468E
:1009F0000B20FFF7FBFD38B99DF80000A070694699
:100A00000A20FFF7F3FD08B1FF2038BD9DF8000074
:100A1000E070002038BDF0B585B00E460746851859
:100A200001EB430402A90320FFF7E0FD9DF8080055
:100A3000694600F0C0008DF808003220FFF7D6FDAF
:100A40009DF8000005F0070100F0C0008DF80000DF
:100A500040EAC10107F0070001433220FFF776FDAD
:100A6000C7F3C7011720FFF771FDC5F3C7011820B1
:100A7000FFF76CFD9DF8081004F0070041EAC00183
:100A800006F0070001430320FFF760FDC6F3C7012E
:100A90001920FFF75BFDC4F3C7011A20FFF756FDCD
:100AA00005B0F0BD40F2E63302E01946491EFDD222
:100AB000401EFAD2704700000000024000040240CD
:100AC000000802400010024028640240280005503F
:100AD000C8020020B6500008034A02EB01111022A0
:100AE000A1F5007104F0DCB8685100082DE9FC4163
:100AF0000121182003F062F90121084603F072F980
:100B0000DFF884840C220021404602F074FE0C229F
:100B10000121404602F06FFE0C220421404602F003
:100B20006AFE0C220521404602F065FE0C220821D7
:100B3000404602F060FE0C220921404602F05BFEB6
:100B40000C220A21404602F056FE0C220B214046A0
:100B500002F051FE0C220E21404602F04CFE0C2207
:100B60000F21404602F047FE4CF633700090022001
:100B70008DF8040003258DF8055000268DF80660D9
:100B800001248DF807406946404602F0ABFDFF4F57
:100B90000C220221384602F02EFE0C220721384694
:100BA00002F029FE0C220821384602F024FE0C2215
:100BB0000921384602F01FFE0C220A21384602F0B5
:100BC0001AFE0C220B21384602F015FE0C221146AB
:100BD000384602F010FE0C220D21384602F00BFEC2
:100BE0000C220E21384602F006FE0C220F21384658
:100BF00002F001FE4FF6847000906946384602F01C
:100C000071FD8DF8044080208DF8055000908DF81E
:100C100006608DF807406946404602F063FD80217A
:100C2000404602F0DBFDBDE8FC812DE9FC5F0121BF
:100C3000082003F0C3F801258DF804504FF0000898
:100C400080208DF806804FF00309CF4C00908DF87E
:100C500005908DF807506946204602F043FD80213B
:100C6000204602F0BBFDCA4CFFF740FF641EFDD2D8
:100C700001F0BDFC642001F0E0FC4FF0C042002018
:100C80001080C44B1888C449A0F5134C4FF48076EB
:100C9000488041F2180A40F2077440F23F17BCF155
:100CA000250C7DD0A0F5104CBCF54A7CF9D0A0F500
:100CB000134540F2022B203D73D0B0F5134FFBD00B
:100CC000A0F5134C4FF40175BCF1310C6AD0A0F5BE
:100CD000194C40F20558BCF1190C7DD0A0F5A85C68
:100CE000BCF1050C01D0404577D1092008700021E6
:100CF000072004F025F9322001F09FFC4FF48E719B
:100D0000122004F01DF90121A42004F019F90F218B
:100D1000082004F015F908210A2004F011F908212F
:100D20000D2004F00DF92146302004F009F90721C7
:100D3000312004F005F940F20361322004F000F99B
:100D40004FF4E0652946332004F0FAF85946342080
:100D500004F0F6F80221352004F0F2F841F60F71A4
:100D6000362004F0EDF82146372004F0E9F80021A0
:100D7000382004F0E5F80021392004F0E1F821469C
:100D80003A2004F0DDF800213B2004F0D9F80721D7
:100D90003C2004F0D5F800213D2004F0D1F802E019
:100DA000B1E07CE295E1322001F047FC012107200F
:100DB00004F0C6F80121172004F0C2F8322001F037
:100DC0003CFC4FF4BD51102004F0BAF840F217215A
:100DD000112004F0B5F801E006E38BE34FF48F71C6
:100DE000122004F0ADF84FF47061132004F0A8F85D
:100DF00000212A2004F0A4F80A21292004F0A0F8F8
:100E00004FF49F71122004F09BF80021502004F051
:100E100097F8EF21512004F093F80021522004F0BC
:100E20008FF83946532004F08BF84FF41C516020A2
:100E300004F086F80121612004F082F800216A2084
:100E400004F07EF80021802004F07AF8002181204F
:100E500004F076F80021822004F072F8002183204B
:100E600004F06EF80021842004F06AF80021852047
:100E700004F066F81321902004F062F84FF44071FA
:100E8000922004F05DF80521932004F059F8002128
:100E9000952004F055F80021972004F051F8002126
:100EA000982004F04DF83146012004F049F8294615
:100EB000022004F045F841F23001032004F040F82C
:100EC0000021042004F03CF800210C2004F038F844
:100ED00000210F2004F034F80021202004F030F825
:100EE0000021212004F02CF82121072004F028F80B
:100EF000C82001F0A2FB6121072004F021F8C820DE
:100F000001F09BFBFEE30D7047F6F001E52004F0D5
:100F100017F83146012004F013F84FF4E061022085
:100F200004F00EF85146032004F00AF800210420D2
:100F300004F006F840F20721082004F001F800212F
:100F4000092003F0FDFF00210A2003F0F9FF002132
:100F50000C2003F0F5FF00210D2003F0F1FF00212C
:100F60000F2003F0EDFF0021102003F0E9FF07211F
:100F7000112003F0E5FF0021122003F0E1FF002122
:100F8000132003F0DDFF09E0000C024000100240D6
:100F9000FFFF1F0000000260140000200121072055
:100FA00003F0CEFFC82001F048FB41F29001102071
:100FB00003F0C6FF40F22721112003F0C1FF3220C9
:100FC00001F03BFB1F21122003F0BAFF322001F099
:100FD00034FB4FF4A851132003F0B2FF272129203E
:100FE00003F0AEFF0D212B2003F0AAFF322001F009
:100FF00024FB0021202003F0A3FF0021212003F087
:101000009FFF0021302003F09BFF2146312003F099
:1010100097FF40F20731322003F092FF4FF4007146
:10102000352003F08DFF0821362003F089FF0421CD
:10103000372003F085FF0021382003F081FF21468F
:10104000392003F07DFF02213C2003F079FF41F6B7
:1010500004513D2003F074FF0021502003F070FF85
:10106000EF21512003F06CFF0021522003F068FFB4
:101070003946532003F064FF4FF42741602003F00A
:101080005FFF0121612003F05BFF00216A2003F074
:1010900057FF0021802003F053FF0021812003F03F
:1010A0004FFF0021822003F04BFF0021832003F03B
:1010B00047FF0021842003F043FF0021852003F037
:1010C0003FFF1021902003F03BFF4FF4C0619220BE
:1010D000FEE381F8009041F21401E72003F030FFB5
:1010E0003146012003F02CFF4FF40071022003F081
:1010F00027FF41F23001032003F022FF5946082068
:1011000003F01EFF0021092003F01AFF00210A202E
:1011100003F016FF00210C2003F012FF00210D2028
:1011200003F00EFF00210F2003F00AFF0021102022
:1011300003F006FF0721112003F002FF0021122017
:1011400003F0FEFE0021132003F0FAFEC82001F098
:1011500074FA41F29061102003F0F2FE40F2272170
:10116000112003F0EDFE322001F067FA0C2112206D
:1011700003F0E6FE322001F060FA4FF40061132024
:1011800003F0DEFE1121292003F0DAFE0B212B20D3
:1011900003F0D6FE322001F050FA0021202003F0A7
:1011A000CFFE0021212003F0CBFE0021302003F0F0
:1011B000C7FE4FF483763146312003F0C1FE002193
:1011C000322003F0BDFE2946352003F0B9FE41F27E
:1011D0000A61362003F0B4FE2146372003F0B0FE4A
:1011E0003146382003F0ACFE2146392003F0A8FE3A
:1011F00040F202413C2003F0A3FE40F60F413D20A7
:1012000003F09EFE0021502003F09AFEEF215120B2
:1012100003F096FE0021522003F092FE394653203F
:1012200003F08EFE4FF41C51602003F089FE012173
:10123000612003F085FE00216A2003F081FE002179
:10124000802003F07DFE0021812003F079FE002143
:10125000822003F075FE0021832003F071FE00213F
:10126000842003F06DFE0021852003F069FE10212B
:10127000902003F065FE4FF4C061922003F060FE01
:101280002121072003F05CFE322001F0D6F9612114
:10129000072003F055FE322001F0CFF9FEE381F87C
:1012A00000800021084603F04BFE3146012003F088
:1012B00047FE4FF4E061022003F042FE5146032056
:1012C00003F03EFE0021042003F03AFE59460820B8
:1012D00003F036FE0021092003F032FE00210A202F
:1012E00003F02EFE01210C2003F02AFE00210D2028
:1012F00003F026FE00210F2003F022FE642001F0FF
:101300009CF940F20111072003F01AFE642001F05D
:1013100094F94FF48651102003F012FE072111209A
:1013200003F00EFE4FF488742146122003F008FEED
:101330004FF43061132003F003FE0021292003F055
:10134000FFFD44F210012B2003F0FAFD0021502094
:1013500003F0F6FDEF21512003F0F2FD00215220B1
:1013600003F0EEFD3946532003F0EAFD4FF41C5123
:10137000602003F0E5FD0121612003F0E1FD002183
:101380006A2003F0DDFD0021802003F0D9FD00215B
:10139000812003F0D5FD0021822003F0D1FD002142
:1013A000832003F0CDFD0021842003F0C9FD00213E
:1013B000852003F0C5FD1021902003F0C1FD002120
:1013C000922003F0BDFD0121932003F0B9FD2146D9
:1013D000952003F0B5FD0021972003F0B1FD002119
:1013E000982043E30720EDE30D2008700621282014
:1013F00003F0A6FD0121002003F0A2FD0021102032
:1014000003F09EFD47F2EF21012003F099FD4FF418
:10141000C061022003F094FD46F63821032003F05A
:101420008FFD46F67401112003F08AFD00210F2084
:1014300003F086FD45F208310B2003F081FD032106
:101440000C2003F07DFD0A210D2003F079FD4FF4FF
:1014500038510E2003F074FDBE211E2003F070FDF4
:101460004FF40041252003F06BFD4FF4F04126209E
:1014700003F066FD7821272003F062FD00214E2055
:1014800003F05EFD00214F2003F05AFD40F6D90124
:10149000122003F055FD0021302003F051FD4FF4E0
:1014A0008271312003F04CFD3146322003F048FDBB
:1014B00040F205352946332003F042FD41463420F1
:1014C00003F03EFD2946352003F03AFD2146362043
:1014D00003F036FD691F372003F032FD4FF49051C1
:1014E0003A2003F02DFD4FF400613B2003F028FD6E
:1014F000332177E7A0F5094C40F2025940F2023A55
:10150000BCF1890C1DD0A0F5094CBCF1990C7DD023
:10151000A0F5A845083D7AD0A0F58A45313D77D0A1
:10152000A0F58A45353D74D0472873D0A0F5EE4527
:10153000833D70D0672010801888488047286BD082
:10154000FEE3052008700121002003F0F9FC3220A1
:1015500001F073F84AF6A401032003F0F1FC3220F5
:1015600001F06BF800210C2003F0EAFC322001F0BE
:1015700064F840F60C010D2003F0E2FC322001F08B
:101580005CF84FF42C510E2003F0DAFC322001F00D
:1015900054F8B0211E2003F0D3FC322001F04DF8A6
:1015A00042F63F31012003F0CBFC322001F045F838
:1015B0004FF4C061022003F0C3FC322001F03DF87B
:1015C0000021102003F0BCFC322001F036F846F276
:1015D0007001112003F0B4FC322001F02EF800213C
:1015E000052003F0ADFC322001F027F80021062091
:1015F00003F0A6FC322001F020F84EF61C711620F4
:1016000003F09EFC322001F018F806E0CFE08EE1F6
:1016100031E2D8E2FDE37DE3FCE30321172003F090
:101620008FFC322001F009F840F23311072003F05B
:1016300087FC322001F001F800210B2003F080FC30
:10164000322000F0FAFF00210F2003F079FC322055
:1016500000F0F3FF0021412003F072FC322000F083
:10166000ECFF0021422003F06BFC322000F0E5FF8C
:101670000021482003F064FC322000F0DEFF3946F0
:10168000492003F05DFC322000F0D7FF00214A2002
:1016900003F056FC322000F0D0FF00214B2003F075
:1016A0004FFC322000F0C9FF4FF46F41442003F09B
:1016B00047FC322000F0C1FF0021452003F040FC30
:1016C000322000F0BAFF3946462003F039FC3220C0
:1016D00000F0B3FF2146302003F032FC322000F04E
:1016E000ACFF2946312003F02BFC322000F0A5FF8F
:1016F0002946322003F024FC322000F09EFF4C46A5
:10170000494600E0B4E1332003F01AFC322000F037
:1017100094FF40F20751342003F012FC322000F015
:101720008CFF2946352003F00BFC322000F085FFAA
:101730002946362003F004FC322000F07EFF2146CB
:10174000372003F0FDFB322000F077FF544651466E
:101750003A2003F0F5FB322000F06FFF21463B20DA
:1017600003F0EEFB322000F068FF0021232003F09D
:10177000E7FB322000F061FF0021242003F0E0FBB2
:10178000322000F05AFF4FF40041252003F0D8FB2F
:10179000322000F052FF00214F2003F0D1FB002146
:1017A0004E2003F0CDFB46F2580111201BE6042029
:1017B00008700621282003F0C3FB0121002003F05C
:1017C000BFFB4AF6A461032003F0BAFB04210C20FE
:1017D00003F0B6FB0C210D2003F0B2FB4FF42051B7
:1017E0000E2003F0ADFBB5211E2003F0A9FB43F64C
:1017F0003F31012003F0A4FB4FF4C061022003F04D
:101800009FFB0021102003F09BFB46F630011120C6
:1018100003F096FB0021052003F092FB0021062037
:1018200003F08EFB4EF61C71162003F089FB33216A
:10183000072003F085FB00210B2003F081FB002132
:101840000F2003F07DFB0021412003F079FB0021F4
:10185000422003F075FB0021482003F071FB39465C
:10186000492003F06DFB00214A2003F069FB0021B1
:101870004B2003F065FB4FF46F41442003F060FB05
:101880000021452003F05CFB3946462003F058FB5D
:1018900000214E2003F054FB00214F2003F050FBA9
:1018A0002146302003F04CFB5946312003F048FB21
:1018B0002946322003F044FB4C464946332003F0CE
:1018C0003FFB40F20751342003F03AFB294600E089
:1018D0001FE2352003F034FB2946362003F030FBAD
:1018E0002146372003F02CFB544651463A2003F0A2
:1018F00027FB21463B2003F023FB0021232003F09C
:101900001FFB0021242003F01BFB4FF40041252086
:1019100003F016FB4FF4E041262003F011FB4BF2DD
:10192000EB01202003F00CFB7C2127205BE5082045
:1019300008703146012003F003FB4FF4E061022000
:1019400003F0FEFA41F23001032003F0F9FA00211E
:10195000042003F0F5FA40F20721082003F0F0FA22
:101960000021092003F0ECFA00210A2003F0E8FA34
:1019700000210C2003F0E4FA00210D2003F0E0FA2E
:1019800000210F2003F0DCFA322000F056FE40F276
:101990000111072003F0D4FA322000F04EFE41F28C
:1019A000B061102003F0CCFA0121112003F0C8FA35
:1019B0000121172003F0C4FA4FF49C71122003F0A8
:1019C000BFFA4FF40061132003F0BAFA092129206D
:1019D00003F0B6FA09212A2003F0B2FA0021A4206C
:1019E00003F0AEFA0021502003F0AAFAEF215120B3
:1019F00003F0A6FA0021522003F0A2FA3946532040
:101A000003F09EFA4FF41C51602003F099FA032171
:101A1000612003F095FA00216A2003F091FA002179
:101A2000802003F08DFA0021812003F089FA002143
:101A3000822003F085FA0021832003F081FA00213F
:101A4000842003F07DFA0021852003F079FA132128
:101A5000902003F075FA0021922003F071FA03211F
:101A6000932003F06DFA4FF48871952003F068FA23
:101A700040F27311B6E4072008700121002003F042
:101A80005FFA4FF4C561102003F05AFA06211220C4
:101A900003F056FA40F63221132000E0EDE103F0A6
:101AA0004FFA4021112003F04BFA5021152003F08A
:101AB00047FA1621122003F043FA322000F0BDFD50
:101AC00045F26061102003F03BFA322000F0B5FDD2
:101AD00042F64E21132003F033FA3146012003F081
:101AE0002FFA4FF44071022003F02AFA41F230013C
:101AF000032003F025FA5946082003F021FA0021BB
:101B00000A2003F01DFA0021302003F019FA40F2F8
:101B10000241312003F014FA4FF48371322003F0B4
:101B20000FFA4FF4E061332003F00AFA4FF48271A8
:101B3000342003F005FA40F20131352003F000FAB9
:101B40002146362003F0FCF940F20531372003F03E
:101B5000F7F94FF40271382003F0F2F940F60B71F7
:101B6000392003F0EDF9322000F067FD0221412019
:101B700003F0E6F94FF41C51602003F0E1F9012174
:101B8000612003F0DDF940F21911902003F0D8F93B
:101B90004FF48571922003F0D3F90421932003F0D0
:101BA000CFF93146A02003F0CBF9322000F045FDFB
:101BB00040F23311072003F0C3F9322000F03DFD5D
:101BC0000021A02056E30C2008703021152003F0DE
:101BD000B7F910219A2003F0B3F92021112003F066
:101BE000AFF943F22841102003F0AAF90221122094
:101BF00003F0A6F941F23801132003F0A1F92820DF
:101C000000F01BFD1221084603F09AF9282000F08D
:101C100014FD43F22041102003F092F943F24501F4
:101C2000132003F08DF9462000F007FD002130203D
:101C300003F086F940F20241312003F081F940F2CD
:101C40000731322003F07CF94FF44171332003F067
:101C500077F90421342003F073F940F20141352073
:101C600003F06EF92146362003F06AF940F205319F
:101C7000372003F065F94FF4C2642146382003F0A1
:101C80005FF92146392003F05BF93146012003F06A
:101C900057F94FF44071022003F052F941F230013C
:101CA000032003F04DF940F60801082003F048F93D
:101CB00008210A2003F044F94FF41C51602003F07E
:101CC0003FF90121612003F03BF94FF49F7190200F
:101CD00003F036F93146922003F032F93146932071
:101CE00003F02EF94FF44051A02003F029F9102100
:101CF000A32003F025F90121072003F021F9212178
:101D0000072003F01DF92321072003F019F93321DF
:101D10000720B0E0062008700121FF2003F010F931
:101D20000821F32003F00CF93146012003F008F9F3
:101D30004FF4E061022003F003F941F2300100E0CA
:101D40009AE2032003F0FCF85146082003F0F8F86B
:101D500040F20721082003F0F3F80021092003F0E6
:101D6000EFF800210A2003F0EBF80021102003F027
:101D7000E7F80521112003F0E3F80021122003F019
:101D8000DFF80021132003F0DBF8322000F055FCCF
:101D900041F2B021102003F0D3F8322000F04DFCC6
:101DA0000721112003F0CCF8322000F046FC8B21F3
:101DB000122003F0C5F8322000F03FFC4FF4B85178
:101DC000132003F0BDF8322000F037FC2221292037
:101DD00003F0B6F80021302003F0B2F8214631209C
:101DE00003F0AEF84146322003F0AAF840F20711A2
:101DF000352003F0A5F80821362003F0A1F80021D2
:101E0000372003F09DF85C465946382003F098F8D7
:101E100001E035E014E14FF48371392003F090F8CC
:101E200021463C2003F08CF84FF481613D2003F003
:101E300087F8322000F001FC0021502003F080F8E8
:101E4000EF21512003F07CF80021522003F078F8B4
:101E50003946532003F074F84FF42741602003F013
:101E60006FF80121612003F06BF83321902003F01B
:101E700067F80B212B2003F063F840F23311F9E5EA
:101E80000A2008700021EA2003F05AF82021EB20F4
:101E900003F056F80C21EC2003F052F8C421ED2099
:101EA00003F04EF84021E82003F04AF83821E920F9
:101EB00003F046F80121F12003F042F81021F2204E
:101EC00003F03EF8A321272003F03AF80121402037
:101ED00003F036F80021412003F032F800214220BF
:101EE00003F02EF81021432003F02AF80E2144209D
:101EF00003F026F82421452003F022F8042146208F
:101F000003F01EF85021472003F01AF80221482060
:101F100003F016F81321492003F012F819214A2082
:101F200003F00EF819214B2003F00AF816214C207B
:101F300003F006F81B21502003F002F83121512054
:101F400002F0FEFF2F21522002F0FAFF3F21532022
:101F500002F0F6FF3F21542002F0F2FF3E2155200F
:101F600002F0EEFF2F21562002F0EAFF7B215720DE
:101F700002F0E6FF0921582002F0E2FF0621592075
:101F800002F0DEFF06215A2002F0DAFF0C215B206E
:101F900002F0D6FF1D215C2002F0D2FFCC215D2093
:101FA00002F0CEFF18211B2002F0CAFF01211A20E7
:101FB00002F0C6FF1521242002F0C2FF5021252087
:101FC00002F0BEFF8B21232002F0BAFF3621182039
:101FD00002F0B6FF0121192002F0B2FF002101201A
:101FE00002F0AEFF88211F2002F0AAFF322000F08D
:101FF00024FB80211F2002F0A3FF322000F01DFBF4
:1020000090211F2002F09CFF322000F016FBD0210F
:102010001F2002F095FF322000F00FFB0521172052
:1020200002F08EFF0021362002F08AFF382128209E
:1020300002F086FF322000F000FB3C21282019E14D
:102040000B2008700821422002F07AFFB4214620BC
:1020500002F076FF4321472002F072FF132148204F
:1020600002F06EFF4721492002F06AFF14214A2046
:1020700002F066FF36214B2002F062FF03214C2064
:1020800002F05EFF46214D2002F05AFF05214E204E
:1020900002F056FF10214F2002F052FF082150207D
:1020A00002F04EFF0A21512002F04AFF00210220D7
:1020B00002F046FF0021032002F042FF002104202D
:1020C00002F03EFFEF21052002F03AFF002106203A
:1020D00002F036FF0021072002F032FF0121082024
:1020E00002F02EFF3F21092002F02AFF0A2000F013
:1020F000A4FA0621012002F023FFC821162002F0D5
:102100001FFF9521232002F01BFF9521242002F0C0
:1021100017FFFF21252002F013FF0221272002F0E4
:102120000FFF0221282002F00BFF0221292002F0DC
:1021300007FF02212A2002F003FF02212C2002F0D7
:10214000FFFE02212D2002F0FBFE01213A2002F0C9
:10215000F7FE01213B2002F0F3FEF0213C2002F0CB
:10216000EFFE00213D2002F0EBFE142000F065FAA6
:102170003821352002F0E4FE7821362002F0E0FE1E
:1021800038213E2002F0DCFE0F21402002F0D8FE74
:10219000F021412002F0D4FE0021382002F0D0FED0
:1021A0004921192002F0CCFE0A21932002F0C8FE3A
:1021B0000A2000F042FA2021084602F0C1FE032165
:1021C0001D2002F0BDFE00211E2002F0B9FE0921F3
:1021D0001F2002F0B5FE5321442002F0B1FE102171
:1021E000452002F0ADFE0A2000F027FA04211C2051
:1021F00002F0A6FE142000F020FA8021432002F015
:102200009FFE052000F019FA0A211B2002F098FE1B
:10221000282000F012FA12211B2002F091FE282043
:1022200000F00BFA7F21902002F08AFE0421262084
:1022300002F086FE282000F000FA2421262002F079
:102240007FFE2C21262002F07BFE282000F0F5F9ED
:102250000821702002F074FE3C21262002F070FE5E
:102260000221572002F06CFE0021552002F068FE8A
:102270000021572002F064FE322000F0DEF9BDE8B4
:10228000FC9F10B5A0F23F10404284B2F2480078A3
:1022900005280BD0202002F053FE2146212002F019
:1022A0004FFE4FF0C0412220088010BD4E2002F0AA
:1022B00047FE2146BDE810404F2002F041BE70B5F8
:1022C0000546E548002400780A2811D00B280FD0D5
:1022D00000210846FFF7D5FF4FF0C04122200880BB
:1022E000DE484FF496310580641C8C42FBD370BDF0
:1022F0000021022002F024FE0021032002F020FE33
:102300000021042002F01CFEEF21052002F018FE3F
:102310000021062002F014FE0021072002F010FE2A
:102320000121082002F00CFE3F21092002F008FEE6
:10233000D2E710B5FFF7A5FF4FF0C041222008807B
:10234000C5480178C548091F092917D2DFE801F0FF
:10235000050505051616080805000188008810BD4A
:1023600001880288C1F3C7010088D208C0F3870042
:10237000D20242EA4010084380B210BD01880088B2
:10238000C0F34511C20AC00200EB41101044F3E74C
:1023900010B51446B0F5A07F09D2F02907D2FFF797
:1023A00070FF2146BDE81040222002F0C9BD10BDDB
:1023B0002DE9F0471746DDF820A01E460D460446DD
:1023C000B84201D9274694B2B54201D90E469DB212
:1023D000381B711B00B20FFA81F868B1B8F1000F19
:1023E00015D0404531DDC0EB48010EB24FEA48013F
:1023F000404201EB400925E0524629462046FFF7BE
:10240000C7FF6D1CADB2AE42F6D2BDE8F0875246B2
:1024100029462046FFF7BCFF641CA4B2A742F6D2AF
:10242000F3E7524629462046FFF7B2FF641CA4B2E8
:10243000002E04DD6D1CADB209EB060001E006EBD9
:10244000480006B2BC42ECD11BE0C8EB40010FB221
:102450004FEA4801404201EB400910E0524629464C
:102460002046FFF795FF6D1CADB2002F04DD641C04
:10247000A4B209EB070001E007EB480007B2B54240
:10248000ECD1524629462046BDE8F04780E72DE9C9
:10249000FF5F894680469B4611466846FEF71CFB57
:1024A0000025EA4600241AF8057009EB050600BF6E
:1024B000C4F1070027FA00F0C00708EB0400B1B22E
:1024C00080B201D05A4600E00E9AFFF761FF641C0B
:1024D000A4B2082CECD36D1CADB2102DE2D3BDE834
:1024E000FF9F2DE9F8439946089F16460D4604467E
:1024F0004FF49C7816F8012B4B462946204600974E
:10250000FFF7C5FF444502D20834A4B207E0E02D2E
:102510004FF0000402D21035ADB200E00025307853
:102520000028E7D1BDE8F8832DE9FF4115460E46A6
:1025300007461C464AA101A80A9A02F003FB2B4653
:1025400001AA314638460094FFF7CBFFBDE8FF8172
:102550004FF0C0412220088070472DE9FC4700253C
:102560000A9F9A460E460446B2F57A7F05D32A2082
:102570008DF806008DF8050018E00A2092FBF0F1B6
:1025800000FB112130318DF8061092FBF0F191FB28
:10259000F0F300FB131130318DF80510642192FB2C
:1025A000F1F191FBF0F200FB121030308DF80400D5
:1025B0000DF104084FF49C79009718F80520534654
:1025C00031462046FFF763FF4C4502D20834A4B2DF
:1025D00007E0E02E4FF0000402D21036B6B200E061
:1025E00000266D1CEDB2032DE6D3BDE8FC8700B5D7
:1025F00097B000201021CDE902010490090200905B
:102600000190CDE90801069007900A900FA9059066
:1026100014220B90CDE90C01CDE90F20CDE911205A
:102620001390149015900E91684600F0D1FD012191
:10263000002000F062FE17B000BD002240F275439A
:1026400006E00021491C89B29942FBD3521C92B288
:102650008242F6D3704700001400002000000260A0
:102660004650533A2564000070B588B0012104201B
:1026700001F0A4FB0121042001F0A0FB012188044A
:1026800001F0BAFBA84E07220A21304601F0B3F848
:1026900007220B21304601F0AEF802218DF804101C
:1026A00000248DF8064030158DF8051000900125A6
:1026B0008DF807506946304601F014F8E8020090A2
:1026C0008DF806508DF807406946304601F00AF84B
:1026D0004FF46120ADF80C400290ADF80E40ADF81B
:1026E0001040ADF814400C20904CADF8120002A937
:1026F000204601F062FC27208DF818008DF81B5051
:102700008DF819508DF81A504FF4A06000F0C8FAF7
:1027100006A800F0CAFA012240F22551204601F035
:1027200077FD0121204601F0B9FC08B070BDFEB56F
:102730000A2164227D4E6D46002823DB90FBF1F3D5
:1027400001FB13033033ADF8043090FBF1F390FB41
:10275000F2F093FBF1F490FBF1F201FB1433303310
:1027600001FB12003030ADF80230ADF8000000245B
:10277000304635F8141001F0C1FC641CE4B2032C9F
:10278000F6D3FEBD404290FBF1F301FB130330335F
:10279000ADF8043090FBF1F390FBF2F093FBF1F411
:1027A00090FBF1F201FB143301FB12003033ADF862
:1027B00002303030ADF800002D21304601F09EFC93
:1027C0005FF00004304635F8141001F097FC641CEB
:1027D000E4B2032CF6D3FEBD08B527208DF8000027
:1027E00001208DF8010000218DF802108DF8030002
:1027F000684600F05AFA08BD704770B54B4D044664
:10280000C1B2284601F07AFC4021284601F06FFC55
:102810000028F9D0204670BDF0B500260B4635469D
:102820000A2A02D00D701846F0BD00281DD006DA25
:102830004FF02D021A7001F10103C0F100003C4C71
:102840004FF00A07B0FBF4F252EA060C06D002F190
:10285000300603F8016B02FB14000126B4FBF7F409
:10286000002CEFD11D700846F0BD302018704B1CB5
:10287000F8E70FB47FB505460AAC0FE05C2914D029
:1028800002F10102252909921DD0284601F036FCEB
:102890004021284601F02BFC0028F9D0099A117834
:1028A0000029EBD17FBC5DF814FB521C0992107813
:1028B0006E2803D072280BD10D2100E00A21284692
:1028C00001F01CFC16E01078642817D0732802D0A1
:1028D000521C0992DCE740CC09E0284601F00EFCCE
:1028E0004021284601F003FC0028F9D0761C3178FD
:1028F0000029F2D10998401C0990C9E701CC0A22AD
:102900006946FFF789FF6E4609E0284601F0F6FBAD
:102910004021284601F0EBFB0028F9D0761C3178E5
:102920000029F2D1E6E7000000080240004800401C
:1029300000E1F5057047FEE7FEE7FEE7FEE77047BA
:1029400070477047FDF757BD10B5454C40F2255113
:10295000204601F075FC002808D0204601F0E3FB7A
:102960000146BDE810403FA002F0E0B810BD70B5D0
:10297000082000F07BFA494C002528B12580012071
:102980006080082000F07AFA102000F06FFAC8B1D9
:102990006088012805D12088401C20802088401EA6
:1029A000A08021883E4AE08822F81010401C80B2A6
:1029B000E080B0F5A07F00D3E5803A480580102084
:1029C00000F05CFA012000F051FA10B1012000F093
:1029D00055FA042000F04AFA002804D0BDE87040FF
:1029E000042000F04BBA70BD70B51D4C40F2255567
:1029F0002946204601F024FC012808D1294620461A
:102A000001F03DFC2046BDE8704001F08CBB70BD7C
:102A100010B5254C86B00021204601F079FE002833
:102A200008D06A460021204601F00EFE0221204611
:102A300001F077FF06B010BD70B51C4D1C4C294647
:102A4000204600F06DFB002809D02946204600F002
:102A500040FB29462046BDE8704000F084BB70BDB5
:102A6000004800400A0D5553415254204879706582
:102A7000727465726D696E616C20496E74657272F4
:102A8000757074732052656365697665206120777F
:102A90006F72643A2025630A0D0000001C000020BC
:102AA0004800002000000020006400400088001062
:102AB000286402402DE9F0470021DFF88C91DFF80F
:102AC0008CA164274FF4A07C01EB81020AEB8216F3
:102AD000002009EBC21200BF32F81030DB0ADD0023
:102AE00032F8103032F81040C3F345139B0003EB6B
:102AF0008308E406C8EB8313C5EB0515240E03EB2E
:102B0000450304EB440505EBC4042344B3FBF7F38E
:102B10003354401C80B26045DED3491C89B2282959
:102B2000D2D3BDE8F0872DE9F05F00242546264684
:102B30002746FFF7BFFF4648444B4FF4A07904EB0C
:102B40008402002103EB82189A4618F80120491CE0
:102B500089B210F802C049450CF1010C00F802C01E
:102B6000F2D3641CA4B2282CE9D3027800231146C6
:102B7000C45C944200D2224680468C4200D9214651
:102B80005B1C9BB2FF2BF3D9881841083148002405
:102B900083460180002043463BF8141005E000BF47
:102BA00013F800C0401C664480B28142F8D8084641
:102BB00005E000BF13F800C0401C674480B2FF2846
:102BC000F8D9C1F58073B6FBF1F0B7FBF3F3184405
:102BD0000BEB4402C0F34F005080081A02F0C4F916
:102BE00000EE100A9FED1C1B21F0004110EE100AB0
:102BF00053EC112B02F0D0F903D80BEB440085788D
:102C000005E00026641CA4B23746FF2CC2D900217F
:102C1000FF270E4653464C4601EB8102002003EB92
:102C2000821200BF12F800C0AC4501D9175400E071
:102C30001654401C80B2A042F4D3491C89B2282902
:102C4000EAD3BDE8F09F0000C8020020C86600205B
:102C5000C8980020C8990020000000000000F03F44
:102C60000948804709480047FEE7FEE7FEE7FEE720
:102C7000FEE7FEE7FEE7FEE7FEE7FEE7044805495C
:102C8000054A064B704700004F4A000889010008BA
:102C9000289C002028A20020289E0020289E00209A
:102CA0002849084328490860704730B50F22C47886
:102CB00001780123FCB1244C246801F1E02104F4E3
:102CC000E064C4F5E064C4F30724C4F10405E24001
:102CD0004478AC408578154025432A0181F80024CA
:102CE000007800F01F018B404009800000F1E020D7
:102CF000C0F8003130BD01F01F008340480980005A
:102D000000F1E020C0F8803130BD104A114001438D
:102D10000D48001F016070470B4A121D0029116801
:102D200001D0014300E08143116070474FF0E02182
:102D30000428086903D020F004000861704740F0BF
:102D40000400FAE70000FA050CED00E080FFFF1F29
:102D50004C4800210160C1601F2242618161C16154
:102D600001624162704730B5464A116844F201037E
:102D700099431160136840F6F2718B4301884488CF
:102D8000C588214384882C432143048921434489F5
:102D90008089214301431943116030BD0021018026
:102DA00041808180C18001814181818170470168BA
:102DB0004FEA314233490A6240684FEA3040486284
:102DC000704730490028086802D040F0040001E054
:102DD00020F0040008607047C178006861F31F604C
:102DE00028498861704727490028086802D040F0C8
:102DF000080001E020F00800086070472149002821
:102E0000086802D040F4804001E020F4804008606F
:102E100070471C490028086802D040F0010001E01A
:102E200020F00100086070471648806A7047154A14
:102E30000029D16801D0014302E0C04380B20140C3
:102E4000D160704702460020130B0E49012B06D0BB
:102E5000022B06D00969114200D001207047896811
:102E6000F9E74968F7E707494861704705490246AD
:102E700000200969114200D00120704701494861D2
:102E800070470000000005502DE9F043016821F073
:102E9000010101600021016041608160C160016148
:102EA00021214161B849B84A3D251039904202D1EB
:102EB0008D60BDE8F083B44A4FF4746618329042D6
:102EC00001D18E60F5E7B04A4FF47417303290426A
:102ED00001D18F60EDE7AC4A4FF0746C48329042FC
:102EE00002D1C1F808C0E4E7A74BA84A6033984272
:102EF00001D1CA60DDE7A44CA54B7834A04201D1D2
:102F0000CB60D6E7DFF88082A24C08F190084045FC
:102F100001D1CC60CDE7DFF870824FF03D5908F168
:102F2000A808404502D1C1F80C90C2E79A49DFF8E1
:102F300068820839404501D10D60BAE7964D1835D1
:102F4000A84201D10E60B4E7934D3035A84201D1BB
:102F50000F60AEE7904D4835A84202D1C1F800C0DD
:102F6000A7E78D4D8C496035091FA84201D10A6041
:102F70009FE7894A7832904201D10B6099E7864AEF
:102F80009032904201D10C6093E7834AA83290427C
:102F90008FD1C1F800908CE730B503687F4ACC68C8
:102FA00013400A682243D1E905452C432243CC69EA
:102FB00022430C6A22434C6A22438C6A22434C6BA4
:102FC00022438C6B22431A430260426922F00703BA
:102FD000D1E90B2422431A4342610A6942604A68DC
:102FE00082608968C16030BD0021016041608160FC
:102FF000C160016141618161C161016241628162BF
:10300000C16201634163816370470029016802D096
:1030100041F0010101E021F0010101607047002948
:10302000016802D041F4004101E021F40041016057
:1030300070470029016802D041F0200101E021F031
:1030400020010160704741607047406880B270475E
:10305000002A026802D042F4002201E022F4002299
:103060000260016170470029016802D041F48021AB
:1030700001E021F48021016070470AB101617047CD
:10308000C1607047014600200968090300D501208E
:103090007047014600200968C90700D00120704729
:1030A000406900F03800704702463B4B00209A42CE
:1030B00002D2354A103A01E0374A103A8B0001D566
:1030C000526800E01268364B1A400A4200D00120D4
:1030D0007047314A904202D22B48103801E02E4806
:1030E00010382F4A8B0001EA020101D5C1607047F8
:1030F000816070470B0607D5436912B143F0800326
:1031000001E023F080034361802908D0002A02688F
:1031100001F01E0101D00A4300E08A4302607047BB
:1031200030B51D4A0024904202D2174B103B01E0FB
:10313000194B103B1B4A114205D01E2202EAD12531
:1031400002682A4002E0406900F08002880001D550
:10315000586800E01868124B1840084201D002B1CC
:103160000124204630BD0C4A904202D20648103855
:1031700001E0094810380A4A8B0001EA020101D532
:10318000C160704781607047106002403D000020C0
:10319000400F002000003D20106402403F801CF0E2
:1031A0007D0F7D0F3C0F3C0F8100A1F1C04148B164
:1031B00043F2D200C1F800006FF070404860C1F8DF
:1031C000040170474FF0204243F2DB001060F3E748
:1031D00010B5D0E901121143D0E903231A4311437A
:1031E0004269114382691143C2691143026A114362
:1031F000426A1143826A1143C26A1143026B11434E
:1032000002689200A2F1C04211608168082907D1CA
:1032100001688900A1F1C0410A6842F040020A60D9
:10322000416BD1E9002342EA03128B688C891B02AF
:1032300043EA04431A430B8A42EA03520B7D89692D
:1032400042EA03620A4301688900A1F1C0414A6071
:10325000C16AB1F5804F08D000686FF070418000FE
:10326000A0F1C040C0F8041110BD816BD1E900236A
:1032700042EA03128B680C8A1B0243EA04531A4386
:103280000B7D896942EA036200680A438000A0F16D
:10329000C040C0F8042110BD10B500210222C0E9D1
:1032A00000128160C160016141618161D202C1612E
:1032B000C0E908125200C0E90A210163436B0F22E2
:1032C0001A60436B5A60446BFF23A360446BE26057
:1032D000446B2261446B6261446BA161846B226028
:1032E000846B6260846BA360836BDA60836B1A61AA
:1032F000836B5A61806B816110BD8000A0F1C0407A
:103300000029016802D041F0010101E0C44A1140E6
:103310000160704710B5182440234FF020414FF052
:10332000FC32102805D041F8804F4B608A60CA609B
:1033300010BD0C664B668A66CA6610BD30B5D0E912
:1033400001121143D0E903231A431143426941EAB0
:103350004221826941EA4231C26941F00804D2E95E
:10336000001341EA03211389127B1B0443EA026222
:10337000036A1143D3E9002542EA05221D891B7B1C
:103380002D0445EA03631A4303684FF02040102BD5
:1033900004D040F8804F8160C26030BD0466816611
:1033A000C26630BD10210160002141608160C160B2
:1033B000016141618161C269FC211160C269516092
:1033C000C2699160C269D160026A1160026A51608B
:1033D000026A9160006AC16070474FF0204251B1AB
:1033E000102804D052F8800F40F004000AE0106E5C
:1033F00040F004000AE08A49C91E102804D052F89F
:10340000800F084010607047106E084010667047CB
:103410004FF0204251B1102804D052F8800F40F0F4
:1034200040000AE0106E40F040000AE07C493F395D
:10343000102804D052F8800F084010607047106EBA
:103440000840106670474FF02041102802D0D1F894
:1034500094007047486F70474FF02040182140F8A3
:10346000A01F002141604FF0FC318160C16001610B
:10347000704710B5D0E9001241EA4222816810235A
:1034800043EA41310A434FF0204141F8A02FC2687E
:10349000D2E9003443EA04231489127B240444EA69
:1034A000026213438B600269D2E9003443EA0423C9
:1034B0001489127B240444EA02621343CB604069FE
:1034C000D0E9002342EA03220389007B1B0443EA7C
:1034D000006002430A6110BD00210160416081600B
:1034E000C268FC211160C2685160C2689160C26804
:1034F000D1600269116002695160026991600269DC
:10350000D1604269116042695160426991604069CD
:10351000C16070474FF02041002851F8A00F02D041
:1035200040F0040002E03E4AD21E1040086070479E
:1035300010B54FF480744FF0204372B1102804D0BE
:10354000A04205D153F8840F04E0586E08430DE003
:1035500053F8A40F0843186010BD102804D0A042EF
:1035600006D153F8840F05E0586E8843586610BDA5
:1035700053F8A40F8843EEE7034600204FF02042A3
:10358000102B08D0B3F5807F07D0D2F8A4200A42D0
:1035900000D001207047526EF9E7D2F88420F6E798
:1035A0004FF02042102807D0B0F5807F08D052F8A5
:1035B000A40F884310607047506E88435066704770
:1035C00052F8840FF5E7034600204FF02042102BFD
:1035D0000CD0B3F5807F0BD0D2F8A4200A4202EAC7
:1035E000D10102D0002900D001207047526EF5E7CA
:1035F000D2F88420F2E74FF02042102808D0B0F52E
:10360000807F0AD052F8A40F20EAD10010607047E2
:10361000506E20EAD1005066704752F8840FF3E7ED
:10362000FEFF0F007C4910B5884206D101210846F3
:1036300000F0F6FB002101204FE07849884206D1D6
:103640000121022000F0ECFB0021022045E074493A
:10365000884206D10121042000F0E2FB0021042071
:103660003BE07049884206D10121082000F0D8FBD8
:103670000021082031E06C49884206D10121102048
:1036800000F0CEFB0021102027E06849884206D1D7
:103690000121202000F0C4FB002120201DE064490E
:1036A000884206D10121402000F0BAFB00214020D1
:1036B00013E06049884206D10121802000F0B0FB70
:1036C0000021802009E05C4988420AD1841501214B
:1036D000204600F0A5FB00212046BDE8104000F088
:1036E0009FBB10BDF0B50023012403270D6804FA29
:1036F00003F21540954242D1D0F800C05E0007FAAF
:1037000006F52CEA050CC0F800C091F804C0D0F80A
:1037100000E00CFA06FC4CEA0E0CC0F800C091F870
:1037200004C0BCF1010F02D0BCF1020F1FD1D0F8D0
:1037300008C02CEA050CC0F808C091F805C0D0F804
:1037400008E00CFA06FC4CEA0E0CC0F808C0D0F8F1
:1037500004C02CEA020CC0F804C0426891F806C00C
:103760000CFA03FC1FFA8CFC42EA0C024260C268AD
:10377000AA43C260CA79C568B2402A43C2605B1CD2
:10378000102BB3D3F0BD4FF6FF7101600021017122
:1037900041718171C171704708B541F48032009266
:1037A000C261C1610099C161C169C069009008BD71
:1037B0000246002012690A4200D0012070470069C9
:1037C00080B270470246002052690A4200D00120B0
:1037D0007047406980B270470183704741837047EA
:1037E0000AB1018370474183704741617047426964
:1037F0004A40426170474B07DB0E9A40C90810B53A
:1038000000EB8100016A0F249C40A1430162016A20
:103810001143016210BD000000000240000402409C
:1038200000080240000C0240001002400014024058
:1038300000180240001C024000200240C94910B597
:10384000884202D101214C050AE0C749884202D1D1
:1038500001218C0504E0C54988420AD10121CC052B
:10386000204600F0FBFA2046BDE81040002100F0A1
:10387000F5BA10BD7FB5044680880D4620F03F069E
:10388000684600F037FABA490298B0FBF1F189B204
:103890000E43A680228822F001022280B54B2A68BE
:1038A0009A421BD85200B0FBF2F080B2042800D23A
:1038B0000420491C2184A083208840F0010020803E
:1038C00021884FF6F5300140A8886A8910430843E3
:1038D0002080A8892989084320817FBDEB88A3F532
:1038E0003F46FF3E0BD002EBC20303EB0212B0FBDC
:1038F000F2F080B240F48040020506D007E002EB0F
:103900004202B0FBF2F080B2F6E740F001004FF463
:10391000967251434FF47A72B1FBF2F140F40040D9
:10392000C7E741F288310160002181804BF6FF72C8
:10393000C280018141814FF480418181704700291B
:10394000018802D041F0010101E021F00101018074
:1039500070470029018802D041F4807101E021F410
:103960008071018070470029018802D041F4007104
:1039700001E021F400710180704712B141F00101B2
:1039800001E001F0FE01018270470029018802D0A8
:1039900041F4806101E021F48061018070478289F7
:1039A00001F0FE0122F0FE021143818170470029DF
:1039B000818902D041F0010101E021F00101818102
:1039C00070470029018802D041F0400101E021F058
:1039D0004001018070470029018802D041F4004174
:1039E00001E0C1F30E01018070470029018803D076
:1039F00021F080010180704741F08001FAE7B1F5C4
:103A0000804F818B02D021F4804101E041F480415C
:103A100081837047B1F5006F018803D021F4006104
:103A20000180704741F40061FAE7B1F5005F018859
:103A300003D021F400510180704741F40051FAE7AE
:103A40000029018802D041F0100101E021F01001AD
:103A50000180704701827047008AC0B27047002918
:103A6000018802D041F4805101E021F480510180AD
:103A70007047B1F5006F018803D021F40061018027
:103A8000704741F40061FAE70029018802D041F053
:103A9000200101E021F0200101807047008B000A25
:103AA00070470029818802D041F4006101E021F4CF
:103AB0000061818070470029818802D041F48051E3
:103AC00001E021F480518180704708B508440090DE
:103AD000008808BD002A828801D00A4300E08A439A
:103AE0008280704702460020938A128B43EA024389
:103AF00023F07F42914300D101207047818A008BDF
:103B000041EA004121F07F4070470CB50246002099
:103B100000920A0F21F07F41019202D0009A1432E4
:103B200002E0009A090C1832009212680A4200D092
:103B300001200CBDC9438182704710B503460020A7
:103B40009A884FF4E06404EA11449B8A224021F0F1
:103B50007F410B4202D0002A00D0012010BDC94392
:103B6000818270470054004000580040005C0040D3
:103B700040420F00A0860100EA48016841F00101BF
:103B80000160E84A0021083211600268E64B1A40E1
:103B90000260031DE54A1A60026822F48022026076
:103BA000E0480C3001607047DE490022891C0A7031
:103BB0000870704702460020510901290CD00229E3
:103BC0000CD0D8497431096802F01F0201239340D8
:103BD0000B4200D001207047D249F4E7D14970313F
:103BE000F1E718B500204FF4A06400903120FFF7F2
:103BF000E1FF0099491C0091A14201D00028F5D0B5
:103C00003120FFF7D7FF002800D0012018BDC5499B
:103C10000A6822F0F80242EAC00008607047C4490E
:103C200008607047BF49002270310A700A7001288D
:103C300002D0042801D1052008707047BD490860F2
:103C4000704741EA82115A0810B5BB4B029C03EB46
:103C500002421143014341EA0460B249091D086070
:103C600010BDB34908667047800140EA0170AD4954
:103C7000843108607047AE4988667047AC49C864B3
:103C80007047A84A08321368084323F0EC631843CE
:103C900010607047A34A08321368084323F0784342
:103CA0001843106070479F4A0832116821F00301E1
:103CB0000143116070479B480830006800F00C0019
:103CC0007047984A0832116821F0F00101431160F1
:103CD0007047944A0832116821F4E05101431160A1
:103CE0007047904908310A6822F4604242EAC000F5
:103CF0000860704770B58B4A083211688F4C11F01C
:103D00000C0104D06610042903D0082903D00460F4
:103D10001BE0066019E08349091D0B68C3F3805559
:103D20000B6803F03F0315B1B6FBF3F301E0B4FBFE
:103D3000F3F30C680968C4F388146343C1F30141C9
:103D4000491C4900B3FBF1F1016011680F2303EA3C
:103D500011117B4B5C5C0168E140416014680725F0
:103D600005EA94241C5D21FA04F48460126805EAD3
:103D700052329A5CD140C16070BDC0F30121032969
:103D800008D1684A0832116821F4F8136D490140DE
:103D900019431160634970310A68C0F30B00024394
:103DA0000A60704763494439086070476149403987
:103DB000086070475E49C1F85C017047594A30326B
:103DC0000029116801D0014300E081431160704770
:103DD000544A34320029116801D0014300E0814384
:103DE000116070474F4A38320029116801D00143F1
:103DF00000E08143116070474A4A4032002911684F
:103E000001D0014300E0814311607047454A4432CC
:103E10000029116801D0014300E08143116070471F
:103E2000404A10320029116801D0014300E081436B
:103E3000116070473B4A14320029116801D00143D8
:103E400000E0814311607047364A1832002911683A
:103E500001D0014300E0814311607047314A2032B4
:103E60000029116801D0014300E0814311607047CF
:103E70002C4A24320029116801D0014300E081431B
:103E800011607047274A50320029116801D0014360
:103E900000E0814311607047224A543200291168C2
:103EA00001D0014300E08143116070471D4A583240
:103EB0000029116801D0014300E08143116070477F
:103EC000184A60320029116801D0014300E08143A3
:103ED00011607047134A64320029116801D0014310
:103EE00000E08143116070470E4A0D3200291178BD
:103EF00001D0014300E081431170704709487430DC
:103F0000016841F08071016070470146054A002058
:103F10000C3212680A4200D00120704701490E316C
:103F20000870704700380240FFFFF6FE1030002492
:103F300000004742800E47420000FFFF0024F400CB
:103F400024000020FFFCFF0FD04910B5884206D1A5
:103F500001211020FFF78CFF0021102028E0CC4920
:103F6000884202D101214C0410E0CA49884202D1A2
:103F700001218C040AE0C849884202D10121CC0405
:103F800004E0C64988420AD101210C052046FFF70A
:103F900065FF2046BDE810400021FFF75FBFC04924
:103FA000884209D101212020FFF762FF0021202053
:103FB000BDE81040FFF75CBF10BD7FB50446008A26
:103FC0000D4620F44051E88808432082A08941F240
:103FD0000C618843A9882A8911436A8902431143E5
:103FE000A181A08A20F44071A8890843A082684674
:103FF000FFF780FEA548844202D0A948844201D13F
:10400000039800E00298A189090400EBC00101EBCC
:104010000010296801D5490000E08900B0FBF1F2E9
:104020006420B2FBF0F109010B096FF018056B4336
:1040300002EB8302A3891D044FF0320306D503EB84
:10404000C202B2FBF0F000F0070005E003EB021241
:10405000B2FBF0F000F00F00084320817FBD4FF469
:104060001651016000218180C18001810C224281B2
:104070008181704710B5028A4C8822F470630A88E7
:1040800022438C88C9880C4322431A43028210BD04
:104090000021018041808180C18070470029818991
:1040A00002D041F4005101E021F4005181817047B8
:1040B000028B02F47F420283028B0A430283704721
:1040C0000029818902D041F4004101E0C1F30E01D1
:1040D000818170470029818A02D041F4006101E0AA
:1040E00021F4006181827047C94301807047024614
:1040F000002012880A4200D00120704710B50B46FC
:10410000044680212046FFF7F2FF0028F9D08021E5
:104110002046FFF7E9FF40212046FFF7E5FFC3F304
:104120000800A08010BD8088C0F308007047028A94
:1041300022F00F020282028A0A430282704700299B
:10414000818902D041F0020101E021F00201818168
:104150007047828922F40062828182890A438281C7
:104160007047028A22F020020282028A0A430282F7
:1041700070470029018A02D041F4804101E021F416
:10418000804101827047818941F00101818170473E
:104190000029818A02D041F0080101E021F00801E4
:1041A00081827047028BD2B20283028B42EA0121E4
:1041B000018370470029818A02D041F0200101E08B
:1041C00021F02001818270470029818A02D041F0CC
:1041D000100101E021F0100181827047828A22F0F3
:1041E00004028282828A0A43828270470029818A7D
:1041F00002D041F0020101E021F00201818270470A
:10420000002A828A01D00A4300E08A4382827047F2
:1042100010B5C1F3421301F01F040121A140012B8D
:1042200007D0022B07D01430002A026805D00A43B9
:1042300004E00C30F8E71030F6E78A43026010BD66
:1042400030B501F01F0201240025C1F3421304FA26
:1042500002F2012B0FD0022B0FD0838A4FEA1121DB
:104260000088134204FA01F400EA040001D000B10E
:104270000125284630BD8389F0E7038AEEE70A0A64
:1042800001219140C94301807047000000100140A6
:104290000044004000480040004C004000500040F6
:1042A00000140140FE4910B588424FF0010101D1D0
:1042B0004C0601E04FF080642046FFF7CFFD20461A
:1042C000BDE810400021FFF7C9BD10B5036800220A
:1042D00023F002030360036843F0010303604FF619
:1042E000FF7300E0521C4468E40701D19A42F9D1FF
:1042F0004268D2073ED08A79012A02683CD022F077
:1043000080020260CA79012A026838D022F0400295
:1043100002600A7A012A026834D022F02002026088
:104320004A7A012A026830D022F0100202608A7AAA
:10433000012A02682CD022F008020260CA7A012AFF
:10434000026828D022F0040202608A78CC789207B2
:1043500042EA04620C7942EA04424C79098842EA52
:104360000452491E0A43C261016821F00101016043
:10437000002114E0002010BD42F08002C1E742F0AD
:104380004002C5E742F02002C9E742F01002CDE743
:1043900042F00802D1E742F00402D5E7491C426826
:1043A000D20701D09942F9D14068C007E2D101207B
:1043B00010BDF0B5827A01219140BA4A136843F0EA
:1043C00001031360B74B1C331C688C431C60B54D54
:1043D000067BB54C0C35A6B92E688E432E604688F8
:1043E000C78846EA0746877A04EBC707C7F84066DE
:1043F0000688878846EA0746877A04EBC707C7F826
:104400004466067B012E12D12E680E432E60867AFA
:10441000056804EBC6064FEA3545C6F84056867A6D
:10442000456804EBC6044FEA3545C4F844569D4C34
:10443000C57A241D002D256806D00D432560994CB2
:104440000589143415B104E08D43F7E725688D43E1
:1044500025600589012D02D125680D432560407B2B
:10446000012802D1186808431860106820F0010084
:104470001060F0BD00218171C171017241728172C1
:10448000C1728170C170032101710221417101214A
:104490000180704783490A6842F001020A600A6895
:1044A00043F60E739A430A600A6842EA00200860E5
:1044B000086820F00100086070470029016802D0F8
:1044C00041F4803101E021F480310160704700291E
:1044D000016813D041F080010160D0F8841141F4EB
:1044E0008071C0F88411D0F8941141F48071C0F843
:1044F0009411D0F8A41141F4807112E021F08001F0
:104500000160D0F8841121F48071C0F88411D0F8D2
:10451000941121F48071C0F89411D0F8A41121F401
:104520008071C0F8A411704730B50246002093682E
:104530005B0108D49068000101D5012003E0906878
:10454000C00037D5022002EB0012D2F8803103F010
:104550000103C2F880310B7A73B3D2F880414D6801
:104560001C434B7A43EAC5031C43C2F880418B7A53
:1045700003F00F038B72D2F8843123F00F03C2F8DB
:104580008431D2F884318C7A2343C2F88431CB7AD7
:10459000CC6843EA0423C2F88831CB7B096943EA3B
:1045A0000121C2F88C11D2F8801141F00101C2F84A
:1045B000801130BD042030BDD2F880314C7A2343C5
:1045C0000C8843EA4453C2F88031D0E7002221B17D
:1045D000012905D0022906D112E08268334801E0A2
:1045E0008268334802403349501A8A4214D00ADCA8
:1045F000A2B16FF0806010180FD002280CD10FE02C
:1046000082682D48EEE7B0F5007F09D02B494018AD
:1046100003D0B0F5003F03D0002070470220704760
:104620000120704741B101290AD0022903D18168D4
:1046300041F4000181607047816841F08001F9E731
:10464000816841F40041F5E710B500EB0113D3F8A0
:10465000B04114F004041472D3F8B04145D0E4081A
:10466000C2F80440D3F8B04104F002045472D3F805
:10467000B44104F00F049472D3F8B441240AD47402
:10468000D3F8B841D472D3F8B841240A1473D3F8DC
:10469000B841240C5473D3F8B841240E94730FE03E
:1046A0000064004000660040006000400300000419
:1046B0000003000800010008000003100001FFF7DC
:1046C000D3F8BC41D473D3F8BC41240A1474D3F892
:1046D000BC41240C5474D3F8BC311B0E937439B113
:1046E000016941F02001016110BD640D1460B9E75A
:1046F000C16841F02001C16010BD21B1016941F0E4
:10470000200101617047C16841F02001C16070471C
:104710000246002029B1012902D1106900F00300EE
:104720007047D068FAE700234FF6FF7221B10129E4
:1047300017D0022924D03AE0016821F0020141F0AB
:104740000101016000E0521E416801F003010129EE
:1047500001D0002AF7D1406800F00300012823D1DE
:1047600024E0016821F00301016000E0521E41686D
:10477000890701D0002AF9D14068800714D115E0DB
:10478000016821F0010141F00201016000E0521EC8
:10479000416801F00301022901D0002AF7D14068E5
:1047A00000F00300022801D0002300E00123184696
:1047B00070470268002122F0010242F0020202600A
:1047C000406800F00300022800D10121084670472C
:1047D00003684FF6FF71002223F00203036000E03C
:1047E000491E43689B0701D50029F9D1406880071D
:1047F00000D40122104670478069C0F30210000106
:1048000070478069000E70478069C0F307407047A9
:10481000002A426901D00A4300E08A43426170479E
:104820000246002011F4700F03D0926904E00120C9
:104830007047CB0104D552680A401103F7D1704785
:104840000B0101D59268F7E78B0101D5D268F3E738
:104850001269F1E7534A914202D100218161704708
:10486000C1F313028B0101D5C26070474B0101D522
:1048700002617047090101D582607047426070474C
:104880000246002053690B424AD0B1F5807F3BD0ED
:1048900013DC08292ED007DC012926D0022927D0D5
:1048A00004293DD1D0682BE0102925D0202926D01D
:1048B000402935D11069102130E0B1F5004F2BD0DF
:1048C0000BDCB1F5007F22D0B1F5806F22D0B1F5BD
:1048D000006F25D19069702120E0B1F5803F11D0A3
:1048E000B1F5003F1CD15068E5E790682E4915E00E
:1048F000D06802E0D068DEE7106903210EE010699D
:1049000008210BE05068FBE79069012106E09069FF
:10491000022103E0906900E05068042100F03BB8F8
:10492000704730B5082310240422B1F5007F1DD054
:1049300010DC202929D007DC012921D0042922D02C
:10494000082900D1C46030BD402920D0B1F5807F56
:10495000F9D10BE00025B1F5004F06D008DCB1F528
:10496000806F03D0B1F5006FEDD18561426030BD3D
:10497000B1F5803F0DD0B1F5003FF8D1446030BDB6
:104980000949816030BDC36030BD036130BD046141
:1049900030BD436030BD024600200A4200D00120F5
:1049A000704700007000F030010101000CB50020DC
:1049B0005449019000900A6842F480320A604FF432
:1049C000A0630A6802F400320092019A521C01921C
:1049D000009A12B9019A9A42F3D10A68920334D527
:1049E0000120009047484030026842F08052026047
:1049F0004548026842F4804202604248083002683A
:104A00000260026842F400420260026842F4A0526E
:104A10000260031F3D4A1A600A6842F080720A6011
:104A20000A689201FCD53A4A40F2056111600168BA
:104A300021F003010160016841F002010160016899
:104A4000C1F381010229FAD10CBD00900CBD31489F
:104A500010B5016841F4700101602A48016841F015
:104A600001010160274A00210832116002682A4BC7
:104A70001A400260031D294A1A60026822F480224B
:104A8000026020480C300160FFF790FF21494FF091
:104A900000608039086010BD70B51A4C0834206879
:104AA0001F4A10F00C011F4804D05510042903D0F0
:104AB000082903D002601BE0056019E01149091DB7
:104AC0000B68C3F380560B6803F03F0316B1B5FBC8
:104AD000F3F201E0B2FBF3F20B680968C3F3881349
:104AE0005A43C1F30141491C4900B2FBF1F1016095
:104AF00021680C4AC1F30311121D515C0268CA40BF
:104B0000026070BD00380240007000400854400749
:104B1000003C024088ED00E0FFFFF6FE103000246C
:104B20000024F40034000020704700000FB4044952
:104B300010B503AA029800F089F910BC5DF814FBC7
:104B4000180000200FB41CB5074B06AA7B44694629
:104B50000090059800F04BF90020694600F05AF9E2
:104B60001CBC5DF814FB0000C50200002DE9F041FB
:104B70000E460446002020622046E168884730B394
:104B8000252805D0D4E901219047206A401CF2E78E
:104B9000E168204600278847050018D0A5F14100AC
:104BA000192802D820354FF400673246294620469E
:104BB0002760FBF723FB40B1012804D0F61D26F047
:104BC00007060836D8E7361DD6E72846DAE7206A12
:104BD000BDE8F08170B50C460546012A05D028785D
:104BE000800600D5EA69002302E0012305E05B1C92
:104BF000934202D2E05C0028F9D1A869E618C01AF5
:104C0000A861286A184428622846AFF3008004E0AF
:104C1000D5E9012114F8010B9047B442F8D3284696
:104C2000AFF3008070BD00002DE9F041064600247E
:104C300010687529314616A510D0AFF30080002802
:104C400002DA404213A507E031688A0701D512A5B0
:104C500002E0490704D511A5012401E0AFF300806B
:104C600000210A2206F1240709E0B0FBF2FCB0FBA8
:104C7000F2F302FB1C00303078541846491C00281F
:104C8000F3D123462A463046BDE8F04100F051B842
:104C9000000000002D0000002B000000200000009C
:104CA000032A40F2308010F0030C00F0158011F858
:104CB000013BBCF1020F624498BF11F801CB00F830
:104CC000013B38BF11F8013BA2F1040298BF00F884
:104CD00001CB38BF00F8013B11F0030300F0C8809E
:104CE000083AC0F0088051F8043B083A51F804CB68
:104CF000A0E80810F5E7121D5CBF51F8043B40F82E
:104D0000043BAFF30080D20724BF11F8013B11F838
:104D100001CB48BF11F8012B24BF00F8013B00F87C
:104D200001CB48BF00F8012B7047704770477047B0
:104D300070472DE9F0470D4699469246044600F12A
:104D400024080168880604D5E06921F0100121607B
:104D500000E00120A84201DD471B00E00027A16917
:104D60007A1902EB0900081AA0612078C00602D463
:104D70002046AFF30080002608E0D4E901211AF8AC
:104D800006009047206A401C761C20624E45F4DBEA
:104D90002078C0060AD52046AFF3008006E0D4E9AB
:104DA000012130209047206A401C2062381EA7F164
:104DB0000107F4DC07E0D4E9012118F80500904769
:104DC000206A401C2062281EA5F10105F3DC204664
:104DD000AFF300802078000602D50220BDE8F087FE
:104DE0000120FBE701694A1C02610878704700B5A1
:104DF0008FB0CDE901310021059105497944CDE914
:104E0000031011466846FFF7B1FE0FB000BD000069
:104E1000E5FFFFFF0A6802F8010B0A60704710B552
:104E2000436913B1AFF3008001E0FFF7D3FE012027
:104E300010BD127800F124010A7000224A7001228C
:104E4000EDE711684FF0FF32E9E70000074B70B55E
:104E50000D467B44FFF7CBFF0446284600F03AF8A6
:104E600010B14FF0FF3070BD204670BDA5D9FFFFD7
:104E700010B5203AC0F00B80B1E81850203AA0E8F5
:104E80001850B1E81850A0E81850BFF4F5AF5FEA29
:104E9000027C24BFB1E81850A0E8185044BF18C9DC
:104EA00018C0BDE810405FEA827C24BF51F8043B83
:104EB00040F8043B08BF7047D20728BF31F8023BD7
:104EC00048BF11F8012B28BF20F8023B48BF00F86B
:104ED000012B7047007B00F080007047754600F0A2
:104EE0002BF8AE4605006946534620F0070085467C
:104EF00018B020B5FDF7C2FEBDE820404FF0000617
:104F00004FF000074FF000084FF0000B21F00701B1
:104F1000AC46ACE8C009ACE8C009ACE8C009ACE8F4
:104F2000C0098D46704710B50446AFF30080204697
:104F3000BDE81040FBF779B900487047C89B0020D6
:104F40004FF0C042108001480180704700000260AD
:104F5000491058BFC1F140415B1058BFC3F14043F5
:104F60008B42EFF30080704710F0004248BF404290
:104F7000B0FA80F310FA03F10AD0C3F11D0303F570
:104F800080634FEA415002EB035202EBD12170479C
:104F90004FF000007047000051EA030C17D41CF5D5
:104FA000801F58BFBCF5801F00F10680994218BFD2
:104FB000704708BF9042704707D711F5801F58BF50
:104FC00013F5801F19D499427047894270471CF528
:104FD000801F08D5BCF5801FF7D58B4218BF7047DE
:104FE00008BF824270474FF4001C1CEB410F38BFD2
:104FF0001CEB430F01D28B42704770B500F008F8EC
:10500000922449004FF000514FF08053FFF7A0BFAA
:105010000EF1020E2EF0030E5EF8046B364205D43C
:10502000012A43EB030515F5001F12D8012841EBB7
:10503000010C1CF5001F0CD80ED14FEAD17C15F5E0
:10504000001F0CEB4C0C0CF1020C08BF4CEBD37C9A
:1050500004E04FF0080C01E04FEAD37C0CEB4C0568
:1050600026FA05F606F00706B6F1040C06D20EEB9A
:10507000860CBDE870404CF0010C6047DFE80CF096
:10508000090B02024FF000414FF00000A1F5002192
:1050900070BD19461046012851EB010418BFD4F524
:1050A000001484BF002001F0004170BD4FF040703B
:1050B000E1EE100A704712463EE6427F4D0063C0A3
:1050C000695C6B20029D038301E608F010281F0035
:1050D000645F65006600670013F00F011406247515
:1050E000256326D122982303AC608E009100942C76
:1050F000952496089714982499389A9E15008F0045
:105100009000920093009C309B00A900AA00A78009
:10511000A8809E81A6277E0C7F16802A814E826100
:10512000836F847B8586868E879788A489AF8AC59E
:105130008BD78CE88D200E0111060DC12A002B00A3
:1051400033003400173F1850295019031A782C786F
:10515000320049114AA04B604C60460547080C20BC
:105160000903000000000000000000000000000033
:105170000000000000000000000000183C3C3C184B
:1051800018001818000000000000006666660000A5
:10519000000000000000000000000036367F3636B8
:1051A000367F3636000000000018183C6660301864
:1051B0000C06663C18180000000070D8DA760C184F
:1051C000306E5B1B0E000000000000386C6C386015
:1051D0006F66663B00000000000000181818000011
:1051E00000000000000000000000000C1818303023
:1051F00030303018180C00000000003018180C0C6B
:105200000C0C0C18183000000000000000361C7F49
:105210001C36000000000000000000000018187E8E
:10522000181800000000000000000000000000004E
:1052300000001C1C0C180000000000000000007E94
:10524000000000000000000000000000000000005E
:1052500000001C1C0000000000000006060C0C18DA
:1052600018303060600000000000001E3337373314
:105270003B3B331E000000000000000C1C7C0C0CAB
:105280000C0C0C0C000000000000003C6666060CD4
:105290001830607E000000000000003C6666061CBE
:1052A0000666663C000000000000003030363636EE
:1052B000667F0606000000000000007E6060607CE3
:1052C00006060C78000000000000001C18307C6608
:1052D0006666663C000000000000007E060C0C18AC
:1052E00018303030000000000000003C6666763C5C
:1052F0006E66663C000000000000003C6666666664
:105300003E0C18380000000000000000001C1C00CB
:1053100000001C1C0000000000000000001C1C001D
:1053200000001C1C0C180000000000060C18306067
:1053300030180C06000000000000000000007E0095
:105340007E000000000000000000006030180C0625
:105350000C183060000000000000003C66660C186D
:1053600018001818000000000000007EC3C3CFDB47
:10537000DBCFC07F00000000000000183C666666BE
:105380007E666666000000000000007C6666667C43
:105390006666667C000000000000003C6666606097
:1053A0006066663C00000000000000786C6666667F
:1053B00066666C78000000000000007E6060607C23
:1053C0006060607E000000000000007E6060607C25
:1053D00060606060000000000000003C6666606085
:1053E0006E66663E00000000000000666666667E2F
:1053F00066666666000000000000003C1818181879
:105400001818183C000000000000000606060606FA
:105410000666663C0000000000000066666C6C7862
:105420006C6C6666000000000000006060606060F8
:105430006060607E000000000000006363776B6BBB
:105440006B636363000000000000006363737B6FA5
:1054500067636363000000000000003C66666666E8
:105460006666663C000000000000007C6666667CA4
:1054700060606060000000000000003C66666666D8
:105480006666663C0C0600000000007C6666667C72
:105490006C666666000000000000003C6660301824
:1054A0000C06663C000000000000007E181818186A
:1054B000181818180000000000000066666666668E
:1054C0006666663C00000000000000666666666670
:1054D00066663C18000000000000006363636B6BAD
:1054E0006B3636360000000000000066663418187F
:1054F0002C66666600000000000000666666663C7A
:1055000018181818000000000000007E06060C188D
:105510003060607E000000000000003C3030303021
:105520003030303030303C000000006060303018E7
:10553000180C0C06060000000000003C0C0C0C0CC3
:105540000C0C0C0C0C0C3C0000183C66000000001D
:10555000000000000000000000000000000000004B
:10556000000000000000FF000000001818180000F4
:10557000000000000000000000000000003C0606E3
:105580003E66663E0000000000000060607C6666CB
:105590006666667C0000000000000000003C66605B
:1055A0006060663C0000000000000006063E666683
:1055B0006666663E0000000000000000003C666673
:1055C0007E60603C000000000000001E3030307E35
:1055D000303030300000000000000000003E666601
:1055E0006666663E06067C0000000060607C6666BB
:1055F000666666660000000000001818007818183B
:105600001818187E0000000000000C0C003C0C0C68
:105610000C0C0C0C0C0C7800000000606066666CD2
:10562000786C6666000000000000007818181818F2
:105630001818187E0000000000000000007E6B6B50
:105640006B6B6B630000000000000000007C66666E
:10565000666666660000000000000000003C6666AA
:105660006666663C0000000000000000007C666684
:105670006666667C6060600000000000003E666652
:105680006666663E060606000000000000666E7054
:10569000606060600000000000000000003E60608C
:1056A0003C06067C0000000000000030307E3030F8
:1056B0003030301E0000000000000000006666660A
:1056C0006666663E00000000000000000066666638
:1056D00066663C18000000000000000000636B6B71
:1056E0006B6B363600000000000000000066663C70
:1056F000183C666600000000000000000066666658
:105700006666663C0C18F00000000000007E060C87
:105710001830607E000000000000000C18181830DF
:1057200060301818180C000000000018181818181D
:105730001818181818181800000000301818180C3D
:10574000060C18181830000000000071DB8E0000F5
:105750000000000000000000785700080000002052
:1057600048000000C4010008C0570008480000209D
:10577000E0A10000E00100080000000000000000BF
:1057800000000000000000001027000000000000E2
:105790000000000000000000000000000000000009
:1057A000010203040102030406070809007A030A40
:1057B00000000000000000000102030406070809C1
:040000050800018965
:00000001FF
